:100000004FEF00F00000000000EF00F000000000E3
:0A0010000000000000000000F3D71C
:06001C008998928A12008F
:100022008994898A929A8988020E0B6EA00E0C6EB0
:10003200920E0D6E0D2EFED70C2EFCD70B2EFAD77C
:0A00420000008998928AE9DF12009D
:10004C0089848998899A929A020E0B6EA00E0C6E76
:10005C00920E0D6E0D2EFED70C2EFCD70B2EFAD752
:08006C000000928AD5DF1200AA
:10007400070EB46E0F0EC16E600ED36E9B8C806A39
:10008400816A826A896A8A6A8B6A230E926E010E79
:0A009400936E946A8994C0DF120095
:10009E00EADF81B026D09C0E0C6ED70E0D6E0D2EA3
:1000AE00FED70C2EFCD781B01CD0156A166A81B013
:1000BE000FD0340E0C6EF10E0D6E0D2EFED70C2ED3
:1000CE00FCD7000000000A0E1526000E1622EFD7F0
:1000DE00050E165C02E1DC0E155C02E39BDF01D01F
:0600EE00AEDFD7D7FFD7FB
:020000040030CA
:0D000100081F1EFF0381FF0FC00FE00F401E
:00000001FF
