:1000000040EF00F00000000000EF00F000000000F2
:0A0010000000000000000000F3D71C
:10001C00016A026A1650025C02E11550015C0DE2A5
:10002C000400060E0C6E300E0D6E0D2EFED70C2E2F
:0C003C00FCD70000014A022AEDD7120098
:060048008998928A120063
:10004E008994898A929A8988F40E156E010E166E1D
:0A005E00DEDF8998928AF1DF1200BC
:1000680089848998899A929AF40E156E010E166EF3
:08007800D1DF928AE5DF1200DE
:10008000070EB46E0F0EC16E600ED36E9B8C806A2D
:10009000816A826A896A8A6A8B6AE30E926EFF0EAF
:1000A000936EFF0E946ED0DFDFDFD00E156E070E5D
:1000B000166EB4DFCCDFD00E156E070E166EAEDFF7
:0400C000F3D7FFD79C
:020000040030CA
:0D000100081F1EFF0381FF0FC00FE00F401E
:00000001FF
