:10000000ABEF00F00000000000EF00F00000000087
:0A0010000000000000000000F3D71C
:10001C00016A026A1650025C02E11550015C0DE2A5
:10002C000400060E0C6E300E0D6E0D2EFED70C2E2F
:0C003C00FCD70000014A022AEDD7120098
:1000480018D08B8094902DD08B8294922AD08B8458
:10005800949427D08B86949624D08B88949821D01A
:100068008B8A949A1ED0898A929A1BD0898C929CEA
:1000780018D01550000AE5E01550010AE5E01550C2
:10008800020AE5E01550030AE5E01550040AE5E028
:100098001550050AE5E01550060AE5E01550070A6F
:0400A800E5E012007D
:1000AC00899894809482948494869488948A928A71
:0400BC00928C120010
:1000C00018D08B9094902DD08B9294922AD08B94B0
:1000D000949427D08B96949624D08B98949821D082
:1000E0008B9A949A1ED0899A929A1BD0899C929C42
:1000F00018D01550000AE5E01550010AE5E015504A
:10010000020AE5E01550030AE5E01550040AE5E0AF
:100110001550050AE5E01550060AE5E01550070AF6
:04012000E5E0120004
:1001240089848998060E156EC9DFF40E156E010ECA
:08013400166E72DFB9DF120044
:10013C008994060E156E82DF8988F40E156E010EF9
:0A014C00166E66DF8998ACDF120022
:10015600070EB46E0F0EC16E600ED36E9B8C806A56
:10016600816A826A896A8A6A8B6AE30E926EFF0ED8
:10017600936EFF0E946E97DFD2DFD00E156E070ECC
:10018600166E49DFD8DFD00E156E070E166E43DFEA
:04019600F3D7FFD7C5
:020000040030CA
:0D000100081F1EFF0381FF0FC00FE00F401E
:00000001FF
