:100000001EEF09F00000000000EF00F0000000000B
:0A0010000000000000000000F3D71C
:10001C0000018051000A30E0016A015007081AE320
:10002C00C9BF02D0949E01D0948E060E0D6E0D2E7B
:10003C00FED70000948C060E0D6E0D2EFED7000020
:10004C00949C060E0D6E0D2EFED70000C937C9917B
:10005C00012AE3D7948E060E0D6E0D2EFED70000EE
:10006C00948C060E0D6E0D2EFED70000949C060E81
:0A007C000D6E0D2EFED700001200DD
:1000860000018051000A12E0949E060E0D6E0D2EA0
:10009600FED70000948C060E0D6E0D2EFED70000C6
:0E00A600948E060E0D6E0D2EFED70000120079
:1000B40000018051000A18E0948C060E0D6E0D2E7E
:1000C400FED70000948E060E0D6E0D2EFED7000096
:1000D400949E060E0D6E0D2EFED70000949C060E07
:0A00E4000D6E0D2EFED70000120075
:1000EE000B840BAE82EF00F0010E036E026A016A02
:0A00FE00006A0A360232FF0E1200FB
:1001080000019651C525C86FD1DF93C0C9F082DFC1
:10011800C96B80DFC451B00FC96F7CDFC8510F08AD
:1001280004E3C8C0C6F0C76B19D0C8C002F00232D9
:10013800029E0232029E0232029E0232029E02C0D9
:10014800C7F002C000F0003600900036009000367C
:100158000090003600900050C85DC66FC6C0C9F058
:1001680059DFC751100FC96F55DFA0DF93C0C9F021
:0A01780051DF400EC96F4EDF120088
:1001820098DF93C0C9F049DF800EC96F46DFC4C053
:08019200C9F043DF77DF120022
:10019A000B820BAED7EF00F00368026801680068B3
:0801AA000A360232FF0E1200BA
:0E01B200026A016A006A086A036A000E1200FF
:0801C0000AAE029E000E1200BF
:1001C8000001BB6BA36B010EA46FBAC0BBF0BB37B9
:1001D800BB91BB37BB91BB37BB91BB37BB91A55319
:1001E80002E0080EBB27A45302E0040EBB27A3536A
:1001F80002E0020EBB279D53D8A4BB2B57DF93C048
:10020800C9F008DFBBC0C9F005DF39DF060E0C6E88
:10021800300E0D6E0D2EFED70C2EFCD70000040EEE
:10022800BB5F44DF93C0C9F0F5DEBBC0C9F0F2DEA6
:1002380026DF060E0C6E300E0D6E0D2EFED70C2E20
:06024800FCD700001200CB
:10024E000CB069EF01F00CA20FEF02F00E6A000E77
:10025E00026480EF01F0F00E0214D8A44BEF01F00F
:10026E00023A01380F0B02260138F00B016E0038EE
:10027E000F0B01260038F00B006E08380F0B00260E
:10028E000838F00B086E0E84D89002BE64EF01F0B1
:10029E0008360036013602360E2A02BE64EF01F031
:1002AE0008360036013602360E2A02BE64EF01F021
:1002BE0008360036013602360E2A0E50036405EF5C
:1002CE0002F0035E0BBC08AE0AEF02F0D880800E7F
:1002DE0008640030000E002201220222D8A00AEF8C
:1002EE0002F0023201320032034A0FEF02F00AEF3F
:1002FE0002F001C002F000C001F008C000F0086A70
:10030E00000E0E860264B7EF01F0F00E0214D8A4B0
:10031E009FEF01F0023A01380F0B02260138F00B65
:10032E00016E00380F0B01260038F00B006E0E84A4
:10033E00D89002BE64EF01F00036013602360E2A66
:10034E0002BE64EF01F00036013602360E2A02BEFE
:10035E0064EF01F00036013602360E2A64EF01F02A
:10036E0001C002F000C001F0006A000E0E960E8869
:10037E000264E4EF01F0F00E0214D8A4CFEF01F006
:10038E00023A01380F0B02260138F00B016E0E8473
:10039E00D89002BE64EF01F0013602360E2A02BE7C
:1003AE0064EF01F0013602360E2A02BE64EF01F050
:1003BE00013602360E2A64EF01F001C002F0016A26
:1003CE00000E0E86026414EF02F0F00E0214D8A492
:1003DE00F3EF01F0023A0E84D89002BE64EF01F002
:1003EE0002360E2A02BE64EF01F002360E2A02BE5B
:1003FE0064EF01F002360E2A64EF01F0010E0C6E6E
:10040E006FDE17EF02F0020E0C6ED3DE17EF02F066
:10041E00040E0C6EBBDE17EF02F0080E0C6EC2DE81
:02042E001200BA
:1004300041DE93C0C9F0F2DD400EC96FEFDDBBC0F5
:10044000C4F0BAC0C5F060DEBF6BBE51BF5DD8B0AE
:10045000AFD0BF51BC25E96E000EBD21EA6EEE5053
:10046000000A02E1C16B09D0BF51BC25E96E000E44
:10047000BD21EA6E200EEE5CC16FC06BC051040856
:10048000D8A090D0050EC103F3CF00F0F4CF01F057
:10049000C0510026000E0122360E0024F66E140E06
:1004A0000120F76E000EF86E000E01BEFF0EF8225E
:1004B0000900F5CFC2F0BB51020A000ED8A4010E0C
:1004C000016EBB51040A000ED8A4010E006E00504C
:1004D0000116BB51060A000ED8A4010E006E015091
:1004E000001629E0C2B702D0C39F01D0C38FC2B7A4
:1004F00002D0C39D01D0C38DC2B502D0C39B01D031
:10050000C38BC2B502D0C39901D0C389C2B302D094
:10051000C39701D0C387C2B302D0C39501D0C385AE
:10052000C2B102D0C39301D0C383C2B102D0C39180
:1005300001D0C38120D0C2B502D0C39F01D0C38FE8
:10054000C2B502D0C39D01D0C38DC2B302D0C39B3C
:1005500001D0C38BC2B302D0C39901D0C389C2B149
:1005600002D0C39701D0C387C2B102D0C39501D0D6
:10057000C385C393C391C3C0C9F050DD8051040A41
:10058000010ED8A4000E016E8051050A010ED8A4F8
:10059000000E006E0150001203E0C3C0C9F03EDD42
:1005A000C02B6CD7C96B3ADDC96B38DDBF2B4DD77B
:1005B000BB51010FC46FBAC0C5F0A6DDBF6BBE5101
:1005C000BF5DD8B0B7D0BF51BC25E96E000EBD21CC
:1005D000EA6EEE50000A02E1C16B09D0BF51BC25A2
:1005E000E96E000EBD21EA6E200EEE5CC16FC06B9D
:1005F000C0510408D8A098D0050EC103F3CF00F075
:10060000F4CF01F0C0510026000E0122360E002466
:10061000F66E140E0120F76E000EF86E000E01BE8D
:10062000FF0EF8220900F5CFC2F0BB51020A000EFE
:10063000D8A4010E016EBB51040A000ED8A4010E0D
:10064000006E00500116BB51060A000ED8A4010E20
:10065000006E0150001629E0C2BF02D0C39F01D036
:10066000C38FC2BF02D0C39D01D0C38DC2BD02D013
:10067000C39B01D0C38BC2BD02D0C39901D0C38933
:10068000C2BB02D0C39701D0C387C2BB02D0C395FF
:1006900001D0C385C2B902D0C39301D0C383C2B90C
:1006A00002D0C39101D0C38128D0C2BD02D0C39F64
:1006B00001D0C38FC2BD02D0C39D01D0C38DC2BBC8
:1006C00002D0C39B01D0C38BC2BB02D0C39901D05F
:1006D000C389C2B902D0C39701D0C387C2B902D0BF
:1006E000C39501D0C385C2B702D0C39301D0C383E1
:1006F000C2B702D0C39101D0C381C3C0C9F08EDCA0
:100700008051040A010ED8A4000E016E8051050A22
:10071000010ED8A4000E006E0150001203E0C3C009
:10072000C9F07CDCC02B64D7C96B78DCC96B76DC84
:08073000BF2B45D7A8DC120025
:10073800BAC000F00032009E0032009E0032009ED7
:100748000032009E0A0E0002F3CF01F00F0E0001E6
:0A075800BA15006E015000261200D1
:10076200A8DC93C0C9F059DCC96B57DCAE0EC96F67
:1007720054DC8051020A010ED8A4000E016E805191
:10078200030A010ED8A4000E006E01500012D8B464
:1007920065D0D50EC96F41DC800EC96F3EDCA80E54
:1007A200C96F3BDC3F0EC96F38DCD30EC96F35DC35
:1007B2008051020A04E19EC0C9F02FDC04D09E5190
:1007C2001F0FC96F2ADC400EC96F27DC8D0EC96F5F
:1007D20024DC140EC96F21DC810EC96F1EDCB40E3D
:1007E200C96F1BDCD90EC96F18DC220EC96F15DC6C
:1007F200200EC96F12DC020EC96F0FDC210EC96F09
:100802000CDCC96B0ADC7F0EC96F07DC2E0EC96FC8
:1008120004DC8051020A09E1A00EC96F0EEC00F05F
:10082200C00EC96F0EEC00F008D0A10EC96F0EEC1D
:1008320000F0C80EC96F0EEC00F0DA0EC96F0EECB4
:1008420000F0020EC96F0EEC00F0DB0EC96F0EEC69
:1008520000F0400EC96F0EEC00F06FD0D50EC96FDC
:100862000EEC00F0800EC96F0EEC00F0A80EC96FFE
:100872000EEC00F03F0EC96F0EEC00F0D30EC96F04
:100882000EEC00F09EC0C9F00EEC00F0400EC96FF5
:100892000EEC00F08D0EC96F0EEC00F0140EC96F55
:1008A2000EEC00F0810EC96F0EEC00F0FF0EC96F66
:1008B2000EEC00F0D90EC96F0EEC00F0F10EC96F0C
:1008C2000EEC00F0200EC96F0EEC00F0020EC96FA4
:1008D2000EEC00F0210EC96F0EEC00F0C96B0EECAD
:1008E20000F07F0EC96F0EEC00F02E0EC96F0EECF9
:1008F20000F08051040A09E1A00EC96F0EEC00F06D
:10090200C00EC96F0EEC00F008D0A10EC96F0EEC3C
:1009120000F0C80EC96F0EEC00F0DA0EC96F0EECD3
:1009220000F0120EC96F0EEC00F0DB0EC96F0EEC78
:1009320000F0400EC96F0EEC00F0A40EC96F0EEC71
:1009420000F0A60EC96F0EEC00F043EC00F0030EAF
:100952000B6E080E0C6E770E0D6E0D2EFED70C2E42
:10096200FCD70B2EFAD75AEC00F093C0C9F00EEC6C
:1009720000F0400EC96F0EEC00F08051020A010E29
:10098200D8A4000E016E8051030A010ED8A4000EF5
:10099200006E0150001215E0BB6BBB51030810E35F
:1009A200BBC0C4F0C56B84EC00F0BA6B800EBA5DBC
:1009B20005E2BA2BC96B0EEC00F0F8D7BB2BEDD7D2
:1009C20014D0BB6BBB51070810E3BBC0C4F0C56BAE
:1009D20084EC00F0BA6B800EBA5D05E2BA2BC96BEB
:1009E2000EEC00F0F8D7BB2BEDD743EC00F0AF0EC6
:0809F200C46FC1EC00F012001B
:1009FA00FF0E00019F6FFF0EA06FFF0EA16FFF0E8B
:100A0A00A26FC26A761C006E0050C116070EC01291
:060A1A00C08EC280120034
:100A2000A69CBAC0A9FFA69EA680A8CF00F012007F
:100A30000B800BAE24EF05F0026A0AAEFF0E026EC9
:0C0A4000016E006E0A360232FF0E12003A
:100A4C00086A096A000E07620364ABEF05F00250F6
:100A5C0006180A6E075003267E0ED8A03CEF05F050
:100A6C00035ED8B0B0EF05F040EF05F0035ED8A000
:100A7C00B5EF05F0028E068E02C00EF001C00BF031
:100A8C0000C00DF000500402F4CF0CF00150050230
:100A9C00F4CF00F0F3CF08F00402F3500C26F4501E
:100AAC000822000E00220D500502F3500C26F450C3
:100ABC000822000E002202500402F3500826F450C3
:100ACC00002202500502016A000E0122F35000269A
:100ADC00F45001220D500602F3500826F450002267
:100AEC00026A000E012202220B500602F35000266D
:100AFC00F4500122000E02220E500602F350012681
:100B0C00F450022202BE93EF05F00836003601368F
:100B1C0002360306D8B4B5EF05F0A6EF05F0D88081
:100B2C00800E08640030000E002201220222D8A0A0
:100B3C00A6EF05F0023201320032034AB0EF05F0A5
:100B4C000AAE029E000EB8EF05F0010ED9EC00F0D3
:100B5C00B8EF05F0020ECDEC00F0B8EF05F0040E86
:060B6C0077EC00F012001E
:100B72000400010E0001BA6F52DF00C095F0020EB0
:100B8200BA6F4DDF0050010A02E1010E756E030ECD
:100B9200BA6F45DF00C0BAF0CEDD00C09BF0000E98
:100BA2009C6F040EBA6F3BDF00C0BAF0C4DD0A0EC0
:100BB2000002F3CF99F0F4CF9AF0050EBA6F2FDF4F
:100BC20000C0BAF0B8DD0A0E0002F3CF97F0F4CFFE
:100BD20098F0060EBA6F23DF00C0BAF0ACDD0A0E41
:100BE2000002F3CFB2F0F4CFB3F0090EBA6F17DF01
:100BF20000C0BAF0A0DD0A0E0002F3CFB0F0F4CFCD
:100C0200B1F00A0EBA6F0BDF00C07AF00B0EBA6FAA
:100C120006DF00C07BF00C0EBA6F01DF00C07CF073
:100C22000D0EBA6FFCDE00C078F00E0EBA6FF7DE62
:100C320000C079F00F0EBA6FF2DE00C077F0040048
:100C4200100EBA6FECDE00C0BAF075DD640E000261
:100C5200F3CFB4F0F4CFB5F0110EBA6FE0DE00C0FE
:100C6200BAF069DD0050B425A66F000EB521A76F5A
:100C7200120EBA6FD4DE00C0BAF05DDD640E00025F
:100C8200F3CFB4F0F4CFB5F0130EBA6FC8DE00C0E4
:100C9200BAF051DD0050B425AC6F000EB521AD6F36
:100CA200140EBA6FBCDE00C0BAF045DD640E00025D
:100CB200F3CFB4F0F4CFB5F0150EBA6FB0DE00C0CA
:100CC200BAF039DD0050B425AE6F000EB521AF6F1A
:100CD200160EBA6FA4DE00C0BAF02DDD640E00025B
:100CE200F3CFB4F0F4CFB5F0170EBA6F98DE00C0B0
:100CF200BAF021DD0050B425A86F000EB521A96F0E
:100D0200180EBA6F8CDE00C0BAF015DD640E000258
:100D1200F3CFB4F0F4CFB5F0190EBA6F80DE00C095
:100D2200BAF009DD0050B425AA6F000EB521AB6FF1
:100D32001A0EBA6F74DE00C0BAF0FDDC640E000257
:100D4200F3CFB4F0F4CFB5F01B0EBA6F68DE00C07B
:100D5200BAF0F1DC0050B425856F000EB521866F24
:100D62001C0EBA6F5CDE00C0BAF0E5DC640E000255
:100D7200F3CFB4F0F4CFB5F01D0EBA6F50DE00C061
:100D8200BAF0D9DC0050B425876F000EB521886F08
:100D9200200EBA6F44DE00C0BAF0CDDC640E000251
:100DA200F3CFB4F0F4CFB5F0210EBA6F38DE00C045
:100DB200BAF0C1DC0050B425836F000EB521846FF8
:100DC200220EBA6F2CDE00C0BAF0B5DC640E00024F
:100DD200F3CFB4F0F4CFB5F0230EBA6F20DE00C02B
:100DE200BAF0A9DC0050B4257E6E000EB5217F6EEC
:100DF200240EBA6F14DE00C0BAF09DDC640E00024D
:100E0200F3CFB4F0F4CFB5F0250EBA6F08DE00C010
:100E1200BAF091DC0050B425816F000EB521826FCB
:100E2200260EBA6FFCDD00C0BAF085DC640E00024B
:100E3200F3CFB4F0F4CFB5F0270EBA6FF0DD00C0F7
:100E4200BAF079DC0050B4258D6F000EB5218E6F9B
:100E5200280EBA6FE4DD00C0BAF06DDC640E000249
:100E6200F3CFB4F0F4CFB5F0290EBA6FD8DD00C0DD
:100E7200BAF061DC0050B4258F6F000EB521906F7F
:100E82002A0EBA6FCCDD00C0BAF055DC640E000247
:100E9200F3CFB4F0F4CFB5F02B0EBA6FC0DD00C0C3
:100EA200BAF049DC0050B4258B6F000EB5218C6F6F
:100EB2002C0EBA6FB4DD00C0BAF03DDC640E000245
:100EC200F3CFB4F0F4CFB5F02D0EBA6FA8DD00C0A9
:100ED200BAF031DC0050B425896F000EB5218A6F5B
:100EE200300EBA6F9CDD00C021F0310EBA6F97DD73
:100EF20000C0BAF020DC00C017F0320EBA6F8FDDEE
:100F020000C0BAF018DC00C018F0330EBA6F87DDEB
:100F120000C016F0340EBA6F82DD00C0BAF00BDCEE
:100F220000C07DF0350EBA6F7ADD00C0BAF003DC86
:080F320000C015F004001200DC
:100F3A000900F5CFE6FF0006FBE10106F9E1120020
:100F4A00070EB46E600ED36E9B8C806A816A826AC9
:100F5A00400E896E8A6A8B6A030E926E070E936E32
:0E0F6A00946A46DD0D0EC16EF19EF29E1200DD
:100F780000C008F00B6A0C6A9E0E036E0A6A026AC9
:0E0F8800016A006A020E0C6E27EC01F01200E6
:100F9600070E0001BA6F41DD00C09EF0080EBA6F61
:100FA6003CDD00C096F08051010803E2B1EC03F08D
:100FB60055D08051010A52E1010EA56F9D6B030EBB
:100FC600BA6FE4EC00F01A0E0C6EF80E0D6E0D2ED4
:100FD600FED70C2EFCD70000030EBA6FE4EC00F02F
:100FE600060E0C6E300E0D6E0D2EFED70C2EFCD797
:100FF6000000030EBA6FE4EC00F0020EBA6FE4ECE8
:1010060000F0020EBA6FE4EC00F0080EBA6FE4ECE2
:1010160000F0BA6BE4EC00F0080EBA6FE4EC00F0F6
:10102600BA6BE4EC00F0010EBA6FE4EC00F01A0EB5
:101036000C6EF80E0D6E0D2EFED70C2EFCD7000092
:10104600BA6BE4EC00F0060EBA6FE4EC00F0BA6B93
:0E105600E4EC00F00C0EBA6FE4EC00F01200B7
:1010640000018051040A010ED8A4000E016E8051C3
:10107400050A010ED8A4000E006E015000120DE006
:10108400B5C0BAF0B4C0BBF0B6C0BCF0B7C0BDF0D8
:10109400B8C0BEF018EC02F058D08051020A010E1C
:1010A400D8A4000E016E8051030A010ED8A4000ECC
:1010B400006E0150001213E0070EB503F3CFBAF02F
:1010C400040EBA27B4C0BBF0BB37BB91B6C0BCF0AA
:1010D400B7C0BDF0B8C0BEF018EC02F036D09D6BBE
:1010E400B4C000F000360090003600900050080FA5
:1010F400BA6FE4EC00F0B5C0BAF0E4EC00F0010E15
:101104009D6FB96BB851B95D20E2B951B625E96E4E
:10111400000EB721EA6EEECF01F001C0BAF0BA3387
:10112400BA9FBA33BA9FBA33BA9FBA33BA9FE4ECC0
:1011340000F0B951B625E96E000EB721EA6EEECF84
:0C114400BAF0E4EC00F0B92BDDD712008B
:101150000B6A0350D8B4EEEF08F002500A6E028E0C
:101160008E0E035E03AEF2EF08F0036C080E035C14
:10117000D8A0CDEF08F0036E013602C001F0026A7C
:10118000080E035CD8A0CDEF08F0036E0136016AAB
:101190000350D8A4D890D7EF08F00350D8B4D7EFB5
:1011A00008F0D89002320132032ED1EF08F00BBCC8
:1011B00001A0E4EF08F0D8A0E4EF08F0012AD8B4C9
:1011C000022A02BE01EF09F00AAE06EF09F0021E84
:1011D000011E012AD8B4022A06EF09F0026A016A48
:1011E00006EF09F00B800BAE0AEF09F0026A0AAEB7
:1011F0000AEF09F0FF0E026E016E0A3602320AEFA4
:1012000009F0010E0C6E14DC0CEF09F0000E0C6EF0
:101210000CEF09F0FF0E0C6E0150006E0250016ED3
:021220001200BA
:101222000001BA6B10EC05F000C093F0010EBA6F2A
:0A12320010EC05F000C080F012007F
:10123C003FEC0BF0D0B602D0010E206E80DE93DCBA
:10124C00EADFA3DE8974020EB46F100EB56F1B0EAD
:10125C00B66F000EB76F040EB86FFEDE150E0B6E78
:10126C004B0E0C6EBE0E0D6E0D2EFED70C2EFCD73B
:10127C000B2EFAD70000E6D70D2EFED70C2EFCD77E
:10128C000B2EFAD7000004006EDCC5DF9551000A66
:10129C0002E18A8C8A8E18C000F068DE22C004F04D
:1012AC0023C005F024C006F025C007F026EC05F09D
:1012BC0049DF00C019F001C01AF0070E0B6E170EB3
:1012CC000C6E6A0E0D6E0D2EFED70C2EFCD70B2E4F
:1012DC00FAD70000040081B202D0048001D004903F
:1012EC0081B402D0D88001D0D89004A003D002E3FE
:1012FC00048001D0049004A003D0010E446E756AE2
:10130C007A50050A03E1010E456E0BD07A50060A9D
:10131C0003E1020E456E05D07A50070A02E1040E75
:10132C00456E7C50050A03E1010E436E0BD07C50D8
:10133C00060A03E1020E436E05D07C50070A02E157
:10134C00040E436E070E0B6E170E0C6E6A0E0D6EAE
:10135C000D2EFED70C2EFCD70B2EFAD70000040056
:10136C00070E0B6E170E0C6E6A0E0D6E0D2EFED741
:10137C000C2EFCD70B2EFAD700000400070E0B6EB8
:10138C00170E0C6E6A0E0D6E0D2EFED70C2EFCD7A2
:10139C000B2EFAD700000400070E0B6E170E0C6E06
:1013AC006A0E0D6E0D2EFED70C2EFCD70B2EFAD717
:1013BC0000000400070E0B6E170E0C6E6A0E0D6EFD
:1013CC000D2EFED70C2EFCD70B2EFAD700000400E6
:1013DC00DCDD8974020EB46F100EB56F2E0EB66F75
:1013EC00000EB76F090EB86F37DE150E0B6E4B0E75
:1013FC000C6EBE0E0D6E0D2EFED70C2EFCD70B2ECA
:10140C00FAD700000400E5D70B0E0B6E260E0C6EFF
:10141C005D0E0D6E0D2EFED70C2EFCD70B2EFAD7B3
:0A142C00000000000400F0D7FFD715
:10167E0010EE15F0680E006E010E016E160EF66E6F
:0E168E00160EF76E000EF86E9DEC07F01200BF
:10143600000000000000005F000000070007001425
:101446007F147F14242A7F2A1223130864623649E4
:101456005522500005030000001C224100004122D5
:101466001C00082A1C2A0808083E080800503000FC
:1014760000080808080800303000002010080402A0
:101486003E5149453E00427F400042615149462156
:1014960041454B311814127F1027454545393C4AC2
:1014A6004949300171090503364949493606494912
:1014B600291E0036360000005636000000081422A9
:1014C600411414141414412214080002015109068F
:1014D600324979413E7E1111117E7F494949363E96
:1014E600414141227F4141221C7F494949417F09AF
:1014F6000901013E414151327F0808087F00417FC2
:1015060041002040413F017F081422417F40404076
:10151600407F0204027F7F0408107F3E4141413E26
:101526007F090909063E4151215E7F091929464670
:101536004949493101017F01013F4040403F1F2099
:1015460040201F7F2018207F63140814630304784B
:101556000403615149454300007F414102040810DC
:101566002041417F00000402010204404040404007
:10157600000102040020545454787F48444438380B
:1015860044444420384444487F3854545418087E10
:10159600090102081454543C7F0804047800447D71
:1015A60040002040443D00007F10284400417F4019
:1015B600007C041804787C080404783844444438D1
:1015C6007C14141408081414187C7C0804040848B5
:1015D60054545420043F4440203C4040207C1C206E
:1015E60040201C3C4030403C44281028440C5050BD
:1015F600503C4464544C44000836410000007F00CF
:1016060000004136080008082A1C08081C2A080899
:0116160000D3
:0116170000D2
:0116180020B1
:0116190000D0
:02161A000000CE
:05161C00544553540089
:0116210000C8
:0116220000C7
:0416230033331380CA
:0116270000C2
:0116280000C1
:0316290064420018
:01162C0000BD
:01162D0001BB
:01162E0000BB
:0B162F00595431303020544553540012
:0A163A004641535420544553540018
:0116440001A4
:0116450000A4
:0116460001A2
:03164700644200FA
:10164A004669646572204C6F737320696E70757495
:01165A00008F
:06165B00696E7075740059
:0A16610046415354205445535400F1
:0B166B004669646572204C6F737300C9
:011676000073
:011677003042
:011678000071
:011679000070
:01167A00016E
:01167B000767
:01167C00006D
:01167D000765
:020000040030CA
:0D000100081A11FF0181FF0FC00FE0004041
:0200000400F00A
:100000004E01001513050001020007000700010062
:100010000050011002200450100022004500FFFF94
:100020000010002200470100022004701000FFFFB2
:10003000001000010000FFFFFFFFFFFFFFFFFFFFB9
:10004000FFFFFFFFFFFFFFFFFFFFFFFFFFFFFFFFC0
:10005000FFFFFFFFFFFFFFFFFFFFFFFFFFFFFFFFB0
:10006000FFFFFFFFFFFFFFFFFFFFFFFFFFFFFFFFA0
:10007000FFFFFFFFFFFFFFFFFFFFFFFFFFFFFFFF90
:10008000FFFFFFFFFFFFFFFFFFFFFFFFFFFFFFFF80
:10009000FFFFFFFFFFFFFFFFFFFFFFFFFFFFFFFF70
:1000A000FFFFFFFFFFFFFFFFFFFFFFFFFFFFFFFF60
:1000B000FFFFFFFFFFFFFFFFFFFFFFFFFFFFFFFF50
:1000C000FFFFFFFFFFFFFFFFFFFFFFFFFFFFFFFF40
:1000D000FFFFFFFFFFFFFFFFFFFFFFFFFFFFFFFF30
:1000E000FFFFFFFFFFFFFFFFFFFFFFFFFFFFFFFF20
:1000F000FFFFFFFFFFFFFFFFFFFFFFFFFF0100000C
:00000001FF

