:100000002CEF09F00000000000EF00F000000000FD
:0A0010000000000000000000F3D71C
:10001C007F50000A12E0949E060E0D6E0D2EFED738
:10002C000000948C060E0D6E0D2EFED70000948EE3
:0C003C00060E0D6E0D2EFED70000120007
:100048007F50000A32E0016A015007081CE30001F2
:10005800C8BF02D0949E01D0948E060E0D6E0D2E50
:10006800FED70000948C060E0D6E0D2EFED70000F4
:10007800949C060E0D6E00010D2EFDD70000C837AA
:10008800C891012AE1D7948E060E0D6E0D2EFED76B
:100098000000948C060E0D6E0D2EFED70000949C69
:0C00A800060E0D6E0D2EFED7000012009B
:1000B4007F50000A18E0948C060E0D6E0D2EFED7AC
:1000C4000000948E060E0D6E0D2EFED70000949E39
:1000D400060E0D6E0D2EFED70000949C060E0D6EBE
:0800E4000D2EFED700001200F2
:1000EC000B840BAE81EF00F0010E036E026A016A05
:0A00FC00006A0A360232FF0E1200FD
:1001060000019D51C425C76FD2DF7EC0C8F099DFBC
:100116000001C86B96DF0001C351B00FC86F91DFB5
:100126000001C7510F0804E3C7C0C5F0C66B19D05C
:10013600C7C002F00232029E0232029E0232029EC4
:100146000232029E02C0C6F002C000F000360090E5
:100156000036009000360090003600900050C75DD3
:10016600C56FC5C0C8F06DDF0001C651100FC86F5E
:1001760068DF9DDF7EC0C8F064DF400E0001C86FF7
:0401860060DF120024
:10018A0094DF7EC0C8F05BDF800E0001C86F57DFC6
:0A019A00C3C0C8F054DF3DDF1200BF
:1001A4000B820BAEDCEF00F00368026801680068A4
:0801B4000A360232FF0E1200B0
:0E01BC00026A016A006A086A036A000E1200F5
:0801CA000AAE029E000E1200B5
:1001D2000001BB6BA36B010EA46FBAC0BBF0BB37AF
:1001E200BB91BB37BB91BB37BB91BB37BB91A5530F
:1001F20002E0080EBB27A45302E0040EBB27A35360
:1002020002E0020EBB279653D8A4BB2B52DF7EC05E
:10021200C8F019DFBBC0C8F016DFFFDE060E0C6E99
:10022200300E0D6E0D2EFED70C2EFCD70000040EE4
:100232000001BB5F3EDF7EC0C8F005DFBBC0C8F077
:1002420002DFEBDE060E0C6E300E0D6E0D2EFED7AB
:080252000C2EFCD70000120085
:10025A000CB06FEF01F00CA215EF02F00E6A000E5F
:10026A00026486EF01F0F00E0214D8A451EF01F0F7
:10027A00023A01380F0B02260138F00B016E0038E2
:10028A000F0B01260038F00B006E08380F0B002602
:10029A000838F00B086E0E84D89002BE6AEF01F09F
:1002AA0008360036013602360E2A02BE6AEF01F01F
:1002BA0008360036013602360E2A02BE6AEF01F00F
:1002CA0008360036013602360E2A0E5003640BEF4A
:1002DA0002F0035E0BBC08AE10EF02F0D880800E6D
:1002EA0008640030000E002201220222D8A010EF7A
:1002FA0002F0023201320032034A15EF02F010EF27
:10030A0002F001C002F000C001F008C000F0086A63
:10031A00000E0E860264BDEF01F0F00E0214D8A49E
:10032A00A5EF01F0023A01380F0B02260138F00B53
:10033A00016E00380F0B01260038F00B006E0E8498
:10034A00D89002BE6AEF01F00036013602360E2A54
:10035A0002BE6AEF01F00036013602360E2A02BEEC
:10036A006AEF01F00036013602360E2A6AEF01F012
:10037A0001C002F000C001F0006A000E0E960E885D
:10038A000264EAEF01F0F00E0214D8A4D5EF01F0EE
:10039A00023A01380F0B02260138F00B016E0E8467
:1003AA00D89002BE6AEF01F0013602360E2A02BE6A
:1003BA006AEF01F0013602360E2A02BE6AEF01F038
:1003CA00013602360E2A6AEF01F001C002F0016A14
:1003DA00000E0E8602641AEF02F0F00E0214D8A480
:1003EA00F9EF01F0023A0E84D89002BE6AEF01F0EA
:1003FA0002360E2A02BE6AEF01F002360E2A02BE49
:10040A006AEF01F002360E2A6AEF01F0010E0C6E55
:10041A0068DE1DEF02F0020E0C6ED2DE1DEF02F056
:10042A00040E0C6EBADE1DEF02F0080E0C6EC1DE71
:02043A001200AE
:10043C00BBC0C3F0BAC0C4F060DE0001BF6BBE51DC
:10044C00BF5DD8B091D0BF51BC25E96E000EBD2167
:10045C00EA6EEE50000A01E100D0C06BC0510408F6
:10046C00D8A07AD0110EC16FBB51020A000ED8A4CD
:10047C00010E016EBB51040A000ED8A4010E006ED1
:10048C0000500116BB51060A000ED8A4010E006ED6
:10049C000150001629E0C1B702D0C29F01D0C28F13
:1004AC00C1B702D0C29D01D0C28DC1B502D0C29BD2
:1004BC0001D0C28BC1B502D0C29901D0C289C1B3DF
:1004CC0002D0C29701D0C287C1B302D0C29501D06D
:1004DC00C285C1B102D0C29301D0C283C1B102D0D6
:1004EC00C29101D0C28120D0C1B502D0C29F01D02F
:1004FC00C28FC1B502D0C29D01D0C28DC1B302D092
:10050C00C29B01D0C28BC1B302D0C29901D0C289A7
:10051C00C1B102D0C29701D0C287C1B102D0C2957D
:10052C0001D0C285C293C291C2C0C8F087DD7F5092
:10053C00040A010ED8A4000E016E7F50050A010EAC
:10054C00D8A4000E006E0150001203E0C2C0C8F027
:10055C0075DD0001C02B82D7C86B70DD0001C86B44
:10056C006DDD0001BF2B6BD753DD0001BB51010FBB
:10057C00C36FBAC0C4F0C1DD0001BF6BBE51BF5D1B
:10058C00D8B099D0BF51BC25E96E000EBD21EA6EE2
:10059C00EE50000A01E100D0C06BC0510408D8A095
:1005AC0082D0110EC16FBB51020A000ED8A4010EED
:1005BC00016EBB51040A000ED8A4010E006E00504F
:1005CC000116BB51060A000ED8A4010E006E015094
:1005DC00001629E0C1BF02D0C29F01D0C28FC1BF9B
:1005EC0002D0C29D01D0C28DC1BD02D0C29B01D030
:1005FC00C28BC1BD02D0C29901D0C289C1BB02D08D
:10060C00C29701D0C287C1BB02D0C29501D0C285AE
:10061C00C1B902D0C29301D0C283C1B902D0C29178
:10062C0001D0C28128D0C1BD02D0C29F01D0C28FDF
:10063C00C1BD02D0C29D01D0C28DC1BB02D0C29B34
:10064C0001D0C28BC1BB02D0C29901D0C289C1B941
:10065C0002D0C29701D0C287C1B902D0C29501D0D5
:10066C00C285C1B702D0C29301D0C283C1B702D038
:10067C00C29101D0C281C2C0C8F0E0DC7F50040A34
:10068C00010ED8A4000E016E7F50050A010ED8A4ED
:10069C00000E006E0150001203E0C2C0C8F0CEDCA8
:1006AC000001C02B7AD7C86BC9DC0001C86BC6DC53
:0A06BC000001BF2B63D7ACDC120075
:1006C600BAC000F00032009E0032009E0032009E4A
:1006D6000032009E0A0E0002F3CF01F00F0E000159
:0A06E600BA15006E01500026120044
:1006F000E1DC7EC0C8F0A8DC0001C86BA5DCAE0E52
:100700000001C86FA1DC7F50020A010ED8A4000EC0
:10071000016E7F50030A010ED8A4000E006E015036
:100720000012D8B478D0D50E0001C86F8DDC800ED1
:100730000001C86F89DCA80E0001C86F85DC3F0E80
:100740000001C86F81DCD30E0001C86F7DDC7F50D3
:10075000020A04E19EC0C8F077DC05D000019E517A
:100760001F0FC86F71DC400E0001C86F6DDC8D0E6D
:100770000001C86F69DC140E0001C86F65DC810ED2
:100780000001C86F61DCB40E0001C86F5DDCD90EDA
:100790000001C86F59DC220E0001C86F55DC200E25
:1007A0000001C86F51DC020E0001C86F4DDC210E44
:1007B0000001C86F49DC0001C86B46DC7F0E0001F8
:1007C000C86F42DC2E0E0001C86F3EDC7F50020A6B
:1007D00009E1A00E0001C86F37DCC00E0001C86F30
:1007E00033DC08D0A10E0001C86F2EDCC80E00015A
:1007F000C86F2ADCDA0E0001C86F26DC020E000189
:10080000C86F22DCDB0E0001C86F1EDC400E000149
:10081000C86F1ADC83D0D50E0001C86F15DC800EBE
:100820000001C86F11DCA80E0001C86F0DDC3F0E7F
:100830000001C86F09DCD30E0001C86F05DC9EC043
:10084000C8F002DC400E0001C86F24EC00F08D0EF1
:100850000001C86F24EC00F0140E0001C86F24ECF6
:1008600000F0810E0001C86F24EC00F0FF0E0001C3
:10087000C86F24EC00F0D90E0001C86F24EC00F022
:10088000F10E0001C86F24EC00F0200E0001C86FCB
:1008900024EC00F0020E0001C86F24EC00F0210EE1
:1008A0000001C86F24EC00F00001C86B24EC00F0DC
:1008B0007F0E0001C86F24EC00F02E0E0001C86FFF
:1008C00024EC00F07F50040A0BE1A00E0001C86F79
:1008D00024EC00F0C00E0001C86F24EC00F00AD038
:1008E000A10E0001C86F24EC00F0C80E0001C86F13
:1008F00024EC00F0DA0E0001C86F24EC00F0120EB8
:100900000001C86F24EC00F0DB0E0001C86F24EC7E
:1009100000F0400E0001C86F24EC00F0A40E0001AE
:10092000C86F24EC00F0A60E0001C86F24EC00F0A4
:100930000EEC00F0AF0E0001C36F27DC58D00D2E77
:10094000FED70C2EFCD70B2EFAD75AEC00F07EC047
:10095000C8F024EC00F0400E0001C86F24EC00F059
:100960007F50020A010ED8A4000E016E7F50030AC8
:10097000010ED8A4000E006E0150001219E0000113
:10098000BB6BBB51030813E3BBC0C3F0C46B83EC68
:1009900000F00001BA6B0001800EBA5D05E2BA2BCF
:1009A000C86B24EC00F0F7D70001BB2BEAD718D0B6
:1009B0000001BB6BBB51070813E3BBC0C3F0C46BA2
:1009C00083EC00F00001BA6B0001800EBA5D05E215
:1009D000BA2BC86B24EC00F0F7D70001BB2BEAD789
:1009E0000EEC00F0AF0E0001C36FC5EC00F012007A
:1009F000FF0E00019F6FFF0EA06FFF0EA16FFF0E95
:100A0000A26FC26A761C006E0050C116070EC0129B
:060A1000C08EC28012003E
:100A1600A69CBAC0A9FFA69EA680A8CF00F0120089
:100A26000B800BAE1FEF05F0026A0AAEFF0E026ED8
:0C0A3600016E006E0A360232FF0E120044
:100A42000B6A0350D8B467EF05F002500A6E028EAB
:100A52008E0E035E03AE6BEF05F0036C080E035CB3
:100A6200D8A046EF05F0036E013602C001F0026A1B
:100A7200080E035CD8A046EF05F0036E0136016A4A
:100A82000350D8A4D89050EF05F00350D8B450EFDB
:100A920005F0D89002320132032E4AEF05F00BBC6A
:100AA20001A05DEF05F0D8A05DEF05F0012AD8B4F2
:100AB200022A02BE7AEF05F00AAE7FEF05F0021EAF
:100AC200011E012AD8B4022A7FEF05F0026A016AE8
:100AD2007FEF05F00B800BAE83EF05F0026A0AAEE2
:100AE20083EF05F0FF0E026E016E0A36023283EFCB
:100AF20005F0010E0C6E96DF85EF05F0000E0C6E10
:100B020085EF05F0FF0E0C6E0150006E0250016E73
:020B12001200CF
:100B14000400010E0001BA6F7CDF00C095F0020EE4
:100B2400BA6F77DF0050010A02E1010E756E030E01
:100B3400BA6F6FDF00C0BAF0C4DD00C09BF0000ED6
:100B44009C6F040EBA6F65DF00C0BAF0BADD0A0EFE
:100B54000002F3CF99F0F4CF9AF0050EBA6F59DF83
:100B640000C0BAF0AEDD0A0E0002F3CF97F0F4CF66
:100B740098F0060EBA6F4DDF00C0BAF0A2DD0A0E7F
:100B84000002F3CFB2F0F4CFB3F0090EBA6F41DF35
:100B940000C0BAF096DD0A0E0002F3CFB0F0F4CF35
:100BA400B1F00A0EBA6F35DF00C07AF00B0EBA6FDF
:100BB40030DF00C07BF00C0EBA6F2BDF00C07CF07E
:100BC4000D0EBA6F26DF00C078F00E0EBA6F21DF6B
:100BD40000C079F00F0EBA6F1CDF00C077F004007C
:100BE400100EBA6F16DF00C0BAF06BDD640E00029F
:100BF400F3CFB4F0F4CFB5F0110EBA6F0ADF00C032
:100C0400BAF05FDD0050B425A66F000EB521A76FC2
:100C1400120EBA6FFEDE00C0BAF053DD640E00029D
:100C2400F3CFB4F0F4CFB5F0130EBA6FF2DE00C018
:100C3400BAF047DD0050B425AC6F000EB521AD6F9E
:100C4400140EBA6FE6DE00C0BAF03BDD640E00029B
:100C5400F3CFB4F0F4CFB5F0150EBA6FDADE00C0FE
:100C6400BAF02FDD0050B425AE6F000EB521AF6F82
:100C7400160EBA6FCEDE00C0BAF023DD640E000299
:100C8400F3CFB4F0F4CFB5F0170EBA6FC2DE00C0E4
:100C9400BAF017DD0050B425A86F000EB521A96F76
:100CA400180EBA6FB6DE00C0BAF00BDD640E000297
:100CB400F3CFB4F0F4CFB5F0190EBA6FAADE00C0CA
:100CC400BAF0FFDC0050B425AA6F000EB521AB6F5B
:100CD4001A0EBA6F9EDE00C0BAF0F3DC640E000296
:100CE400F3CFB4F0F4CFB5F01B0EBA6F92DE00C0B0
:100CF400BAF0E7DC0050B425876F000EB521886F89
:100D04001C0EBA6F86DE00C0BAF0DBDC640E000293
:100D1400F3CFB4F0F4CFB5F01D0EBA6F7ADE00C095
:100D2400BAF0CFDC0050B425896F000EB5218A6F6C
:100D3400200EBA6F6EDE00C0BAF0C3DC640E00028F
:100D4400F3CFB4F0F4CFB5F0210EBA6F62DE00C079
:100D5400BAF0B7DC0050B425856F000EB521866F5C
:100D6400220EBA6F56DE00C0BAF0ABDC640E00028D
:100D7400F3CFB4F0F4CFB5F0230EBA6F4ADE00C05F
:100D8400BAF09FDC0050B425816F000EB521826F4C
:100D9400240EBA6F3EDE00C0BAF093DC640E00028B
:100DA400F3CFB4F0F4CFB5F0250EBA6F32DE00C045
:100DB400BAF087DC0050B425836F000EB521846F30
:100DC400260EBA6F26DE00C0BAF07BDC640E000289
:100DD400F3CFB4F0F4CFB5F0270EBA6F1ADE00C02B
:100DE400BAF06FDC0050B4258F6F000EB521906F00
:100DF400280EBA6F0EDE00C0BAF063DC640E000287
:100E0400F3CFB4F0F4CFB5F0290EBA6F02DE00C010
:100E1400BAF057DC0050B425916F000EB521926FE3
:100E24002A0EBA6FF6DD00C0BAF04BDC640E000285
:100E3400F3CFB4F0F4CFB5F02B0EBA6FEADD00C0F7
:100E4400BAF03FDC0050B4258D6F000EB5218E6FD3
:100E54002C0EBA6FDEDD00C0BAF033DC640E000283
:100E6400F3CFB4F0F4CFB5F02D0EBA6FD2DD00C0DD
:100E7400BAF027DC0050B4258B6F000EB5218C6FBF
:100E8400300EBA6FC6DD00C021F0310EBA6FC1DD7D
:100E940000C0BAF016DC00C017F0320EBA6FB9DD2C
:100EA40000C0BAF00EDC00C018F0330EBA6FB1DD2A
:100EB40000C016F0340EBA6FACDD00C0BAF001DC2D
:100EC40000C07DF0350EBA6FA4DD00C0BAF063EC4B
:0A0ED40003F000C015F00400120046
:100EDE000900F5CFE6FF0006FBE10106F9E112007D
:100EEE00070EB46E600ED36E9B8C806A816A826A26
:100EFE00400E896E8A6A8B6A030E926E070E936E8F
:0E0F0E00946A6FDD0D0EC16EF19EF29E120010
:100F1C0000C008F00B6A0C6A9E0E036E0A6A026A25
:0E0F2C00016A006A020E0C6E2DEC01F012003C
:100F3A00070E0001BA6F6ADD00C09EF0080EBA6F94
:100F4A0065DD00C09DF07F50010803E278EC03F0F4
:100F5A0063D07F50010A60E1010E0001A56F966B14
:100F6A00030EBA6FE9EC00F01A0E0C6EF80E0D6E55
:100F7A000D2EFED70C2EFCD70000030E0001BA6F0F
:100F8A00E9EC00F0060E0C6E300E0D6E0D2EFED73B
:100F9A000C2EFCD70000030E0001BA6FE9EC00F03A
:100FAA00020E0001BA6FE9EC00F0020E0001BA6FFE
:100FBA00E9EC00F0080E0001BA6FE9EC00F000015C
:100FCA00BA6BE9EC00F0080E0001BA6FE9EC00F028
:100FDA000001BA6BE9EC00F0010E0001BA6FE9EC0E
:100FEA0000F01A0E0C6EF80E0D6E0D2EFED70C2E9A
:100FFA00FCD700000001BA6BE9EC00F0060E000114
:10100A00BA6FE9EC00F00001BA6BE9EC00F00C0EE3
:0A101A000001BA6FE9EC00F01200CB
:101024007F50040A010ED8A4000E016E7F50050AF9
:10103400010ED8A4000E006E015000120DE0B5C0E0
:10104400BAF0B4C0BBF0B6C0BCF0B7C0BDF0B8C015
:10105400BEF01EEC02F05DD07F50020A010ED8A44F
:10106400000E016E7F50030A010ED8A4000E006E1C
:101074000150001214E0070E0001B503F3CFBAF0DB
:10108400040EBA27B4C0BBF0BB37BB91B6C0BCF0EA
:10109400B7C0BDF0B8C0BEF01EEC02F03AD00001FB
:1010A400966BB4C000F000360090003600900050FB
:1010B400080FBA6FE9EC00F0B5C0BAF0E9EC00F043
:1010C400010E0001966FB96BB851B95D22E2B951B6
:1010D400B625E96E000EB721EA6EEECF01F001C02D
:1010E400BAF0BA33BA9FBA33BA9FBA33BA9FBA3393
:1010F400BA9FE9EC00F00001B951B625E96E000E83
:10110400B721EA6EEECFBAF0E9EC00F00001B92B9A
:04111400DBD7120013
:10111800086A096A000E0762036411EF09F00250B9
:1011280006180A6E075003267E0ED8A0A2EF08F014
:10113800035ED8B016EF09F0A6EF08F0035ED8A05A
:101148001BEF09F0028E068E02C00EF001C00BF0F4
:1011580000C00DF000500402F4CF0CF0015005025D
:10116800F4CF00F0F3CF08F00402F3500C26F4504B
:101178000822000E00220D500502F3500C26F450F0
:101188000822000E002202500402F3500826F450F0
:10119800002202500502016A000E0122F3500026C7
:1011A800F45001220D500602F3500826F450002294
:1011B800026A000E012202220B500602F35000269A
:1011C800F4500122000E02220E500602F3500126AE
:1011D800F450022202BEF9EF08F008360036013654
:1011E80002360306D8B41BEF09F00CEF09F0D880DB
:1011F800800E08640030000E002201220222D8A0CE
:101208000CEF09F0023201320032034A16EF09F0FE
:101218000AAE029E000E1EEF09F0010EDEEC00F091
:101228001EEF09F0020ED2EC00F01EEF09F0040EDA
:0612380076EC00F012004C
:10123E000001BA6B0BEC05F000C07EF0010EBA6F28
:0A124E000BEC05F000C07FF0120069
:1012580050EC0BF0D0B602D0010E206E44DE56DC06
:10126800EADF67DEFFD78974020E0001B46F100E43
:10127800B56F1B0EB66F000EB76F040EB86FCEDEDB
:10128800150E0B6E4B0E0C6EBE0E0D6E0D2EFED790
:101298000C2EFCD70B2EFAD70000E5D70D2EFED763
:1012A8000C2EFCD70B2EFAD7000004002FDCC3DF6E
:1012B8009551000A02E18A8C8A8E18C000F02ADE55
:1012C80022C004F023C005F024C006F025C007F0B2
:1012D8001FDF21EC05F000C019F001C01AF0070E5D
:1012E8000B6E170E0C6E6A0E0D6E0D2EFED70C2EA1
:1012F800FCD70B2EFAD70000040081B202D004807C
:1013080001D0049081B402D0D88001D0D89004A034
:1013180003D002E3048001D0049004A003D0010E9E
:10132800446E756A7A50050A03E1010E456E0BD0CA
:101338007A50060A03E1020E456E05D07A50070A74
:1013480002E1040E456E7C50050A03E1010E436E6E
:101358000BD07C50060A03E1020E436E05D07C5088
:10136800070A02E1040E436E070E0B6E170E0C6E91
:101378006A0E0D6E0D2EFED70C2EFCD70B2EFAD74B
:1013880000000400070E0B6E170E0C6E6A0E0D6E31
:101398000D2EFED70C2EFCD70B2EFAD7000004001A
:1013A800070E0B6E170E0C6E6A0E0D6E0D2EFED705
:1013B8000C2EFCD70B2EFAD700000400070E0B6E7C
:1013C800170E0C6E6A0E0D6E0D2EFED70C2EFCD766
:1013D8000B2EFAD700000400070E0B6E170E0C6ECA
:1013E8006A0E0D6E0D2EFED70C2EFCD70B2EFAD7DB
:1013F800000004009EDD8974020E0001B46F100E17
:10140800B56F2E0EB66F000EB76F090EB86F06DEF9
:10141800150E0B6E4B0E0C6EBE0E0D6E0D2EFED7FE
:101428000C2EFCD70B2EFAD700000400E4D70B0EC5
:101438000B6E260E0C6E5D0E0D6E0D2EFED70C2E4D
:10144800FCD70B2EFAD7000000000400F0D7FFD716
:1016A00010EE15F0680E006E010E016E380EF66E2B
:0E16B000160EF76E000EF86E6FEC07F01200CB
:10145800000000000000005F000000070007001403
:101468007F147F14242A7F2A1223130864623649C2
:101478005522500005030000001C224100004122B3
:101488001C00082A1C2A0808083E080800503000DA
:10149800000808080808003030000020100804027E
:1014A8003E5149453E00427F400042615149462134
:1014B80041454B311814127F1027454545393C4AA0
:1014C80049493001710905033649494936064949F0
:1014D800291E003636000000563600000008142287
:1014E800411414141414412214080002015109066D
:1014F800324979413E7E1111117E7F494949363E74
:10150800414141227F4141221C7F494949417F098C
:101518000901013E414151327F0808087F00417F9F
:1015280041002040413F017F081422417F40404054
:10153800407F0204027F7F0408107F3E4141413E04
:101548007F090909063E4151215E7F09192946464E
:101558004949493101017F01013F4040403F1F2077
:1015680040201F7F2018207F631408146303047829
:101578000403615149454300007F414102040810BA
:101588002041417F000004020102044040404040E5
:10159800000102040020545454787F4844443838E9
:1015A80044444420384444487F3854545418087EEE
:1015B800090102081454543C7F0804047800447D4F
:1015C80040002040443D00007F10284400417F40F7
:1015D800007C041804787C080404783844444438AF
:1015E8007C14141408081414187C7C080404084893
:1015F80054545420043F4440203C4040207C1C204C
:1016080040201C3C4030403C44281028440C50509A
:10161800503C4464544C44000836410000007F00AC
:1016280000004136080008082A1C08081C2A080877
:0116380000B1
:0116390000B0
:01163A00208F
:01163B0000AE
:02163C000000AC
:05163E00544553540067
:0116430000A6
:0116440000A5
:0416450033331380A8
:0116490000A0
:01164A00009F
:03164B00644200F6
:01164E00009B
:01164F000199
:011650000099
:0B1651005954313030205445535400F0
:0A165C0046415354205445535400F6
:011666000182
:011667000082
:011668000180
:03166900644200D8
:10166C004669646572204C6F737320696E70757473
:01167C00006D
:06167D00696E7075740037
:0A16830046415354205445535400CF
:0B168D004669646572204C6F737300A7
:011698000051
:011699003020
:01169A00004F
:01169B00004E
:01169C00014C
:01169D000745
:01169E00004B
:01169F000743
:020000040030CA
:0D000100081A11FF0181FF0FC00FE0004041
:0200000400F00A
:100000004E01001513050001020007000700010062
:100010000050011002200450100022004500FFFF94
:100020000010002200470100022004701000FFFFB2
:10003000001000010000FFFFFFFFFFFFFFFFFFFFB9
:10004000FFFFFFFFFFFFFFFFFFFFFFFFFFFFFFFFC0
:10005000FFFFFFFFFFFFFFFFFFFFFFFFFFFFFFFFB0
:10006000FFFFFFFFFFFFFFFFFFFFFFFFFFFFFFFFA0
:10007000FFFFFFFFFFFFFFFFFFFFFFFFFFFFFFFF90
:10008000FFFFFFFFFFFFFFFFFFFFFFFFFFFFFFFF80
:10009000FFFFFFFFFFFFFFFFFFFFFFFFFFFFFFFF70
:1000A000FFFFFFFFFFFFFFFFFFFFFFFFFFFFFFFF60
:1000B000FFFFFFFFFFFFFFFFFFFFFFFFFFFFFFFF50
:1000C000FFFFFFFFFFFFFFFFFFFFFFFFFFFFFFFF40
:1000D000FFFFFFFFFFFFFFFFFFFFFFFFFFFFFFFF30
:1000E000FFFFFFFFFFFFFFFFFFFFFFFFFFFFFFFF20
:1000F000FFFFFFFFFFFFFFFFFFFFFFFFFF0100000C
:00000001FF

