:1000000080EF09F00000000000EF00F000000000A9
:0A0010000000000000000000F3D71C
:10001C007F50000A12E0949E060E0D6E0D2EFED738
:10002C000000948C060E0D6E0D2EFED70000948EE3
:0C003C00060E0D6E0D2EFED70000120007
:100048007F50000A32E0016A015007081CE30001F2
:10005800C9BF02D0949E01D0948E060E0D6E0D2E4F
:10006800FED70000948C060E0D6E0D2EFED70000F4
:10007800949C060E0D6E00010D2EFDD70000C937A9
:10008800C991012AE1D7948E060E0D6E0D2EFED76A
:100098000000948C060E0D6E0D2EFED70000949C69
:0C00A800060E0D6E0D2EFED7000012009B
:1000B4007F50000A18E0948C060E0D6E0D2EFED7AC
:1000C4000000948E060E0D6E0D2EFED70000949E39
:1000D400060E0D6E0D2EFED70000949C060E0D6EBE
:0800E4000D2EFED700001200F2
:1000EC000B840BAE81EF00F0010E036E026A016A05
:0A00FC00006A0A360232FF0E1200FD
:1001060000019D51C525C86FD2DF7EC0C9F099DFB9
:100116000001C96B96DF0001C451B00FC96F91DFB2
:100126000001C8510F0804E3C8C0C6F0C76B19D058
:10013600C8C002F00232029E0232029E0232029EC3
:100146000232029E02C0C7F002C000F000360090E4
:100156000036009000360090003600900050C85DD2
:10016600C66FC6C0C9F06DDF0001C751100FC96F59
:1001760068DF9DDF7EC0C9F064DF400E0001C96FF5
:0401860060DF120024
:10018A0094DF7EC0C9F05BDF800E0001C96F57DFC4
:0A019A00C4C0C9F054DF3DDF1200BD
:1001A4000B820BAEDCEF00F00368026801680068A4
:0801B4000A360232FF0E1200B0
:0E01BC00026A016A006A086A036A000E1200F5
:0801CA000AAE029E000E1200B5
:1001D2000001BB6BA36B010EA46FBAC0BBF0BB37AF
:1001E200BB91BB37BB91BB37BB91BB37BB91A5530F
:1001F20002E0080EBB27A45302E0040EBB27A35360
:1002020002E0020EBB279653D8A4BB2B52DF7EC05E
:10021200C9F019DFBBC0C9F016DFFFDE060E0C6E97
:10022200300E0D6E0D2EFED70C2EFCD70000040EE4
:100232000001BB5F3EDF7EC0C9F005DFBBC0C9F075
:1002420002DFEBDE060E0C6E300E0D6E0D2EFED7AB
:080252000C2EFCD70000120085
:10025A000CB06FEF01F00CA215EF02F00E6A000E5F
:10026A00026486EF01F0F00E0214D8A451EF01F0F7
:10027A00023A01380F0B02260138F00B016E0038E2
:10028A000F0B01260038F00B006E08380F0B002602
:10029A000838F00B086E0E84D89002BE6AEF01F09F
:1002AA0008360036013602360E2A02BE6AEF01F01F
:1002BA0008360036013602360E2A02BE6AEF01F00F
:1002CA0008360036013602360E2A0E5003640BEF4A
:1002DA0002F0035E0BBC08AE10EF02F0D880800E6D
:1002EA0008640030000E002201220222D8A010EF7A
:1002FA0002F0023201320032034A15EF02F010EF27
:10030A0002F001C002F000C001F008C000F0086A63
:10031A00000E0E860264BDEF01F0F00E0214D8A49E
:10032A00A5EF01F0023A01380F0B02260138F00B53
:10033A00016E00380F0B01260038F00B006E0E8498
:10034A00D89002BE6AEF01F00036013602360E2A54
:10035A0002BE6AEF01F00036013602360E2A02BEEC
:10036A006AEF01F00036013602360E2A6AEF01F012
:10037A0001C002F000C001F0006A000E0E960E885D
:10038A000264EAEF01F0F00E0214D8A4D5EF01F0EE
:10039A00023A01380F0B02260138F00B016E0E8467
:1003AA00D89002BE6AEF01F0013602360E2A02BE6A
:1003BA006AEF01F0013602360E2A02BE6AEF01F038
:1003CA00013602360E2A6AEF01F001C002F0016A14
:1003DA00000E0E8602641AEF02F0F00E0214D8A480
:1003EA00F9EF01F0023A0E84D89002BE6AEF01F0EA
:1003FA0002360E2A02BE6AEF01F002360E2A02BE49
:10040A006AEF01F002360E2A6AEF01F0010E0C6E55
:10041A0068DE1DEF02F0020E0C6ED2DE1DEF02F056
:10042A00040E0C6EBADE1DEF02F0080E0C6EC1DE71
:02043A001200AE
:10043C00BBC0C4F0BAC0C5F060DE0001BF6BBE51DA
:10044C00BF5DD8B0B2D0BF51BC25E96E000EBD2146
:10045C00EA6EEE50000A02E1C16B09D0BF51BC2517
:10046C00E96E000EBD21EA6E200EEE5CC16FC06B12
:10047C00C0510408D8A091D0050EC103F3CF00F0F1
:10048C00F4CF01F0C0510026000E0122080E00240A
:10049C00F66E150E0120F76E000EF86E000E01BE02
:1004AC00FF0EF8220900F5CFC2F0BB51020A000E74
:1004BC00D8A4010E016EBB51040A000ED8A4010E83
:1004CC00006E00500116BB51060A000ED8A4010E96
:1004DC00006E0150001629E0C2B702D0C39F01D0B4
:1004EC00C38FC2B702D0C39D01D0C38DC2B502D099
:1004FC00C39B01D0C38BC2B502D0C39901D0C389B1
:10050C00C2B302D0C39701D0C387C2B302D0C39584
:10051C0001D0C385C2B102D0C39301D0C383C2B191
:10052C0002D0C39101D0C38120D0C2B502D0C39FE9
:10053C0001D0C38FC2B502D0C39D01D0C38DC2B34D
:10054C0002D0C39B01D0C38BC2B302D0C39901D0DC
:10055C00C389C2B102D0C39701D0C387C2B102D044
:10056C00C39501D0C385C393C391C3C0C9F066DDE5
:10057C007F50040A010ED8A4000E016E7F50050AAC
:10058C00010ED8A4000E006E0150001203E0C3C08F
:10059C00C9F054DD0001C02B6BD7C96B4FDD0001D6
:1005AC00C96B4CDD0001BF2B4AD732DD0001BB51BA
:1005BC00010FC46FBAC0C5F0A0DD0001BF6BBE5106
:1005CC00BF5DD8B0BAD0BF51BC25E96E000EBD21BD
:1005DC00EA6EEE50000A02E1C16B09D0BF51BC2596
:1005EC00E96E000EBD21EA6E200EEE5CC16FC06B91
:1005FC00C0510408D8A099D0050EC103F3CF00F068
:10060C00F4CF01F0C0510026000E0122080E002488
:10061C00F66E150E0120F76E000EF86E000E01BE80
:10062C00FF0EF8220900F5CFC2F0BB51020A000EF2
:10063C00D8A4010E016EBB51040A000ED8A4010E01
:10064C00006E00500116BB51060A000ED8A4010E14
:10065C00006E0150001629E0C2BF02D0C39F01D02A
:10066C00C38FC2BF02D0C39D01D0C38DC2BD02D007
:10067C00C39B01D0C38BC2BD02D0C39901D0C38927
:10068C00C2BB02D0C39701D0C387C2BB02D0C395F3
:10069C0001D0C385C2B902D0C39301D0C383C2B900
:1006AC0002D0C39101D0C38128D0C2BD02D0C39F58
:1006BC0001D0C38FC2BD02D0C39D01D0C38DC2BBBC
:1006CC0002D0C39B01D0C38BC2BB02D0C39901D053
:1006DC00C389C2B902D0C39701D0C387C2B902D0B3
:1006EC00C39501D0C385C2B702D0C39301D0C383D5
:1006FC00C2B702D0C39101D0C381C3C0C9F09EDC84
:10070C007F50040A010ED8A4000E016E7F50050A1A
:10071C00010ED8A4000E006E0150001203E0C3C0FD
:10072C00C9F08CDC0001C02B63D7C96B87DC0001DE
:0E073C00C96B84DC0001BF2B42D76ADC1200BF
:10074A00BAC000F00032009E0032009E0032009EC5
:10075A000032009E0A0E0002F3CF01F00F0E0001D4
:0A076A00BA15006E015000261200BF
:100774009FDC7EC0C9F066DC0001C96B63DCAE0E91
:100784000001C96F5FDC7F50020A010ED8A4000E7D
:10079400016E7F50030A010ED8A4000E006E0150B2
:1007A4000012D8B481D0D50E0001C96F4BDC800E85
:1007B4000001C96F47DCA80E0001C96F43DC3F0E7E
:1007C4000001C96F3FDCD30E0001C96F3BDC7F50D1
:1007D400020A04E19EC0C9F035DC05D000019E5137
:1007E4001F0FC96F2FDC400E0001C96F2BDC8D0E6B
:1007F4000001C96F27DC140E0001C96F23DC810ED0
:100804000001C96F1FDCB40E0001C96F1BDCD90ED7
:100814000001C96F17DC220E0001C96F13DC200E22
:100824000001C96F0FDC020E0001C96F0BDC210E41
:100834000001C96F07DC0001C96B04DC7F0E0001F5
:10084400C96F00DC2E0E0001C96F24EC00F07F504C
:10085400020A0BE1A00E0001C96F24EC00F0C00EE7
:100864000001C96F24EC00F00AD0A10E0001C96F89
:1008740024EC00F0C80E0001C96F24EC00F0DA0E7D
:100884000001C96F24EC00F0020E0001C96F24ECD2
:1008940000F0DB0E0001C96F24EC00F0400E0001F3
:1008A400C96F24EC00F089D0D50E0001C96F24EC87
:1008B40000F0800E0001C96F24EC00F0A80E0001C6
:1008C400C96F24EC00F03F0E0001C96F24EC00F066
:1008D400D30E0001C96F24EC00F09EC0C9F024ECD3
:1008E40000F0400E0001C96F24EC00F08D0E0001F1
:1008F400C96F24EC00F0140E0001C96F24EC00F061
:10090400810E0001C96F24EC00F0FF0E0001C96FD5
:1009140024EC00F0D90E0001C96F24EC00F0F10EB4
:100924000001C96F24EC00F0200E0001C96F24EC13
:1009340000F0020E0001C96F24EC00F0210E00014A
:10094400C96F24EC00F00001C96B24EC00F07F0EA9
:100954000001C96F24EC00F02E0E0001C96F24ECD5
:1009640000F07F50040A0BE1A00E0001C96F24ECD3
:1009740000F0C00E0001C96F24EC00F00AD0A10EF3
:100984000001C96F24EC00F0C80E0001C96F24EC0B
:1009940000F0DA0E0001C96F24EC00F0120E000121
:1009A400C96F24EC00F0DB0E0001C96F24EC00F0E9
:1009B400400E0001C96F24EC00F0A40E0001C96FC1
:1009C40024EC00F0A60E0001C96F24EC00F00EEC3C
:1009D40000F0AF0E0001C46FC5EC00F058D00D2E2E
:1009E400FED70C2EFCD70B2EFAD75AEC00F07EC0A3
:1009F400C9F024EC00F0400E0001C96F24EC00F0B3
:100A04007F50020A010ED8A4000E016E7F50030A23
:100A1400010ED8A4000E006E0150001219E000016E
:100A2400BB6BBB51030813E3BBC0C4F0C56B83ECC1
:100A340000F00001BA6B0001800EBA5D05E2BA2B2A
:100A4400C96B24EC00F0F7D70001BB2BEAD718D010
:100A54000001BB6BBB51070813E3BBC0C4F0C56BFB
:100A640083EC00F00001BA6B0001800EBA5D05E270
:100A7400BA2BC96B24EC00F0F7D70001BB2BEAD7E3
:100A84000EEC00F0AF0E0001C46FC5EC00F01200D4
:100A9400FF0E00019F6FFF0EA06FFF0EA16FFF0EF0
:100AA400A26FC26A761C006E0050C116070EC012F7
:060AB400C08EC28012009A
:100ABA00A69CBAC0A9FFA69EA680A8CF00F01200E5
:100ACA000B800BAE71EF05F0026A0AAEFF0E026EE2
:0C0ADA00016E006E0A360232FF0E1200A0
:100AE6000B6A0350D8B4B9EF05F002500A6E028EB5
:100AF6008E0E035E03AEBDEF05F0036C080E035CBD
:100B0600D8A098EF05F0036E013602C001F0026A24
:100B1600080E035CD8A098EF05F0036E0136016A53
:100B26000350D8A4D890A2EF05F00350D8B4A2EF92
:100B360005F0D89002320132032E9CEF05F00BBC73
:100B460001A0AFEF05F0D8A0AFEF05F0012AD8B4A9
:100B5600022A02BECCEF05F00AAED1EF05F0021E66
:100B6600011E012AD8B4022AD1EF05F0026A016AF1
:100B7600D1EF05F00B800BAED5EF05F0026A0AAE99
:100B8600D5EF05F0FF0E026E016E0A360232D5EF82
:100B960005F0010E0C6E96DFD7EF05F0000E0C6E19
:100BA600D7EF05F0FF0E0C6E0150006E0250016E7D
:020BB60012002B
:100BB8000400010E0001BA6F7CDF00C095F0020E40
:100BC800BA6F77DF0050010A02E1010E756E030E5D
:100BD800BA6F6FDF00C0BAF0B4DD00C09BF0000E42
:100BE8009C6F040EBA6F65DF00C0BAF0AADD0A0E6A
:100BF8000002F3CF99F0F4CF9AF0050EBA6F59DFDF
:100C080000C0BAF09EDD0A0E0002F3CF97F0F4CFD1
:100C180098F0060EBA6F4DDF00C0BAF092DD0A0EEA
:100C28000002F3CFB2F0F4CFB3F0090EBA6F41DF90
:100C380000C0BAF086DD0A0E0002F3CFB0F0F4CFA0
:100C4800B1F00A0EBA6F35DF00C07AF00B0EBA6F3A
:100C580030DF00C07BF00C0EBA6F2BDF00C07CF0D9
:100C68000D0EBA6F26DF00C078F00E0EBA6F21DFC6
:100C780000C079F00F0EBA6F1CDF00C077F00400D7
:100C8800100EBA6F16DF00C0BAF05BDD640E00020A
:100C9800F3CFB4F0F4CFB5F0110EBA6F0ADF00C08D
:100CA800BAF04FDD0050B425A66F000EB521A76F2E
:100CB800120EBA6FFEDE00C0BAF043DD640E000209
:100CC800F3CFB4F0F4CFB5F0130EBA6FF2DE00C074
:100CD800BAF037DD0050B425AC6F000EB521AD6F0A
:100CE800140EBA6FE6DE00C0BAF02BDD640E000207
:100CF800F3CFB4F0F4CFB5F0150EBA6FDADE00C05A
:100D0800BAF01FDD0050B425AE6F000EB521AF6FED
:100D1800160EBA6FCEDE00C0BAF013DD640E000204
:100D2800F3CFB4F0F4CFB5F0170EBA6FC2DE00C03F
:100D3800BAF007DD0050B425A86F000EB521A96FE1
:100D4800180EBA6FB6DE00C0BAF0FBDC640E000203
:100D5800F3CFB4F0F4CFB5F0190EBA6FAADE00C025
:100D6800BAF0EFDC0050B425AA6F000EB521AB6FC6
:100D78001A0EBA6F9EDE00C0BAF0E3DC640E000201
:100D8800F3CFB4F0F4CFB5F01B0EBA6F92DE00C00B
:100D9800BAF0D7DC0050B425876F000EB521886FF4
:100DA8001C0EBA6F86DE00C0BAF0CBDC640E0002FF
:100DB800F3CFB4F0F4CFB5F01D0EBA6F7ADE00C0F1
:100DC800BAF0BFDC0050B425896F000EB5218A6FD8
:100DD800200EBA6F6EDE00C0BAF0B3DC640E0002FB
:100DE800F3CFB4F0F4CFB5F0210EBA6F62DE00C0D5
:100DF800BAF0A7DC0050B425856F000EB521866FC8
:100E0800220EBA6F56DE00C0BAF09BDC640E0002F8
:100E1800F3CFB4F0F4CFB5F0230EBA6F4ADE00C0BA
:100E2800BAF08FDC0050B425816F000EB521826FB7
:100E3800240EBA6F3EDE00C0BAF083DC640E0002F6
:100E4800F3CFB4F0F4CFB5F0250EBA6F32DE00C0A0
:100E5800BAF077DC0050B425836F000EB521846F9B
:100E6800260EBA6F26DE00C0BAF06BDC640E0002F4
:100E7800F3CFB4F0F4CFB5F0270EBA6F1ADE00C086
:100E8800BAF05FDC0050B4258F6F000EB521906F6B
:100E9800280EBA6F0EDE00C0BAF053DC640E0002F2
:100EA800F3CFB4F0F4CFB5F0290EBA6F02DE00C06C
:100EB800BAF047DC0050B425916F000EB521926F4F
:100EC8002A0EBA6FF6DD00C0BAF03BDC640E0002F1
:100ED800F3CFB4F0F4CFB5F02B0EBA6FEADD00C053
:100EE800BAF02FDC0050B4258D6F000EB5218E6F3F
:100EF8002C0EBA6FDEDD00C0BAF023DC640E0002EF
:100F0800F3CFB4F0F4CFB5F02D0EBA6FD2DD00C038
:100F1800BAF017DC0050B4258B6F000EB5218C6F2A
:100F2800300EBA6FC6DD00C021F0310EBA6FC1DDD8
:100F380000C0BAF006DC00C017F0320EBA6FB9DD97
:100F480000C0BAF0A5EC03F000C018F0330EBA6F79
:100F5800B0DD00C016F0340EBA6FABDD00C0BAF0D9
:100F6800A5EC03F000C07DF0350EBA6FA2DD00C01D
:0E0F7800BAF0A5EC03F000C015F00400120062
:100F86000900F5CFE6FF0006FBE10106F9E11200D4
:100F9600070EB46E600ED36E9B8C806A816A826A7D
:100FA600400E896E8A6A8B6A030E926E070E936EE6
:0E0FB600946A6DDD0D0EC16EF19EF29E12006A
:100FC40000C008F00B6A0C6A9E0E036E0A6A026A7D
:0E0FD400016A006A020E0C6E2DEC01F0120094
:100FE200070E0001BA6F68DD00C09EF0080EBA6FEE
:100FF20063DD00C09DF07F50010803E2BAEC03F00C
:1010020063D07F50010A60E1010E0001A56F966B6B
:10101200030EBA6FE9EC00F01A0E0C6EF80E0D6EAC
:101022000D2EFED70C2EFCD70000030E0001BA6F66
:10103200E9EC00F0060E0C6E300E0D6E0D2EFED792
:101042000C2EFCD70000030E0001BA6FE9EC00F091
:10105200020E0001BA6FE9EC00F0020E0001BA6F55
:10106200E9EC00F0080E0001BA6FE9EC00F00001B3
:10107200BA6BE9EC00F0080E0001BA6FE9EC00F07F
:101082000001BA6BE9EC00F0010E0001BA6FE9EC65
:1010920000F01A0E0C6EF80E0D6E0D2EFED70C2EF1
:1010A200FCD700000001BA6BE9EC00F0060E00016B
:1010B200BA6FE9EC00F00001BA6BE9EC00F00C0E3B
:0A10C2000001BA6FE9EC00F0120023
:1010CC007F50040A010ED8A4000E016E7F50050A51
:1010DC00010ED8A4000E006E015000120DE0B5C038
:1010EC00BAF0B4C0BBF0B6C0BCF0B7C0BDF0B8C06D
:1010FC00BEF01EEC02F05DD07F50020A010ED8A4A7
:10110C00000E016E7F50030A010ED8A4000E006E73
:10111C000150001214E0070E0001B503F3CFBAF032
:10112C00040EBA27B4C0BBF0BB37BB91B6C0BCF041
:10113C00B7C0BDF0B8C0BEF01EEC02F03AD0000152
:10114C00966BB4C000F00036009000360090005052
:10115C00080FBA6FE9EC00F0B5C0BAF0E9EC00F09A
:10116C00010E0001966FB96BB851B95D22E2B9510D
:10117C00B625E96E000EB721EA6EEECF01F001C084
:10118C00BAF0BA33BA9FBA33BA9FBA33BA9FBA33EA
:10119C00BA9FE9EC00F00001B951B625E96E000EDA
:1011AC00B721EA6EEECFBAF0E9EC00F00001B92BF2
:0411BC00DBD712006B
:1011C000086A096A000E0762036465EF09F00250BD
:1011D00006180A6E075003267E0ED8A0F6EF08F018
:1011E000035ED8B06AEF09F0FAEF08F0035ED8A00A
:1011F0006FEF09F0028E068E02C00EF001C00BF0F8
:1012000000C00DF000500402F4CF0CF001500502B4
:10121000F4CF00F0F3CF08F00402F3500C26F450A2
:101220000822000E00220D500502F3500C26F45047
:101230000822000E002202500402F3500826F45047
:10124000002202500502016A000E0122F35000261E
:10125000F45001220D500602F3500826F4500022EB
:10126000026A000E012202220B500602F3500026F1
:10127000F4500122000E02220E500602F350012605
:10128000F450022202BE4DEF09F008360036013656
:1012900002360306D8B46FEF09F060EF09F0D8808A
:1012A000800E08640030000E002201220222D8A025
:1012B00060EF09F0023201320032034A6AEF09F0AE
:1012C0000AAE029E000E72EF09F0010EDEEC00F095
:1012D00072EF09F0020ED2EC00F072EF09F0040E8A
:0612E00076EC00F01200A4
:1012E6000001BA6B5DEC05F000C07EF0010EBA6F2E
:0A12F6005DEC05F000C07FF012006F
:10130000A8EC0BF0D0B602D0010E206E44DE54DC07
:10131000EADF67DEA40E0001C46FC5EC00F089743B
:10132000020E0001B46F100EB56F1B0EB66F000EEB
:10133000B76F040EB86FCADE150E0B6E4B0E0C6E37
:10134000BE0E0D6E0D2EFED70C2EFCD70B2EFAD72F
:101350000000E5D70D2EFED70C2EFCD70B2EFAD7AA
:101360000000040029DCBFDF9551000A02E18A8CED
:101370008A8E18C000F026DE22C004F023C005F0DB
:1013800024C006F025C007F01BDF73EC05F000C099
:1013900019F001C01AF0070E0B6E170E0C6E6A0ED4
:1013A0000D6E0D2EFED70C2EFCD70B2EFAD700009B
:1013B000040081B202D0048001D0049081B402D034
:1013C000D88001D0D89004A003D002E3048001D0DB
:1013D000049004A003D0010E446E756A7A50050A89
:1013E00003E1010E456E0BD07A50060A03E1020EAE
:1013F000456E05D07A50070A02E1040E456E7C5016
:10140000050A03E1010E436E0BD07C50060A03E18E
:10141000020E436E05D07C50070A02E1040E436EB3
:10142000070E0B6E170E0C6E6A0E0D6E0D2EFED78C
:101430000C2EFCD70B2EFAD700000400070E0B6E03
:10144000170E0C6E6A0E0D6E0D2EFED70C2EFCD7ED
:101450000B2EFAD700000400070E0B6E170E0C6E51
:101460006A0E0D6E0D2EFED70C2EFCD70B2EFAD762
:1014700000000400070E0B6E170E0C6E6A0E0D6E48
:101480000D2EFED70C2EFCD70B2EFAD70000040031
:10149000070E0B6E170E0C6E6A0E0D6E0D2EFED71C
:1014A0000C2EFCD70B2EFAD7000004009ADD8974AD
:1014B000020E0001B46F100EB56F2E0EB66F000E47
:1014C000B76F090EB86F02DE150E0B6E4B0E0C6E69
:1014D000BE0E0D6E0D2EFED70C2EFCD70B2EFAD79E
:1014E00000000400E4D70B0E0B6E260E0C6E5D0E92
:1014F0000D6E0D2EFED70C2EFCD70B2EFAD700004A
:0815000000000400F0D7FFD742
:1017500010EE15F0680E006E010E016EE80EF66ECA
:0E176000160EF76E000EF86EC3EC07F01200C6
:10150800000000000000005F000000070007001452
:101518007F147F14242A7F2A122313086462364911
:101528005522500005030000001C22410000412202
:101538001C00082A1C2A0808083E08080050300029
:1015480000080808080800303000002010080402CD
:101558003E5149453E00427F400042615149462183
:1015680041454B311814127F1027454545393C4AEF
:10157800494930017109050336494949360649493F
:10158800291E0036360000005636000000081422D6
:1015980041141414141441221408000201510906BC
:1015A800324979413E7E1111117E7F494949363EC3
:1015B800414141227F4141221C7F494949417F09DC
:1015C8000901013E414151327F0808087F00417FEF
:1015D80041002040413F017F081422417F404040A4
:1015E800407F0204027F7F0408107F3E4141413E54
:1015F8007F090909063E4151215E7F09192946469E
:101608004949493101017F01013F4040403F1F20C6
:1016180040201F7F2018207F631408146303047878
:101628000403615149454300007F41410204081009
:101638002041417F00000402010204404040404034
:10164800000102040020545454787F484444383838
:1016580044444420384444487F3854545418087E3D
:10166800090102081454543C7F0804047800447D9E
:1016780040002040443D00007F10284400417F4046
:10168800007C041804787C080404783844444438FE
:101698007C14141408081414187C7C0804040848E2
:1016A80054545420043F4440203C4040207C1C209B
:1016B80040201C3C4030403C44281028440C5050EA
:1016C800503C4464544C44000836410000007F00FC
:1016D80000004136080008082A1C08081C2A0808C7
:0116E8000001
:0116E9000000
:0116EA0020DF
:0116EB0000FE
:0216EC000000FC
:0516EE005445535400B7
:0116F30000F6
:0116F40000F5
:0416F50033331380F8
:0116F90000F0
:0116FA0000EF
:0316FB0064420046
:0116FE0000EB
:0116FF0001E9
:0117000000E8
:0B17010059543130302054455354003F
:0A170C004641535420544553540045
:0117160001D1
:0117170000D1
:0117180001CF
:0317190064420027
:10171C004669646572204C6F737320696E707574C2
:01172C0000BC
:06172D00696E7075740086
:0A173300464153542054455354001E
:0B173D004669646572204C6F737300F6
:0117480000A0
:01174900306F
:01174A00009E
:01174B00009D
:01174C00019B
:01174D000794
:01174E00009A
:01174F000792
:020000040030CA
:0D000100081A11FF0181FF0FC00FE0004041
:0200000400F00A
:100000004E01001513050001020007000700010062
:100010000050011002200450100022004500FFFF94
:100020000010002200470100022004701000FFFFB2
:10003000001000010000FFFFFFFFFFFFFFFFFFFFB9
:10004000FFFFFFFFFFFFFFFFFFFFFFFFFFFFFFFFC0
:10005000FFFFFFFFFFFFFFFFFFFFFFFFFFFFFFFFB0
:10006000FFFFFFFFFFFFFFFFFFFFFFFFFFFFFFFFA0
:10007000FFFFFFFFFFFFFFFFFFFFFFFFFFFFFFFF90
:10008000FFFFFFFFFFFFFFFFFFFFFFFFFFFFFFFF80
:10009000FFFFFFFFFFFFFFFFFFFFFFFFFFFFFFFF70
:1000A000FFFFFFFFFFFFFFFFFFFFFFFFFFFFFFFF60
:1000B000FFFFFFFFFFFFFFFFFFFFFFFFFFFFFFFF50
:1000C000FFFFFFFFFFFFFFFFFFFFFFFFFFFFFFFF40
:1000D000FFFFFFFFFFFFFFFFFFFFFFFFFFFFFFFF30
:1000E000FFFFFFFFFFFFFFFFFFFFFFFFFFFFFFFF20
:1000F000FFFFFFFFFFFFFFFFFFFFFFFFFF0100000C
:00000001FF

