:10000000F1EF2EF00000000000EF00F00000000013
:0A0010000000000000000000F3D71C
:10001C000201D951000A18E0948C060E0D6E0D2EBB
:10002C00FED70000948E060E0D6E0D2EFED700002E
:10003C00949E060E0D6E0D2EFED70000949C060E9F
:0A004C000D6E0D2EFED7000012000D
:100056000201D951000A32E0016A015007081CE387
:10006600030173BF02D0949E01D0948E060E0D6ECE
:100076000D2EFED70000948C060E0D6E0D2EFED7AB
:100086000000949C060E0D6E03010D2EFDD7000098
:1000960073377391012AE1D7948E060E0D6E0D2EDD
:1000A600FED70000948C060E0D6E0D2EFED70000B6
:0E00B600949C060E0D6E0D2EFED7000012005B
:1000C4000201D951000A12E0949E060E0D6E0D2E07
:1000D400FED70000948C060E0D6E0D2EFED7000088
:0E00E400948E060E0D6E0D2EFED7000012003B
:1000F200086A096A100E0C6E01340836093604507B
:10010200085E0550D8A0053C095ED8B007D004505F
:1001120008260550D8B0053C0926D890003601368D
:060122000C2EEAD71200CA
:100128000201DB5103016F25726F74DFDAC273F3CA
:100138008EDF0301736B8BDF03016E51B00F736F9A
:1001480086DF030172510F0804E372C370F3716B09
:1001580019D072C302F00232029E0232029E0232AB
:10016800029E0232029E02C071F302C000F0003605
:100178000090003600900036009000360090005045
:10018800725D706F70C373F362DF03017151100FFA
:10019800736F5DDF3FDFDAC273F359DF400E03018F
:0601A800736F55DF120029
:1001AE000B840BAEE2EF00F0010E036E026A016AE1
:0A01BE00006A0A360232FF0E12003A
:0E01C800026A016A006A086A036A000E1200E9
:0801D6000AAE029E000E1200A9
:1001DE000301686B050E685D0AE268516625E16EE3
:1001EE00000E6721E26E200EE66E682BF3D7685183
:1001FE006625E16E000E6721E26EE66A68076851B9
:10020E006625696F000E67216A6F0A0E046E000E76
:10021E00056E64C300F065C301F064DF08C000F032
:10022E0009C001F0300E002669C3E1FF6AC3E2FF88
:10023E0000C0E6FF0A0E046E000E056E64C300F0E9
:10024E0065C301F04FDF00C064F301C065F3000E1B
:10025E00011802E1000E001801E102D06807CFD7A5
:02026E0012007C
:0A0270001D0E0D6E0D2EFED71200BC
:10027A000B800BAE49EF01F0026A0AAEFF0E026E66
:0C028A00016E006E0A360232FF0E1200F8
:100296000B820BAE55EF01F0036802680168006837
:0802A6000A360232FF0E1200BD
:1002AE000C6A0E6A0250D8A470EF01F001C002F081
:1002BE0000C001F0006A0E860250D8A470EF01F063
:1002CE0001C002F0016A0E960E880250D8B482EF79
:1002DE0001F00E50035ED8A4D8A087EF01F0D8909D
:1002EE0002BE8CEF01F0003601360236032E77EF98
:1002FE0001F087EF01F0010E0C6E5FDF8FEF01F062
:10030E00020E0C6E4DDF8FEF01F0040E0C6E5CDFF3
:02031E001200CB
:100320000301656B0201D26B010ED16F64C365F3EB
:100330000301653765916537659165376591653767
:1003400065910201D85303E0080E030165270201FD
:10035000D15303E0040E030165270201D25303E0E9
:10036000020E030165270201D75302E00301652B4A
:1003700055DEDAC273F36FDE65C373F36CDEA2DEA3
:10038000060E0C6E300E0D6E0D2EFED70C2EFCD709
:100390000000040E0301655F41DEDAC273F35BDE29
:1003A00065C373F358DE8EDE060E0C6E300E0D6ED6
:0C03B0000D2EFED70C2EFCD70000120012
:1003BC002FDEDAC273F349DE400E0301736F45DEA4
:1003CC0065C36EF364C36FF3A9DE0301696B6851F7
:1003DC00695DD8B0B3D069516625E96E000E67210E
:1003EC00EA6EEE50000A02E16B6B09D0695166258A
:1003FC00E96E000E6721EA6E200EEE5C6B6F6A6B85
:10040C006A510408D8A092D0050E6B03F3CF00F00C
:10041C00F4CF01F06A510026000E0122AE0E00242A
:10042C00F66E650E0120F76E000EF86E000E01BE22
:10043C00FF0EF8220900F5CF6CF36551020A000E8D
:10044C00D8A4010E016E6551040A000ED8A4010E49
:10045C00006E005001166551060A000ED8A4010E5C
:10046C00006E0150001629E06CB702D06D9F01D0D0
:10047C006D8F6CB702D06D9D01D06D8D6CB502D0B7
:10048C006D9B01D06D8B6CB502D06D9901D06D89CF
:10049C006CB302D06D9701D06D876CB302D06D95A3
:1004AC0001D06D856CB102D06D9301D06D836CB1B0
:1004BC0002D06D9101D06D8120D06CB502D06D9FB2
:1004CC0001D06D8F6CB502D06D9D01D06D8D6CB36C
:1004DC0002D06D9B01D06D8B6CB302D06D9901D0A5
:1004EC006D896CB102D06D9701D06D876CB102D063
:1004FC006D9501D06D856D936D916DC373F3A5DD15
:10050C000201D951040A010ED8A4000E016ED95172
:10051C00050A010ED8A4000E006E0150001203E073
:10052C006DC373F392DD03016A2B6AD7736B8DDD98
:10053C000301736B8ADD0301692B49D76551010FE8
:10054C006E6F64C36FF3EADD0301696B6851695D1B
:10055C00D8B0BBD069516625E96E000E6721EA6EF2
:10056C00EE50000A02E16B6B09D069516625E96E09
:10057C00000E6721EA6E200EEE5C6B6F6A6B6A519F
:10058C000408D8A09AD0050E6B03F3CF00F0F4CF7B
:10059C0001F06A510026000E0122AE0E0024F66E08
:1005AC00650E0120F76E000EF86E000E01BEFF0EF8
:1005BC00F8220900F5CF6CF36551020A000ED8A49D
:1005CC00010E016E6551040A000ED8A4010E006ED6
:1005DC00005001166551060A000ED8A4010E006EDB
:1005EC000150001629E06CBF02D06D9F01D06D8FB9
:1005FC006CBF02D06D9D01D06D8D6CBD02D06D9B1A
:10060C0001D06D8B6CBD02D06D9901D06D896CBB26
:10061C0002D06D9701D06D876CBB02D06D9501D067
:10062C006D856CB902D06D9301D06D836CB902D01D
:10063C006D9101D06D8128D06CBD02D06D9F01D021
:10064C006D8F6CBD02D06D9D01D06D8D6CBB02D0D9
:10065C006D9B01D06D8B6CBB02D06D9901D06D89F7
:10066C006CB902D06D9701D06D876CB902D06D95C5
:10067C0001D06D856CB702D06D9301D06D836CB7D2
:10068C0002D06D9101D06D816DC373F3DEDC02017C
:10069C00D951040A010ED8A4000E016ED951050AD5
:1006AC00010ED8A4000E006E0150001203E06DC3C1
:1006BC0073F3CBDC03016A2B62D7736BC6DC0301CB
:0E06CC00736BC3DC0301692B41D7F6DC12000F
:1006DA000CB0AFEF03F00CA255EF04F00E6A000E57
:1006EA000264C6EF03F0F00E0214D8A491EF03F0EF
:1006FA00023A01380F0B02260138F00B016E00385E
:10070A000F0B01260038F00B006E08380F0B00267D
:10071A000838F00B086E0E84D89002BEAAEF03F0D8
:10072A0008360036013602360E2A02BEAAEF03F058
:10073A0008360036013602360E2A02BEAAEF03F048
:10074A0008360036013602360E2A0E5003644BEF85
:10075A0004F0035E0BBC08AE50EF04F0D880800EA4
:10076A0008640030000E002201220222D8A050EFB5
:10077A0004F0023201320032034A55EF04F050EF1E
:10078A0004F001C002F000C001F008C000F0086ADD
:10079A00000E0E860264FDEF03F0F00E0214D8A4D8
:1007AA00E5EF03F0023A01380F0B02260138F00B8D
:1007BA00016E00380F0B01260038F00B006E0E8414
:1007CA00D89002BEAAEF03F00036013602360E2A8E
:1007DA0002BEAAEF03F00036013602360E2A02BE26
:1007EA00AAEF03F00036013602360E2AAAEF03F00A
:1007FA0001C002F000C001F0006A000E0E960E88D9
:10080A0002642AEF04F0F00E0214D8A415EF04F0E3
:10081A00023A01380F0B02260138F00B016E0E84E2
:10082A00D89002BEAAEF03F0013602360E2A02BEA3
:10083A00AAEF03F0013602360E2A02BEAAEF03F02F
:10084A00013602360E2AAAEF03F001C002F0016A4D
:10085A00000E0E8602645AEF04F0F00E0214D8A4B9
:10086A0039EF04F0023A0E84D89002BEAAEF03F0E0
:10087A0002360E2A02BEAAEF03F002360E2A02BE82
:10088A00AAEF03F002360E2AAAEF03F0010E0C6E4D
:10089A0089DC5DEF04F0020E0C6E98DC5DEF04F06B
:1008AA00040E0C6EF3DC5DEF04F0080E0C6E87DCB0
:0208BA0012002A
:1008BC000050086E0150006E016A026A036A0B6AEE
:1008CC000C6A960E036E0A6A00C001F008C000F0B4
:0808DC00086A026AE6DC120062
:1008E4000450085E0550D8A0053C095E0650D8A007
:1008F400063C0A5E0750D8A0073C0B5E0336070E81
:100904000C6E0334083609360A360B36045003A03D
:100914000ED0085E0550D8A0053C095E0650D8A04C
:10092400063C0A5E0750D8A0073C0B5E0DD0082693
:100934000550D8B0053C09260650D8B0063C0A2616
:100944000750D8B0073C0B2603360C2EDAD70234F6
:10095400083609360A360B36045003A00ED0085E5A
:100964000550D8A0053C095E0650D8A0063C0A5E96
:100974000750D8A0073C0B5E0DD008260550D8B010
:10098400053C09260650D8B0063C0A260750D8B0C4
:10099400073C0B260236070E0C6E02340836093665
:1009A4000A360B36045002A00ED0085E0550D8A0BB
:1009B400053C095E0650D8A0063C0A5E0750D8A044
:1009C400073C0B5E0DD008260550D8B0053C09261F
:1009D4000650D8B0063C0A260750D8B0073C0B2670
:1009E40002360C2EDAD70134083609360A360B36AD
:1009F400045002A00ED0085E0550D8A0053C095E44
:100A04000650D8A0063C0A5E0750D8A0073C0B5EEF
:100A14000DD008260550D8B0053C09260650D8B09C
:100A2400063C0A260750D8B0073C0B260136070EB1
:100A34000C6E0134083609360A360B36045001A010
:100A44000ED0085E0550D8A0053C095E0650D8A01B
:100A5400063C0A5E0750D8A0073C0B5E0DD0082662
:100A64000550D8B0053C09260650D8B0063C0A26E5
:100A74000750D8B0073C0B2601360C2EDAD70034C9
:100A8400083609360A360B36045001A00ED0085E2B
:100A94000550D8A0053C095E0650D8A0063C0A5E65
:100AA4000750D8A0073C0B5E0DD008260550D8B0DF
:100AB400053C09260650D8B0063C0A260750D8B093
:100AC400073C0B260036070E0C6E00340836093638
:100AD4000A360B36045000A00ED0085E0550D8A08C
:100AE400053C095E0650D8A0063C0A5E0750D8A013
:100AF400073C0B5E0DD008260550D8B0053C0926EE
:100B04000650D8B0063C0A260750D8B0073C0B263E
:100B140000360C2EDAD700B00ED00450082605504B
:100B2400D8B0053C09260650D8B0063C0A26075022
:080B3400D8B0073C0B261200AB
:080B3C000B6A0B86FF0E12008C
:100B44000B1E0A1E091E081E082AD8B4092AD8B486
:080B54000A2AD8B40B2A120092
:100B5C00086A096A000E0762036433EF06F002505C
:100B6C0006180A6E075003267E0ED8A0C4EF05F0B7
:100B7C00035ED8B038EF06F0C8EF05F0035ED8A0DE
:100B8C003DEF06F0028E068E02C00EF001C00BF097
:100B9C0000C00DF000500402F4CF0CF0015005021F
:100BAC00F4CF00F0F3CF08F00402F3500C26F4500D
:100BBC000822000E00220D500502F3500C26F450B2
:100BCC000822000E002202500402F3500826F450B2
:100BDC00002202500502016A000E0122F350002689
:100BEC00F45001220D500602F3500826F450002256
:100BFC00026A000E012202220B500602F35000265C
:100C0C00F4500122000E02220E500602F35001266F
:100C1C00F450022202BE1BEF06F0083600360136F5
:100C2C0002360306D8B43DEF06F02EEF06F0D8805E
:100C3C00800E08640030000E002201220222D8A08F
:100C4C002EEF06F0023201320032034A38EF06F082
:100C5C000AAE029E000E40EF06F0010EE4EC00F02E
:100C6C0040EF06F0020E4BEC01F040EF06F0040EE4
:060C7C00D7EC00F01200AD
:100C820000C008F00150006E016A026A036A0B6A32
:100C92000C6A016A026A036A960E036E0A6A00AE61
:100CA20059EF06F0081E001E082AD8B4002A0A8E40
:100CB20000C001F008C000F0086A026A57EC01F0B7
:020CC20012001E
:100CC400830EC2165AC300F000360090003600901E
:100CD4000050C21238EC01F0C282C2A201D0FDD78A
:100CE400C4CF01F0006AC3500012000E01121200BA
:100CF400220E0C6E086A096A0A6A0B6A0C06D8B4DA
:100D04001FD0D8900B320A32093208320332023231
:100D140001320032D8A0F2D70C06D8B409D004505E
:100D240008260550092206500A2207500B22EAD74A
:100D3400045008260550092206500A2207500B22A7
:020D440012009B
:100D46000B6A0350D8B4E9EF06F002500A6E028E21
:100D56008E0E035E03AEEDEF06F0036C080E035C29
:100D6600D8A0C8EF06F0036E013602C001F0026A91
:100D7600080E035CD8A0C8EF06F0036E0136016AC0
:100D86000350D8A4D890D2EF06F00350D8B4D2EFCF
:100D960006F0D89002320132032ECCEF06F00BBCDF
:100DA60001A0DFEF06F0D8A0DFEF06F0012AD8B4E5
:100DB600022A02BEFCEF06F00AAE02EF07F0021EA0
:100DC600011E012AD8B4022A02EF07F0026A016A5C
:100DD60002EF07F00B800BAE06EF07F0026A0AAED1
:100DE60006EF07F0FF0E026E016E0A36023206EFBC
:100DF60007F0010E0C6E3DEC01F008EF07F0000E57
:100E06000C6E08EF07F0FF0E0C6E0150006E0250DC
:040E1600016E120057
:100E1A000201D951040A010ED8A4000E016ED9515B
:100E2A00050A010ED8A4000E006E015000120DE052
:100E3A005BC364F35AC365F35CC366F35DC367F3CC
:100E4A005EC368F3DEEC01F05DD0D951020A010EEF
:100E5A00D8A4000E016ED951030A010ED8A4000EBF
:100E6A00006E0150001214E0070E03015B03F3CF7A
:100E7A0064F3040E64275AC365F3653765915CC34E
:100E8A0066F35DC367F35EC368F3DEEC01F03AD044
:100E9A00D76B5AC300F0003600900036009000501D
:100EAA00080F0301646F90EC01F05BC364F390ECEC
:100EBA0001F0010ED76F03015F6B5E515F5D22E2A5
:100ECA005F515C25E96E000E5D21EA6EEECF01F0FE
:100EDA0001C064F36433649F6433649F6433649F22
:100EEA006433649F90EC01F003015F515C25E96E65
:100EFA00000E5D21EA6EEECF64F390EC01F003017F
:060F0A005F2BDBD7120093
:100F10000301606B616B5AC362F35BC363F3800EC2
:100F20005B19006E800E005C02E1000E5A5D0BE260
:100F3000010E606F000E616F5A510008626F5BC353
:100F400063F3000E635762C364F363C365F35CC36A
:100F500066F35DC367F3EFEC00F0060E5E6F000E04
:100F60005F6F000E006E5F51005C02E15E51000891
:100F700019E25E515C25E16E5F515D21E26E010E6A
:100F80005E5D006E000E5F59016E00505C25E96EDB
:100F900001505D21EA6EEECFE6FF010E5E5F000EAE
:100FA0005F5BDFD75CC3E1FF5DC3E2FF200EE66E4F
:100FB000605161111AE05E6B5F6B5E515C25E96EFA
:100FC0005F515D21EA6EEE50200A03E15E4B5F2B1C
:100FD000F4D7010E5E5F000E5F5B5E515C25E16E33
:0C0FE0005F515D21E26E2D0EE66E1200E6
:100FEC00030E0C6E950E0D6E0D2EFED70C2EFCD72F
:020FFC001200E1
:100FFE000B6A0A6A096A00500402F4CF09F0F3CFB3
:10100E0008F001500502F4CF0BF0F3CF0AF00050B8
:10101E000502F3500926F4500A22E86A0B22015009
:10102E000402F3500926F4500A22E86A0B2208C083
:10103E0000F009C001F00AC002F00BC003F012006C
:10104E00800E006E800E03015419005C02E15351B4
:10105E00500803E3006A016ABBD0800E006E800E5A
:10106E005419005C02E15351AB0805E3F40E53270B
:10107E00000E5423A9D0800E010A006E800E541962
:10108E00005C02E15351480805E3FE0E5327000EA3
:10109E0054239AD0800E020A006E800E5419005C02
:1010AE0002E15351460805E3180E5327010E54234F
:1010BE008BD0800E030A006E800E5419005C02E184
:1010CE005351340805E3290E5327010E54237CD0C7
:1010DE00800E040A006E800E5419005C02E153511A
:1010EE004C0805E3360E5327010E54236DD0800EA7
:1010FE00080A006E800E5419005C02E153518508F7
:10110E0005E3AE0E5327010E54235ED0800E0C0A5B
:10111E00006E800E5419005C02E15351FA0805E38B
:10112E00E40E5327010E54234FD0800E120A006E88
:10113E00800E5419005C02E153510F0805E3120EA4
:10114E005327020E542340D0800E160A006E800ED6
:10115E005419005C02E15351E60805E3880E53274B
:10116E00020E542331D0800E1B0A006E800E5419CD
:10117E00005C02E15351EA0805E3E70E5327020E25
:10118E00542322D0800E210A006E800E5419005C6A
:10119E0002E15351360805E3200E5327030E542364
:1011AE0013D0800E290A006E800E5419005C02E1E5
:1011BE005351040805E3480E5327030E542304D05D
:1011CE005C0E5327030E542353C300F054C301F097
:0211DE001200FD
:1011E00000C008F00B6A0C6A9E0E036E0A6A026A5F
:0E11F000016A006A020E0C6E6DEC03F0120034
:1011FE000A6A0350D8A40A800750D8A40A820A505B
:10120E00D8B462EF09F0030AD8B41BEF09F00AB0A4
:10121E0016EF09F006AE60EF09F05EEF09F002AED0
:10122E005EEF09F060EF09F00250800B0A6E029E2D
:10123E000650800B069E0A18D8B42CEF09F00A50FF
:10124E00D8B45EEF09F060EF09F00750035CD8B434
:10125E0036EF09F0D8A052EF09F058EF09F006501A
:10126E00025CD8B440EF09F0D8A052EF09F058EF65
:10127E0009F00550015CD8B44AEF09F0D8A052EF3E
:10128E0009F058EF09F00450005CD8B462EF09F091
:10129E00D8B058EF09F00A52D8B460EF09F05EEFFB
:1012AE0009F00A52D8B45EEF09F060EF09F0D88069
:0E12BE001200D8901200D880D88412001200BE
:1012CC00010E03015A6FF8DC5EEC04F0890E046E1B
:1012DC00410E056E1C0E066E810E076E39DC2DDD7F
:0212EC001200EE
:1012EE00A00E0301556F0F0E566F000E576F586FFD
:1012FE00A00E006E0F0E016E000E026E000E036E3B
:10130E0053C304F054C305F0000E066E076EEBDCFB
:10131E0000C055F301C056F302C057F303C058F393
:10132E00000E035C08E1000E025C05E1020E015C9A
:10133E0002E1940E005C01E231D0940E555F020E74
:10134E00565B000E575B585B050E006E005007E0B3
:10135E005833573356335533589FFF0FF8D755C36D
:10136E0000F056C301F057C302F058C303F0010E4C
:10137E00555F000E565B575B585B00500110021014
:10138E0003100CE000000000000000000000000050
:0E139E0000000000000000000000E1D7120077
:1013AC000050086E0150006E0250016E0350026E28
:1013BC00036A0B6A0C6A9E0E036E0A6A02AEF3EFA6
:1013CC0009F0081E001E011E021E082AD8B4002AAD
:1013DC00D8B4012AD8B4022A0A8E020E0C6E6DEC17
:0413EC0003F01200F8
:1013F0000EEC00F0DAC273F32BEC00F0800E030168
:10140000736F2BEC00F053C373F32BEC00F062EC22
:0414100000F01200D6
:10141400025006180E6E086A096A0B6A03500764C4
:10142400FDEF0AF006500A6E068E028E03500B6E14
:101434000750036E000E0B644DEF0AF00B50075E6D
:10144400D8B4EEEF0AF0070E0764BCEF0AF0075EAB
:1014540000C008F001C000F002C001F0026A074EAB
:10146400EEEF0AF0076491EF0AF0075E00C008F09F
:1014740001C000F0016A074EEEEF0AF007646FEF57
:101484000AF0075E00C008F0006A074EEEEF0AF0AB
:10149400076456EF0AF00AC002F005C001F004C068
:1014A40000F0086A1AEF0CF0030E076461EF0AF00B
:1014B400075E08380F0B086E074EEEEF0AF0D8905F
:1014C4000832074EEEEF0AF0D8900832074EEEEFDE
:1014D4000AF0D8900832EEEF0AF0030E076480EFAA
:1014E4000AF0075E08380F0B086E0038F00B082668
:1014F40000380F0B006E074EEEEF0AF0D890003262
:101504000832074EEEEF0AF0D89000320832074E48
:10151400EEEF0AF0D89000320832EEEF0AF0030E34
:101524000764A8EF0AF0075E08380F0B086E00384E
:10153400F00B082600380F0B006E0138F00B002664
:1015440001380F0B016E074EEEEF0AF0D89001320E
:1015540000320832074EEEEF0AF0D8900132003222
:101564000832074EEEEF0AF0D8900132003208320A
:10157400EEEF0AF0030E0764D9EF0AF0075E0838AD
:101584000F0B086E0038F00B082600380F0B006EA6
:101594000138F00B002601380F0B016E0238F00BF6
:1015A400012602380F0B026E074EEEEF0AF0D890B8
:1015B4000232013200320832074EEEEF0AF0D890C0
:1015C4000232013200320832074EEEEF0AF0D890B0
:1015D4000232013200320832096A000E0EAEE2EF26
:1015E4000BF0081E001E011E021E082A0022012202
:1015F4000222E2EF0BF00750D8A403EF0BF01AEF2E
:101604000CF0096A02C00AF0028E068E0750035CD1
:10161400076ED8B4D5EF0BF0070E0764A3EF0BF0F9
:10162400075E0450096E0550046E0650056E066A86
:10163400074ED5EF0BF0070E076478EF0BF0075E4B
:101644000450096E0550046E056A074ED5EF0BF081
:10165400070E076456EF0BF0075E0450096E046A28
:10166400074ED5EF0BF0070E07643DEF0BF00AC0F1
:1016740002F01AEF0CF0030E076448EF0BF0075E5C
:1016840009380F0B096E074ED5EF0BF0D8900932CD
:10169400074ED5EF0BF0D8900932074ED5EF0BF07B
:1016A400D8900932D5EF0BF0030E076467EF0BF007
:1016B400075E09380F0B096E0438F00B092604384D
:1016C4000F0B046E074ED5EF0BF0D890043209329D
:1016D400074ED5EF0BF0D89004320932074ED5EF00
:1016E4000BF0D89004320932D5EF0BF0030E0764E7
:1016F4008FEF0BF0075E09380F0B096E0438F00BFF
:10170400092604380F0B046E0538F00B042605383F
:101714000F0B056E074ED5EF0BF0D890053204324F
:101724000932074ED5EF0BF0D89005320432093256
:10173400074ED5EF0BF0D890053204320932D5EFBD
:101744000BF0030E0764C0EF0BF0075E09380F0BB4
:10175400096E0438F00B092604380F0B046E0538A3
:10176400F00B042605380F0B056E0638F00B052622
:1017740006380F0B066E074ED5EF0BF0D8900632E5
:10178400053204320932074ED5EF0BF0D8900632F9
:10179400053204320932074ED5EF0BF0D8900632E9
:1017A400053204320932086A000E0EAEE2EF0BF085
:1017B400091E041E051E061E092A042205220622ED
:1017C4000950082604500022055001220650022226
:1017D4000EBEF9EF0BF0D8A008EF0CF00232013284
:1017E40000320832033E08EF0CF014EF0CF0D8B0CE
:1017F4000EEF0CF0000E081E001E011E021E082A29
:101804000022012202220A7E0EEF0CF0010E0C6E61
:101814006DEC03F01CEF0CF0020E0C6E6DEC03F09B
:101824001CEF0CF0040E0C6E4BEC01F01CEF0CF0F2
:06183400000E0C6E120014
:10183A000450000A12E10550000A0FE10650000A9E
:10184A000CE10750000A09E1FF0E006EFF0E016E5F
:10185A007F0E026EFF0E036EA8D0086A096A07504F
:10186A00D8B4C8EF0CF00350D8B4CDEF0CF0025046
:10187A0006180A6E028E068E0E6A02C008F001C0B1
:10188A000CF000C00DF004500D5E0550D8A0053CC8
:10189A000C5E0650D8A0063C085E086A0C6A0D6AFF
:1018AA00D8A05FEF0CF0D890023201320032083231
:1018BA00010E0E6E0750035ED8A06CEF0CF07E0E80
:1018CA000E240326D8B0D2EF0CF072EF0CF07E0E85
:1018DA000E240326D8A0D7EF0CF0180E0B6E0D3687
:1018EA000C3608360036013602360E360450005ED3
:1018FA000550D8A0053C015E0650D8A0063C025E01
:10190A0006340E120EA08DEF0CF00D8098EF0CF03D
:10191A00045000260550D8B0053C01260650D8B020
:10192A00062802260D900B2E74EF0CF0BEEF0CF079
:10193A00D8900036013602360E360450005E055045
:10194A00D8A0053C015E0650D8A0063C025E0634CB
:10195A000E10010B0D26D8B00C2AD8B4082AD8A428
:10196A00BEEF0CF008320C320D32032AD8B4D2EF93
:10197A000CF00AAE089E0850026E0C50016E0D5013
:10198A00006EDAEF0CF0010E9EEC05F0DAEF0CF0C7
:10199A00020EE4EC00F0DAEF0CF0040E4BEC01F06E
:0C19AA00DAEF0CF0080ED7EC00F0120091
:1019B60003015A6B62EC06F000C053F301C054F306
:1019C600800E030A026E800E0118025C02E10050CE
:1019D600E80804E2010E0001E46F02D00001E46BA6
:1019E60053C300F054C301F041EC06F0890E046EB7
:1019F600410E056E1C0E066E810E076EAEEC05F0EE
:061A0600A3EC06F0120043
:101A0C000450000A12E10550000A0FE10650000ACA
:101A1C000CE10750000A09E1FF0E006EFF0E016E8B
:101A2C00FF0E026E7F0E036E99D00C6A07BE0C2A55
:101A3C000D6A0B6A0A6A096A086A035002100110DF
:101A4C000010D8B485D0035007180E6E0EBE0D1EB4
:101A5C0007AE0BD0041E051E061E071E042AD8B4A2
:101A6C00052AD8B4062AD8B4072A03AE0BD0001E18
:101A7C00011E021E031E002AD8B4012AD8B4022A61
:101A8C00D8B4032A035007100E6E0EBE1DD072EC94
:101A9C0004F00CBE36D00DAE5BD0001E011E021E33
:101AAC00031E002AD8B4012AD8B4022AD8B4032AB7
:101ABC00081E091E0A1E0B1E082AD8B4092AD8B4FF
:101ACC000A2AD8B40B2A44D007AE15D003BE0DD0C9
:101ADC0003500B6E02500A6E0150096E0050086ED6
:101AEC00036A026A016A006AD6D7036A026A016A4B
:101AFC00006A002A000C031E021E011E001E0C8E22
:101B0C00C6D7082AD8B4092AD8B40A2AD8B40B2ABA
:101B1C000450085CD8A4BFD70550095CD8A4BBD727
:101B2C0006500A5CD8A4B7D707500B5CD8A4B3D71F
:101B3C000B6A0A6A096A086A002AD8B4012AD8B45E
:101B4C00022AD8B4032A03AEA6D70E6A0E88FF0C5D
:0E1B5C000E6A0CA002D0A2EC05F0000F1200E1
:101B6A000301596B55C301F0010E006E015004E0E8
:101B7A0000360090FF0FFBD700C058F353C3E9FFAC
:101B8A0054C3EAFF0050EE14016E0152010ED8A4AC
:101B9A00000E006E5751001A1AE05651000806E26C
:101BAA00F6EC07F0F6EC07F05607F7D753C3E9FF50
:101BBA0054C3EAFF5851EE14016E0152010ED8A423
:101BCA00000E006E5751001A02E0FF0E596F59C3FA
:041BDA0000F0120005
:101BDE0004000201EC6BED6B47A108D00301055127
:101BEE000201EC27030106510201ED2347A308D0A1
:101BFE00030103510201EC27030104510201ED23FD
:101C0E0047A508D0030107510201EC270301085133
:101C1E000201ED2347A708D003010B510201EC2767
:101C2E0003010C510201ED2347A908D0030109510C
:101C3E000201EC2703010A510201ED2347AB08D044
:101C4E00030101510201EC27030102510201ED23B0
:101C5E0047AD04D0F051EC27F151ED2347AF04D03E
:101C6E00EE51EC27EF51ED23800E270A006E800E09
:101C7E00ED19005C02E1EC510F081FE2320EEC256B
:101C8E00006E000EED21016E00C0ECF201C0EDF20F
:101C9E0000C05AF301C05BF3F20E03015C6F020E3B
:101CAE005D6F88EC07F0F3C2FAF2F4C2FBF22E0E6F
:101CBE000201FC6FF5C2FDF226D0ECC25AF3EDC262
:101CCE005BF3F20E03015C6F020E5D6F88EC07F0A2
:101CDE000201F451200A03E0F4C2FAF202D0300EEF
:101CEE00FA6F2E0EFB6FF551200A03E0F5C2FCF2DF
:101CFE0002D0300EFC6FF651200A03E0F6C2FDF260
:101D0E0002D0300EFD6FF951040A010ED8A4000E58
:101D1E00016EF951050A010ED8A4000E006E015095
:101D2E00001231E04551010A04E1040E0301536F24
:101D3E0003D00301060E536F53C35AF3100E5B6F9D
:101D4E00240E5C6F020E5D6F020E5E6F0DEC07F0DF
:101D5E0053C35AF3580E03015B6F210E5C6F020ED4
:101D6E005D6F020E5E6F0DEC07F053C35AF3280E33
:101D7E0003015B6FFA0E5C6F020E5D6F040E5E6FF9
:101D8E000DEC07F073D00201F951020A010ED8A42E
:101D9E00000E016EF951030A010ED8A4000E006E5A
:101DAE000150001230E04551010A03E10301536B6B
:101DBE0003D00301010E536F53C35AF3090E5B6F29
:101DCE00270E5C6F020E5D6F020E5E6F0DEC07F05C
:101DDE0053C35AF30F0E03015B6F2D0E5C6F020E91
:101DEE005D6F020E5E6F0DEC07F053C35AF30B0ED0
:101DFE0003015B6FFA0E5C6F020E5D6F040E5E6F79
:101E0E000DEC07F033D00201F951010A2FE14551D3
:101E1E00010A03E10301536B03D00301010E536F5B
:101E2E0053C35AF3090E5B6F2A0E5C6F020E5D6F81
:101E3E00020E5E6F0DEC07F053C35AF30F0E030143
:101E4E005B6F1F0E5C6F020E5D6F010E5E6F0DEC11
:101E5E0007F053C35AF30B0E03015B6FFA0E5C6F60
:101E6E00020E5D6F040E5E6F0DEC07F004000201B2
:101E7E00EC6BED6B46A104D0DE51EC27DF51ED2368
:101E8E0046A304D0DC51EC27DD51ED2346A504D04A
:101E9E00E051EC27E151ED2346A704D0E451EC27A5
:101EAE00E551ED2346A904D0E251EC27E351ED2391
:101EBE0046AB04D0E651EC27E751ED2346AD04D0F6
:101ECE00E851EC27E951ED23ECC25AF3EDC25BF376
:101EDE00F20E03015C6F020E5D6F88EC07F0F4C228
:101EEE00FAF2F5C2FBF2F6C2FCF2F7C2FDF2020103
:101EFE00F951040A010ED8A4000E016EF951050A1B
:101F0E00010ED8A4000E006E0150001231E04551B2
:101F1E00010A04E1060E0301536F03D00301040E00
:101F2E00536F53C35AF3100E5B6F390E5C6F020E74
:101F3E005D6F020E5E6F0DEC07F053C35AF3580E31
:101F4E0003015B6F3C0E5C6F020E5D6F020E5E6FE7
:101F5E000DEC07F053C35AF3280E03015B6FFA0E14
:101F6E005C6F020E5D6F040E5E6F0DEC07F073D0AA
:101F7E000201F951020A010ED8A4000E016EF951A8
:101F8E00030A010ED8A4000E006E0150001230E0BC
:101F9E004551010A04E1010E0301536F02D0030102
:101FAE00536B53C35AF3090E5B6F420E5C6F020EF6
:101FBE005D6F020E5E6F0DEC07F053C35AF30F0EFA
:101FCE0003015B6F3F0E5C6F020E5D6F020E5E6F64
:101FDE000DEC07F053C35AF30B0E03015B6FFA0EB1
:101FEE005C6F020E5D6F040E5E6F0DEC07F033D06A
:101FFE000201F951010A2FE14551010A04E1010ED6
:10200E000301536F02D00301536B53C35AF3090EEE
:10201E005B6F360E5C6F020E5D6F020E5E6F0DEC27
:10202E0007F053C35AF30F0E03015B6F310E5C6F53
:10203E00020E5D6F010E5E6F0DEC07F053C35AF387
:10204E000B0E03015B6FFA0E5C6F020E5D6F040EDA
:0A205E005E6F0DEC07F004001200A5
:102068000134083609360450085E0550D8A0053CEE
:10207800095E003601360F0E0C6E0134083609363B
:10208800045000A006D0085E0550D8A0053C095EA3
:1020980005D008260550D8B0053C0926003601367B
:1020A8000C2EEBD700B006D0045008260550D8B047
:0820B800053C0926000012009E
:1020C000030137B102D08A9201D08A8237B302D09D
:1020D0008A9401D08A8437B502D08A9601D08A8644
:1020E00037B702D08A9801D08A8837B902D08A9A45
:1020F00001D08A8A37BB02D08A9C01D08A8C37BD36
:1021000002D08A9E01D08A8EEAC253F3EBC254F306
:0621100077EC09F012005B
:1021160004004EDC00C037F301C038F3000E01BEE8
:10212600FF0E0301396F3A6F66EC09F000C03BF30E
:1021360001C03CF3000E01BEFF0E03013D6F3E6F72
:102146001B50010A1BE137C300F038C301F0030E30
:10215600046E000E056EFFEC07F000C053F301C0DD
:1021660054F327EC08F041EC06F000C03FF301C041
:1021760040F302C041F303C042F31AD037C300F064
:1021860038C301F039C302F03AC303F0030E046EFC
:10219600000E056E066E076E7AEC06F0D6EC09F0B8
:1021A60000C03FF301C040F302C041F303C042F355
:1021B600800E3E19006E800E3A19005C08E1395116
:1021C6003D5D05E138513C5D02E137513B5D08E379
:1021D600E70E376F030E386F000E396F3A6F45D032
:1021E6003B513725006E3C513821016E3D51392156
:1021F600026E3E513A21036E640E046E000E056EA9
:10220600066E076E7AEC06F037C304F038C305F0A5
:1022160039C306F03AC307F03B51045E3C51055AF8
:102226003D51065A3E51075A06EC0DF000C037F3F1
:1022360001C038F302C039F303C03AF3800E046ECE
:10224600800E0318045C08E10250000805E1015005
:10225600030802E10050E70808E2E70E0301376FC2
:10226600030E386F000E396F3A6F1AC000F0F0ECAB
:1022760008F03FC304F040C305F041C306F042C373
:1022860007F0AEEC05F0000E046E000E056E7A0E39
:10229600066E880E076E1DEC0CF000C03FF301C001
:1022A60040F302C041F303C042F3F40E046EFD0E88
:1022B600056E340E066E7F0E076E1DEC0CF000C028
:1022C6003FF301C040F302C041F303C042F30201F1
:1022D6003451010A25E13FC300F040C301F041C378
:1022E60002F042C303F03FC304F040C305F041C30C
:1022F60006F042C307F0AEEC05F0000E046E000EC9
:10230600056E480E066E840E076E1DEC0CF000C0BE
:102316003FF301C040F302C041F303C042F324D0AF
:102326003FC300F040C301F041C302F042C303F0D3
:102336003FC304F040C305F041C306F042C307F0B3
:10234600AEEC05F0000E046E000E056E200E066E55
:10235600810E076E1DEC0CF000C03FF301C040F388
:1023660002C041F303C042F33FC300F040C301F093
:1023760041C302F042C303F0000E046E000E056E68
:10238600000E066E7E0E076E0AEC0AF000C03FF3E2
:1023960001C040F302C041F303C042F3A3EC06F0D0
:1023A60000C00FF301C010F3800E03013A19006E4E
:1023B600800E005C08E1000E395D05E1000E385D17
:1023C60002E1640E375D05E2E70E0D6F030E0E6F38
:0C23D60004D037C30DF338C30EF312001F
:1023E20002014851000A25E1030137B102D08B9066
:1023F20001D08B8037B302D08B9201D08B8237B55C
:1024020002D08B9401D08B8437B702D08B9601D047
:102412008B8637B902D08B9801D08B8837BB02D01C
:102422008B9A01D08B8A37BD02D0899A01D0898AD2
:1024320024D0030137B102D08B8001D08B9037B307
:1024420002D08B8201D08B9237B502D08B8401D01F
:102452008B9437B702D08B8601D08B9637B902D0D6
:102462008B8801D08B9837BB02D08B8A01D08B9A94
:1024720037BD02D0898A01D0899AEAC253F3EBC2EE
:0824820054F377EC09F012009D
:10248A00810E0301536F0F0E546F556B190E566F61
:10249A00576BB5EC0DF000C037F3810E536F0F0E7A
:1024AA00546F010E556F190E566F576BB5EC0DF040
:1024BA0000503713810E536F0F0E546F020E556F73
:1024CA00190E566F576BB5EC0DF03751001203E039
:0824DA00010E0001946F1200D5
:1024E2000201D951010806E2AF0E0301536FF8EC65
:1024F20009F00ED0D951010A0BE1010ED86FD76B4A
:102502000301646B90EC01F00301646B90EC01F049
:022512001200B5
:10251400030137B102D0899E01D0898EEAC253F3F8
:0A252400EBC254F377EC09F012004B
:10252E000450000A08E10550000A05E1FF0E006E96
:10253E007F0E016E57D00D6A096A086A01500010AD
:10254E00D8B4000C015005180A6E0ABE0D1E0B6A97
:10255E0005AE05D0041E051E042AD8B4052A01AE08
:10256E0005D0001E011E002AD8B4012A0150051004
:10257E000A6E0ABE10D071DD0BB020D00DAE000C6D
:10258E00001E011E002AD8B4012A081E091E082AA0
:10259E00D8B4092A000C05AE0DD001BE07D00150EB
:1025AE00096E0050086E016A006AE8D7016A006A77
:1025BE00002A000C011E001E0B2ADDD7082AD8B4F3
:1025CE00092A0450085CD8A4D9D70550095CD8A4B0
:1025DE00D5D7096A086A002AD8B4012A01AECED727
:0625EE000000FF0C1200CA
:1025F400000E03013F6F000E406F480E416F850EC1
:10260400426F040002013051000A010ED8A4000EEA
:10261400016E3351010A010ED8A4000E006E005061
:102624000116800E03013819006E800E005C02E171
:102634000A0E375D000ED8B0010E006E0150001670
:10264400D8B4ABD002013551000AD8A4A2D0F951B4
:10265400040A010ED8A4000E016EF951050A010EF8
:10266400D8A4000E006E015000122CE03451010A6F
:102674000EE1040E03015A6F100E5B6FA50E5C6F22
:10268400020E5D6F080E5E6F0DEC07F00DD0040EA8
:1026940003015A6F100E5B6F9C0E5C6F020E5D6F30
:1026A400080E5E6F0DEC07F0060E03015A6F100E54
:1026B4005B6FB70E5C6F020E5D6F080E5E6F0DEC04
:1026C40007F067D00201F951020A010ED8A4000EE6
:1026D400016EF951030A010ED8A4000E006E0150D8
:1026E40000122AE03451010A0DE103015A6B090E6C
:1026F4005B6FAE0E5C6F020E5D6F080E5E6F0DECCD
:1027040007F00CD003015A6B090E5B6F830E5C6FEC
:10271400020E5D6F080E5E6F0DEC07F0010E0301F3
:102724005A6F090E5B6F7A0E5C6F020E5D6F080EB6
:102734005E6F0DEC07F02DD00201F951010A29E179
:102744003451010A0DE103015A6B090E5B6F940EBB
:102754005C6F020E5D6F070E5E6F0DEC07F00CD020
:1027640003015A6B090E5B6F8C0E5C6F020E5D6F7A
:10277400070E5E6F0DEC07F0010E03015A6F090E90
:102784005B6FC00E5C6F020E5D6F070E5E6F0DEC2B
:1027940007F0010E0201356F08D002013551010A1C
:1027A40002E1EFEC0DF00201356B04000301385136
:1027B4000201C91903E1C85103013719D8B483D3FD
:1027C40037C3C8F238C3C9F202013451000A49E1DF
:1027D400800E03013819006E800E005C02E1640E65
:1027E400375D1EE3050E3725006E000E3821016E9D
:1027F40000C037F301C038F300C05AF301C05BF3E3
:10280400F20E5C6F020E5D6F88EC07F0F4C2FAF210
:10281400F5C2FBF2F6C2FCF2570E0201FD6F20D0A6
:1028240037C35AF338C35BF3F20E03015C6F020E35
:102834005D6F88EC07F00201F651200A03E0F6C24E
:10284400FAF202D0300EFA6F2E0EFB6FF751200A07
:1028540003E0F7C2FCF202D0300EFC6F570EFD6F9E
:1028640032D0800E03013819006E800E030A005C1A
:1028740002E1E70E375D14E237C35AF338C35BF362
:10288400F20E5C6F020E5D6F88EC07F0F5C2FAF28F
:10289400F6C2FBF2F7C2FCF2570E0201FD6F13D031
:1028A40037C35AF338C35BF3F20E03015C6F020EB5
:1028B4005D6F88EC07F0F4C2FAF2F5C2FBF2F6C2DF
:1028C400FCF2F7C2FDF20201F951040A010ED8A488
:1028D400000E016EF951050A010ED8A4000E006E17
:1028E400015000120DE003015A6B400E5B6FFA0EAB
:1028F4005C6F020E5D6F040E5E6F0DEC07F010D07E
:102904000201F951000A0CE003015A6B040E5B6FDB
:10291400FA0E5C6F020E5D6F040E5E6F0DEC07F035
:10292400040002013551010AD8A4CDD24751000A4E
:10293400010ED8A4000E016E4651000A010ED8A45F
:10294400000E006E0150001604E039C318F33AC3B8
:1029540019F318C300F019C301F041EC06F000C0EC
:102964004BF301C04CF302C04DF303C04EF3000E11
:10297400046E000E056E480E066E850E076E4BC380
:1029840000F04CC301F04DC302F04EC303F01DEC44
:102994000CF000C047F301C048F302C049F303C080
:1029A4004AF34BC304F04CC305F04DC306F04EC3C9
:1029B40007F0000E006E000E016E480E026E850ECA
:1029C400036E1DEC0CF047C304F048C305F049C383
:1029D40006F04AC307F00AEC0AF000C047F301C04E
:1029E40048F302C049F303C04AF317C300F0F0EC04
:1029F40008F047C304F048C305F049C306F04AC3CE
:102A040007F0AEEC05F0000E046E000E056E200E0D
:102A1400066E820E076E1DEC0CF01F0E046E850E02
:102A2400056E6B0E066E7B0E076EAEEC05F0000EA7
:102A3400046E000E056E000E066E7F0E076E0AEC25
:102A44000AF000C004F001C005F002C006F003C0A3
:102A540007F0000E006E000E016E000E026E7F0E77
:102A6400036E1DEC0CF000C04FF301C050F302C024
:102A740051F303C052F34FC33FF350C340F351C368
:102A840041F352C342F339C300F03AC301F041ECBD
:102A940006F000C04BF301C04CF302C04DF303C079
:102AA4004EF3000E046E000E056E480E066E850E83
:102AB400076E4BC300F04CC301F04DC302F04EC38C
:102AC40003F01DEC0CF0000E046E000E056E000EFB
:102AD400066E800E076E0AEC0AF000C047F301C0D0
:102AE40048F302C049F303C04AF34BC304F04CC398
:102AF40005F04DC306F04EC307F0000E006E000E45
:102B0400016E480E026E850E036E1DEC0CF047C379
:102B140004F048C305F049C306F04AC307F00AECC1
:102B24000AF000C004F001C005F002C006F003C0C2
:102B340007F0000E006E000E016E000E026E810E94
:102B4400036E1DEC0CF000C043F301C044F302C05B
:102B540045F303C046F3000E046E000E056E000E2E
:102B6400066E7F0E076E4FC300F050C301F051C3D1
:102B740002F052C303F0FFEC08F0000ED8B0010ECF
:102B8400006E005209E0000E03013F6F000E406F1B
:102B9400000E416F7F0E426F000E046E000E056E34
:102BA400000E066E7F0E076E43C300F044C301F0AF
:102BB40045C302F046C303F0FFEC08F0000ED8B0A2
:102BC400010E006E005209E00301000E436F000E77
:102BD400446F000E456F7F0E466F37C300F038C355
:102BE40001F041EC06F03FC304F040C305F041C3DB
:102BF40006F042C307F0AEEC05F043C304F044C34F
:102C040005F045C306F046C307F0AEEC05F0A3ECAF
:102C140006F000C03BF301C03CF33FC300F040C3E7
:102C240001F041C302F042C303F043C304F044C3C0
:102C340005F045C306F046C307F0AEEC05F0000E00
:102C4400046E000E056E480E066E850E076EAEEC21
:102C540005F0A3EC06F000C03DF301C03EF3800E86
:102C64000118026E800E025C02E1640E005C05E352
:102C74000301630E3D6F000E3E6F02013451000AE2
:102C840049E1800E03013C19006E800E005C02E1F4
:102C9400640E3B5D1EE3050E3B25006E000E3C21D9
:102CA400016E00C03BF301C03CF300C05AF301C005
:102CB4005BF3F20E5C6F020E5D6F88EC07F0F4C2FA
:102CC400FAF2F5C2FBF2F6C2FCF2570E0201FD6FF6
:102CD40020D03BC35AF33CC35BF3F20E03015C6F99
:102CE400020E5D6F88EC07F00201F651200A03E042
:102CF400F6C2FAF202D0300EFA6F2E0EFB6FF751C5
:102D0400200A03E0F7C2FCF202D0300EFC6F570E2B
:102D1400FD6F32D0800E03013C19006E800E030A51
:102D2400005C02E1E70E3B5D14E23BC35AF33CC393
:102D34005BF3F20E5C6F020E5D6F88EC07F0F5C278
:102D4400FAF2F6C2FBF2F7C2FCF2570E0201FD6F73
:102D540013D03BC35AF33CC35BF3F20E03015C6F25
:102D6400020E5D6F88EC07F0F4C2FAF2F5C2FBF2D2
:102D7400F6C2FCF2F7C2FDF20201F951040A010E97
:102D8400D8A4000E016EF951050A010ED8A4000E54
:102D9400006E015000120EE0040E03015A6F400E43
:102DA4005B6FFA0E5C6F020E5D6F040E5E6F0DECCE
:102DB40007F02DD00201F951020A010ED8A4000E29
:102DC400016EF951030A010ED8A4000E006E0150E1
:102DD40000120DE003015A6B0D0E5B6FFA0E5C6F6F
:102DE400020E5D6F040E5E6F0DEC07F010D0020151
:102DF400F951000A0CE003015A6B0C0E5B6FFA0EDA
:102E04005C6F020E5D6F040E5E6F0DEC07F03DC348
:102E14005AF33EC35BF3F20E03015C6F020E5D6F67
:102E240088EC07F0F6C2FAF2F7C2FBF20201F9519C
:102E3400040A010ED8A4000E016EF951050A010E10
:102E4400D8A4000E006E015000120EE0060E03011D
:102E54005A6F4C0E5B6FFA0E5C6F020E5D6F020EC2
:102E64005E6F0DEC07F02FD00201F951020A010E3A
:102E7400D8A4000E016EF951030A010ED8A4000E65
:102E8400006E015000120EE0010E03015A6F0E0E87
:102E94005B6FFA0E5C6F020E5D6F020E5E6F0DECDF
:102EA40007F011D00201F951010A0DE1010E0301ED
:102EB4005A6F0D0E5B6FFA0E5C6F020E5D6F020EA1
:0A2EC4005E6F0DEC07F00400120031
:102ECE0004000301385102015C1903E15B51030157
:102EDE003719D8B4A7D0030137C35BF238C35CF2FD
:102EEE00000E381902E1000E37193AE10201F951CC
:102EFE00040A010ED8A4000E016EF951050A010E46
:102F0E00D8A4000E006E015000120EE0020E030156
:102F1E005A6F400E5B6F150E5C6F000E5D6F040EE8
:102F2E005E6F0DEC07F018D00201F951000A0EE0A9
:102F3E00010E03015A6F040E5B6F400E5C6F000EA4
:102F4E005D6F040E5E6F0DEC07F006D00201F951B5
:102F5E00000A02E18B8C8B8E02015B6B5C6B62D084
:102F6E0037C35AF338C35BF3F20E03015C6F020EE4
:102F7E005D6F88EC07F0F5C2FAF22E0E0201FB6FC0
:102F8E00F6C2FCF2F7C2FDF2F951040A010ED8A402
:102F9E00000E016EF951050A010ED8A4000E006E46
:102FAE00015000120EE0020E03015A6F400E5B6FCD
:102FBE00FA0E5C6F020E5D6F040E5E6F0DEC07F085
:102FCE0031D00201F951000A0EE0010E03015A6FD1
:102FDE00040E5B6FFA0E5C6F020E5D6F040E5E6F79
:102FEE000DEC07F01FD00201F951000A1BE1800E13
:102FFE00006E800E03013819005C02E1375196080D
:10300E0003E38B9C8B8E0ED0800E006E800E3819D3
:10301E00005C02E13751FA0803E38B9C819E02D0DB
:08302E008B8C8B9E0400120044
:103036000201476B466B0301376BF1EC11F046C298
:1030460037F360EC10F0EAC253F3EBC254F377ECBB
:0430560009F012006B
:10305A00A6A202D00000FCD7A69C2FC3A9FF30C3AA
:10306A00A8FFA69EA684F2CF00F0F29E550EA76E88
:10307A00AA0EA76EA68200BE02D0F29E01D0F28EE0
:0E308A00A694A1B802D00000FCD7A1981200B5
:103098000301356B366B640E0201CE5D0301306FA0
:1030A800000E0201CF590301316F0F6B106B040042
:1030B80000019251000A010ED8A4000E016E915130
:1030C800010A010ED8A4000E006E0150001631E06E
:1030D8008BEC10F0800E1019006E800E005C02E17F
:1030E8000A0E0F5D25E347C237F3F1EC11F046C233
:1030F80037F360EC10F045C237F38AEC12F0010E9A
:103108000001926F71EC12F093C000F0F0EC08F03F
:1031180095C004F096C005F097C006F098C007F077
:10312800AEEC05F0A3EC06F000C08FF001C090F003
:103138004DD3780E0301326F2F6B32512F5D4BE266
:1031480081B202D0068001D0069081B402D0D88026
:1031580001D0D89006B003D002E2069201D00682D0
:1031680081B002D0D88001D0D89005E30201CDA16A
:1031780002D0068001D0069006B204D006B002D074
:10318800D89001D0D88008E345EC12F000019451A2
:10319800010A02E1946B1AD38BEC10F0800E3619F9
:1031A800006E800E1019005C02E10F51355D08E2D7
:1031B8000FC335F310C336F30DC333F30EC334F323
:1031C800100E0C6E940E0D6E0D2EFED70C2EFCD725
:1031D80000002F2BB2D70400800E3619006E800E27
:1031E800005C02E1640E355D1AE3050E3525006EBC
:1031F800000E3621016E0A0E046E000E056E97EC65
:1032080012F000C035F301C036F30A0E046E000E4A
:10321800056EFFEC07F000C035F301C036F335C387
:10322800A3F036C3A4F0800E03013619006E800E99
:10323800005C02E10A0E355D02E2336B346B33C386
:1032480037F334C338F33FDE800E0001A419016E52
:10325800800E015C02E10A0EA35D000ED8B0010EDB
:10326800016E93510008010ED8B0000E006E015097
:1032780000161BE09251000A04E1010E926F71ECF6
:1032880012F093C000F0F0EC08F095C004F096C07E
:1032980005F097C006F098C007F0AEEC05F0A3EC77
:1032A80006F000C08FF001C090F0800E03013419C1
:1032B800006E800E0201CF19005C03E1CE510301BC
:1032C800335D000ED8B0010E006E00500001E61507
:1032D800056E800E02017119036E800E0301341908
:1032E800035C03E133510201705D0201010ED8B0A5
:1032F800000E036E70510301335D016E02017151BE
:1033080003013459026E800E3119006E800E0218C6
:10331800005C02E10150305D010ED8B0000E006E75
:1033280000500314046E800E3419036E800E0201DF
:103338007119035C03E170510301335D0301010E50
:10334800D8B0000E036E33510201705D016E0301A7
:10335800345102017159026E800E03013119006E59
:10336800800E0218005C02E10150305D010ED8B0F9
:10337800000E006E0350001600500410016E02018A
:103388007151030A02E1E70E7019010ED8A4000E6C
:10339800006E015000120550001603E0010E0001F6
:1033A800E56F81B202D0068001D0069081B402D0C8
:1033B800D88001D0D89006B003D002E2069201D09E
:1033C800068281B002D0D88001D0D89005E30201EE
:1033D800CDA102D0068001D0069006B204D006B076
:1033E80002D0D89001D0D88008E345EC12F0000153
:1033F8009451010A02E1946BE9D1A3C037F3A4C048
:1034080038F333C339F334C33AF3FAEC12F081B228
:1034180002D0068001D0069081B402D0D88001D0B5
:10342800D89006B003D002E2069201D0068281B09D
:1034380002D0D88001D0D89005E30201CDA102D0F6
:10344800068001D0069006B204D006B002D0D8900B
:1034580001D0D88008E345EC12F000019451010A2C
:1034680002E1946BB3D100010400E451010AD8A42D
:10347800ADD10201F951040A010ED8A4000E016E63
:10348800F951050A010ED8A4000E006E0150001271
:10349800D8B4CAD0020E03015A6F100E5B6FE70E44
:1034A8005C6F000E5D6F080E5E6F0DEC07F0030E8B
:1034B8000B6E080E0C6E770E0D6E0D2EFED70C2EB1
:1034C800FCD70B2EFAD7020E03015A6F100E5B6F52
:1034D800020E5C6F010E5D6F080E5E6F0DEC07F05B
:1034E8000B0E0B6E260E0C6E5D0E0D6E0D2EFED79E
:1034F8000C2EFCD70B2EFAD7000000000400020E99
:1035080003015A6F100E5B6FF90E5C6F000E5D6F52
:10351800080E5E6F0DEC07F0070E0B6E170E0C6EA3
:103528006A0E0D6E0D2EFED70C2EFCD70B2EFAD779
:1035380000000400020E03015A6F100E5B6FF00EBC
:103548005C6F000E5D6F080E5E6F0DEC07F00B0EE2
:103558000B6E260E0C6E5D0E0D6E0D2EFED70C2E0C
:10356800FCD70B2EFAD7000000000400020E03015E
:103578005A6F100E5B6FB70E5C6F000E5D6F080E12
:103588005E6F0DEC07F0070E0B6E170E0C6E6A0ED1
:103598000D6E0D2EFED70C2EFCD70B2EFAD7000081
:1035A8000400020E03015A6F100E5B6FAE0E5C6FC3
:1035B800000E5D6F080E5E6F0DEC07F00B0E0B6EC4
:1035C800260E0C6E5D0E0D6E0D2EFED70C2EFCD742
:1035D8000B2EFAD7000000000400020E03015A6FF8
:1035E800100E5B6FA50E5C6F000E5D6F080E5E6FB0
:1035F8000DEC07F0030E0B6E080E0C6E770E0D6EB9
:103608000D2EFED70C2EFCD70B2EFAD7020E030177
:103618005A6F100E5B6FC00E5C6F000E5D6F080E68
:103628005E6F0DEC07F0C6D00201F951000AD8B45C
:10363800C1D0010E03015A6F5B6BDB0E5C6F000E8D
:103648005D6F080E5E6F0DEC07F0030E0B6E080E33
:103658000C6E770E0D6E0D2EFED70C2EFCD70B2E92
:10366800FAD7010E03015A6F5B6BD20E5C6F000E26
:103678005D6F080E5E6F0DEC07F00B0E0B6E260EDD
:103688000C6E5D0E0D6E0D2EFED70C2EFCD70B2E7C
:10369800FAD7000000000400010E03015A6F5B6BAB
:1036A800C90E5C6F000E5D6F080E5E6F0DEC07F0C3
:1036B800070E0B6E170E0C6E6A0E0D6E0D2EFED7D2
:1036C8000C2EFCD70B2EFAD700000400010E0301C4
:1036D8005A6F5B6B860E5C6F000E5D6F080E5E6F37
:1036E8000DEC07F00B0E0B6E260E0C6E5D0E0D6EBC
:1036F8000D2EFED70C2EFCD70B2EFAD7000000009B
:103708000400010E03015A6F5B6B2E0E5C6F000EF6
:103718005D6F080E5E6F0DEC07F0070E0B6E170E4F
:103728000C6E6A0E0D6E0D2EFED70C2EFCD70B2ECE
:10373800FAD700000400010E03015A6F5B6B250ED7
:103748005C6F000E5D6F080E5E6F0DEC07F00B0EE0
:103758000B6E260E0C6E5D0E0D6E0D2EFED70C2E0A
:10376800FCD70B2EFAD7000000000400010E03015D
:103778005A6F5B6B1C0E5C6F000E5D6F080E5E6F00
:103788000DEC07F0030E0B6E080E0C6E770E0D6E27
:103798000D2EFED70C2EFCD70B2EFAD7010E0301E7
:1037A8005A6F5B6B370E5C6F000E5D6F080E5E6FB5
:1037B8000DEC07F00400100E02015B6F270E5C6F22
:0E37C80033C337F334C338F367EC17F0120045
:1037D6002FDC010E0201456F010E0301376F8AECE3
:1037E60012F0FF0E2F6F306B35DCFE0E03012F6FCC
:1037F600306B30DCFD0E03012F6F010E306F2ADCBB
:10380600FC0E03012F6F306B25DCFB0E03012F6FBF
:10381600306B20DCEFEC0DF00201356BCA6B010E4C
:10382600666F03010D6B0E6B0F6B106B0201706BF5
:10383600716BF951040A010ED8A4000E016EF951FC
:10384600050A010ED8A4000E006E015000122BE0EE
:10385600020E03015A6F100E5B6F670E5C6F020E4D
:103866005D6F080E5E6F0DEC07F004000D0E0B6E1B
:103876002D0E0C6ED70E0D6E0D2EFED70C2EFCD710
:103886000B2EFAD700000000020E03015A6F100E2D
:103896005B6F5D0E5C6F020E5D6F080E5E6F0DEC6A
:1038A60007F004002FD00201F951000A29E0010EA9
:1038B60003015A6F5B6B520E5C6F020E5D6F080E52
:1038C6005E6F0DEC07F004000D0E0B6E2D0E0C6EE8
:1038D600D70E0D6E0D2EFED70C2EFCD70B2EFAD75B
:1038E60000000000010E03015A6F5B6B490E5C6F0E
:1038F600020E5D6F080E5E6F0DEC07F0040002D03D
:103906008B8C8B8E100E02015B6F270E5C6F100E78
:0C391600C86F270EC96F4CEC18F01200AF
:103922008BEC10F002017851640A11E0782B800EC2
:1039320003011619006E800E1019005C02E10F518E
:10394200155D04E20FC315F310C316F30FD0020185
:10395200786B15C337F316C338F30DC339F30EC3AF
:103962003AF3FAEC12F00301156B166B800E101984
:10397200026E800E1419025C02E113510F5D010EFA
:10398200D8B0000E026E800E1219016E800E101950
:10399200015C02E10F51115D010ED8B0000E016E03
:1039A200800E006E800E1219005C02E111510008B7
:1039B200010ED8B0000E006E015000160250001227
:1039C20052E004008BEC10F002017851640A11E01D
:1039D200782B800E03011619006E800E1019005C00
:1039E20002E10F51155D04E20FC315F310C316F384
:1039F2000FD00201786B15C337F316C338F30DC32A
:103A020039F30EC33AF3FAEC12F00301156B166B9D
:103A1200810E536F0F0E546F556B050E566F010ECC
:103A2200576FB5EC0DF0005203E0010E0201726F08
:103A320002017251010A010ED8A4000E03012E6F79
:103A4200810E536F0F0E546F556B050E566F576BE9
:103A5200B5EC0DF02E51001605E0BCDE03010D6B36
:083A62000E6B01D083D71200A6
:103A6A00030E03012D6F0201466B0301376B60ECF5
:103A7A0010F02DC377F250DF000E0E1902E1000E8E
:103A8A000D1901E188D0140E046E000E056E0DC3E7
:103A9A0000F00EC301F097EC12F0005003010D255F
:103AAA002B6F01500E212C6F2DC32AF32A511F08A8
:103ABA00D8A06DD02A5102017403F3CF37F360EC1A
:103ACA0010F02ADF000E0E1902E1000E0D1901E1B5
:103ADA0062D0800E0E19006E800E2C19005C02E175
:103AEA002B510D5D52E2140E046E000E056E0DC3CD
:103AFA0000F00EC301F097EC12F0005003010D25FF
:103B0A002B6F01500E212C6F2A5102017403F3CF3F
:103B1A0046F22DC377F2800E03010E19006E800E55
:103B2A00005C02E1780E0D5D01E231D02D512A25AB
:103B3A00026E02C02AF302017351000A010ED8A4D0
:103B4A00000E016E0250090A010ED8A4000E006E82
:103B5A000150001604E0080E03012A6F15D0020175
:103B6A007351000A010ED8A4000E016E03012A51F6
:103B7A00110A010ED8A4000E006E0150001604E0CE
:103B8A00100E2A6F040E2D6F01D001D08FD746C2B6
:083B9A0037F360EC10F012009B
:103BA200030E0301296F256B29C376F2030E266FDC
:103BB200140E046E000E056E0DC300F00EC301F06C
:103BC20097EC12F0005003010D25276F01500E21D2
:103BD200286F246B24511F08D8A072D024510201EF
:103BE2007503F3CF37F3F1EC11F03EDF99DE000EEF
:103BF2000E1902E1000E0D1901E178D0800E0E19A6
:103C0200006E800E2819005C02E127510D5D56E21C
:103C1200140E046E000E056E0DC300F00EC301F00B
:103C220097EC12F0005003010D25276F01500E2171
:103C3200286F245102017503F3CF47F246C225F3E0
:103C420029C376F277C226F3800E03010E19006EA5
:103C5200800E005C02E1780E0D5D01E231D0295147
:103C62002425026E02C024F302017951000A010EDA
:103C7200D8A4000E016E0250090A010ED8A4000E4B
:103C8200006E0150001604E0080E0301246F15D0E7
:103C920002017951000A010ED8A4000E016E03013F
:103CA2002451110A010ED8A4000E006E0150001614
:103CB20004E0100E246F040E296F01D001D08AD7C0
:103CC20025C346F247C237F3F1EC11F046C237F38F
:103CD20060EC10F026C377F2340E0C6EF10E0D6E0E
:0E3CE2000D2EFED70C2EFCD7000000001200A5
:103CF000020177517403F3CF00F000C024F30050A9
:103D00004625046E04C026F3050E026E74C200F050
:103D1000000E016E025005E0003600900136FF0FE4
:103D2000FAD7010E005C026E000E0158036E800E81
:103D30000318006E800E005C02E10450025C0DE28C
:103D4000050E006E74C226F3005005E0030126370D
:103D50002691FF0FFAD703012607020146510301FE
:103D6000245D06E224510201465D0301276F01D064
:103D7000276B27C346F227C337F360EC10F0D1DD81
:103D8000000E0E1902E1000E0D1901E167D00DC3FE
:103D900028F30EC329F30201745103012725256F6F
:103DA0002551265D57E325C337F360EC10F0B9DDEC
:103DB000000E0E1902E1000E0D1901E14FD0800E28
:103DC0000E19006E800E2919005C02E128510D5D6C
:103DD0000BE3340E0C6EF10E0D6E0D2EFED70C2E75
:103DE000FCD7000000009DDD800E0E19006E800ED5
:103DF0002919005C02E128510D5D0BE3340E0C6EB5
:103E0000F10E0D6E0D2EFED70C2EFCD7000000001B
:103E100088DD800E0E19006E800E2919005C02E10B
:103E200028510D5D11E20DC328F30EC329F325C3FC
:103E300046F2800E0E19006E800E005C02E1780ED4
:103E40000D5D01E207D001D005D0020174510301DC
:0E3E50002527A6D746C237F360EC10F012000B
:103E5E00020176517503F3CF00F000C024F3005039
:103E6E004725046E04C026F3050E026E75C200F0DF
:103E7E00000E016E025005E0003600900136FF0F75
:103E8E00FAD7010E005C026E000E0158036E800E12
:103E9E000318006E800E005C02E10450025C0DE21D
:103EAE00050E006E75C226F3005005E0030126379D
:103EBE002691FF0FFAD7030126070201475103018E
:103ECE00245D06E224510201475D0301276F01D0F4
:103EDE00276B27C347F227C337F3F1EC11F01ADD36
:103EEE00000E0E1902E1000E0D1901E167D00DC38F
:103EFE0028F30EC329F30201755103012725256FFF
:103F0E002551265D57E325C337F3F1EC11F002DDA1
:103F1E00000E0E1902E1000E0D1901E14FD0800EB8
:103F2E000E19006E800E2919005C02E128510D5DFC
:103F3E000BE3340E0C6EF10E0D6E0D2EFED70C2E05
:103F4E00FCD700000000E6DC800E0E19006E800E1D
:103F5E002919005C02E128510D5D0BE3340E0C6E45
:103F6E00F10E0D6E0D2EFED70C2EFCD700000000AC
:103F7E00D1DC800E0E19006E800E2919005C02E154
:103F8E0028510D5D11E20DC328F30EC329F325C38D
:103F9E0047F2800E0E19006E800E005C02E1780E64
:103FAE000D5D01E207D001D005D00201755103016C
:0E3FBE002527A6D747C237F3F1EC11F0120009
:103FCC000DC31EF30EC31FF3E6DD000E0E1902E146
:103FDC00000E0D1903E11BEC18F002D19CDC800ED5
:103FEC000E19006E800E005C02E1780E0D5D01E290
:103FFC00F7D02FDF000E0E1902E1000E0D1903E1B0
:10400C001BEC18F0EDD087DC800E0E19006E800EC4
:10401C00005C02E1780E0D5D01E2E2D063DE000E81
:10402C000E1902E1000E0D1903E11BEC18F0D8D0AB
:10403C0072DC800E0E19006E800E005C02E1780EB0
:10404C000D5D01E2CDD0800E0E19016E800E015C6B
:10405C0002E1C80E0D5D010ED8B0000E016E800E8F
:10406C000E19006E800E1F19005C02E11E510D5DD1
:10407C00010ED8B0000E006E00500114036E0D51ED
:10408C001E5D016E0E511F59026E800E006E800E69
:10409C000218005C02E101506408010ED8B0000E59
:1040AC00006E0350001601E09BD00DC31EF30EC32F
:1040BC001FF347C220F3000E216F46C222F3000EFD
:1040CC00236F02014551010A02E1456B02D0010E3A
:1040DC00456F1BEC18F045C237F38AEC12F0020E58
:1040EC000B6E040E0C6EBA0E0D6E0D2EFED70C2E32
:1040FC00FCD70B2EFAD700000EDC800E0E19006ECA
:10410C00800E005C02E1780E0D5D01E269D043DDAA
:10411C00000E0E1902E1000E0D1903E11BEC18F054
:10412C005FD091EC1CF0800E0E19006E800E005CBE
:10413C0002E1780E0D5D01E253D08BDE000E0E19FC
:10414C0002E1000E0D1903E11BEC18F049D091ECC3
:10415C001CF0800E0E19006E800E005C02E1780ED1
:10416C000D5D01E23DD0BEDD000E0E1902E1000E28
:10417C000D1903E11BEC18F033D091EC1CF0800E00
:10418C000E19006E800E005C02E1780E0D5D01E2EE
:10419C0027D0800E1F19006E800E0E19005C02E1F4
:1041AC000D511E5D1CE202014551010A02E1456BF5
:1041BC0002D0010E456F45C237F38AEC12F020C3D2
:1041CC0047F222C346F220C337F3F1EC11F046C29A
:1041DC0037F360EC10F01EC30DF31FC30EF3040095
:0241EC001200BF
:1041EE0004000201786B0301156B166B0201726BF2
:1041FE0091EC1CF0800E0E19006E800E005C02E138
:10420E006E0E0D5D01E2AED01BEC18F002013351C3
:10421E00000A02E1EFEC0DF0020E0B6E040E0C6EB6
:10422E00BA0E0D6E0D2EFED70C2EFCD70B2EFAD716
:10423E00000091EC1CF00DC318F30EC319F3800EA1
:10424E000E19006E800E005C02E16E0E0D5D01E235
:10425E0089D0800E016E800E0201CC19015C02E144
:10426E00CB516E08010ED8B0000E016E800ECC1927
:10427E00006E800E03010E19005C03E10D51020168
:10428E00CB5D010ED8B0000E006E0150001601E09D
:10429E0069D095DE000E0E1902E1000E0D1903E134
:1042AE001BEC18F05FD0800E0E19006E800E005CB5
:1042BE0002E1780E0D5D01E255D06450050A010E43
:1042CE00D8A4000E016E6550050A010ED8A4000E8A
:1042DE00006E0150001601E045D06550050806E25B
:1042EE0075C276F2010E0201756FB2DD800E0E19E7
:1042FE00006E800E005C02E1780E0D5D01E232D0A0
:10430E006450050806E274C277F2010E0201746F62
:10431E00E8DC6550050A04E1010E0201756F0DD04F
:10432E006550060A04E10201020E756F06D0655053
:10433E00070A03E10201040E756F6450050A04E1D9
:10434E000201010E746F0DD06450060A04E10201E1
:10435E00020E746F06D06450070A03E10201040EC8
:06436E00746F0400120050
:104374001CC300F00032009E0032009E0032009EFA
:104384000032009E0A0E0002F3CF01F00F0E03016B
:0A4394001C15006E015000261200F7
:10439E0004000201F951040A010ED8A4000E016EA8
:1043AE00F951050A010ED8A4000E006E015000123C
:1043BE00D8B4D1D06350000AD8A485D003015A6B6B
:1043CE00160E5B6FB90E5C6F010E5D6F070E5E6FA2
:1043DE000DEC07F0020E03015A6F060E5B6FAF0E67
:1043EE005C6F010E5D6F090E5E6F0DEC07F0040E33
:1043FE0003015A6F100E5B6FC30E5C6F010E5D6F83
:10440E00080E5E6F0DEC07F0060E03015A6F040ED8
:10441E005B6FE00E5C6F010E5D6F0A0E5E6F0DEC52
:10442E0007F004000D0E0B6E2D0E0C6ED70E0D6EDA
:10443E000D2EFED70C2EFCD70B2EFAD70000000047
:10444E0004000B0E0B6E260E0C6E5D0E0D6E0D2EF9
:10445E00FED70C2EFCD70B2EFAD70000000004005E
:10446E0003015A6B100E5B6FD70E5C6F010E5D6F02
:10447E00080E5E6F0DEC07F0020E03015A6F040E6C
:10448E005B6FCC0E5C6F010E5D6F0A0E5E6F0DECF6
:10449E0007F0040E03015A6F100E5B6F8B0E5C6FEC
:1044AE00010E5D6F080E5E6F0DEC07F0060E030138
:1044BE005A6F040E5B6F600E5C6F010E5D6F0A0E1D
:1044CE005E6F0DEC07F0040E0B6E0C0E0C6E330EC1
:1044DE000D6E0D2EFED70C2EFCD70B2EFAD700002C
:1044EE00000002013451010A0DE103015A6B100E56
:1044FE005B6F570E5C6F010E5D6F080E5E6F0DECFD
:10450E0007F00CD003015A6B100E5B6F4E0E5C6FF2
:10451E00010E5D6F080E5E6F0DEC07F0020E0301CB
:10452E005A6F100E5B6F6B0E5C6F010E5D6F080E97
:10453E005E6F0DEC07F00001E6530CE003015A6BC1
:10454E00700E5B6F860E5C6F010E5D6F010E5E6FFF
:10455E000DEC07F0D4D00201F951000AD8B4CFD037
:10456E006350000AD8A487D003015A6B040E5B6F08
:10457E007E0E5C6F010E5D6F070E5E6F0DEC07F029
:10458E00010E03015A6F030E5B6F740E5C6F010E0A
:10459E005D6F090E5E6F0DEC07F004000F0E0B6ED3
:1045AE00350E0C6E510E0D6E0D2EFED70C2EFCD749
:1045BE000B2EFAD704000B0E0B6E260E0C6E5D0E34
:1045CE000D6E0D2EFED70C2EFCD70B2EFAD700003B
:1045DE000000040003015A6B040E5B6F1F0E5C6F2C
:1045EE00010E5D6F080E5E6F0DEC07F0010E0301FC
:1045FE005A6F030E5B6F140E5C6F010E5D6F0A0E29
:10460E005E6F0DEC07F004000D0E0B6E2D0E0C6E92
:10461E00D70E0D6E0D2EFED70C2EFCD70B2EFAD705
:10462E000000000004000B0E0B6E260E0C6E5D0ECD
:10463E000D6E0D2EFED70C2EFCD70B2EFAD70000CA
:10464E000000040003015A6B040E5B6F0B0E5C6FCF
:10465E00010E5D6F080E5E6F0DEC07F0010E03018B
:10466E005A6F030E5B6F280E5C6F010E5D6F0A0EA4
:10467E005E6F0DEC07F0040E0B6E0C0E0C6E330E0F
:10468E000D6E0D2EFED70C2EFCD70B2EFAD700007A
:10469E00000002013451010A0CE103015A6B5B6BFD
:1046AE00450E5C6F010E5D6F080E5E6F0DEC07F030
:1046BE000BD003015A6B5B6B3C0E5C6F010E5D6F92
:1046CE00080E5E6F0DEC07F0010E03015A6F5B6B67
:1046DE00330E5C6F010E5D6F080E5E6F0DEC07F012
:1046EE000001E6530CE003015A6B080E5B6F880E57
:1046FE005C6F010E5D6F010E5E6F0DEC07F0040036
:06470E00EFEC0DF01200BB
:10471400A69C1CC3A9FFA69EA680A8CF00F01200E9
:10472400086A080E0C6E003408360450085ED8B0CF
:0E47340002D00826D89000360C2EF5D71200C1
:104742000EEC00F0DAC273F32BEC00F00301736B92
:104752002BEC00F0AE0E0301736F2BEC00F00201A4
:10476200D951020A010ED8A4000E016ED951030AD2
:10477200010ED8A4000E006E01500012D8B497D0DA
:10478200D50E0301736F2BEC00F0800E0301736FE3
:104792002BEC00F0A80E0301736F2BEC00F03F0E20
:1047A2000301736F2BEC00F0D30E0301736F2BEC3C
:1047B20000F00201D951020A05E1D0C273F32BECD9
:1047C20000F007D00201D0511F0F0301736F2BECD1
:1047D20000F0400E0301736F2BEC00F08D0E03010D
:1047E200736F2BEC00F0140E0301736F2BEC00F0CF
:1047F200810E0301736F2BEC00F0B40E0301736F93
:104802002BEC00F0D90E0301736F2BEC00F0220E9B
:104812000301736F2BEC00F0200E0301736F2BEC7E
:1048220000F0020E0301736F2BEC00F0210E030166
:10483200736F2BEC00F00301736B2BEC00F07F0E17
:104842000301736F2BEC00F02E0E0301736F2BEC40
:1048520000F00201D951020A0BE1A00E0301736FAD
:104862002BEC00F0C00E0301736F2BEC00F00AD0AA
:10487200A10E0301736F2BEC00F0C80E0301736FDE
:104882002BEC00F0DA0E0301736F2BEC00F0020E3A
:104892000301736F2BEC00F0DB0E0301736F2BEC43
:1048A20000F0400E0301736F2BEC00F08AD0D50E9E
:1048B2000301736F2BEC00F0800E0301736F2BEC7E
:1048C20000F0A80E0301736F2BEC00F03F0E030102
:1048D200736F2BEC00F0D30E0301736F2BEC00F01F
:1048E200D0C273F32BEC00F0400E0301736F2BEC7C
:1048F20000F08D0E0301736F2BEC00F0140E030118
:10490200736F2BEC00F0810E0301736F2BEC00F040
:10491200FF0E0301736F2BEC00F0D90E0301736FCE
:104922002BEC00F0F10E0301736F2BEC00F0200E64
:104932000301736F2BEC00F0020E0301736F2BEC7B
:1049420000F0210E0301736F2BEC00F00301736B77
:104952002BEC00F07F0E0301736F2BEC00F02E0E98
:104962000301736F2BEC00F00201D951040A0BE131
:10497200A00E0301736F2BEC00F0C00E0301736FE6
:104982002BEC00F00AD0A10E0301736F2BEC00F0A8
:10499200C80E0301736F2BEC00F0DA0E0301736F84
:1049A2002BEC00F0120E0301736F2BEC00F0DB0E08
:1049B2000301736F2BEC00F0400E0301736F2BECBD
:1049C20000F0A40E0301736F2BEC00F0A60E03019E
:1049D200736F2BEC00F062EC00F0030E0B6E080E0E
:1049E2000C6E770E0D6E0D2EFED70C2EFCD70B2EF5
:1049F200FAD70EEC00F0DAC273F32BEC00F0400EA3
:104A02000301736F2BEC00F00201D951020A010E6F
:104A1200D8A4000E016ED951030A010ED8A4000ECB
:104A2200006E0150001219E003011D6B1D510308B5
:104A320013E31DC36EF36F6B94EC00F003011C6B68
:104A42000301800E1C5D05E21C2B736B2BEC00F046
:104A5200F7D703011D2BEAD718D003011D6B1D5197
:104A6200070813E31DC36EF36F6B94EC00F00301B0
:104A72001C6B0301800E1C5D05E21C2B736B2BEC7F
:104A820000F0F7D703011D2BEAD762EC00F0AF0E5E
:0A4A92000301536FF8EC09F0120065
:104A9C0004000201F951040A010ED8A4000E016EA3
:104AAC00F951050A010ED8A4000E006E0150001237
:104ABC000EE0020E03015A6F400E5B6FFA0E5C6F34
:104ACC00010E5D6F040E5E6F0DEC07F014D0020149
:104ADC00F951000A0EE0010E03015A6F040E5B6FD0
:104AEC00F50E5C6F010E5D6F040E5E6F0DEC07F042
:104AFC0002D08B8C8B8EF7EC20F00201F951000A5E
:104B0C0001E111D03551000A010ED8A4000E016E3E
:104B1C003351000A010ED8A4000E006E0150001291
:104B2C0002E0EFEC0DF0FF0E03012F6F46C230F3E5
:104B3C002DEC18F0FE0E03012F6F47C230F32DEC55
:104B4C0018F0FD0E03012F6F45C230F32DEC18F059
:104B5C00FC0E03012F6F000E046E010E056E18C3C0
:104B6C0000F019C301F097EC12F000C030F32DECFB
:104B7C0018F0FB0E03012F6F000E046E010E056E74
:104B8C0018C300F019C301F097EC12F008C000F044
:104B9C0009C001F000C030F32DEC18F0100E02012A
:104BAC005B6F270E5C6F100EC86F270EC96F4CEC35
:104BBC0018F00DC370F20EC371F20201CA6B010E34
:064BCC00666F04001200F8
:104BD200C40E0201D36F0C0ED46F5A0ED56F030EA2
:104BE200D66FC26A01018A1D006E0050C116070EFF
:084BF200C012C08EC280120047
:104BFA0003011C6B8ADD00C0DAF2010E1C6F85DD31
:104C0A0000C0D9F20050000A05E1949C949E8A8C57
:0E4C1A008A8E04D0948C948E8B9C8B9E1200FC
:104C2800070EB46E600ED36E9B8C806A816A826AAE
:104C3800896A8A6A8B6AFF0E926EFF0E936EFF0E68
:104C4800946E929492989380C0DF0D0EC16EF19E7F
:044C5800F29E1200B6
:104C5C000900F5CFE6FF0006FBE10106F9E11200C1
:104C6C000400010E03011C6F4FDD00C0F9F2020EAF
:104C7C001C6F4ADD0050010A03E1010E0001E66FD2
:104C8C00030E03011C6F40DD00C01CF3BAEC21F0D5
:104C9C0000C0EAF2000E0201EB6F040E03011C6F60
:104CAC0033DD00C01CF3BAEC21F00A0E0002F3CF86
:104CBC00CEF2F4CFCFF2050E1C6F26DD00C01CF334
:104CCC00BAEC21F00A0E0002F3CF13F3F4CF14F375
:104CDC00060E1C6F19DD00C01CF3BAEC21F00A0E95
:104CEC000002F3CF11F3F4CF12F3090E1C6F0CDD9D
:104CFC0000C01CF3BAEC21F00A0E0002F3CFCBF289
:104D0C00F4CFCCF20A0E1C6FFFDC00C065F00B0E6A
:104D1C001C6FFADC00C079F20C0E1C6FF5DC00C0C5
:104D2C0064F00D0E1C6FF0DC00C073F20E0E1C6FE5
:104D3C00EBDC00C01BF00F0E1C6FE6DC00C048F271
:104D4C000400100E1C6FE0DC00C01CF3BAEC21F068
:104D5C00640E0002F3CF1AF3F4CF1BF3110E1C6F89
:104D6C00D3DC00C01CF3BAEC21F000501A25056FFF
:104D7C00000E1B21066F120E1C6FC6DC00C01CF34C
:104D8C00BAEC21F0640E0002F3CF1AF3F4CF1BF34C
:104D9C00130E1C6FB9DC00C01CF3BAEC21F00050F0
:104DAC001A25036F000E1B21046F140E1C6FACDC54
:104DBC0000C01CF3BAEC21F0640E0002F3CF1AF31E
:104DCC00F4CF1BF3150E1C6F9FDC00C01CF3BAEC68
:104DDC0021F000501A25076F000E1B21086F160ECC
:104DEC001C6F92DC00C01CF3BAEC21F0640E0002C4
:104DFC00F3CF1AF3F4CF1BF3170E1C6F85DC00C036
:104E0C001CF3BAEC21F000501A250B6F000E1B217D
:104E1C000C6F180E1C6F78DC00C01CF3BAEC21F080
:104E2C00640E0002F3CF1AF3F4CF1BF3190E1C6FB0
:104E3C006BDC00C01CF3BAEC21F000501A25096F92
:104E4C00000E1B210A6F1A0E1C6F5EDC00C01CF3D7
:104E5C00BAEC21F0640E0002F3CF1AF3F4CF1BF37B
:104E6C001B0E1C6F51DC00C01CF3BAEC21F000507F
:104E7C001A25016F000E1B21026F1C0E1C6F44DCE7
:104E8C0000C01CF3BAEC21F0640E0002F3CF1AF34D
:104E9C00F4CF1BF31D0E1C6F37DC00C01CF3BAECF7
:104EAC0021F000501A250201F06F000E03011B21A6
:104EBC000201F16F1E0E03011C6F26DC00C01CF3F7
:104ECC00BAEC21F0640E0002F3CF1AF3F4CF1BF30B
:104EDC001F0E1C6F19DC00C01CF3BAEC21F0005043
:104EEC001A250201EE6F000E03011B210201EF6F68
:104EFC00200E03011C6F08DC00C01CF3BAEC21F07F
:104F0C00640E0002F3CF1AF3F4CF1BF3210E1C6FC7
:104F1C008AEC23F000C01CF3BAEC21F000501A25E7
:104F2C000201DE6F000E03011B210201DF6F220E56
:104F3C0003011C6F8AEC23F000C01CF3BAEC21F0C7
:104F4C00640E0002F3CF1AF3F4CF1BF3230E1C6F85
:104F5C008AEC23F000C01CF3BAEC21F000501A25A7
:104F6C000201DC6F000E03011B210201DD6F240E18
:104F7C0003011C6F8AEC23F000C01CF3BAEC21F087
:104F8C00640E0002F3CF1AF3F4CF1BF3250E1C6F43
:104F9C008AEC23F000C01CF3BAEC21F000501A2567
:104FAC000201E06F000E03011B210201E16F260ECE
:104FBC0003011C6F8AEC23F000C01CF3BAEC21F047
:104FCC00640E0002F3CF1AF3F4CF1BF3270E1C6F01
:104FDC008AEC23F000C01CF3BAEC21F000501A2527
:104FEC000201E46F000E03011B210201E56F280E84
:104FFC0003011C6F8AEC23F000C01CF3BAEC21F007
:10500C00640E0002F3CF1AF3F4CF1BF3290E1C6FBE
:10501C008AEC23F000C01CF3BAEC21F000501A25E6
:10502C000201E26F000E03011B210201E36F2A0E45
:10503C0003011C6F8AEC23F000C01CF3BAEC21F0C6
:10504C00640E0002F3CF1AF3F4CF1BF32B0E1C6F7C
:10505C008AEC23F000C01CF3BAEC21F000501A25A6
:10506C000201E66F000E03011B210201E76F2C0EFB
:10507C0003011C6F8AEC23F000C01CF3BAEC21F086
:10508C00640E0002F3CF1AF3F4CF1BF32D0E1C6F3A
:10509C008AEC23F000C01CF3BAEC21F000501A2566
:1050AC000201E86F000E03011B210201E96F300EB3
:1050BC0003011C6F8AEC23F000C034F2310E1C6F1C
:1050CC008AEC23F000C01CF3BAEC21F000C01AF0FB
:1050DC00320E1C6F8AEC23F000C01CF3BAEC21F0EA
:1050EC0000C093F0330E1C6F8AEC23F000C033F237
:1050FC00340E1C6F8AEC23F000C01CF3BAEC21F0C8
:10510C0000C017F3350E1C6F8AEC23F000C01CF3A3
:0C511C00BAEC21F000C091F00400120079
:105128000201CDB102D0048001D00490810E0301A8
:10513800536F0F0E546F556B320E566F010E576F2B
:10514800B5EC0DF0016A04B0012A0150001602E026
:105158000201CD810201CDB102D0048001D00490BA
:10516800810E0301536F0F0E546F556B320E566F3D
:10517800576BB5EC0DF0016A04B0012A0150001616
:1051880014E093C000F0F0EC08F095C004F096C06D
:1051980005F097C006F098C007F0AEEC05F0A3EC58
:1051A80006F000C08FF001C090F0810E536F0F0E13
:1051B800546F556B320E566F576BB5EC0DF0016A94
:1051C8000201CDB1012A015000160001E55100127B
:1051D800D8B480D09251000A29E19151010A0CE11A
:1051E80047C237F3F1EC11F046C237F360EC10F028
:1051F80045C237F38AEC12F0010E0001926F71EC90
:1052080012F093C000F0F0EC08F095C004F096C0DE
:1052180005F097C006F098C007F0AEEC05F0A3ECD7
:1052280006F000C08FF001C090F084D293C000F067
:10523800F0EC08F095C004F096C005F097C006F0B1
:1052480098C007F0AEEC05F0A3EC06F000C08FF0B4
:1052580001C090F00400060E0B6E130E0C6EAD0E1E
:105268000D6E0D2EFED70C2EFCD70B2EFAD7000094
:10527800000004000001E551000A010ED8A4000E48
:10528800016E81B002D0D89001D0D880006AD8B021
:10529800002A0150001605E0EBEC1BF00001A06BA2
:1052A80019D0010E0201CA6F666B060E0B6E130E43
:1052B8000C6EAD0E0D6E0D2EFED70C2EFCD70B2EE0
:1052C800FAD7000000004EEC25F00001A06BE56B5A
:1052D8000201CD91810E0301536F0F0E546F020E20
:1052E800556F320E566F576BB5EC0DF00052D8B4AF
:1052F80022D100019251000A29E19151010A0CE1E1
:1053080047C237F3F1EC11F046C237F360EC10F006
:1053180045C237F38AEC12F0010E0001926F71EC6E
:1053280012F093C000F0F0EC08F095C004F096C0BD
:1053380005F097C006F098C007F0AEEC05F0A3ECB6
:1053480006F000C08FF001C090F0F4D193C000F0D7
:10535800F0EC08F095C004F096C005F097C006F090
:1053680098C007F0AEEC05F0A3EC06F000C08FF093
:1053780001C090F004000001A051000A29E1010ECB
:10538800A06F46C262F047C2A4F145C2A3F1020170
:10539800466B485303E0FF0E476F01D0476B010E81
:1053A800456F47C237F3F1EC11F046C237F360ECB2
:1053B80010F045C237F38AEC12F002013551000AA9
:1053C80002E1EFEC0DF0E6C0A2F10001E66B1BD0A4
:1053D800A06B62C046F2A4C147F2A3C145F262C005
:1053E80037F360EC10F047C237F3F1EC11F045C227
:1053F80037F38AEC12F002013551000A02E1EFECB2
:105408000DF0A2C1E6F00201F951040A010ED8A478
:10541800000E016EF951050A010ED8A4000E006EA7
:105428000150001239E00001A053010ED8A4000E6B
:10543800006EE65100160DE003015A6B700E5B6FAB
:10544800A50E5C6F010E5D6F010E5E6F0DEC07F02F
:1054580022D00001E653010ED8A4000E006EA05120
:1054680000160DE003015A6B700E5B6FAB0E5C6F9C
:10547800010E5D6F010E5E6F0DEC07F00CD003019D
:105488005A6B700E5B6FA90E5C6F010E5D6F010E9B
:105498005E6F0DEC07F03CD00201F951000A38E0CC
:1054A8000001A053010ED8A4000E006EE6510016AC
:1054B8000DE003015A6B080E5B6FA70E5C6F010EBF
:1054C8005D6F010E5E6F0DEC07F022D00001E65310
:1054D800010ED8A4000E006EA05100160DE00301C5
:1054E8005A6B080E5B6F980E5C6F010E5D6F010EB4
:1054F8005E6F0DEC07F00CD003015A6B080E5B6F62
:10550800960E5C6F010E5D6F010E5E6F0DEC07F07D
:105518000400810E0301536F0F0E546F020E556F76
:10552800320E566F576BB5EC0DF0005204E04CECA0
:1055380018F00400EED7810E0301536F0F0E546F5D
:10554800010E556F320E566F576BB5EC0DF000011A
:10555800A051000A010ED8A4000E016E01500016D9
:10556800D8B4E8D09251000A29E19151010A0CE11E
:1055780047C237F3F1EC11F046C237F360EC10F094
:1055880045C237F38AEC12F0010E0001926F71ECFC
:1055980012F093C000F0F0EC08F095C004F096C04B
:1055A80005F097C006F098C007F0AEEC05F0A3EC44
:1055B80006F000C08FF001C090F0BCD093C000F09E
:1055C800F0EC08F095C004F096C005F097C006F01E
:1055D80098C007F0AEEC05F0A3EC06F000C08FF021
:1055E80001C090F004000001E651000A03E1010E39
:1055F800E66F01D0E66B020E03012F6FE6C030F3B1
:105608002DEC18F00201F951040A010ED8A4000E7D
:10561800016EF951050A010ED8A4000E006E015062
:10562800001239E00001A053010ED8A4000E006E4C
:10563800E65100160DE003015A6B700E5B6F940E75
:105648005C6F010E5D6F010E5E6F0DEC07F022D0EE
:105658000001E653010ED8A4000E006EA0510016FA
:105668000DE003015A6B700E5B6F9A0E5C6F010EB2
:105678005D6F010E5E6F0DEC07F00CD003015A6BE5
:10568800700E5B6FA00E5C6F010E5D6F010E5E6F9A
:105698000DEC07F03CD00201F951000A38E0000196
:1056A800A053010ED8A4000E006EE65100160DE0BE
:1056B80003015A6B080E5B6F9E0E5C6F010E5D6FE7
:1056C800010E5E6F0DEC07F022D00001E653010ECB
:1056D800D8A4000E006EA05100160DE003015A6B0D
:1056E800080E5B6F9C0E5C6F010E5D6F010E5E6FA6
:1056F8000DEC07F00CD003015A6B080E5B6FAD0E72
:105708005C6F010E5D6F010E5E6F0DEC07F004001B
:10571800810E0301536F0F0E546F010E556F320E39
:10572800566F576BB5EC0DF0005204E04CEC18F0D6
:065738000400EED7120090
:10573E00810E0301536F0F0E546F556B320E566F61
:10574E00576BB5EC0DF00052D8B497D0060E0B6E19
:10575E00130E0C6EAD0E0D6E0D2EFED70C2EFCD74D
:10576E000B2EFAD700000000040081A00FD002011A
:10577E004551000A03E1010E456F01D0456B45C24C
:10578E0037F38AEC12F0EFEC0DF066D000019D516C
:10579E00010A02E19D6B02D0010E9D6F9D51010A1F
:1057AE002EE10201F951040A010ED8A4000E016E79
:1057BE00F951050A010ED8A4000E006E0150001218
:1057CE000DE003015A6B700E5B6F9B0E5C6F000E4B
:1057DE005D6F010E5E6F0DEC07F010D00201F951F6
:1057EE00000A0CE003015A6B080E5B6F990E5C6F9A
:1057FE00000E5D6F010E5E6F0DEC07F02DD00201F5
:10580E00F951040A010ED8A4000E016EF951050AD1
:10581E00010ED8A4000E006E015000120DE003011F
:10582E005A6B700E5B6F9E0E5C6F000E5D6F010EFD
:10583E005E6F0DEC07F010D00201F951000A0CE07A
:10584E0003015A6B080E5B6FA10E5C6F000E5D6F4D
:10585E00010E5E6F0DEC07F0810E0301536F0F0EFC
:10586E00546F556B320E566F576BB5EC0DF00052F0
:10587E0004E04CEC18F00400EFD7810E0301536FD7
:10588E000F0E546F020E556F320E566F576BB5ECEE
:10589E000DF000526BE0040081B468D0050E026E6C
:1058AE0075C200F0000E016E025005E00036009049
:1058BE000136FF0FFAD7010E005C026E000E015882
:1058CE00036E800E006E800E0318005C03E1025022
:1058DE000201475D010ED8B0000E006E00019D5111
:1058EE00001607E00201472B47C237F3F1EC11F027
:1058FE002FD000019D53010ED8A4000E046E050E8C
:10590E00026E75C200F0000E016E025005E0003608
:10591E0000900136FF0FFAD7010E005C026E000EEA
:10592E000158036E800E006E800E0318005C03E1BA
:10593E0002500201465D010ED8B0000E006E0450FA
:10594E00001606E00201462B46C237F360EC10F05B
:10595E00EFEC0DF04CEC18F09C0E0C6ED70E0D6E9D
:10596E000D2EFED70C2EFCD7040096D7810E030108
:10597E00536F0F0E546F010E556F320E566F576BDD
:10598E00B5EC0DF00001A051000A010ED8A4000ED6
:10599E00016E0150001638E0040081B235D00201CC
:1059AE0047510008010ED8B0000E006E00019D5147
:1059BE00001607E00201470747C237F3F1EC11F07A
:1059CE0015D000019D53010ED8A4000E016E0201E8
:1059DE0046510008010ED8B0000E006E01500016A0
:1059EE0005E0460746C237F360EC10F0EFEC0DF021
:1059FE004CEC18F09C0E0C6ED70E0D6E0D2EFED7C5
:0A5A0E000C2EFCD70400C9D71200CB
:105A18000201D951010806E2AE0E0301536FF8ECFA
:105A280009F00DD0D951010A0AE1D86BD76B0301EF
:105A3800646B90EC01F00301646B90EC01F01200D0
