:1000000075EF30F00000000000EF00F0000000008D
:0A0010000000000000000000F3D71C
:10001C000201DF51000A18E0948C060E0D6E0D2EB5
:10002C00FED70000948E060E0D6E0D2EFED700002E
:10003C00949E060E0D6E0D2EFED70000949C060E9F
:0A004C000D6E0D2EFED7000012000D
:100056000201DF51000A32E0016A015007081CE381
:10006600030171BF02D0949E01D0948E060E0D6ED0
:100076000D2EFED70000948C060E0D6E0D2EFED7AB
:100086000000949C060E0D6E03010D2EFDD7000098
:1000960071377191012AE1D7948E060E0D6E0D2EE1
:1000A600FED70000948C060E0D6E0D2EFED70000B6
:0E00B600949C060E0D6E0D2EFED7000012005B
:1000C4000201E35103016D25706FA6DFE4C271F3F1
:1000D400C0DF0301716BBDDF03016C51B00F716FA1
:1000E400B8DF030170510F0804E370C36EF36F6B44
:1000F40019D070C302F00232029E0232029E023212
:10010400029E0232029E02C06FF302C000F000366B
:1001140000900036009000360090003600900050A9
:10012400705D6E6F6EC371F394DF03016F51100F36
:10013400716F8FDF71DFE4C271F38BDF400E030157
:06014400716F87DF12005D
:10014A00086A096A100E0C6E013408360936045022
:10015A00085E0550D8A0053C095ED8B007D0045007
:10016A0008260550D8B0053C0926D8900036013635
:06017A000C2EEAD7120072
:0E018000026A016A006A086A036A000E120031
:10018E000B840BAED2EF00F0010E036E026A016A11
:0A019E00006A0A360232FF0E12005A
:0801A8000AAE029E000E1200D7
:1001B0000201DF51000A12E0949E060E0D6E0D2E14
:1001C000FED70000948C060E0D6E0D2EFED700009B
:0E01D000948E060E0D6E0D2EFED7000012004E
:1001DE000B800BAEFBEF00F0026A0AAEFF0E026E52
:0C01EE00016E006E0A360232FF0E120095
:1001FA000301666B050E665D0AE266516425E16ECF
:10020A00000E6521E26E200EE66E662BF3D766516C
:10021A006425E16E000E6521E26EE66A66076651A4
:10022A006425676F000E6521686F0A0E046E000E62
:10023A00056E62C300F063C301F082DF08C000F0FC
:10024A0009C001F0300E002667C3E1FF68C3E2FF70
:10025A0000C0E6FF0A0E046E000E056E62C300F0CF
:10026A0063C301F06DDF00C062F301C063F3000EE7
:10027A00011802E1000E001801E102D06607CFD78B
:02028A00120060
:0A028C001D0E0D6E0D2EFED71200A0
:100296000B820BAE55EF01F0036802680168006837
:0802A6000A360232FF0E1200BD
:1002AE000C6A0E6A0250D8A470EF01F001C002F081
:1002BE0000C001F0006A0E860250D8A470EF01F063
:1002CE0001C002F0016A0E960E880250D8B482EF79
:1002DE0001F00E50035ED8A4D8A087EF01F0D8909D
:1002EE0002BE8CEF01F0003601360236032E77EF98
:1002FE0001F087EF01F0010E0C6E3BDF8FEF01F086
:10030E00020E0C6E3DDF8FEF01F0040E0C6E45DF1A
:02031E001200CB
:100320007DDEE4C271F397DE400E0301716F93DE50
:1003300063C36CF362C36DF3C5DE0301676B665183
:10034000675DD8B0B3D067516425E96E000E6521B2
:10035000EA6EEE50000A02E1696B09D0675164252C
:10036000E96E000E6521EA6E200EEE5C696F686B27
:1003700068510408D8A092D0050E6903F3CF00F0AD
:10038000F4CF01F068510026000E0122B40E0024C3
:10039000F66E680E0120F76E000EF86E000E01BEBC
:1003A000FF0EF8220900F5CF6AF36351020A000E2E
:1003B000D8A4010E016E6351040A000ED8A4010EE8
:1003C000006E005001166351060A000ED8A4010EFB
:1003D000006E0150001629E06AB702D06B9F01D071
:1003E0006B8F6AB702D06B9D01D06B8D6AB502D05E
:1003F0006B9B01D06B8B6AB502D06B9901D06B8976
:100400006AB302D06B9701D06B876AB302D06B9549
:1004100001D06B856AB102D06B9301D06B836AB156
:1004200002D06B9101D06B8120D06AB502D06B9F56
:1004300001D06B8F6AB502D06B9D01D06B8D6AB312
:1004400002D06B9B01D06B8B6AB302D06B9901D049
:100450006B896AB102D06B9701D06B876AB102D009
:100460006B9501D06B856B936B916BC371F3F3DD6F
:100470000201DF51040A010ED8A4000E016EDF5103
:10048000050A010ED8A4000E006E0150001203E010
:100490006BC371F3E0DD0301682B6AD7716BDBDDA1
:1004A0000301716BD8DD0301672B49D76351010F3D
:1004B0006C6F62C36DF306DE0301676B6651675DA7
:1004C000D8B0BBD067516425E96E000E6521EA6E95
:1004D000EE50000A02E1696B09D067516425E96EAC
:1004E000000E6521EA6E200EEE5C696F686B685144
:1004F0000408D8A09AD0050E6903F3CF00F0F4CF1A
:1005000001F068510026000E0122B40E0024F66EA0
:10051000680E0120F76E000EF86E000E01BEFF0E91
:10052000F8220900F5CF6AF36351020A000ED8A43D
:10053000010E016E6351040A000ED8A4010E006E74
:10054000005001166351060A000ED8A4010E006E79
:100550000150001629E06ABF02D06B9F01D06B8F5B
:100560006ABF02D06B9D01D06B8D6ABD02D06B9BC0
:1005700001D06B8B6ABD02D06B9901D06B896ABBCD
:1005800002D06B9701D06B876ABB02D06B9501D00C
:100590006B856AB902D06B9301D06B836AB902D0C4
:1005A0006B9101D06B8128D06ABD02D06B9F01D0C6
:1005B0006B8F6ABD02D06B9D01D06B8D6ABB02D080
:1005C0006B9B01D06B8B6ABB02D06B9901D06B899E
:1005D0006AB902D06B9701D06B876AB902D06B956C
:1005E00001D06B856AB702D06B9301D06B836AB779
:1005F00002D06B9101D06B816BC371F32CDD0201D2
:10060000DF51040A010ED8A4000E016EDF51050A65
:10061000010ED8A4000E006E0150001203E06BC35F
:1006200071F319DD0301682B62D7716B14DD0301CF
:0E063000716B11DD0301672B41D7BADD12009B
:10063E000301636B0201E16B010EE06F62C363F3B2
:10064E000301633763916337639163376391633754
:10065E0063910201E65303E0080E030163270201D2
:10066E00E05303E0040E030163270201E15303E0AC
:10067E00020E030163270201E55302E00301632B1F
:10068E00C6DCE4C271F3E0DC63C371F3DDDC89DD4B
:10069E00060E0C6E300E0D6E0D2EFED70C2EFCD7E8
:1006AE000000040E0301635FB2DCE4C271F3CCDC24
:1006BE0063C371F3C9DC75DD060E0C6E300E0D6E64
:0C06CE000D2EFED70C2EFCD700001200F1
:1006DA000B1E0A1E091E081E082AD8B4092AD8B4F5
:0806EA000A2AD8B40B2A120001
:1006F2000CB0BBEF03F00CA261EF04F00E6A000E27
:100702000264D2EF03F0F00E0214D8A49DEF03F0BE
:10071200023A01380F0B02260138F00B016E003845
:100722000F0B01260038F00B006E08380F0B002665
:100732000838F00B086E0E84D89002BEB6EF03F0B4
:1007420008360036013602360E2A02BEB6EF03F034
:1007520008360036013602360E2A02BEB6EF03F024
:1007620008360036013602360E2A0E50036457EF61
:1007720004F0035E0BBC08AE5CEF04F0D880800E80
:1007820008640030000E002201220222D8A05CEF91
:1007920004F0023201320032034A61EF04F05CEFEE
:1007A20004F001C002F000C001F008C000F0086AC5
:1007B200000E0E86026409EF04F0F00E0214D8A4B3
:1007C200F1EF03F0023A01380F0B02260138F00B69
:1007D200016E00380F0B01260038F00B006E0E84FC
:1007E200D89002BEB6EF03F00036013602360E2A6A
:1007F20002BEB6EF03F00036013602360E2A02BE02
:10080200B6EF03F00036013602360E2AB6EF03F0D9
:1008120001C002F000C001F0006A000E0E960E88C0
:10082200026436EF04F0F00E0214D8A421EF04F0B3
:10083200023A01380F0B02260138F00B016E0E84CA
:10084200D89002BEB6EF03F0013602360E2A02BE7F
:10085200B6EF03F0013602360E2A02BEB6EF03F0FF
:10086200013602360E2AB6EF03F001C002F0016A29
:10087200000E0E86026466EF04F0F00E0214D8A495
:1008820045EF04F0023A0E84D89002BEB6EF03F0B0
:1008920002360E2A02BEB6EF03F002360E2A02BE5E
:1008A200B6EF03F002360E2AB6EF03F0010E0C6E1D
:1008B2006DDC69EF04F0020E0C6E75DC69EF04F07A
:1008C200040E0C6EE7DC69EF04F0080E0C6E57DCC8
:0208D200120012
:1008D4000B6A0350D8B4B0EF04F002500A6E028ED3
:1008E4008E0E035E03AEB4EF04F0036C080E035CDB
:1008F400D8A08FEF04F0036E013602C001F0026A43
:10090400080E035CD8A08FEF04F0036E0136016A71
:100914000350D8A4D89099EF04F00350D8B499EFB9
:1009240004F0D89002320132032E93EF04F00BBC92
:1009340001A0A6EF04F0D8A0A6EF04F0012AD8B4D1
:10094400022A02BEC3EF04F00AAEC8EF04F0021E8E
:10095400011E012AD8B4022AC8EF04F0026A016A0F
:10096400C8EF04F00B800BAECCEF04F0026A0AAEC1
:10097400CCEF04F0FF0E026E016E0A360232CCEFA9
:1009840004F0010E0C6E29DCCEEF04F0000E0C6EA8
:10099400CEEF04F0FF0E0C6E0150006E0250016E9B
:0209A40012003F
:1009A6000450085E0550D8A0053C095E0650D8A044
:1009B600063C0A5E0750D8A0073C0B5E0336070EBE
:1009C6000C6E0334083609360A360B36045003A07B
:1009D6000ED0085E0550D8A0053C095E0650D8A08A
:1009E600063C0A5E0750D8A0073C0B5E0DD00826D1
:1009F6000550D8B0053C09260650D8B0063C0A2654
:100A06000750D8B0073C0B2603360C2EDAD7023433
:100A1600083609360A360B36045003A00ED0085E97
:100A26000550D8A0053C095E0650D8A0063C0A5ED3
:100A36000750D8A0073C0B5E0DD008260550D8B04D
:100A4600053C09260650D8B0063C0A260750D8B001
:100A5600073C0B260236070E0C6E023408360936A2
:100A66000A360B36045002A00ED0085E0550D8A0F8
:100A7600053C095E0650D8A0063C0A5E0750D8A081
:100A8600073C0B5E0DD008260550D8B0053C09265C
:100A96000650D8B0063C0A260750D8B0073C0B26AD
:100AA60002360C2EDAD70134083609360A360B36EA
:100AB600045002A00ED0085E0550D8A0053C095E81
:100AC6000650D8A0063C0A5E0750D8A0073C0B5E2D
:100AD6000DD008260550D8B0053C09260650D8B0DA
:100AE600063C0A260750D8B0073C0B260136070EEF
:100AF6000C6E0134083609360A360B36045001A04E
:100B06000ED0085E0550D8A0053C095E0650D8A058
:100B1600063C0A5E0750D8A0073C0B5E0DD008269F
:100B26000550D8B0053C09260650D8B0063C0A2622
:100B36000750D8B0073C0B2601360C2EDAD7003406
:100B4600083609360A360B36045001A00ED0085E68
:100B56000550D8A0053C095E0650D8A0063C0A5EA2
:100B66000750D8A0073C0B5E0DD008260550D8B01C
:100B7600053C09260650D8B0063C0A260750D8B0D0
:100B8600073C0B260036070E0C6E00340836093675
:100B96000A360B36045000A00ED0085E0550D8A0C9
:100BA600053C095E0650D8A0063C0A5E0750D8A050
:100BB600073C0B5E0DD008260550D8B0053C09262B
:100BC6000650D8B0063C0A260750D8B0073C0B267C
:100BD60000360C2EDAD700B00ED004500826055089
:100BE600D8B0053C09260650D8B0063C0A26075060
:080BF600D8B0073C0B261200E9
:100BFE000050086E0150006E016A026A036A0B6AA9
:100C0E000C6A960E036E0A6A00C001F008C000F06E
:0A0C1E00086A026A57EC01F01200A8
:100C2800016A026A03015951025C02E15851015CF0
:100C38000DE20400060E0C6E300E0D6E0D2EFED762
:0E0C48000C2EFCD70000014A022AECD7120045
:100C560030D08B8094905ED08B8294925BD08B84C4
:100C6600949458D08B86949655D08B88949852D06D
:100C76008B8A949A4FD0898A929A4CD0898C929C6E
:100C860049D08A82939246D08A84939443D08A86A6
:100C9600939640D08A8893983DD08A8A939A3AD080
:100CA6008A8C939C37D08A8E939E34D0898E929E5E
:100CB60031D003015851010ACCE05851020ACCE068
:100CC6005851030ACCE05851040ACCE05851050AA1
:100CD600CCE05851060ACCE05851070ACCE05851EE
:100CE600080ACCE05851090ACCE058510A0ACCE06F
:100CF60058510B0ACCE058510C0ACCE058510D0A59
:100D0600CCE058510E0ACCE058510F0ACCE05851AD
:060D1600100ACCE01200FF
:100D1C00899894809482948494869488948A928AF4
:100D2C00928C9382938493869388938A938C938EDC
:040D3C00928E120081
:100D400030D08B9094905ED08B9294925BD08B94A9
:100D5000949458D08B96949655D08B98949852D062
:100D60008B9A949A4FD0899A929A4CD0899C929C53
:100D700049D08A92939246D08A94939443D08A968B
:100D8000939640D08A9893983DD08A9A939A3AD075
:100D90008A9C939C37D08A9E939E34D0899E929E43
:100DA00031D003015851010ACCE05851020ACCE07D
:100DB0005851030ACCE05851040ACCE05851050AB6
:100DC000CCE05851060ACCE05851070ACCE0585103
:100DD000080ACCE05851090ACCE058510A0ACCE084
:100DE00058510B0ACCE058510C0ACCE058510D0A6E
:100DF000CCE058510E0ACCE058510F0ACCE05851C3
:060E0000100ACCE0120014
:100E0600086A096A000E0762036488EF07F0025059
:100E160006180A6E075003267E0ED8A019EF07F0B3
:100E2600035ED8B08DEF07F01DEF07F0035ED8A084
:100E360092EF07F0028E068E02C00EF001C00BF094
:100E460000C00DF000500402F4CF0CF00150050272
:100E5600F4CF00F0F3CF08F00402F3500C26F45060
:100E66000822000E00220D500502F3500C26F45005
:100E76000822000E002202500402F3500826F45005
:100E8600002202500502016A000E0122F3500026DC
:100E9600F45001220D500602F3500826F4500022A9
:100EA600026A000E012202220B500602F3500026AF
:100EB600F4500122000E02220E500602F3500126C3
:100EC600F450022202BE70EF07F0083600360136F3
:100ED60002360306D8B492EF07F083EF07F0D88006
:100EE600800E08640030000E002201220222D8A0E3
:100EF60083EF07F0023201320032034A8DEF07F02A
:100F06000AAE029E000E95EF07F0010EC0EC00F04F
:100F160095EF07F0020E4BEC01F095EF07F0040E8B
:060F2600C7EC00F0120010
:100F2C0000C008F00150006E016A026A036A0B6A85
:100F3C000C6A016A026A036A960E036E0A6A00AEB4
:100F4C00AEEF07F0081E001E082AD8B4002A0A8E3D
:100F5C0000C001F008C000F0086A026A57EC01F00A
:020F6C00120071
:100F6E00830EC21658C300F0003600900036009073
:100F7E000050C21246EC01F0C282C2A201D0FDD7CF
:100F8E00C4CF01F0006AC3500012000E011212000D
:080F9E000B6A0B86FF0E120026
:100FA6000201DF51040A010ED8A4000E016EDF51C2
:100FB600050A010ED8A4000E006E015000120DE0C5
:100FC60059C362F358C363F35AC364F35BC365F34F
:100FD6005CC366F390EC01F05DD0DF51020A010EAE
:100FE600D8A4000E016EDF51030A010ED8A4000E2C
:100FF600006E0150001214E0070E03015903F3CFEF
:1010060062F3040E622758C363F3633763915AC3CE
:1010160064F35BC365F35CC366F390EC01F03AD00E
:10102600E56B58C300F00036009000360090005083
:10103600080F0301626F1FEC03F059C362F31FEC44
:1010460003F0010EE56F03015D6B5C515D5D22E20D
:101056005D515A25E96E000E5B21EA6EEECF01F076
:1010660001C062F36233629F6233629F6233629FA2
:101076006233629F1FEC03F003015D515A25E96E4E
:10108600000E5B21EA6EEECF62F31FEC03F0030164
:061096005D2BDBD7120008
:10109C0003015E6B5F6B58C360F359C361F3800E41
:1010AC005919006E800E005C02E1000E585D0BE2D7
:1010BC00010E5E6F000E5F6F58510008606F59C3D0
:1010CC0061F3000E615760C362F361C363F35AC3EB
:1010DC0064F35BC365F3FDEC00F0060E5C6F000E71
:1010EC005D6F000E006E5D51005C02E15C5100080A
:1010FC0019E25C515A25E16E5D515B21E26E010EE5
:10110C005C5D006E000E5D59016E00505A25E96E53
:10111C0001505B21EA6EEECFE6FF010E5C5F000E24
:10112C005D5BDFD75AC3E1FF5BC3E2FF200EE66EC7
:10113C005E515F111AE05C6B5D6B5C515A25E96E78
:10114C005D515B21EA6EEE50200A03E15C4B5D2B96
:10115C00F4D7010E5C5F000E5D5B5C515A25E16EAD
:0C116C005D515B21E26E2D0EE66E12005C
:10117800030E0C6E950E0D6E0D2EFED70C2EFCD7A1
:02118800120053
:10118A000134083609360450085E0550D8A0053CDB
:10119A00095E003601360F0E0C6E01340836093628
:1011AA00045000A006D0085E0550D8A0053C095E90
:1011BA0005D008260550D8B0053C09260036013668
:1011CA000C2EEBD700B006D0045008260550D8B034
:0811DA00053C0926000012008B
:1011E2000B6A0A6A096A00500402F4CF09F0F3CFCD
:1011F20008F001500502F4CF0BF0F3CF0AF00050D3
:101202000502F3500926F4500A22E86A0B22015023
:101212000402F3500926F4500A22E86A0B2208C09D
:1012220000F009C001F00AC002F00BC003F0120086
:10123200010E0301586F9ADEE1DC890E046E410E45
:10124200056E1C0E066E810E076EDCDD6AEC04F084
:02125200120088
:101254000301576B53C301F0010E006E015004E00B
:1012640000360090FF0FFBD700C056F351C3E9FFCF
:1012740052C3EAFF0050EE14016E0152010ED8A4CD
:10128400000E006E5551001A18E05451000804E293
:1012940071DF70DF5407F9D751C3E9FF52C3EAFF86
:1012A4005651EE14016E0152010ED8A4000E006EC8
:1012B4005551001A02E0FF0E576F57C300F0120099
:1012C40004000301106B116B0101FEA105D00301A1
:1012D4000E5110270F5111230101FEA305D0030164
:1012E40016511027175111230101FEA505D0030142
:1012F40014511027155111230101FEA705D0030134
:1013040012511027135111230101FEA905D0030125
:101314000C5110270D5111230101FEAB05D003011F
:101324000A5110270B5111230101FEAD05D0030111
:1013340008511027095111230301800E270A006E5A
:10134400800E1119005C02E110510F081DE2320EEB
:101354001025006E000E1121016E00C010F301C0B3
:1013640011F300C058F301C059F3FE0E5A6F020E78
:101374005B6F92DEFFC2F7F200C3F8F22E0E020199
:10138400F96F01C3FAF22AD010C358F311C359F309
:10139400FE0E03015A6F020E5B6F7EDE0051200ABF
:1013A40003E000C3F7F203D0300E0201F76F02012D
:1013B4002E0EF86F03010151200A03E001C3F9F274
:1013C40003D0300E0201F96F03010251200A03E039
:1013D40002C3FAF203D0300E0201FA6F0201F25195
:1013E400040A010ED8A4000E016EF251050A010E82
:1013F400D8A4000E006E015000122FE00101F65136
:10140400010A04E1040E0301516F03D00301060E27
:10141400516F51C358F3100E596F7B0E5A6F020E61
:101424005B6F020E5C6FBDDD51C358F3580E0301B0
:10143400596F780E5A6F020E5B6F020E5C6FB1DD4E
:1014440051C358F3280E0301596FF70E5A6F020E59
:101454005B6F040E5C6FA5DD6FD00201F251020ACE
:10146400010ED8A4000E016EF251030A010ED8A495
:10147400000E006E015000122EE00101F651010A27
:1014840003E10301516B03D00301010E516F51C3FA
:1014940058F3090E596F750E5A6F020E5B6F020EE8
:1014A4005C6F7FDD51C358F30F0E0301596F1E0E9D
:1014B4005A6F010E5B6F020E5C6F73DD51C358F3FC
:1014C4000B0E0301596FF70E5A6F020E5B6F040E79
:1014D4005C6F67DD31D00201F251010A2DE1010197
:1014E400F651010A03E10301516B03D00301010E1C
:1014F400516F51C358F3090E596F1B0E5A6F010EE9
:101504005B6F020E5C6F4DDD51C358F30F0E030188
:10151400596F190E5A6F010E5B6F010E5C6F41DD3E
:1015240051C358F30B0E0301596FF70E5A6F020E95
:101534005B6F040E5C6F35DD04000301106B116BEF
:101544000101FDA108D00201D351030110270201BA
:10155400D451030111230101FDA308D00201D95183
:10156400030110270201DA51030111230101FDA532
:1015740008D00201D751030110270201D8510301F9
:1015840011230101FDA708D00201D5510301102741
:101594000201D651030111230101FDA908D0020162
:1015A400D151030110270201D2510301112301017A
:1015B400FDAB08D00201CF51030110270201D05125
:1015C400030111230101FDAD08D00201CD51030136
:1015D40010270201CE5103011123030110C358F354
:1015E40011C359F3FE0E5A6F020E5B6F55DD00C333
:1015F400F7F201C3F8F202C3F9F203C3FAF20201EB
:10160400F251040A010ED8A4000E016EF251050A2B
:10161400010ED8A4000E006E015000122FE001014B
:10162400F651010A04E1060E0301516F03D00301D0
:10163400040E516F51C358F3100E596F0A0E5A6FAE
:10164400010E5B6F020E5C6FACDC51C358F3580E95
:101654000301596F0D0E5A6F010E5B6F020E5C6F22
:10166400A0DC51C358F3280E0301596FF70E5A6FCB
:10167400020E5B6F040E5C6F94DC6FD00201F251BA
:10168400020A010ED8A4000E016EF251030A010EE3
:10169400D8A4000E006E015000122EE00101F65194
:1016A400010A04E1010E0301516F02D00301516BE1
:1016B40051C358F3090E596F160E5A6F010E5B6F22
:1016C400020E5C6F6EDC51C358F30F0E0301596FA9
:1016D400130E5A6F010E5B6F020E5C6F62DC51C316
:1016E40058F30B0E0301596FF70E5A6F020E5B6F1E
:1016F400040E5C6F56DC31D00201F251010A2DE177
:101704000101F651010A04E1010E0301516F02D0F7
:101714000301516B51C358F3090E596F100E5A6FE0
:10172400010E5B6F020E5C6F3CDC51C358F30F0E6D
:101734000301596F3F0E5A6F010E5B6F010E5C6F10
:1017440030DC51C358F30B0E0301596FF70E5A6F77
:0E175400020E5B6F040E5C6F24DC04001200BA
:101762000301586B03DC00C051F301C052F3800E39
:10177200030A026E800E0118025C02E10050E808C2
:1017820004E2010E0201306F02D00201306B51C33C
:1017920000F052C301F096EC07F0890E046E410E80
:1017A200056E1C0E066E810E076E03EC07F06AECE6
:0417B20004F012002D
:1017B6000EEC00F0E4C271F32BEC00F0800E030196
:1017C600716F2BEC00F051C371F32BEC00F0D8ECE9
:0417D60000F012000D
:1017DA00025006180E6E086A096A0B6A03500764FB
:1017EA00E0EF0CF006500A6E068E028E03500B6E66
:1017FA000750036E000E0B6430EF0CF00B50075EBF
:10180A00D8B4D1EF0CF0070E07649FEF0CF0075E17
:10181A0000C008F001C000F002C001F0026A074EE1
:10182A00D1EF0CF0076474EF0CF0075E00C008F00B
:10183A0001C000F0016A074ED1EF0CF0076452EFC5
:10184A000CF0075E00C008F0006A074ED1EF0CF0FA
:10185A00076439EF0CF00AC002F005C001F004C0B9
:10186A0000F0086AFDEF0DF0030E076444EF0CF078
:10187A00075E08380F0B086E074ED1EF0CF0D890B0
:10188A000832074ED1EF0CF0D8900832074ED1EF4C
:10189A000CF0D8900832D1EF0CF0030E076463EF16
:1018AA000CF0075E08380F0B086E0038F00B08269C
:1018BA0000380F0B006E074ED1EF0CF0D8900032B3
:1018CA000832074ED1EF0CF0D89000320832074E9A
:1018DA00D1EF0CF0D89000320832D1EF0CF0030EA1
:1018EA0007648BEF0CF0075E08380F0B086E0038A0
:1018FA00F00B082600380F0B006E0138F00B00269B
:10190A0001380F0B016E074ED1EF0CF0D89001325F
:10191A0000320832074ED1EF0CF0D8900132003273
:10192A000832074ED1EF0CF0D8900132003208325B
:10193A00D1EF0CF0030E0764BCEF0CF0075E083819
:10194A000F0B086E0038F00B082600380F0B006EDC
:10195A000138F00B002601380F0B016E0238F00B2C
:10196A00012602380F0B026E074ED1EF0CF0D89009
:10197A000232013200320832074ED1EF0CF0D89011
:10198A000232013200320832074ED1EF0CF0D89001
:10199A000232013200320832096A000E0EAEC5EF79
:1019AA000DF0081E001E011E021E082A0022012236
:1019BA000222C5EF0DF00750D8A4E6EF0CF0FDEFB8
:1019CA000DF0096A02C00AF0028E068E0750035C07
:1019DA00076ED8B4B8EF0DF0070E076486EF0DF066
:1019EA00075E0450096E0550046E0650056E066ABD
:1019FA00074EB8EF0DF0070E07645BEF0DF0075EB8
:101A0A000450096E0550046E056A074EB8EF0DF0D2
:101A1A00070E076439EF0DF0075E0450096E046A79
:101A2A00074EB8EF0DF0070E076420EF0DF00AC05D
:101A3A0002F0FDEF0DF0030E07642BEF0DF0075EC9
:101A4A0009380F0B096E074EB8EF0DF0D89009321E
:101A5A00074EB8EF0DF0D8900932074EB8EF0DF0E7
:101A6A00D8900932B8EF0DF0030E07644AEF0DF073
:101A7A00075E09380F0B096E0438F00B0926043883
:101A8A000F0B046E074EB8EF0DF0D89004320932EE
:101A9A00074EB8EF0DF0D89004320932074EB8EF6E
:101AAA000DF0D89004320932B8EF0DF0030E076436
:101ABA0072EF0DF0075E09380F0B096E0438F00B50
:101ACA00092604380F0B046E0538F00B0426053876
:101ADA000F0B056E074EB8EF0DF0D89005320432A1
:101AEA000932074EB8EF0DF0D890053204320932A8
:101AFA00074EB8EF0DF0D890053204320932B8EF2C
:101B0A000DF0030E0764A3EF0DF0075E09380F0B03
:101B1A00096E0438F00B092604380F0B046E0538D9
:101B2A00F00B042605380F0B056E0638F00B052658
:101B3A0006380F0B066E074EB8EF0DF0D890063236
:101B4A00053204320932074EB8EF0DF0D89006324A
:101B5A00053204320932074EB8EF0DF0D89006323A
:101B6A00053204320932086A000E0EAEC5EF0DF0D6
:101B7A00091E041E051E061E092A04220522062223
:101B8A00095008260450002205500122065002225C
:101B9A000EBEDCEF0DF0D8A0EBEF0DF002320132F1
:101BAA0000320832033EEBEF0DF0F7EF0DF0D8B03C
:101BBA00F1EF0DF0000E081E001E011E021E082A7B
:101BCA000022012202220A7EF1EF0DF0010E0C6EB4
:101BDA0079EC03F0FFEF0DF0020E0C6E79EC03F0D6
:101BEA00FFEF0DF0040E0C6E4BEC01F0FFEF0DF061
:061BFA00000E0C6E12004B
:101C0000800E006E800E03015219005C02E15151FA
:101C1000500803E3006A016ABBD0800E006E800E9C
:101C20005219005C02E15151AB0805E3F40E512753
:101C3000000E5223A9D0800E010A006E800E5219A8
:101C4000005C02E15151480805E3FE0E5127000EE9
:101C500052239AD0800E020A006E800E5219005C48
:101C600002E15151460805E3180E5127010E522397
:101C70008BD0800E030A006E800E5219005C02E1C8
:101C80005151340805E3290E5127010E52237CD00F
:101C9000800E040A006E800E5219005C02E1515160
:101CA0004C0805E3360E5127010E52236DD0800EED
:101CB000080A006E800E5219005C02E1515185083D
:101CC00005E3AE0E5127010E52235ED0800E0C0AA2
:101CD000006E800E5219005C02E15151FA0805E3D2
:101CE000E40E5127010E52234FD0800E120A006ECF
:101CF000800E5219005C02E151510F0805E3120EEB
:101D00005127020E522340D0800E160A006E800E1C
:101D10005219005C02E15151E60805E3880E512793
:101D2000020E522331D0800E1B0A006E800E521913
:101D3000005C02E15151EA0805E3E70E5127020E6B
:101D4000522322D0800E210A006E800E5219005CB0
:101D500002E15151360805E3200E5127030E5223AC
:101D600013D0800E290A006E800E5219005C02E129
:101D70005151040805E3480E5127030E522304D0A5
:101D80005C0E5127030E522351C300F052C301F0E1
:021D900012003F
:101D92000050086E0150006E0250016E0350026E38
:101DA200036A0B6A0C6A9E0E036E0A6A02AEE6EFC3
:101DB2000EF0081E001E011E021E082AD8B4002AB8
:101DC200D8B4012AD8B4022A0A8E020E0C6E79EC1B
:041DD20003F0120008
:101DD60000C008F00B6A0C6A9E0E036E0A6A026A5D
:0E1DE600016A006A020E0C6E79EC03F0120026
:101DF4000450000A12E10550000A0FE10650000ADF
:101E04000CE10750000A09E1FF0E006EFF0E016E9F
:101E14007F0E026EFF0E036EA8D0086A096A07508F
:101E2400D8B4A5EF0FF00350D8B4AAEF0FF00250C6
:101E340006180A6E028E068E0E6A02C008F001C0F1
:101E44000CF000C00DF004500D5E0550D8A0053C08
:101E54000C5E0650D8A0063C085E086A0C6A0D6A3F
:101E6400D8A03CEF0FF0D890023201320032083291
:101E7400010E0E6E0750035ED8A049EF0FF07E0EE0
:101E84000E240326D8B0AFEF0FF04FEF0FF07E0E05
:101E94000E240326D8A0B4EF0FF0180E0B6E0D36E7
:101EA4000C3608360036013602360E360450005E13
:101EB4000550D8A0053C015E0650D8A0063C025E41
:101EC40006340E120EA06AEF0FF00D8075EF0FF0BE
:101ED400045000260550D8B0053C01260650D8B061
:101EE400062802260D900B2E51EF0FF09BEF0FF0FA
:101EF400D8900036013602360E360450005E055086
:101F0400D8A0053C015E0650D8A0063C025E06340B
:101F14000E10010B0D26D8B00C2AD8B4082AD8A468
:101F24009BEF0FF008320C320D32032AD8B4AFEF16
:101F34000FF00AAE089E0850026E0C50016E0D5050
:101F4400006EB7EF0FF0010ECFEC07F0B7EF0FF014
:101F5400020EC0EC00F0B7EF0FF0040E4BEC01F0F2
:0C1F6400B7EF0FF0080EC7EC00F0120001
:101F70000450000A12E10550000A0FE10650000A61
:101F80000CE10750000A09E1FF0E006EFF0E016E22
:101F9000FF0E026E7F0E036E99D00C6A07BE0C2AEC
:101FA0000D6A0B6A0A6A096A086A03500210011076
:101FB0000010D8B485D0035007180E6E0EBE0D1E4B
:101FC00007AE0BD0041E051E061E071E042AD8B439
:101FD000052AD8B4062AD8B4072A03AE0BD0001EAF
:101FE000011E021E031E002AD8B4012AD8B4022AF8
:101FF000D8B4032A035007100E6E0EBE1DD0D3ECCA
:1020000004F00CBE36D00DAE5BD0001E011E021EC9
:10201000031E002AD8B4012AD8B4022AD8B4032A4D
:10202000081E091E0A1E0B1E082AD8B4092AD8B495
:102030000A2AD8B40B2A44D007AE15D003BE0DD05F
:1020400003500B6E02500A6E0150096E0050086E6C
:10205000036A026A016A006AD6D7036A026A016AE1
:10206000006A002A000C031E021E011E001E0C8EB8
:10207000C6D7082AD8B4092AD8B40A2AD8B40B2A51
:102080000450085CD8A4BFD70550095CD8A4BBD7BE
:1020900006500A5CD8A4B7D707500B5CD8A4B3D7B6
:1020A0000B6A0A6A096A086A002AD8B4012AD8B4F5
:1020B000022AD8B4032A03AEA6D70E6A0E88FF0CF4
:0E20C0000E6A0CA002D06DEC03F0000F1200AF
:1020CE000A6A0350D8A40A800750D8A40A820A507C
:1020DE00D8B4CAEF10F0030AD8B483EF10F00AB0E8
:1020EE007EEF10F006AEC8EF10F0C6EF10F002AEA5
:1020FE00C6EF10F0C8EF10F00250800B0A6E029E71
:10210E000650800B069E0A18D8B494EF10F00A50B1
:10211E00D8B4C6EF10F0C8EF10F00750035CD8B477
:10212E009EEF10F0D8A0BAEF10F0C0EF10F00650EE
:10213E00025CD8B4A8EF10F0D8A0BAEF10F0C0EF40
:10214E0010F00550015CD8B4B2EF10F0D8A0BAEF81
:10215E0010F0C0EF10F00450005CD8B4CAEF10F0CD
:10216E00D8B0C0EF10F00A52D8B4C8EF10F0C6EFD6
:10217E0010F00A52D8B4C6EF10F0C8EF10F0D880A5
:0E218E001200D8901200D880D88412001200DF
:10219C008EEC06F051C358F32BEC06F089880A0E2E
:1021AC000301586F000E596F14EC06F089988EECF1
:0421BC0006F0120017
:1021C000220E0C6E086A096A0A6A0B6A0C06D8B4F9
:1021D0001FD0D8900B320A32093208320332023251
:1021E00001320032D8A0F2D70C06D8B409D004507E
:1021F00008260550092206500A2207500B22EAD76A
:10220000045008260550092206500A2207500B22C6
:022210001200BA
:102212008EEC06F0899851C358F3A0EC06F00A0E32
:102222000301586F000E596F14EC06F08EEC06F0A5
:02223200120098
:10223400A00E0301376F0F0E386F000E396F3A6F1F
:10224400A00E006E0F0E016E000E026E000E036EE5
:1022540035C304F036C305F0000E066E076EAEDF1C
:1022640000C037F301C038F302C039F303C03AF3B6
:10227400000E035C08E1000E025C05E1020E015C45
:1022840002E1940E005C01E231D0940E375F020E3D
:10229400385B000E395B3A5B050E006E005007E0B8
:1022A4003A333933383337333A9FFF0FF8D737C3CC
:1022B40000F038C301F039C302F03AC303F0010E51
:1022C400375F000E385B395B3A5B00500110021037
:1022D40003100CE0000000000000000000000000FB
:0E22E40000000000000000000000E1D7120022
:1022F2000201DF51010806E2AF0E0301516FDBEC70
:102302000BF00ED0DF51010A0BE1010EE66FE56B17
:102312000301626B1FEC03F00301626B1FEC03F01D
:022322001200A7
:102324000101F251000A4AE1030135A104D0010E72
:10233400516F32DF03D0010E516F69DF35A304D032
:10234400020E516F29DF03D0020E516F60DF35A5F5
:1023540004D0030E516F20DF03D0030E516F57DFFB
:1023640035A704D0040E516F17DF03D0040E516F4C
:102374004EDF35A904D0050E516F0EDF03D0050ED4
:10238400516F45DF35AB04D0060E516F05DF03D026
:10239400060E516F3CDF35AD04D0070E516FFCDEE5
:1023A40003D0070E516F33DF35AF04D0080E516FE1
:1023B400F3DE03D0080E516F2ADF49D0030135A1A3
:1023C40004D0010E516F23DF03D0010E516FE4DE00
:1023D40035A304D0020E516F1ADF03D0020E516FE1
:1023E400DBDE35A504D0030E516F11DF03D0030EDD
:1023F400516FD2DE35A704D0040E516F08DF03D02D
:10240400040E516FC9DE35A904D0050E516FFFDEED
:1024140003D0050E516FC0DE35AB04D0060E516FEC
:10242400F6DE03D0060E516FB7DE35AD04D0070ECD
:10243400516FEDDE03D0070E516FAEDE35AF04D021
:10244400080E516FE4DE03D0080E516FA5DE1200B2
:102454000301355304E0100E516F9EDE03D0100EBD
:06246400516FD5DE1200ED
:10246A00030135A104D0090E516F93DE03D0090E82
:10247A00516FCADE35A304D00A0E516F8ADE03D02B
:10248A000A0E516FC1DE35A504D00B0E516F81DEE5
:10249A0003D00B0E516FB8DE35A704D00C0E516F66
:1024AA0078DE03D00C0E516FAFDE35A904D00D0EC5
:1024BA00516F6FDE03D00D0E516FA6DE35AB04D01F
:1024CA000E0E516F66DE03D00E0E516F9DDE35ADD6
:1024DA0004D00F0E516F5DDE03D00F0E516F94DEE4
:0224EA001200DE
:1024EC00000E03013D6F000E3E6F480E3F6F850ED0
:1024FC00406F04000201B251000A010ED8A4000E74
:10250C00016EB151010A010ED8A4000E006E0050EC
:10251C000116800E03013619006E800E005C02E17C
:10252C000A0E355D000ED8B0010E006E015000167B
:10253C00D8B4AED002018B51000AD8A4A5D0F25168
:10254C00040A010ED8A4000E016EF251050A010E08
:10255C00D8A4000E006E015000122DE00101EE51C6
:10256C00010A0EE1040E0301586F100E596FBC0ED8
:10257C005A6F020E5B6F080E5C6FD3EC07F00DD038
:10258C00040E0301586F100E596FB30E5A6F020EE2
:10259C005B6F080E5C6FD3EC07F0060E0301586FEF
:1025AC00100E596F530E5A6F020E5B6F080E5C6F54
:1025BC00D3EC07F069D00201F251020A010ED8A443
:1025CC00000E016EF251030A010ED8A4000E006E2B
:1025DC00015000122BE00101EE51010A0DE1030143
:1025EC00586B090E596F4A0E5A6F020E5B6F080E2C
:1025FC005C6FD3EC07F00CD00301586B090E596FCC
:10260C00410E5A6F020E5B6F080E5C6FD3EC07F035
:10261C00010E0301586F090E596F6C0E5A6F020EA2
:10262C005B6F080E5C6FD3EC07F02ED00201F251F9
:10263C00010A2AE10101EE51010A0DE10301586B77
:10264C00090E596F640E5A6F020E5B6F070E5C6FAA
:10265C00D3EC07F00CD00301586B090E596F5C0ECC
:10266C005A6F020E5B6F070E5C6FD3EC07F0010E16
:10267C000301586F090E596F340E5A6F020E5B6FBF
:10268C00070E5C6FD3EC07F0010E02018B6F08D0C4
:10269C0002018B51010A02E162EC09F002018B6B21
:1026AC000400030136510201861903E1855103012F
:1026BC003519D8B48CD335C385F236C386F20101F3
:1026CC00EE51000A4DE1800E03013619006E800EAA
:1026DC00005C02E1640E355D1EE3050E3525006ECF
:1026EC00000E3621016E00C035F301C036F300C078
:1026FC0058F301C059F3FE0E5A6F020E5B6F4EEC8D
:10270C0008F000C3F7F201C3F8F202C3F9F2570E56
:10271C000201FA6F24D035C358F336C359F3FE0EB9
:10272C0003015A6F020E5B6F4EEC08F00251200A47
:10273C0003E002C3F7F203D0300E0201F76F02017F
:10274C002E0EF86F03010351200A03E003C3F9F2C4
:10275C0003D0300E0201F96F0201570EFA6F32D01E
:10276C00800E03013619006E800E030A005C02E134
:10277C00E70E355D14E235C358F336C359F3FE0E3C
:10278C005A6F020E5B6F4EEC08F001C3F7F202C3F6
:10279C00F8F203C3F9F2570E0201FA6F13D035C3E6
:1027AC0058F336C359F3FE0E03015A6F020E5B6FDA
:1027BC004EEC08F000C3F7F201C3F8F202C3F9F2D1
:1027CC0003C3FAF20201F251040A010ED8A4000E5E
:1027DC00016EF251050A010ED8A4000E006E0150D4
:1027EC0000120DE00301586B400E596FF70E5A6F33
:1027FC00020E5B6F040E5C6FD3EC07F010D002017D
:10280C00F251000A0CE00301586B040E596FF70EDD
:10281C005A6F020E5B6F040E5C6FD3EC07F0040072
:10282C0002018B51010AD8A4D2D20101FE51000A37
:10283C00010ED8A4000E016EFD51000A010ED8A4A1
:10284C00000E006E0150001604E037C306F338C3C7
:10285C0007F306C300F007C301F096EC07F000C0C5
:10286C0049F301C04AF302C04BF303C04CF3000E12
:10287C00046E000E056E480E066E850E076E49C37B
:10288C0000F04AC301F04BC302F04CC303F0FAEC66
:10289C000EF000C045F301C046F302C047F303C07D
:1028AC0048F349C304F04AC305F04BC306F04CC3CC
:1028BC0007F0000E006E000E016E480E026E850EC3
:1028CC00036EFAEC0EF045C304F046C305F047C3A3
:1028DC0006F048C307F0EDEC0BF000C045F301C067
:1028EC0046F302C047F303C048F305C300F0EBEC1A
:1028FC000EF045C304F046C305F047C306F048C3C9
:10290C0007F003EC07F0000E046E000E056E200EAF
:10291C00066E820E076EFAEC0EF01F0E046E850E1C
:10292C00056E6B0E066E7B0E076E03EC07F0000E49
:10293C00046E000E056E000E066E7F0E076EEDEC3B
:10294C000BF000C004F001C005F002C006F003C09B
:10295C0007F0000E006E000E016E000E026E7F0E70
:10296C00036EFAEC0EF000C04DF301C04EF302C042
:10297C004FF303C050F34DC33DF34EC33EF34FC36F
:10298C003FF350C340F337C300F038C301F096EC6B
:10299C0007F000C049F301C04AF302C04BF303C077
:1029AC004CF3000E046E000E056E480E066E850E7E
:1029BC00076E49C300F04AC301F04BC302F04CC38D
:1029CC0003F0FAEC0EF0000E046E000E056E000E15
:1029DC00066E800E076EEDEC0BF000C045F301C0E7
:1029EC0046F302C047F303C048F349C304F04AC39B
:1029FC0005F04BC306F04CC307F0000E006E000E42
:102A0C00016E480E026E850E036EFAEC0EF045C395
:102A1C0004F046C305F047C306F048C307F0EDECDD
:102A2C000BF000C004F001C005F002C006F003C0BA
:102A3C0007F0000E006E000E016E000E026E810E8D
:102A4C00036EFAEC0EF000C041F301C042F302C079
:102A5C0043F303C044F3000E046E000E056E000E2B
:102A6C00066E7F0E076E4DC300F04EC301F04FC3D0
:102A7C0002F050C303F067EC10F0000ED8B0010E5A
:102A8C00006E005209E0000E03013D6F000E3E6F18
:102A9C00000E3F6F7F0E406F000E046E000E056E31
:102AAC00000E066E7F0E076E41C300F042C301F0AC
:102ABC0043C302F044C303F067EC10F0000ED8B02F
:102ACC00010E006E005209E00301000E416F000E72
:102ADC00426F000E436F7F0E446F35C300F036C358
:102AEC0001F096EC07F03DC304F03EC305F03FC384
:102AFC0006F040C307F003EC07F041C304F042C3F7
:102B0C0005F043C306F044C307F003EC07F06AEC8E
:102B1C0004F000C039F301C03AF33DC300F03EC3EA
:102B2C0001F03FC302F040C303F041C304F042C3C1
:102B3C0005F043C306F044C307F003EC07F0000EA6
:102B4C00046E000E056E480E066E850E076E03ECC5
:102B5C0007F06AEC04F000C03BF301C03CF3800EBC
:102B6C000118026E800E025C02E1640E005C05E34B
:102B7C000301630E3B6F000E3C6F0101EE51000A26
:102B8C004DE1800E03013A19006E800E005C02E1EB
:102B9C00640E395D1EE3050E3925006E000E3A21D8
:102BAC00016E00C039F301C03AF300C058F301C004
:102BBC0059F3FE0E5A6F020E5B6F4EEC08F000C319
:102BCC00F7F201C3F8F202C3F9F2570E0201FA6FE1
:102BDC0024D039C358F33AC359F3FE0E03015A6F8C
:102BEC00020E5B6F4EEC08F00251200A03E002C3A8
:102BFC00F7F203D0300E0201F76F02012E0EF86FC0
:102C0C0003010351200A03E003C3F9F203D0300E91
:102C1C000201F96F0201570EFA6F32D0800E0301D8
:102C2C003A19006E800E030A005C02E1E70E395D72
:102C3C0014E239C358F33AC359F3FE0E5A6F020E1D
:102C4C005B6F4EEC08F001C3F7F202C3F8F203C35A
:102C5C00F9F2570E0201FA6F13D039C358F33AC385
:102C6C0059F3FE0E03015A6F020E5B6F4EEC08F027
:102C7C0000C3F7F201C3F8F202C3F9F203C3FAF28C
:102C8C000201F251040A010ED8A4000E016EF25199
:102C9C00050A010ED8A4000E006E015000120EE0C1
:102CAC00040E0301586F400E596FF70E5A6F020E47
:102CBC005B6F040E5C6FD3EC07F02DD00201F25168
:102CCC00020A010ED8A4000E016EF251030A010E85
:102CDC00D8A4000E006E015000120DE00301586BD9
:102CEC000D0E596FF70E5A6F020E5B6F040E5C6F70
:102CFC00D3EC07F010D00201F251000A0CE00301F2
:102D0C00586B0C0E596FF70E5A6F020E5B6F040E58
:102D1C005C6FD3EC07F03BC358F33CC359F3FE0E86
:102D2C0003015A6F020E5B6F4EEC08F002C3F7F210
:102D3C0003C3F8F20201F251040A010ED8A4000EEA
:102D4C00016EF251050A010ED8A4000E006E01505E
:102D5C0000120EE0060E0301586F4C0E596FF70E61
:102D6C005A6F020E5B6F020E5C6FD3EC07F02FD024
:102D7C000201F251020A010ED8A4000E016EF251AA
:102D8C00030A010ED8A4000E006E015000120EE0D2
:102D9C00010E0301586F0E0E596FF70E5A6F020E8B
:102DAC005B6F020E5C6FD3EC07F011D00201F25195
:102DBC00010A0DE1010E0301586F0D0E596FF70E4C
:102DCC005A6F020E5B6F020E5C6FD3EC07F00400BF
:022DDC001200E3
:102DDE000400030136510101A11903E1A0510301C1
:102DEE003519D8B4A7D0030135C3A0F136C3A1F16C
:102DFE00000E361902E1000E35193AE10201F251C8
:102E0E00040A010ED8A4000E016EF251050A010E3D
:102E1E00D8A4000E006E015000120EE0020E030147
:102E2E00586F400E596F3C0E5A6F020E5B6F040EB8
:102E3E005C6FD3EC07F018D00201F251000A0EE0DD
:102E4E00010E0301586F040E596F7E0E5A6F020E5B
:102E5E005B6F040E5C6FD3EC07F006D00201F251EB
:102E6E00000A02E18B8C8B8E0101A06BA16B62D0EC
:102E7E0035C358F336C359F3FE0E03015A6F020ED3
:102E8E005B6F4EEC08F001C3F7F22E0E0201F86FE5
:102E9E0002C3F9F203C3FAF2F251040A010ED8A4E6
:102EAE00000E016EF251050A010ED8A4000E006E3E
:102EBE00015000120EE0020E0301586F400E596FC2
:102ECE00F70E5A6F020E5B6F040E5C6FD3EC07F0B9
:102EDE0031D00201F251000A0EE0010E0301586FCB
:102EEE00040E596FF70E5A6F020E5B6F040E5C6F75
:102EFE00D3EC07F01FD00201F251000A1BE1800E45
:102F0E00006E800E03013619005C02E13551960801
:102F1E0003E38B9C8B8E0ED0800E006E800E3619C6
:102F2E00005C02E13551FA0803E38B9C819E02D0CE
:082F3E008B8C8B9E0400120035
:102F46000400B1EC0BF000C035F301C036F3000EFF
:102F560001BEFF0E0301376F386F19EC09F000C090
:102F660039F301C03AF3000E01BEFF0E03013B6FB9
:102F76003C6F0101F051010A1BE135C300F036C375
:102F860001F0030E046E000E056EF1EC08F000C0B1
:102F960051F301C052F300EC0EF096EC07F000C0BE
:102FA6003DF301C03EF302C03FF303C040F31AD025
:102FB60035C300F036C301F037C302F038C303F05F
:102FC600030E046E000E056E066E076EE0EC10F042
:102FD600C9EC0EF000C03DF301C03EF302C03FF362
:102FE60003C040F30301800E3C19006E800E3819B1
:102FF600005C08E137513B5D05E136513A5D02E17F
:103006003551395D08E3E70E356F030E366F000E56
:10301600376F386F45D039513525006E3A51362114
:10302600016E3B513721026E3C513821036E640E0E
:10303600046E000E056E066E076EE0EC10F035C3EA
:1030460004F036C305F037C306F038C307F039512C
:10305600045E3A51055A3B51065A3C51075AB8ECA0
:103066000FF000C035F301C036F302C037F303C0DA
:1030760038F3800E046E800E0318045C08E10250DB
:10308600000805E10150030802E10050E70808E2E4
:10309600E70E0301356F030E366F000E376F386F7C
:1030A600EFC100F0EBEC0EF03DC304F03EC305F0BB
:1030B6003FC306F040C307F003EC07F0000E046EB2
:1030C600000E056E7A0E066E880E076EFAEC0EF08E
:1030D60000C03DF301C03EF302C03FF303C040F31E
:1030E600F40E046EFD0E056E340E066E7F0E076E30
:1030F600FAEC0EF000C03DF301C03EF302C03FF310
:1031060003C040F30101EE51010A25E13DC300F081
:103116003EC301F03FC302F040C303F03DC304F0D9
:103126003EC305F03FC306F040C307F003EC07F0CB
:10313600000E046E000E056E480E066E840E076EB7
:10314600FAEC0EF000C03DF301C03EF302C03FF3BF
:1031560003C040F324D03DC300F03EC301F03FC39B
:1031660002F040C303F03DC304F03EC305F03FC385
:1031760006F040C307F003EC07F0000E046E000EE5
:10318600056E200E066E810E076EFAEC0EF000C07C
:103196003DF301C03EF302C03FF303C040F33DC31D
:1031A60000F03EC301F03FC302F040C303F0000E3F
:1031B600046E000E056E000E066E7E0E076EEDECBA
:1031C6000BF000C03DF301C03EF302C03FF303C065
:1031D60040F36AEC04F000C0EEF201C0EFF2800E9C
:1031E60003013819006E800E005C08E1000E375DA1
:1031F60005E1000E365D02E1640E355D06E2E70E7E
:103206000201F36F030EF46F04D035C3F3F236C335
:04321600F4F21200BC
:10321A000450000A08E10550000A05E1FF0E006E9D
:10322A007F0E016E58D00D6A096A086A01500010B3
:10323A00D8B4000C015005180A6E0ABE0D1E0B6A9E
:10324A0005AE05D0041E051E042AD8B4052A01AE0F
:10325A0005D0001E011E002AD8B4012A015005100B
:10326A000A6E0ABE10D0C5EC08F00BB020D00DAE25
:10327A00000C001E011E002AD8B4012A081E091ECD
:10328A00082AD8B4092A000C05AE0DD001BE07D011
:10329A000150096E0050086E016A006AE8D7016A97
:1032AA00006A002A000C011E001E0B2ADDD7082A1C
:1032BA00D8B4092A0450085CD8A4D9D70550095CA7
:1032CA00D8A4D5D7096A086A002AD8B4012A01AE57
:0832DA00CED70000FF0C12002A
:1032E200810E0301516F0F0E526F536B190E546F03
:1032F200556B2AEC09F000C035F3810E516F0F0EA9
:10330200526F010E536F190E546F556B2AEC09F070
:1033120000503513810E516F0F0E526F020E536F14
:10332200190E546F556B2AEC09F03551001203E067
:08333200010E0101F76F12000A
:10333A000101FE6BFD6B0301356B92EC11F0FDC1CF
:10334A0035F335EC12F0F5C235F3F6C236F31AEC62
:04335A0011F012005C
:10335E00A6A202D00000FCD7A69C2DC3A9FF2EC3A7
:10336E00A8FFA69EA684F2CF00F0F29E550EA76E81
:10337E00AA0EA76EA68200BE02D0F29E01D0F28ED9
:0E338E00A694A1B802D00000FCD7A1981200AE
:10339C000301336B346B640E0201F05D03012E6F7D
:1033AC00000E0201F15903012F6F0201EE6BEF6B5E
:1033BC0004000101FC51000A010ED8A4000E016E9C
:1033CC00FF51010A010ED8A4000E006E0150001628
:1033DC0031E0B3DD800E0201EF19006E800E005C4F
:1033EC0002E10A0EEE5D25E3FEC135F392EC11F01D
:1033FC00FDC135F335EC12F0F6C135F32AEC12F0C1
:10340C00010E0101FC6F79EC11F0F3C100F0EBEC53
:10341C000EF0F8C104F0F9C105F0FAC106F0FBC1D9
:10342C0007F003EC07F06AEC04F000C0F4F101C003
:10343C00F5F14AD3780E0301306F2D6B30512D5DB1
:10344C004DE281B202D0068001D0069081B402D048
:10345C00D88001D0D89006B003D002E2069201D0F9
:10346C00068281B002D0D88001D0D89005E3020149
:10347C00EDA102D0068001D0069006B204D006B0B1
:10348C0002D0D89001D0D88007E325DF0101F75195
:10349C00010A02E1F76B18D350DD800E03013419D9
:1034AC00006E800E0201EF19005C03E1EE51030186
:1034BC00335D08E2EEC233F3EFC234F3F3C231F3FF
:1034CC00F4C232F3100E0C6E940E0D6E03010D2E21
:1034DC00FDD70C2EFBD700002D2BB0D70400800E8F
:1034EC003419006E800E005C02E1640E335D19E34A
:1034FC00050E3325006E000E3421016E0A0E046E8B
:10350C00000E056E84DE00C033F301C034F30A0EE6
:10351C00046E000E056EF1EC08F000C033F301C030
:10352C0034F333C32EF234C32FF2800E030134195B
:10353C00006E800E005C02E10A0E335D02E2316B1C
:10354C00326B31C335F332C336F343DC800E0201E8
:10355C002F19016E800E015C02E10A0E2E5D000E29
:10356C00D8B0010E016E0101F3510008010ED8B064
:10357C00000E006E015000161BE0FC51000A04E125
:10358C00010EFC6F79EC11F0F3C100F0EBEC0EF0D6
:10359C00F8C104F0F9C105F0FAC106F0FBC107F05F
:1035AC0003EC07F06AEC04F000C0F4F101C0F5F193
:1035BC00800E03013219006E800E0201F119005CBD
:1035CC0003E1F0510301315D000ED8B0010E006E25
:1035DC00005002012D15056E800E3319036E800EFE
:1035EC0003013219035C03E131510201325D020126
:1035FC00010ED8B0000E036E32510301315D016E25
:10360C000201335103013259026E800E2F19006EE4
:10361C00800E0218005C02E101502E5D010ED8B044
:10362C00000E006E00500314046E800E3219036EEF
:10363C00800E02013319035C03E132510301315D49
:10364C000301010ED8B0000E036E31510201325D40
:10365C00016E0301325102013359026E800E0301D7
:10366C002F19006E800E0218005C02E101502E5DD5
:10367C00010ED8B0000E006E03500016005004105E
:10368C00016E02013351030A02E1E70E3219010EF9
:10369C00D8A4000E006E015000120550001602E076
:1036AC00010E316F81B202D0068001D0069081B438
:1036BC0002D0D88001D0D89006B003D002E2069296
:1036CC0001D0068281B002D0D88001D0D89005E319
:1036DC000201EDA102D0068001D0069006B204D002
:1036EC0006B002D0D89001D0D88007E3F4DD0101F8
:1036FC00F751010A02E1F76BE7D12EC235F32FC265
:10370C0036F331C337F332C338F376EC12F081B2AF
:10371C0002D0068001D0069081B402D0D88001D0AE
:10372C00D89006B003D002E2069201D0068281B096
:10373C0002D0D88001D0D89005E30201EDA102D0CF
:10374C00068001D0069006B204D006B002D0D89004
:10375C0001D0D88007E3BFDD0101F751010A02E176
:10376C00F76BB2D1040002013051010AD8A4ACD1DC
:10377C00F251040A010ED8A4000E016EF251050A92
:10378C00010ED8A4000E006E01500012D8B4CAD09D
:10379C00020E0301586F100E596F090E5A6F020E6C
:1037AC005B6F080E5C6FD3EC07F0030E0B6E080E0C
:1037BC000C6E770E0D6E0D2EFED70C2EFCD70B2E2D
:1037CC00FAD7020E0301586F100E596F000E5A6F84
:1037DC00020E5B6F080E5C6FD3EC07F00B0E0B6EDA
:1037EC00260E0C6E5D0E0D6E0D2EFED70C2EFCD71C
:1037FC000B2EFAD7000000000400020E0301586FD4
:10380C00100E596F240E5A6F020E5B6F080E5C6F10
:10381C00D3EC07F0070E0B6E170E0C6E6A0E0D6EC6
:10382C000D2EFED70C2EFCD70B2EFAD70000040061
:10383C00020E0301586F100E596F1B0E5A6F020EB9
:10384C005B6F080E5C6FD3EC07F00B0E0B6E260E45
:10385C000C6E5D0E0D6E0D2EFED70C2EFCD70B2EA6
:10386C00FAD7000000000400020E0301586F100E7E
:10387C00596F120E5A6F020E5B6F080E5C6FD3EC11
:10388C0007F0070E0B6E170E0C6E6A0E0D6E0D2EDA
:10389C00FED70C2EFCD70B2EFAD700000400020E1C
:1038AC000301586F100E596FC60E5A6F010E5B6FE5
:1038BC00080E5C6FD3EC07F00B0E0B6E260E0C6E25
:1038CC005D0E0D6E0D2EFED70C2EFCD70B2EFAD7DF
:1038DC00000000000400020E0301586F100E596F17
:1038EC00BD0E5A6F010E5B6F080E5C6FD3EC07F0C8
:1038FC00030E0B6E080E0C6E770E0D6E0D2EFED792
:10390C000C2EFCD70B2EFAD7020E0301586F100E9B
:10391C00596FB40E5A6F010E5B6F080E5C6FD3ECCF
:10392C0007F0C6D00201F251000AD8B4C1D0010E82
:10393C000301586F596BE10E5A6F010E5B6F080E45
:10394C005C6FD3EC07F0030E0B6E080E0C6E770E4B
:10395C000D6E0D2EFED70C2EFCD70B2EFAD7010EAA
:10396C000301586F596BD80E5A6F010E5B6F080E1E
:10397C005C6FD3EC07F00B0E0B6E260E0C6E5D0E0F
:10398C000D6E0D2EFED70C2EFCD70B2EFAD7000089
:10399C0000000400010E0301586F596BCF0E5A6FD3
:1039AC00010E5B6F080E5C6FD3EC07F0070E0B6E0D
:1039BC00170E0C6E6A0E0D6E0D2EFED70C2EFCD74C
:1039CC000B2EFAD700000400010E0301586F596B3F
:1039DC00970E5A6F010E5B6F080E5C6FD3EC07F0FD
:1039EC000B0E0B6E260E0C6E5D0E0D6E0D2EFED795
:1039FC000C2EFCD70B2EFAD7000000000400010E91
:103A0C000301586F596B8E0E5A6F010E5B6F080EC7
:103A1C005C6FD3EC07F0070E0B6E170E0C6E6A0E74
:103A2C000D6E0D2EFED70C2EFCD70B2EFAD70000E8
:103A3C000400010E0301586F596B850E5A6F010E6D
:103A4C005B6F080E5C6FD3EC07F00B0E0B6E260E43
:103A5C000C6E5D0E0D6E0D2EFED70C2EFCD70B2EA4
:103A6C00FAD7000000000400010E0301586F596BD7
:103A7C00AB0E5A6F010E5B6F080E5C6FD3EC07F048
:103A8C00030E0B6E080E0C6E770E0D6E0D2EFED700
:103A9C000C2EFCD70B2EFAD7010E0301586F596B65
:103AAC00A20E5A6F010E5B6F080E5C6FD3EC07F021
:103ABC000400100E0101A06F270EA16F31C335F366
:0A3ACC0032C336F3EFEC16F01200DF
:103AD60031DC010E0101F66F010E0301356F2AEC90
:103AE60012F0FF0E2D6F2E6B37DCFE0E03012D6FCD
:103AF6002E6B32DCFD0E03012D6F010E2E6F2CDCBA
:103B0600FC0E03012D6F2E6B27DCFB0E03012D6FC0
:103B16002E6B22DC62EC09F002018B6B836B010ECB
:103B26008C6FF36BF46BEE6BEF6B326B336BF251A6
:103B3600040A010ED8A4000E016EF251050A010E08
:103B4600D8A4000E006E015000122BE0020E0301F5
:103B5600586F100E596F9F0E5A6F020E5B6F080E4C
:103B66005C6FD3EC07F004000D0E0B6E2D0E0C6E81
:103B7600D70E0D6E0D2EFED70C2EFCD70B2EFAD7B8
:103B860000000000020E0301586F100E596FA80EB8
:103B96005A6F020E5B6F080E5C6FD3EC07F00400E1
:103BA6002FD00201F251000A29E0010E0301586FDD
:103BB600596B8D0E5A6F020E5B6F080E5C6FD3EC5D
:103BC60007F004000D0E0B6E2D0E0C6ED70E0D6E4B
:103BD6000D2EFED70C2EFCD70B2EFAD700000000B8
:103BE600010E0301586F596B960E5A6F020E5B6FEA
:103BF600080E5C6FD3EC07F0040002D08B8C8B8E22
:103C0600100E0101A06F270EA16F100E0201856F25
:0A3C1600270E866FCEEC19F01200A5
:103C2000A3EC17F00101F151640A11E0F12B800EB1
:103C30000201EC19006E800EEF19005C02E1EE51FA
:103C4000EB5D04E2EEC2EBF2EFC2ECF20FD0010149
:103C5000F16BEBC235F3ECC236F3F3C237F3F4C2C7
:103C600038F376EC12F00201EB6BEC6B0201800E84
:103C7000EF19026E800EEA19025C02E1E951EE5D75
:103C8000010ED8B0000E026E800EE819016E800E93
:103C9000EF19015C02E1EE51E75D010ED8B0000EB4
:103CA000016E800E006E800EE819005C02E1E751A3
:103CB0000008010ED8B0000E006E01500016025030
:103CC000001253E00400A3EC17F00101F151640A63
:103CD00011E0F12B800E0201EC19006E800EEF193D
:103CE000005C02E1EE51EB5D04E2EEC2EBF2EFC2EA
:103CF000ECF20FD00101F16BEBC235F3ECC236F3FD
:103D0000F3C237F3F4C238F376EC12F00201EB6B36
:103D1000EC6B810E0301516F0F0E526F536B050E4A
:103D2000546F010E556F2AEC09F0005203E0010EAA
:103D30000101EA6F0101EA51010A010ED8A4000E47
:103D400003012C6F810E516F0F0E526F536B050ED6
:103D5000546F556B2AEC09F02C51001605E0BBDEC0
:0C3D60000201F36BF46B01D081D712005C
:103D6C00030E03012B6F0101FD6B0301356B35EC69
:103D7C0012F02BC3EDF14EDF000E0201F41902E13B
:103D8C00000EF31901E193D0140E046E000E056EB3
:103D9C00F3C200F0F4C201F00DEC19F00050020176
:103DAC00F3250301296F01500201F42103012A6F4D
:103DBC002BC328F3030128511F08D8A074D0285115
:103DCC000101EC03F3CF35F335EC12F023DF000ED9
:103DDC000201F41902E1000EF31901E168D0800E22
:103DEC00F419006E800E03012A19005C03E12951BD
:103DFC000201F35D56E2140E046E000E056EF3C262
:103E0C0000F0F4C201F00DEC19F000500201F325A2
:103E1C000301296F01500201F42103012A6F28517B
:103E2C000101EC03F3CFFDF12BC3EDF1800E020188
:103E3C00F419006E800E005C02E1780EF35D01E275
:103E4C0032D003012B512825026E02C028F3010148
:103E5C00EB51000A010ED8A4000E016E0250090AA3
:103E6C00010ED8A4000E006E0150001604E0080EDE
:103E7C000301286F15D00101EB51000A010ED8A4E3
:103E8C00000E016E03012851110A010ED8A4000E78
:103E9C00006E0150001604E0100E286F040E2B6FFC
:103EAC0001D001D087D7FDC135F335EC12F01200EB
:103EBC00030E0301276F236B27C33EF1030E246F00
:103ECC00140E046E000E056EF3C200F0F4C201F085
:103EDC000DEC19F000500201F3250301256F015080
:103EEC000201F4210301266F226B030122511F08EA
:103EFC00D8A078D022510201C603F3CF35F392EC4F
:103F0C0011F02EDF87DE000E0201F41902E1000E23
:103F1C00F31901E17DD0800EF419006E800E0301BF
:103F2C002619005C03E125510201F35D59E2140EE0
:103F3C00046E000E056EF3C200F0F4C201F00DEC3D
:103F4C0019F000500201F3250301256F0150020105
:103F5C00F4210301266F22510201C603F3CFFEF1B7
:103F6C00FDC123F327C33EF1EDC124F3800EF419F8
:103F7C00006E800E005C02E1780EF35D01E232D03F
:103F8C00030127512225026E02C022F301013D518B
:103F9C00000A010ED8A4000E016E0250090A010E8F
:103FAC00D8A4000E006E0150001604E0080E0301A8
:103FBC00226F15D001013D51000A010ED8A4000E4C
:103FCC00016E03012251110A010ED8A4000E006EDD
:103FDC000150001604E0100E226F040E276F01D062
:103FEC0001D083D723C3FDF1FEC135F392EC11F060
:103FFC00FDC135F335EC12F024C3EDF1340E0C6E2B
:10400C00F10E0D6E0D2EFED70C2EFCD7000000000D
:02401C00120090
:10401E0001013E510201C603F3CF00F000C022F3AE
:10402E0000500101FE25046E04C024F3050E026E3D
:10403E00C6C200F0000E016E025005E00036009080
:10404E000136FF0FFAD7010E005C026E000E01580A
:10405E00036E800E0318006E800E005C02E10450A9
:10406E00025C0DE2050E006EC6C224F3005005E0A0
:10407E00030124372491FF0FFAD70301240701010E
:10408E00FE510301225D06E222510101FE5D030194
:10409E00256F01D0256B25C3FEF125C335F392ECB8
:1040AE0011F0B7DD000E0201F41902E1000EF31952
:1040BE0001E170D0F3C226F3F4C227F3C651030117
:1040CE002525236F2351245D61E323C335F392EC41
:1040DE0011F09FDD000E0201F41902E1000EF3193A
:1040EE0001E158D0800EF419006E800E03012719DD
:1040FE00005C03E126510201F35D0BE3340E0C6EFE
:10410E00F10E0D6E0D2EFED70C2EFCD7000000000A
:10411E0080DD800E0201F419006E800E0301271956
:10412E00005C03E126510201F35D0BE3340E0C6ECD
:10413E00F10E0D6E0D2EFED70C2EFCD700000000DA
:10414E0068DD800E0201F419006E800E030127193E
:10415E00005C03E126510201F35D12E20201F3C29B
:10416E0026F3F4C227F323C3FEF1800EF419006E7A
:10417E00800E005C02E1780EF35D01E207D001D003
:10418E0005D00201C651030123279CD7FEC135F38A
:06419E0092EC11F012008A
:1041A4000101ED51EC03F3CF00F000C022F3005005
:1041B400FD25046E04C024F3050E026EECC100F06C
:1041C400000E016E025005E0003600900136FF0F2C
:1041D400FAD7010E005C026E000E0158036E800EC9
:1041E4000318006E800E005C02E10450025C0DE2D4
:1041F400050E006EECC124F3005005E003012437E2
:104204002491FF0FFAD7030124070101FD51030193
:10421400225D06E222510101FD5D0301256F01D0FB
:10422400256B25C3FDF125C335F335EC12F0F6DC1F
:10423400000E0201F41902E1000EF31901E171D03C
:10424400F3C226F3F4C227F30101EC51030125253F
:10425400236F2351245D61E323C335F335EC12F05E
:10426400DDDC000E0201F41902E1000EF31901E194
:1042740058D0800EF419006E800E03012719005CDB
:1042840003E126510201F35D0BE3340E0C6EF10ED3
:104294000D6E0D2EFED70C2EFCD700000000BEDCE8
:1042A400800E0201F419006E800E03012719005CD0
:1042B40003E126510201F35D0BE3340E0C6EF10EA3
:1042C4000D6E0D2EFED70C2EFCD700000000A6DCD0
:1042D400800E0201F419006E800E03012719005CA0
:1042E40003E126510201F35D12E20201F3C226F357
:1042F400F4C227F323C3FDF1800EF419006E800E7F
:10430400005C02E1780EF35D01E207D001D005D034
:104314000101EC51030123279CD7FDC135F335EC92
:0443240012F0120081
:10432800F3C21CF3F4C21DF3C5DD000E0201F4193B
:1043380002E1000EF31903E19DEC19F018D16CDCD1
:10434800800E0201F419006E800E005C02E1780E06
:10435800F35D01E20CD15FDE000E0201F41902E107
:10436800000EF31903E19DEC19F001D155DC800E24
:104378000201F419006E800E005C02E1780EF35D14
:1043880001E2F5D00BDF000E0201F41902E1000E84
:10439800F31903E19DEC19F0EAD03EDC800E02012E
:1043A800F419006E800E005C02E1780EF35D01E204
:1043B800DED0800EF419016E800E015C02E1C80E99
:1043C800F35D010ED8B0000E016E800EF419006E78
:1043D800800E03011D19005C03E11C510201F35D0D
:1043E8000201010ED8B0000E006E00500114036ED9
:1043F800F35103011C5D016E0201F45103011D59C3
:10440800026E800E006E800E0218005C02E1015000
:104418006408010ED8B0000E006E0350001601E0CB
:10442800A6D0F3C21CF3F4C21DF3FEC11EF3000EA6
:104438001F6FFDC120F3000E216F0101F651010A23
:1044480002E1F66B02D0010EF66F9DEC19F0F6C191
:1044580035F32AEC12F0020E0B6E040E0C6EBA0E37
:104468000D6E0D2EFED70C2EFCD70B2EFAD70000A2
:1044780010EC1EF0800E0201F419006E800E005C34
:1044880002E1780EF35D01E272D014DD000E020144
:10449800F41902E1000EF31903E19DEC19F067D05D
:1044A80010EC1EF0800E0201F419006E800E005C04
:1044B80002E1780EF35D01E25AD0ADDD000E020193
:1044C800F41902E1000EF31903E19DEC19F04FD045
:1044D80010EC1EF0800E0201F419006E800E005CD4
:1044E80002E1780EF35D01E242D058DE000E0201CF
:1044F800F41902E1000EF31903E19DEC19F037D02D
:1045080010EC1EF0800E0201F419006E800E005CA3
:1045180002E1780EF35D01E22AD0800E03011D1935
:10452800006E800E0201F419005C03E1F3510301EF
:104538001C5D1CE20101F651010A02E1F66B02D092
:10454800010EF66FF6C135F32AEC12F01EC3FEF128
:1045580020C3FDF11EC335F392EC11F0FDC135F314
:1045680035EC12F01CC3F3F21DC3F4F20400120080
:1045780004000101F16B0201EB6BEC6B0101EA6BCA
:1045880010EC1EF0800E0201F419006E800E005C23
:1045980002E16E0EF35D01E2B1D09DEC19F002016B
:1045A800B151000A02E162EC09F0020E0B6E040E32
:1045B8000C6EBA0E0D6E0D2EFED70C2EFCD70B2EE0
:1045C800FAD7000010EC1EF0F3C206F3F4C207F3AA
:1045D800800E0201F419006E800E005C02E16E0E7E
:1045E800F35D01E28BD0800E016E800ECC19015C68
:1045F80002E1CB516E08010ED8B0000E016E800E9C
:10460800CC19006E800EF419005C02E1F351CB5D09
:10461800010ED8B0000E006E0150001601E06ED0F9
:104628007FDE000E0201F41902E1000EF31903E126
:104638009DEC19F063D0800E0201F419006E800E13
:10464800005C02E1780EF35D01E258D001013A51B5
:10465800050A010ED8A4000E016E2551050A010EA7
:10466800D8A4000E006E0150001601E047D0255175
:10467800050806E2C6C23EF1010E0201C66FCBDC98
:10468800800E0201F419006E800E005C02E1780EC3
:10469800F35D01E233D001013A51050805E2ECC1AE
:1046A800EDF1010EEC6F7ADD01012551050A04E1F7
:1046B800010E0201C66F0FD001012551060A04E15F
:1046C800020E0201C66F07D001012551070A03E156
:1046D800040E0201C66F01013A51050A03E1010EF9
:1046E800EC6F0BD03A51060A03E1020EEC6F05D0CD
:0E46F8003A51070A02E1040EEC6F04001200B2
:104706000EEC00F0E4C271F32BEC00F00301716BC8
:104716002BEC00F0AE0E0301716F2BEC00F00201E2
:10472600DF51020A010ED8A4000E016EDF51030A02
:10473600010ED8A4000E006E01500012D8B497D016
:10474600D50E0301716F2BEC00F0800E0301716F23
:104756002BEC00F0A80E0301716F2BEC00F03F0E5E
:104766000301716F2BEC00F0D30E0301716F2BEC7C
:1047760000F00201DF51020A05E1E2C271F32BECFF
:1047860000F007D00201E2511F0F0301716F2BECFD
:1047960000F0400E0301716F2BEC00F08D0E03014B
:1047A600716F2BEC00F0140E0301716F2BEC00F00F
:1047B600810E0301716F2BEC00F0B40E0301716FD3
:1047C6002BEC00F0D90E0301716F2BEC00F0220EDA
:1047D6000301716F2BEC00F0200E0301716F2BECBF
:1047E60000F0020E0301716F2BEC00F0210E0301A5
:1047F600716F2BEC00F00301716B2BEC00F07F0E58
:104806000301716F2BEC00F02E0E0301716F2BEC80
:1048160000F00201DF51020A0BE1A00E0301716FE5
:104826002BEC00F0C00E0301716F2BEC00F00AD0E8
:10483600A10E0301716F2BEC00F0C80E0301716F1E
:104846002BEC00F0DA0E0301716F2BEC00F0020E78
:104856000301716F2BEC00F0DB0E0301716F2BEC83
:1048660000F0400E0301716F2BEC00F08AD0D50EDC
:104876000301716F2BEC00F0800E0301716F2BECBE
:1048860000F0A80E0301716F2BEC00F03F0E030140
:10489600716F2BEC00F0D30E0301716F2BEC00F05F
:1048A600E2C271F32BEC00F0400E0301716F2BECAA
:1048B60000F08D0E0301716F2BEC00F0140E030156
:1048C600716F2BEC00F0810E0301716F2BEC00F081
:1048D600FF0E0301716F2BEC00F0D90E0301716F0F
:1048E6002BEC00F0F10E0301716F2BEC00F0200EA3
:1048F6000301716F2BEC00F0020E0301716F2BECBC
:1049060000F0210E0301716F2BEC00F00301716BB7
:104916002BEC00F07F0E0301716F2BEC00F02E0ED6
:104926000301716F2BEC00F00201DF51040A0BE169
:10493600A00E0301716F2BEC00F0C00E0301716F26
:104946002BEC00F00AD0A10E0301716F2BEC00F0E6
:10495600C80E0301716F2BEC00F0DA0E0301716FC4
:104966002BEC00F0120E0301716F2BEC00F0DB0E46
:104976000301716F2BEC00F0400E0301716F2BECFD
:1049860000F0A40E0301716F2BEC00F0A60E0301DC
:10499600716F2BEC00F0D8EC00F0030E0B6E080ED6
:1049A6000C6E770E0D6E0D2EFED70C2EFCD70B2E31
:1049B600FAD70EEC00F0E4C271F32BEC00F0400ED7
:1049C6000301716F2BEC00F00201DF51020A010EA8
:1049D600D8A4000E016EDF51030A010ED8A4000E02
:1049E600006E0150001219E003011B6B1B510308F6
:1049F60013E31BC36CF36D6B62EC00F003011A6BDF
:104A06000301800E1A5D05E21A2B716B2BEC00F088
:104A1600F7D703011B2BEAD718D003011B6B1B51D9
:104A2600070813E31BC36CF36D6B62EC00F0030124
:104A36001A6B0301800E1A5D05E21A2B716B2BECC3
:104A460000F0F7D703011B2BEAD7D8EC00F0AF0E26
:0A4A56000301516FDBEC0BF01200BE
:104A6000086A080E0C6E003408360450085ED8B090
:0E4A700002D00826D89000360C2EF5D7120082
:104A7E001AC300F00032009E0032009E0032009EEB
:104A8E000032009E0A0E0002F3CF01F00F0E03015A
:0A4A9E001A15006E015000261200E8
:104AA8006E0E0201DB6F0F0EDC6F580EDD6F030E0A
:104AB800DE6FC26A01016A1D006E0050C116070E42
:084AC800C012C08EC280120072
:104AD000A69C1AC3A9FFA69EA680A8CF00F012002C
:104AE00004000201F251040A010ED8A4000E016E66
:104AF000F251050A010ED8A4000E006E01500012FA
:104B00000EE0020E0301586F400E596FB50E5A6F3A
:104B1000000E5B6F040E5C6FD3EC07F014D0020143
:104B2000F251000A0EE0010E0301586F040E596F96
:104B3000B00E5A6F000E5B6F040E5C6FD3EC07F083
:104B400002D08B8C8B8E18DD0201F251000A01E13C
:104B500011D08B51000A010ED8A4000E016EB15184
:104B6000000A010ED8A4000E006E0150001202E0EF
:104B700062EC09F0FF0E03012D6FFDC12EF3AFECC7
:104B800019F0FE0E03012D6FFEC12EF3AFEC19F0EC
:104B9000FD0E03012D6FF6C12EF3AFEC19F0FC0EE4
:104BA00003012D6F000E046E010E056E06C300F0AA
:104BB00007C301F00DEC19F000C02EF3AFEC19F0B3
:104BC000FB0E03012D6F000E046E010E056E06C371
:104BD00000F007C301F00DEC19F008C000F009C0A7
:104BE00001F000C02EF3AFEC19F0100E0101A06F20
:104BF000270EA16F100E0201856F270E866FCEEC77
:104C000019F0F3C232F2F4C233F20201836B010EE7
:064C10008C6F040012008D
:104C160004000201F251040A010ED8A4000E016E2E
:104C2600F251050A010ED8A4000E006E01500012C2
:104C3600D8B4D2D001012251000AD8A485D00301EC
:104C4600586B160E596F8A0E5A6F000E5B6F070E61
:104C56005C6FD3EC07F0020E0301586F060E596F16
:104C6600800E5A6F000E5B6F090E5C6FD3EC07F077
:104C7600040E0301586F100E596F5A0E5A6F000E2C
:104C86005B6F080E5C6FD3EC07F0060E0301586FDE
:104C9600040E596F290E5A6F000E5B6F0A0E5C6F79
:104CA600D3EC07F004000D0E0B6E2D0E0C6ED70E16
:104CB6000D6E0D2EFED70C2EFCD70B2EFAD700004C
:104CC600000004000B0E0B6E260E0C6E5D0E0D6EB4
:104CD6000D2EFED70C2EFCD70B2EFAD700000000A7
:104CE60004000301586B100E596F200E5A6F000E08
:104CF6005B6F080E5C6FD3EC07F0020E0301586F72
:104D0600040E596F150E5A6F000E5B6F0A0E5C6F1C
:104D1600D3EC07F0040E0301586F100E596F340ED2
:104D26005A6F000E5B6F080E5C6FD3EC07F0060E31
:104D36000301586F040E596F4F0E5A6F000E5B6FCA
:104D46000A0E5C6FD3EC07F0040E0B6E0C0E0C6EA5
:104D5600330E0D6E0D2EFED70C2EFCD70B2EFAD76A
:104D6600000000000101EE51010A0DE10301586B3C
:104D7600100E596F460E5A6F000E5B6F080E5C6F71
:104D8600D3EC07F00CD00301586B100E596F3D0E93
:104D96005A6F000E5B6F080E5C6FD3EC07F0020EC5
:104DA6000301586F100E596FCF0E5A6F000E5B6FCE
:104DB600080E5C6FD3EC07F002012D530CE00301E3
:104DC600586B700E596FCD0E5A6F000E5B6F010E49
:104DD6005C6FD3EC07F0D5D00201F251000AD8B4CB
:104DE600D0D001012251000AD8A487D00301586B04
:104DF600040E596FC50E5A6F000E5B6F070E5C6F7F
:104E0600D3EC07F0010E0301586F030E596FD80E4D
:104E16005A6F000E5B6F090E5C6FD3EC07F004004F
:104E26000F0E0B6E350E0C6E510E0D6E0D2EFED73F
:104E36000C2EFCD70B2EFAD704000B0E0B6E260E8B
:104E46000C6E5D0E0D6E0D2EFED70C2EFCD70B2EA6
:104E5600FAD70000000004000301586B040E596FD6
:104E6600F60E5A6F000E5B6F080E5C6FD3EC07F000
:104E7600010E0301586F030E596FEB0E5A6F000EA9
:104E86005B6F0A0E5C6FD3EC07F004000D0E0B6E21
:104E96002D0E0C6ED70E0D6E0D2EFED70C2EFCD7DA
:104EA6000B2EFAD70000000004000B0E0B6E260E28
:104EB6000C6E5D0E0D6E0D2EFED70C2EFCD70B2E36
:104EC600FAD70000000004000301586B040E596F66
:104ED600E20E5A6F000E5B6F080E5C6FD3EC07F0A4
:104EE600010E0301586F030E596FBA0E5A6F000E6A
:104EF6005B6F0A0E5C6FD3EC07F0040E0B6E0C0EA4
:104F06000C6E330E0D6E0D2EFED70C2EFCD70B2E0F
:104F1600FAD7000000000101EE51010A0CE103017D
:104F2600586B596BA40E5A6F000E5B6F080E5C6FC0
:104F3600D3EC07F00BD00301586B596B9B0E5A6FDD
:104F4600000E5B6F080E5C6FD3EC07F0010E0301D9
:104F5600586F596B920E5A6F000E5B6F080E5C6F9E
:104F6600D3EC07F002012D530CE00301586B080E39
:104F7600596FAD0E5A6F000E5B6F010E5C6FD3EC6E
:0A4F860007F0040062EC09F01200CD
:104F90000400010E03011A6F9BDD00C0F2F2020E45
:104FA0001A6F96DD0050010A03E1010E02012D6F18
:104FB000030E03011A6F8CDD00C01AF360DD00C020
:104FC000F5F2000E0201F66F040E03011A6F80DD88
:104FD00000C01AF354DD0A0E0002F3CFF0F2F4CF52
:104FE000F1F2050E1A6F74DD00C01AF348DD0A0EE7
:104FF0000002F3CFE9F2F4CFEAF2060E1A6F68DD91
:1050000000C01AF33CDD0A0E0002F3CFE7F2F4CF42
:10501000E8F2090E1A6F5CDD00C01AF330DD0A0EEB
:105020000002F3CFCBF2F4CFCCF20A0E1A6F50DDB0
:1050300000C025F10B0E1A6F4BDD00C03DF10C0EC8
:105040001A6F46DD00C03AF10D0E1A6F41DD00C047
:10505000EBF10E0E1A6F3CDD00C0F0F10F0E1A6F6F
:1050600037DD00C0F2F10400100E1A6F31DD00C010
:105070001AF305DD640E0002F3CF18F3F4CF19F331
:10508000110E1A6F25DD00C01AF3F9DC0050182547
:105090000E6F000E19210F6F120E1A6F19DD00C06E
:1050A0001AF3EDDC640E0002F3CF18F3F4CF19F31A
:1050B000130E1A6F0DDD00C01AF3E1DC0050182545
:1050C000166F000E1921176F140E1A6F01DD00C044
:1050D0001AF3D5DC640E0002F3CF18F3F4CF19F302
:1050E000150E1A6FF5DC00C01AF3C9DC0050182544
:1050F000146F000E1921156F160E1A6FE9DC00C02F
:105100001AF3BDDC640E0002F3CF18F3F4CF19F3E9
:10511000170E1A6FDDDC00C01AF3B1DC0050182541
:10512000126F000E1921136F180E1A6FD1DC00C018
:105130001AF3A5DC640E0002F3CF18F3F4CF19F3D1
:10514000190E1A6FC5DC00C01AF399DC005018253F
:105150000C6F000E19210D6F1A0E1A6FB9DC00C00A
:105160001AF38DDC640E0002F3CF18F3F4CF19F3B9
:105170001B0E1A6FADDC00C01AF381DC005018253D
:105180000A6F000E19210B6F1C0E1A6FA1DC00C0F4
:105190001AF375DC640E0002F3CF18F3F4CF19F3A1
:1051A0001D0E1A6F95DC00C01AF369DC005018253B
:1051B000086F000E1921096F200E1A6F89DC00C0DC
:1051C0001AF35DDC640E0002F3CF18F3F4CF19F389
:1051D000210E1A6F7DDC00C01AF351DC0050182537
:1051E0000201D36F000E030119210201D46F220EB8
:1051F00003011A6F6DDC00C01AF341DC640E00027B
:10520000F3CF18F3F4CF19F3230E1A6F61DC00C04B
:105210001AF335DC005018250201D96F000E030186
:1052200019210201DA6F240E03011A6F51DC00C04C
:105230001AF325DC640E0002F3CF18F3F4CF19F350
:10524000250E1A6F45DC00C01AF319DC0050182532
:105250000201D76F000E030119210201D86F260E3B
:1052600003011A6F35DC00C01AF309DC640E00027A
:10527000F3CF18F3F4CF19F3270E1A6F29DC00C00F
:105280001AF33FEC25F0005018250201D56F000EEF
:10529000030119210201D66F280E03011A6F18DCD1
:1052A00000C01AF33FEC25F0640E0002F3CF18F3B0
:1052B000F4CF19F3290E1A6F0BDC00C01AF33FEC80
:1052C00025F0005018250201D16F000E03011921AD
:1052D0000201D26F2A0E03011A6F68EC25F000C09C
:1052E0001AF33FEC25F0640E0002F3CF18F3F4CF6D
:1052F00019F32B0E1A6F68EC25F000C01AF33FEC7F
:1053000025F0005018250201CF6F000E030119216E
:105310000201D06F2C0E03011A6F68EC25F000C05B
:105320001AF33FEC25F0640E0002F3CF18F3F4CF2C
:1053300019F32D0E1A6F68EC25F000C01AF33FEC3C
:1053400025F0005018250201CD6F000E0301192130
:105350000201CE6F300E03011A6F68EC25F000C019
:10536000EEF1310E1A6F68EC25F000C01AF33FEC35
:1053700025F000C0EFF1320E1A6F68EC25F000C086
:105380001AF33FEC25F000C0F3F1330E1A6F68EC0E
:1053900025F000C0B1F2340E1A6F68EC25F000C0A1
:1053A0001AF33FEC25F000C005F3350E1A6F68ECD8
:1053B00025F000C01AF33FEC25F000C0FFF1040017
:0253C0001200D9
:1053C2000201DF51010806E2AE0E0301516FDBEC70
:1053D2000BF00DD0DF51010A0AE1E66BE56B030128
:1053E200626B1FEC03F00301626B1FEC03F012000F
:1053F200810E0301516F0F0E526F536B320E546FB9
:10540200556B2AEC09F00052D8B496D0060E0B6EFA
:10541200130E0C6EAD0E0D6E0D2EFED70C2EFCD79C
:105422000B2EFAD700000000040081A00FD001016A
:10543200F651000A03E1010EF66F01D0F66BF6C1D8
:1054420035F32AEC12F062EC09F065D002018451C6
:10545200010A02E1846B02D0010E846F8451010AB9
:105462002DE1F251040A010ED8A4000E016EF25190
:10547200050A010ED8A4000E006E015000120DE0C4
:105482000301586B700E596F890E5A6F020E5B6FD3
:10549200010E5C6FD3EC07F010D00201F251000A4A
:1054A2000CE00301586B080E596F870E5A6F020EFB
:1054B2005B6F010E5C6FD3EC07F02DD00201F2514D
:1054C200040A010ED8A4000E016EF251050A010E63
:1054D200D8A4000E006E015000120DE00301586BBB
:1054E200700E596FC90E5A6F020E5B6F010E5C6F20
:1054F200D3EC07F010D00201F251000A0CE00301D4
:10550200586B080E596FC70E5A6F020E5B6F010E71
:105512005C6FD3EC07F0810E0301516F0F0E526FD7
:10552200536B320E546F556B2AEC09F0005204E0B3
:10553200CEEC19F00400EFD7810E0301516F0F0E6C
:10554200526F020E536F320E546F556B2AEC09F0F4
:1055520000526BE0040081B468D0050E026EC6C230
:1055620000F0000E016E025005E000360090013698
:10557200FF0FFAD7010E005C026E000E0158036E97
:10558200800E006E800E0318005C03E102500101E0
:10559200FE5D010ED8B0000E006E020184510016AD
:1055A20007E00101FE2BFEC135F392EC11F02FD082
:1055B20002018453010ED8A4000E046E050E026E81
:1055C200C6C200F0000E016E025005E000360090E7
:1055D2000136FF0FFAD7010E005C026E000E015871
:1055E200036E800E006E800E0318005C03E1025011
:1055F2000101FD5D010ED8B0000E006E04500016D0
:1056020006E00101FD2BFDC135F335EC12F062EC31
:1056120009F0CEEC19F09C0E0C6ED70E0D6E0D2E0D
:10562200FED70C2EFCD7040096D7810E0301516FD2
:105632000F0E526F010E536F320E546F556B2AECE0
:1056420009F00201C551000A010ED8A4000E016E34
:105652000150001638E0040081B235D00101FE513C
:105662000008010ED8B0000E006E0201845100162F
:1056720007E00101FE07FEC135F392EC11F015D0EF
:1056820002018453010ED8A4000E016E0101FD51E6
:105692000008010ED8B0000E006E0150001605E0A1
:1056A200FD07FDC135F335EC12F062EC09F0CEECEA
:1056B20019F09C0E0C6ED70E0D6E0D2EFED70C2E11
:0856C200FCD70400C9D7120057
:1056CA000900F5CFE6FF0006FBE10106F9E1120049
:1056DA00070EB46E600ED36E9B8C806A816A826AF2
:1056EA00896A8A6A8B6AFF0E926EFF0E936EFF0EAC
:1056FA00946E92949298938054EC25F00D0EC16E9C
:06570A00F19EF29E120068
:105710000201F251040A010ED8A4000E016EF251EA
:10572000050A010ED8A4000E006E015000120DE013
:105730000301586B0A0E596F410E5A6F010E5B6FD1
:10574000090E5C6FD3EC07F010D00201F251000A91
:105750000CE00301586B030E596F5F0E5A6F010E78
:105760005B6F090E5C6FD3EC07F004000B0E0B6E41
:10577000260E0C6E5D0E0D6E0D2EFED70C2EFCD778
:105780000B2EFAD70000000004000B0E0B6E260E45
:105790000C6E5D0E0D6E0D2EFED70C2EFCD70B2E53
:1057A000FAD70000000004000B0E0B6E260E0C6EE4
:1057B0005D0E0D6E0D2EFED70C2EFCD70B2EFAD7DC
:1057C0000000000004000B0E0B6E260E0C6E5D0E2A
:1057D0000D6E0D2EFED70C2EFCD70B2EFAD7000027
:1057E000000004000201F251040A010ED8A4000EC8
:1057F000016EF251050A010ED8A4000E006E015090
:1058000000120DE00301586B0A0E596F550E5A6FC6
:10581000010E5B6F090E5C6FD3EC07F010D0020134
:10582000F251000A0CE00301586B030E596F4B0E46
:105830005A6F010E5B6F090E5C6FD3EC07F09DECA5
:1058400019F0010E0101F66F010E0301356F2AEC0C
:1058500012F0FF0E2D6FFDC12EF3AFEC19F0FE0E0E
:1058600003012D6FFEC12EF3AFEC19F0FD0E030105
:105870002D6FF6C12EF3AFEC19F00201F251040ABC
:10588000010ED8A4000E016EF251050A010ED8A433
:10589000000E006E015000120DE00301586B700EF7
:1058A000596F3B0E5A6F010E5B6F010E5C6FD3ECAC
:1058B00007F010D00201F251000A0CE00301586B0E
:1058C000080E596F230E5A6F010E5B6F010E5C6F4D
:1058D000D3EC07F0010E0101226F0BEC26F0120051
:1058E00005C358F3000E0301596FFE0E5A6F020EE6
:1058F0005B6F4EEC08F00A0E055D03E302C3F7F29E
:1059000003D0300E0201F76F02012E0EF86F03C3B1
:10591000F9F2F251040A010ED8A4000E016EF25100
:10592000050A010ED8A4000E006E015000120EE010
:10593000040E0301586F060E596FF70E5A6F020ED0
:105940005B6F030E5C6FD3EC07F010D00201F251D5
:10595000000A0CE0010E0301586F596BF70E5A6FE5
:0E596000020E5B6F030E5C6FD3EC07F01200BB
:10596E000301196B185109081DE20A0E046E18C3C3
:10597E0000F030EC25F000C019F300C019F3193710
:10598E0019911937199119371991193719910A0E59
:10599E00046E18C300F030EC25F008C000F0005083
:0E59AE00191302D018C319F319C300F0120028
:1059BC000201EDB102D0048001D00490810E0301EC
:1059CC00516F0F0E526F536B320E546F010E556F99
:1059DC002AEC09F0016A04B0012A0150001602E019
:1059EC000201ED810201EDB102D0048001D00490DE
:1059FC00810E0301516F0F0E526F536B320E546FA9
:105A0C00556B2AEC09F0016A04B0012A015000160A
:105A1C0014E0F3C100F0EBEC0EF0F8C104F0F9C1A6
:105A2C0005F0FAC106F0FBC107F003EC07F06AECD5
