:100000009AEF30F00000000000EF00F00000000068
:0A0010000000000000000000F3D71C
:10001C000201DF51000A18E0948C060E0D6E0D2EB5
:10002C00FED70000948E060E0D6E0D2EFED700002E
:10003C00949E060E0D6E0D2EFED70000949C060E9F
:0A004C000D6E0D2EFED7000012000D
:100056000201DF51000A32E0016A015007081CE381
:10006600030173BF02D0949E01D0948E060E0D6ECE
:100076000D2EFED70000948C060E0D6E0D2EFED7AB
:100086000000949C060E0D6E03010D2EFDD7000098
:1000960073377391012AE1D7948E060E0D6E0D2EDD
:1000A600FED70000948C060E0D6E0D2EFED70000B6
:0E00B600949C060E0D6E0D2EFED7000012005B
:1000C4000201E35103016F25726FA6DFE4C273F3EB
:1000D400C0DF0301736BBDDF03016E51B00F736F9B
:1000E400B8DF030172510F0804E372C370F3716B3C
:1000F40019D072C302F00232029E0232029E023210
:10010400029E0232029E02C071F302C000F0003669
:1001140000900036009000360090003600900050A9
:10012400725D706F70C373F394DF03017151100F2C
:10013400736F8FDF71DFE4C273F38BDF400E030153
:06014400736F87DF12005B
:10014A00086A096A100E0C6E013408360936045022
:10015A00085E0550D8A0053C095ED8B007D0045007
:10016A0008260550D8B0053C0926D8900036013635
:06017A000C2EEAD7120072
:0E018000026A016A006A086A036A000E120031
:10018E000B840BAED2EF00F0010E036E026A016A11
:0A019E00006A0A360232FF0E12005A
:0801A8000AAE029E000E1200D7
:1001B0000201DF51000A12E0949E060E0D6E0D2E14
:1001C000FED70000948C060E0D6E0D2EFED700009B
:0E01D000948E060E0D6E0D2EFED7000012004E
:1001DE000B800BAEFBEF00F0026A0AAEFF0E026E52
:0C01EE00016E006E0A360232FF0E120095
:1001FA000301686B050E685D0AE268516625E16EC7
:10020A00000E6721E26E200EE66E682BF3D7685166
:10021A006625E16E000E6721E26EE66A680768519C
:10022A006625696F000E67216A6F0A0E046E000E5A
:10023A00056E64C300F065C301F082DF08C000F0F8
:10024A0009C001F0300E002669C3E1FF6AC3E2FF6C
:10025A0000C0E6FF0A0E046E000E056E64C300F0CD
:10026A0065C301F06DDF00C064F301C065F3000EE1
:10027A00011802E1000E001801E102D06807CFD789
:02028A00120060
:0A028C001D0E0D6E0D2EFED71200A0
:100296000B820BAE55EF01F0036802680168006837
:0802A6000A360232FF0E1200BD
:1002AE000C6A0E6A0250D8A470EF01F001C002F081
:1002BE0000C001F0006A0E860250D8A470EF01F063
:1002CE0001C002F0016A0E960E880250D8B482EF79
:1002DE0001F00E50035ED8A4D8A087EF01F0D8909D
:1002EE0002BE8CEF01F0003601360236032E77EF98
:1002FE0001F087EF01F0010E0C6E3BDF8FEF01F086
:10030E00020E0C6E3DDF8FEF01F0040E0C6E45DF1A
:02031E001200CB
:100320007DDEE4C273F397DE400E0301736F93DE4C
:1003300065C36EF364C36FF3C5DE0301696B685177
:10034000695DD8B0B3D069516625E96E000E6721AA
:10035000EA6EEE50000A02E16B6B09D06951662526
:10036000E96E000E6721EA6E200EEE5C6B6F6A6B21
:100370006A510408D8A092D0050E6B03F3CF00F0A9
:10038000F4CF01F06A510026000E0122100E002465
:10039000F66E690E0120F76E000EF86E000E01BEBB
:1003A000FF0EF8220900F5CF6CF36551020A000E2A
:1003B000D8A4010E016E6551040A000ED8A4010EE6
:1003C000006E005001166551060A000ED8A4010EF9
:1003D000006E0150001629E06CB702D06D9F01D06D
:1003E0006D8F6CB702D06D9D01D06D8D6CB502D054
:1003F0006D9B01D06D8B6CB502D06D9901D06D896C
:100400006CB302D06D9701D06D876CB302D06D953F
:1004100001D06D856CB102D06D9301D06D836CB14C
:1004200002D06D9101D06D8120D06CB502D06D9F4E
:1004300001D06D8F6CB502D06D9D01D06D8D6CB308
:1004400002D06D9B01D06D8B6CB302D06D9901D041
:100450006D896CB102D06D9701D06D876CB102D0FF
:100460006D9501D06D856D936D916DC373F3F3DD63
:100470000201DF51040A010ED8A4000E016EDF5103
:10048000050A010ED8A4000E006E0150001203E010
:100490006DC373F3E0DD03016A2B6AD7736BDBDD99
:1004A0000301736BD8DD0301692B49D76551010F37
:1004B0006E6F64C36FF306DE0301696B6851695D9B
:1004C000D8B0BBD069516625E96E000E6721EA6E8F
:1004D000EE50000A02E16B6B09D069516625E96EA6
:1004E000000E6721EA6E200EEE5C6B6F6A6B6A513C
:1004F0000408D8A09AD0050E6B03F3CF00F0F4CF18
:1005000001F06A510026000E0122100E0024F66E42
:10051000690E0120F76E000EF86E000E01BEFF0E90
:10052000F8220900F5CF6CF36551020A000ED8A439
:10053000010E016E6551040A000ED8A4010E006E72
:10054000005001166551060A000ED8A4010E006E77
:100550000150001629E06CBF02D06D9F01D06D8F55
:100560006CBF02D06D9D01D06D8D6CBD02D06D9BB6
:1005700001D06D8B6CBD02D06D9901D06D896CBBC3
:1005800002D06D9701D06D876CBB02D06D9501D004
:100590006D856CB902D06D9301D06D836CB902D0BA
:1005A0006D9101D06D8128D06CBD02D06D9F01D0BE
:1005B0006D8F6CBD02D06D9D01D06D8D6CBB02D076
:1005C0006D9B01D06D8B6CBB02D06D9901D06D8994
:1005D0006CB902D06D9701D06D876CB902D06D9562
:1005E00001D06D856CB702D06D9301D06D836CB76F
:1005F00002D06D9101D06D816DC373F32CDD0201CA
:10060000DF51040A010ED8A4000E016EDF51050A65
:10061000010ED8A4000E006E0150001203E06DC35D
:1006200073F319DD03016A2B62D7736B14DD0301C9
:0E063000736B11DD0301692B41D7BADD120097
:10063E000301656B0201E16B010EE06F64C365F3AC
:10064E000301653765916537659165376591653746
:10065E0065910201E65303E0080E030165270201CE
:10066E00E05303E0040E030165270201E15303E0AA
:10067E00020E030165270201E55302E00301652B1B
:10068E00C6DCE4C273F3E0DC65C373F3DDDC89DD45
:10069E00060E0C6E300E0D6E0D2EFED70C2EFCD7E8
:1006AE000000040E0301655FB2DCE4C273F3CCDC20
:1006BE0065C373F3C9DC75DD060E0C6E300E0D6E60
:0C06CE000D2EFED70C2EFCD700001200F1
:1006DA000B1E0A1E091E081E082AD8B4092AD8B4F5
:0806EA000A2AD8B40B2A120001
:1006F2000CB0BBEF03F00CA261EF04F00E6A000E27
:100702000264D2EF03F0F00E0214D8A49DEF03F0BE
:10071200023A01380F0B02260138F00B016E003845
:100722000F0B01260038F00B006E08380F0B002665
:100732000838F00B086E0E84D89002BEB6EF03F0B4
:1007420008360036013602360E2A02BEB6EF03F034
:1007520008360036013602360E2A02BEB6EF03F024
:1007620008360036013602360E2A0E50036457EF61
:1007720004F0035E0BBC08AE5CEF04F0D880800E80
:1007820008640030000E002201220222D8A05CEF91
:1007920004F0023201320032034A61EF04F05CEFEE
:1007A20004F001C002F000C001F008C000F0086AC5
:1007B200000E0E86026409EF04F0F00E0214D8A4B3
:1007C200F1EF03F0023A01380F0B02260138F00B69
:1007D200016E00380F0B01260038F00B006E0E84FC
:1007E200D89002BEB6EF03F00036013602360E2A6A
:1007F20002BEB6EF03F00036013602360E2A02BE02
:10080200B6EF03F00036013602360E2AB6EF03F0D9
:1008120001C002F000C001F0006A000E0E960E88C0
:10082200026436EF04F0F00E0214D8A421EF04F0B3
:10083200023A01380F0B02260138F00B016E0E84CA
:10084200D89002BEB6EF03F0013602360E2A02BE7F
:10085200B6EF03F0013602360E2A02BEB6EF03F0FF
:10086200013602360E2AB6EF03F001C002F0016A29
:10087200000E0E86026466EF04F0F00E0214D8A495
:1008820045EF04F0023A0E84D89002BEB6EF03F0B0
:1008920002360E2A02BEB6EF03F002360E2A02BE5E
:1008A200B6EF03F002360E2AB6EF03F0010E0C6E1D
:1008B2006DDC69EF04F0020E0C6E75DC69EF04F07A
:1008C200040E0C6EE7DC69EF04F0080E0C6E57DCC8
:0208D200120012
:1008D4000B6A0350D8B4B0EF04F002500A6E028ED3
:1008E4008E0E035E03AEB4EF04F0036C080E035CDB
:1008F400D8A08FEF04F0036E013602C001F0026A43
:10090400080E035CD8A08FEF04F0036E0136016A71
:100914000350D8A4D89099EF04F00350D8B499EFB9
:1009240004F0D89002320132032E93EF04F00BBC92
:1009340001A0A6EF04F0D8A0A6EF04F0012AD8B4D1
:10094400022A02BEC3EF04F00AAEC8EF04F0021E8E
:10095400011E012AD8B4022AC8EF04F0026A016A0F
:10096400C8EF04F00B800BAECCEF04F0026A0AAEC1
:10097400CCEF04F0FF0E026E016E0A360232CCEFA9
:1009840004F0010E0C6E29DCCEEF04F0000E0C6EA8
:10099400CEEF04F0FF0E0C6E0150006E0250016E9B
:0209A40012003F
:1009A6000450085E0550D8A0053C095E0650D8A044
:1009B600063C0A5E0750D8A0073C0B5E0336070EBE
:1009C6000C6E0334083609360A360B36045003A07B
:1009D6000ED0085E0550D8A0053C095E0650D8A08A
:1009E600063C0A5E0750D8A0073C0B5E0DD00826D1
:1009F6000550D8B0053C09260650D8B0063C0A2654
:100A06000750D8B0073C0B2603360C2EDAD7023433
:100A1600083609360A360B36045003A00ED0085E97
:100A26000550D8A0053C095E0650D8A0063C0A5ED3
:100A36000750D8A0073C0B5E0DD008260550D8B04D
:100A4600053C09260650D8B0063C0A260750D8B001
:100A5600073C0B260236070E0C6E023408360936A2
:100A66000A360B36045002A00ED0085E0550D8A0F8
:100A7600053C095E0650D8A0063C0A5E0750D8A081
:100A8600073C0B5E0DD008260550D8B0053C09265C
:100A96000650D8B0063C0A260750D8B0073C0B26AD
:100AA60002360C2EDAD70134083609360A360B36EA
:100AB600045002A00ED0085E0550D8A0053C095E81
:100AC6000650D8A0063C0A5E0750D8A0073C0B5E2D
:100AD6000DD008260550D8B0053C09260650D8B0DA
:100AE600063C0A260750D8B0073C0B260136070EEF
:100AF6000C6E0134083609360A360B36045001A04E
:100B06000ED0085E0550D8A0053C095E0650D8A058
:100B1600063C0A5E0750D8A0073C0B5E0DD008269F
:100B26000550D8B0053C09260650D8B0063C0A2622
:100B36000750D8B0073C0B2601360C2EDAD7003406
:100B4600083609360A360B36045001A00ED0085E68
:100B56000550D8A0053C095E0650D8A0063C0A5EA2
:100B66000750D8A0073C0B5E0DD008260550D8B01C
:100B7600053C09260650D8B0063C0A260750D8B0D0
:100B8600073C0B260036070E0C6E00340836093675
:100B96000A360B36045000A00ED0085E0550D8A0C9
:100BA600053C095E0650D8A0063C0A5E0750D8A050
:100BB600073C0B5E0DD008260550D8B0053C09262B
:100BC6000650D8B0063C0A260750D8B0073C0B267C
:100BD60000360C2EDAD700B00ED004500826055089
:100BE600D8B0053C09260650D8B0063C0A26075060
:080BF600D8B0073C0B261200E9
:100BFE000050086E0150006E016A026A036A0B6AA9
:100C0E000C6A960E036E0A6A00C001F008C000F06E
:0A0C1E00086A026A57EC01F01200A8
:100C2800016A026A03015B51025C02E15A51015CEC
:100C38000DE20400060E0C6E300E0D6E0D2EFED762
:0E0C48000C2EFCD70000014A022AECD7120045
:100C560030D08B8094905ED08B8294925BD08B84C4
:100C6600949458D08B86949655D08B88949852D06D
:100C76008B8A949A4FD0898A929A4CD0898C929C6E
:100C860049D08A82939246D08A84939443D08A86A6
:100C9600939640D08A8893983DD08A8A939A3AD080
:100CA6008A8C939C37D08A8E939E34D0898E929E5E
:100CB60031D003015A51010ACCE05A51020ACCE064
:100CC6005A51030ACCE05A51040ACCE05A51050A9B
:100CD600CCE05A51060ACCE05A51070ACCE05A51E8
:100CE600080ACCE05A51090ACCE05A510A0ACCE06B
:100CF6005A510B0ACCE05A510C0ACCE05A510D0A53
:100D0600CCE05A510E0ACCE05A510F0ACCE05A51A7
:060D1600100ACCE01200FF
:100D1C00899894809482948494869488948A928AF4
:100D2C00928C9382938493869388938A938C938EDC
:040D3C00928E120081
:100D400030D08B9094905ED08B9294925BD08B94A9
:100D5000949458D08B96949655D08B98949852D062
:100D60008B9A949A4FD0899A929A4CD0899C929C53
:100D700049D08A92939246D08A94939443D08A968B
:100D8000939640D08A9893983DD08A9A939A3AD075
:100D90008A9C939C37D08A9E939E34D0899E929E43
:100DA00031D003015A51010ACCE05A51020ACCE079
:100DB0005A51030ACCE05A51040ACCE05A51050AB0
:100DC000CCE05A51060ACCE05A51070ACCE05A51FD
:100DD000080ACCE05A51090ACCE05A510A0ACCE080
:100DE0005A510B0ACCE05A510C0ACCE05A510D0A68
:100DF000CCE05A510E0ACCE05A510F0ACCE05A51BD
:060E0000100ACCE0120014
:100E0600086A096A000E0762036488EF07F0025059
:100E160006180A6E075003267E0ED8A019EF07F0B3
:100E2600035ED8B08DEF07F01DEF07F0035ED8A084
:100E360092EF07F0028E068E02C00EF001C00BF094
:100E460000C00DF000500402F4CF0CF00150050272
:100E5600F4CF00F0F3CF08F00402F3500C26F45060
:100E66000822000E00220D500502F3500C26F45005
:100E76000822000E002202500402F3500826F45005
:100E8600002202500502016A000E0122F3500026DC
:100E9600F45001220D500602F3500826F4500022A9
:100EA600026A000E012202220B500602F3500026AF
:100EB600F4500122000E02220E500602F3500126C3
:100EC600F450022202BE70EF07F0083600360136F3
:100ED60002360306D8B492EF07F083EF07F0D88006
:100EE600800E08640030000E002201220222D8A0E3
:100EF60083EF07F0023201320032034A8DEF07F02A
:100F06000AAE029E000E95EF07F0010EC0EC00F04F
:100F160095EF07F0020E4BEC01F095EF07F0040E8B
:060F2600C7EC00F0120010
:100F2C0000C008F00150006E016A026A036A0B6A85
:100F3C000C6A016A026A036A960E036E0A6A00AEB4
:100F4C00AEEF07F0081E001E082AD8B4002A0A8E3D
:100F5C0000C001F008C000F0086A026A57EC01F00A
:020F6C00120071
:100F6E00830EC2165AC300F0003600900036009071
:100F7E000050C21246EC01F0C282C2A201D0FDD7CF
:100F8E00C4CF01F0006AC3500012000E011212000D
:080F9E000B6A0B86FF0E120026
:100FA6000201DF51040A010ED8A4000E016EDF51C2
:100FB600050A010ED8A4000E006E015000120DE0C5
:100FC6005BC364F35AC365F35CC366F35DC367F33F
:100FD6005EC368F390EC01F05DD0DF51020A010EAA
:100FE600D8A4000E016EDF51030A010ED8A4000E2C
:100FF600006E0150001214E0070E03015B03F3CFED
:1010060064F3040E64275AC365F3653765915CC3C0
:1010160066F35DC367F35EC368F390EC01F03AD004
:10102600E56B5AC300F00036009000360090005081
:10103600080F0301646F1FEC03F05BC364F31FEC3E
:1010460003F0010EE56F03015F6B5E515F5D22E207
:101056005F515C25E96E000E5D21EA6EEECF01F070
:1010660001C064F36433649F6433649F6433649F94
:101076006433649F1FEC03F003015F515C25E96E46
:10108600000E5D21EA6EEECF64F31FEC03F0030160
:061096005F2BDBD7120006
:10109C000301606B616B5AC362F35BC363F3800E35
:1010AC005B19006E800E005C02E1000E5A5D0BE2D3
:1010BC00010E606F000E616F5A510008626F5BC3C6
:1010CC0063F3000E635762C364F363C365F35CC3DD
:1010DC0066F35DC367F3FDEC00F0060E5E6F000E69
:1010EC005F6F000E006E5F51005C02E15E51000804
:1010FC0019E25E515C25E16E5F515D21E26E010EDD
:10110C005E5D006E000E5F59016E00505C25E96E4D
:10111C0001505D21EA6EEECFE6FF010E5E5F000E20
:10112C005F5BDFD75CC3E1FF5DC3E2FF200EE66EC1
:10113C00605161111AE05E6B5F6B5E515C25E96E6C
:10114C005F515D21EA6EEE50200A03E15E4B5F2B8E
:10115C00F4D7010E5E5F000E5F5B5E515C25E16EA5
:0C116C005F515D21E26E2D0EE66E120058
:10117800030E0C6E950E0D6E0D2EFED70C2EFCD7A1
:02118800120053
:10118A000134083609360450085E0550D8A0053CDB
:10119A00095E003601360F0E0C6E01340836093628
:1011AA00045000A006D0085E0550D8A0053C095E90
:1011BA0005D008260550D8B0053C09260036013668
:1011CA000C2EEBD700B006D0045008260550D8B034
:0811DA00053C0926000012008B
:1011E2000B6A0A6A096A00500402F4CF09F0F3CFCD
:1011F20008F001500502F4CF0BF0F3CF0AF00050D3
:101202000502F3500926F4500A22E86A0B22015023
:101212000402F3500926F4500A22E86A0B2208C09D
:1012220000F009C001F00AC002F00BC003F0120086
:10123200010E03015A6F9ADEE1DC890E046E410E43
:10124200056E1C0E066E810E076EDCDD6AEC04F084
:02125200120088
:101254000301596B55C301F0010E006E015004E007
:1012640000360090FF0FFBD700C058F353C3E9FFCB
:1012740054C3EAFF0050EE14016E0152010ED8A4CB
:10128400000E006E5751001A18E05651000804E28F
:1012940071DF70DF5607F9D753C3E9FF54C3EAFF80
:1012A4005851EE14016E0152010ED8A4000E006EC6
:1012B4005751001A02E0FF0E596F59C300F0120093
:1012C40004000301146B156B020101A105D0030195
:1012D4001251142713511523020101A305D0030150
:1012E4001051142711511523020101A505D0030142
:1012F4000E5114270F511523020101A705D0030134
:101304000A5114270B511523020101A905D0030129
:101314000C5114270D511523020101AB05D0030113
:101324001851142719511523020101AD07D0F751A3
:10133400030114270201F85103011523020101AF2F
:1013440005D0030101511427025115230301800E16
:10135400270A006E800E1519005C02E114510F0873
:101364001CE2320E1425006E000E1521016E00C021
:1013740014F301C015F300C05AF301C05BF3F90E76
:101384005C6F020E5D6F88DEFAC203F3FBC204F3E6
:101394002E0E056FFCC206F32AD014C35AF315C3EC
:1013A4005BF3F90E5C6F020E5D6F76DE0201FB519A
:1013B400200A03E0FBC203F303D0300E0301036FE2
:1013C40003012E0E046F0201FC51200A03E0FCC24B
:1013D40005F303D0300E0301056F0201FD51200A0D
:1013E40003E0FDC206F303D0300E0301066F0201D1
:1013F400F251040A010ED8A4000E016EF251050A3E
:10140400010ED8A4000E006E015000122FE001015D
:10141400F951010A04E1040E0301536F03D00301DF
:10142400060E536F53C35AF3100E5B6F940E5C6F2A
:10143400020E5D6F020E5E6FB4DD53C35AF3580E95
:1014440003015B6F860E5C6F020E5D6F020E5E6FB2
:10145400A8DD53C35AF3280E03015B6F030E5C6FC0
:10146400030E5D6F040E5E6F9CDD6FD00201F251BE
:10147400020A010ED8A4000E016EF251030A010EF5
:10148400D8A4000E006E015000122EE00101F951A3
:10149400010A03E10301536B03D00301010E536FEF
:1014A40053C35AF3090E5B6F850E5C6F010E5D6FBB
:1014B400020E5E6F76DD53C35AF30F0E03015B6FAA
:1014C4001E0E5C6F010E5D6F020E5E6F6ADD53C30C
:1014D4005AF30B0E03015B6F030E5C6F030E5D6F1B
:1014E400040E5E6F5EDD31D00201F251010A2DE17E
:1014F4000101F951010A03E10301536B03D0030114
:10150400010E536F53C35AF3090E5B6F1B0E5C6FCE
:10151400010E5D6F020E5E6F44DD53C35AF30F0E6E
:1015240003015B6F190E5C6F010E5D6F010E5E6F40
:1015340038DD53C35AF30B0E03015B6F030E5C6F6C
:10154400030E5D6F040E5E6F2CDD04000301146B4B
:10155400156B020100A107D0D35103011427020126
:10156400D45103011523020100A307D0D95103016B
:1015740014270201DA5103011523020100A507D043
:10158400D751030114270201D85103011523020185
:1015940000A707D0D551030114270201D651030136
:1015A4001523020100A907D0D15103011427020118
:1015B400D25103011523020100AB07D0CF5103011F
:1015C40014270201D05103011523020100AD07D0F5
:1015D400CD51030114270201CE5103011523030148
:1015E40014C35AF315C35BF3F90E5C6F020E5D6FFF
:1015F40053DDFBC203F3FCC204F3FDC205F3FEC2D8
:1016040006F30201F251040A010ED8A4000E016E81
:10161400F251050A010ED8A4000E006E015000120A
:101624002FE00101F951010A04E1060E0301536F91
:1016340003D00301040E536F53C35AF3100E5B6FB0
:101644000A0E5C6F010E5D6F020E5E6FAADC53C35F
:101654005AF3580E03015B6F0D0E5C6F010E5D6F44
:10166400020E5E6F9EDC53C35AF3280E03015B6FB8
:10167400030E5C6F030E5D6F040E5E6F92DC6FD021
:101684000201F251020A010ED8A4000E016EF251B9
:10169400030A010ED8A4000E006E015000122EE0C1
:1016A4000101F951010A04E1010E0301536F02D053
:1016B4000301536B53C35AF3090E5B6F160E5C6F31
:1016C400010E5D6F020E5E6F6CDC53C35AF30F0E96
:1016D40003015B6F130E5C6F010E5D6F020E5E6F94
:1016E40060DC53C35AF30B0E03015B6F030E5C6F94
:1016F400030E5D6F040E5E6F54DC31D00201F251B3
:10170400010A2DE10101F951010A04E1010E03016D
:10171400536F02D00301536B53C35AF3090E5B6F2B
:10172400100E5C6F010E5D6F020E5E6F3ADC53C3E8
:101734005AF30F0E03015B6F3F0E5C6F010E5D6F7A
:10174400010E5E6F2EDC53C35AF30B0E03015B6F65
:10175400030E5C6F030E5D6F040E5E6F22DC0400EB
:02176400120071
:1017660003015A6B01DC00C053F301C054F3800E31
:10177600030A026E800E0118025C02E10050E808BE
:1017860004E2010E0201336F02D00201336B53C330
:1017960000F054C301F096EC07F0890E046E410E7A
:1017A600056E1C0E066E810E076E03EC07F06AECE2
:0417B60004F0120029
:1017BA000EEC00F0E4C273F32BEC00F0800E030190
:1017CA00736F2BEC00F053C373F32BEC00F0D8ECDF
:0417DA0000F0120009
:1017DE00025006180E6E086A096A0B6A03500764F7
:1017EE00E2EF0CF006500A6E068E028E03500B6E60
:1017FE000750036E000E0B6432EF0CF00B50075EB9
:10180E00D8B4D3EF0CF0070E0764A1EF0CF0075E0F
:10181E0000C008F001C000F002C001F0026A074EDD
:10182E00D3EF0CF0076476EF0CF0075E00C008F003
:10183E0001C000F0016A074ED3EF0CF0076454EFBD
:10184E000CF0075E00C008F0006A074ED3EF0CF0F4
:10185E0007643BEF0CF00AC002F005C001F004C0B3
:10186E0000F0086AFFEF0DF0030E076446EF0CF070
:10187E00075E08380F0B086E074ED3EF0CF0D890AA
:10188E000832074ED3EF0CF0D8900832074ED3EF44
:10189E000CF0D8900832D3EF0CF0030E076465EF0E
:1018AE000CF0075E08380F0B086E0038F00B082698
:1018BE0000380F0B006E074ED3EF0CF0D8900032AD
:1018CE000832074ED3EF0CF0D89000320832074E94
:1018DE00D3EF0CF0D89000320832D3EF0CF0030E99
:1018EE0007648DEF0CF0075E08380F0B086E00389A
:1018FE00F00B082600380F0B006E0138F00B002697
:10190E0001380F0B016E074ED3EF0CF0D890013259
:10191E0000320832074ED3EF0CF0D890013200326D
:10192E000832074ED3EF0CF0D89001320032083255
:10193E00D3EF0CF0030E0764BEEF0CF0075E083811
:10194E000F0B086E0038F00B082600380F0B006ED8
:10195E000138F00B002601380F0B016E0238F00B28
:10196E00012602380F0B026E074ED3EF0CF0D89003
:10197E000232013200320832074ED3EF0CF0D8900B
:10198E000232013200320832074ED3EF0CF0D890FB
:10199E000232013200320832096A000E0EAEC7EF73
:1019AE000DF0081E001E011E021E082A0022012232
:1019BE000222C7EF0DF00750D8A4E8EF0CF0FFEFAE
:1019CE000DF0096A02C00AF0028E068E0750035C03
:1019DE00076ED8B4BAEF0DF0070E076488EF0DF05E
:1019EE00075E0450096E0550046E0650056E066AB9
:1019FE00074EBAEF0DF0070E07645DEF0DF0075EB0
:101A0E000450096E0550046E056A074EBAEF0DF0CC
:101A1E00070E07643BEF0DF0075E0450096E046A73
:101A2E00074EBAEF0DF0070E076422EF0DF00AC055
:101A3E0002F0FFEF0DF0030E07642DEF0DF0075EC1
:101A4E0009380F0B096E074EBAEF0DF0D890093218
:101A5E00074EBAEF0DF0D8900932074EBAEF0DF0DF
:101A6E00D8900932BAEF0DF0030E07644CEF0DF06B
:101A7E00075E09380F0B096E0438F00B092604387F
:101A8E000F0B046E074EBAEF0DF0D89004320932E8
:101A9E00074EBAEF0DF0D89004320932074EBAEF66
:101AAE000DF0D89004320932BAEF0DF0030E076430
:101ABE0074EF0DF0075E09380F0B096E0438F00B4A
:101ACE00092604380F0B046E0538F00B0426053872
:101ADE000F0B056E074EBAEF0DF0D890053204329B
:101AEE000932074EBAEF0DF0D890053204320932A2
:101AFE00074EBAEF0DF0D890053204320932BAEF24
:101B0E000DF0030E0764A5EF0DF0075E09380F0BFD
:101B1E00096E0438F00B092604380F0B046E0538D5
:101B2E00F00B042605380F0B056E0638F00B052654
:101B3E0006380F0B066E074EBAEF0DF0D890063230
:101B4E00053204320932074EBAEF0DF0D890063244
:101B5E00053204320932074EBAEF0DF0D890063234
:101B6E00053204320932086A000E0EAEC7EF0DF0D0
:101B7E00091E041E051E061E092A0422052206221F
:101B8E000950082604500022055001220650022258
:101B9E000EBEDEEF0DF0D8A0EDEF0DF002320132E9
:101BAE0000320832033EEDEF0DF0F9EF0DF0D8B034
:101BBE00F3EF0DF0000E081E001E011E021E082A75
:101BCE000022012202220A7EF3EF0DF0010E0C6EAE
:101BDE0079EC03F001EF0EF0020E0C6E79EC03F0CF
:101BEE0001EF0EF0040E0C6E4BEC01F001EF0EF057
:061BFE00000E0C6E120047
:101C0400800E006E800E03015419005C02E15351F2
:101C1400500803E3006A016ABBD0800E006E800E98
:101C24005419005C02E15351AB0805E3F40E532749
:101C3400000E5423A9D0800E010A006E800E5419A0
:101C4400005C02E15351480805E3FE0E5327000EE1
:101C540054239AD0800E020A006E800E5419005C40
:101C640002E15351460805E3180E5327010E54238D
:101C74008BD0800E030A006E800E5419005C02E1C2
:101C84005351340805E3290E5327010E54237CD005
:101C9400800E040A006E800E5419005C02E1535158
:101CA4004C0805E3360E5327010E54236DD0800EE5
:101CB400080A006E800E5419005C02E15351850835
:101CC40005E3AE0E5327010E54235ED0800E0C0A9A
:101CD400006E800E5419005C02E15351FA0805E3CA
:101CE400E40E5327010E54234FD0800E120A006EC7
:101CF400800E5419005C02E153510F0805E3120EE3
:101D04005327020E542340D0800E160A006E800E14
:101D14005419005C02E15351E60805E3880E532789
:101D2400020E542331D0800E1B0A006E800E54190B
:101D3400005C02E15351EA0805E3E70E5327020E63
:101D4400542322D0800E210A006E800E5419005CA8
:101D540002E15351360805E3200E5327030E5423A2
:101D640013D0800E290A006E800E5419005C02E123
:101D74005351040805E3480E5327030E542304D09B
:101D84005C0E5327030E542353C300F054C301F0D5
:021D940012003B
:101D96000050086E0150006E0250016E0350026E34
:101DA600036A0B6A0C6A9E0E036E0A6A02AEE8EFBD
:101DB6000EF0081E001E011E021E082AD8B4002AB4
:101DC600D8B4012AD8B4022A0A8E020E0C6E79EC17
:041DD60003F0120004
:101DDA0000C008F00B6A0C6A9E0E036E0A6A026A59
:0E1DEA00016A006A020E0C6E79EC03F0120022
:101DF8000450000A12E10550000A0FE10650000ADB
:101E08000CE10750000A09E1FF0E006EFF0E016E9B
:101E18007F0E026EFF0E036EA8D0086A096A07508B
:101E2800D8B4A7EF0FF00350D8B4ACEF0FF00250BE
:101E380006180A6E028E068E0E6A02C008F001C0ED
:101E48000CF000C00DF004500D5E0550D8A0053C04
:101E58000C5E0650D8A0063C085E086A0C6A0D6A3B
:101E6800D8A03EEF0FF0D89002320132003208328B
:101E7800010E0E6E0750035ED8A04BEF0FF07E0EDA
:101E88000E240326D8B0B1EF0FF051EF0FF07E0EFD
:101E98000E240326D8A0B6EF0FF0180E0B6E0D36E1
:101EA8000C3608360036013602360E360450005E0F
:101EB8000550D8A0053C015E0650D8A0063C025E3D
:101EC80006340E120EA06CEF0FF00D8077EF0FF0B6
:101ED800045000260550D8B0053C01260650D8B05D
:101EE800062802260D900B2E53EF0FF09DEF0FF0F2
:101EF800D8900036013602360E360450005E055082
:101F0800D8A0053C015E0650D8A0063C025E063407
:101F18000E10010B0D26D8B00C2AD8B4082AD8A464
:101F28009DEF0FF008320C320D32032AD8B4B1EF0E
:101F38000FF00AAE089E0850026E0C50016E0D504C
:101F4800006EB9EF0FF0010ECFEC07F0B9EF0FF00C
:101F5800020EC0EC00F0B9EF0FF0040E4BEC01F0EC
:0C1F6800B9EF0FF0080EC7EC00F01200FB
:101F74000450000A12E10550000A0FE10650000A5D
:101F84000CE10750000A09E1FF0E006EFF0E016E1E
:101F9400FF0E026E7F0E036E99D00C6A07BE0C2AE8
:101FA4000D6A0B6A0A6A096A086A03500210011072
:101FB4000010D8B485D0035007180E6E0EBE0D1E47
:101FC40007AE0BD0041E051E061E071E042AD8B435
:101FD400052AD8B4062AD8B4072A03AE0BD0001EAB
:101FE400011E021E031E002AD8B4012AD8B4022AF4
:101FF400D8B4032A035007100E6E0EBE1DD0D3ECC6
:1020040004F00CBE36D00DAE5BD0001E011E021EC5
:10201400031E002AD8B4012AD8B4022AD8B4032A49
:10202400081E091E0A1E0B1E082AD8B4092AD8B491
:102034000A2AD8B40B2A44D007AE15D003BE0DD05B
:1020440003500B6E02500A6E0150096E0050086E68
:10205400036A026A016A006AD6D7036A026A016ADD
:10206400006A002A000C031E021E011E001E0C8EB4
:10207400C6D7082AD8B4092AD8B40A2AD8B40B2A4D
:102084000450085CD8A4BFD70550095CD8A4BBD7BA
:1020940006500A5CD8A4B7D707500B5CD8A4B3D7B2
:1020A4000B6A0A6A096A086A002AD8B4012AD8B4F1
:1020B400022AD8B4032A03AEA6D70E6A0E88FF0CF0
:0E20C4000E6A0CA002D06DEC03F0000F1200AB
:1020D2000A6A0350D8A40A800750D8A40A820A5078
:1020E200D8B4CCEF10F0030AD8B485EF10F00AB0E0
:1020F20080EF10F006AECAEF10F0C8EF10F002AE9B
:10210200C8EF10F0CAEF10F00250800B0A6E029E68
:102112000650800B069E0A18D8B496EF10F00A50AB
:10212200D8B4C8EF10F0CAEF10F00750035CD8B46F
:10213200A0EF10F0D8A0BCEF10F0C2EF10F00650E4
:10214200025CD8B4AAEF10F0D8A0BCEF10F0C2EF36
:1021520010F00550015CD8B4B4EF10F0D8A0BCEF79
:1021620010F0C2EF10F00450005CD8B4CCEF10F0C5
:10217200D8B0C2EF10F00A52D8B4CAEF10F0C8EFCC
:1021820010F00A52D8B4C8EF10F0CAEF10F0D8809D
:0E2192001200D8901200D880D88412001200DB
:1021A0008EEC06F053C35AF32BEC06F089880A0E26
:1021B00003015A6F000E5B6F14EC06F089988EECE9
:0421C00006F0120013
:1021C400220E0C6E086A096A0A6A0B6A0C06D8B4F5
:1021D4001FD0D8900B320A3209320832033202324D
:1021E40001320032D8A0F2D70C06D8B409D004507A
:1021F40008260550092206500A2207500B22EAD766
:10220400045008260550092206500A2207500B22C2
:022214001200B6
:102216008EEC06F0899853C35AF3A0EC06F00A0E2A
:1022260003015A6F000E5B6F14EC06F08EEC06F09D
:02223600120094
:10223800A00E0301396F0F0E3A6F000E3B6F3C6F13
:10224800A00E006E0F0E016E000E026E000E036EE1
:1022580037C304F038C305F0000E066E076EAEDF14
:1022680000C039F301C03AF302C03BF303C03CF3AA
:10227800000E035C08E1000E025C05E1020E015C41
:1022880002E1940E005C01E231D0940E395F020E37
:102298003A5B000E3B5B3C5B050E006E005007E0AE
:1022A8003C333B333A3339333C9FFF0FF8D739C3BC
:1022B80000F03AC301F03BC302F03CC303F0010E47
:1022C800395F000E3A5B3B5B3C5B0050011002102B
:1022D80003100CE0000000000000000000000000F7
:0E22E80000000000000000000000E1D712001E
:1022F6000201DF51010806E2AF0E0301536FDDEC68
:102306000BF00ED0DF51010A0BE1010EE66FE56B13
:102316000301646B1FEC03F00301646B1FEC03F015
:022326001200A3
:102328000101F551000A4AE1030137A104D0010E69
:10233800536F32DF03D0010E536F69DF37A304D028
:10234800020E536F29DF03D0020E536F60DF37A5EB
:1023580004D0030E536F20DF03D0030E536F57DFF3
:1023680037A704D0040E536F17DF03D0040E536F42
:102378004EDF37A904D0050E536F0EDF03D0050ECC
:10238800536F45DF37AB04D0060E536F05DF03D01C
:10239800060E536F3CDF37AD04D0070E536FFCDEDB
:1023A80003D0070E536F33DF37AF04D0080E536FD7
:1023B800F3DE03D0080E536F2ADF49D0030137A19B
:1023C80004D0010E536F23DF03D0010E536FE4DEF8
:1023D80037A304D0020E536F1ADF03D0020E536FD7
:1023E800DBDE37A504D0030E536F11DF03D0030ED5
:1023F800536FD2DE37A704D0040E536F08DF03D023
:10240800040E536FC9DE37A904D0050E536FFFDEE3
:1024180003D0050E536FC0DE37AB04D0060E536FE2
:10242800F6DE03D0060E536FB7DE37AD04D0070EC5
:10243800536FEDDE03D0070E536FAEDE37AF04D017
:10244800080E536FE4DE03D0080E536FA5DE1200AA
:102458000301375304E0100E536F9EDE03D0100EB5
:06246800536FD5DE1200E7
:10246E00030137A104D0090E536F93DE03D0090E7A
:10247E00536FCADE37A304D00A0E536F8ADE03D021
:10248E000A0E536FC1DE37A504D00B0E536F81DEDB
:10249E0003D00B0E536FB8DE37A704D00C0E536F5C
:1024AE0078DE03D00C0E536FAFDE37A904D00D0EBD
:1024BE00536F6FDE03D00D0E536FA6DE37AB04D015
:1024CE000E0E536F66DE03D00E0E536F9DDE37ADCC
:1024DE0004D00F0E536F5DDE03D00F0E536F94DEDC
:0224EE001200DA
:1024F000000E03013F6F000E406F480E416F850EC6
:10250000426F04000201C451000A010ED8A4000E5B
:10251000016EC351010A010ED8A4000E006E0050D6
:102520000116800E03013819006E800E005C02E176
:102530000A0E375D000ED8B0010E006E0150001675
:10254000D8B4AED002019951000AD8A4A5D0F25156
:10255000040A010ED8A4000E016EF251050A010E04
:10256000D8A4000E006E015000122DE00101F151BF
:10257000010A0EE1040E03015A6F100E5B6FBA0ED2
:102580005C6F020E5D6F080E5E6FD3EC07F00DD02E
:10259000040E03015A6F100E5B6F580E5C6F020E33
:1025A0005D6F080E5E6FD3EC07F0060E03015A6FE5
:1025B000100E5B6F4F0E5C6F020E5D6F080E5E6F4C
:1025C000D3EC07F069D00201F251020A010ED8A43F
:1025D000000E016EF251030A010ED8A4000E006E27
:1025E000015000122BE00101F151010A0DE103013C
:1025F0005A6B090E5B6F610E5C6F020E5D6F080E09
:102600005E6FD3EC07F00CD003015A6B090E5B6FC1
:10261000730E5C6F020E5D6F080E5E6FD3EC07F0F9
:10262000010E03015A6F090E5B6F6A0E5C6F020E9A
:102630005D6F080E5E6FD3EC07F02ED00201F251F1
:10264000010A2AE10101F151010A0DE103015A6B6E
:10265000090E5B6F3F0E5C6F020E5D6F070E5E6FC3
:10266000D3EC07F00CD003015A6B090E5B6F370EE9
:102670005C6F020E5D6F070E5E6FD3EC07F0010E0C
:1026800003015A6F090E5B6F470E5C6F020E5D6FA0
:10269000070E5E6FD3EC07F0010E0201996F08D0B0
:1026A00002019951010A02E162EC09F00201996B01
:1026B0000400030138510201931903E1925103010F
:1026C0003719D8B485D337C392F238C393F20101D6
:1026D000F151000A4CE1800E03013819006E800EA2
:1026E000005C02E1640E375D1DE3050E3725006EC8
:1026F000000E3821016E00C037F301C038F300C06E
:102700005AF301C05BF3F90E5C6F020E5D6F4EEC85
:1027100008F0FBC203F3FCC204F3FDC205F3570E3D
:10272000066F24D037C35AF338C35BF3F90E5C6FDE
:10273000020E5D6F4EEC08F00201FD51200A03E02D
:10274000FDC203F303D0300E0301036F03012E0E0D
:10275000046F0201FE51200A03E0FEC205F303D01C
:10276000300E0301056F0301570E066F30D00301D1
:10277000800E3819006E800E030A005C02E1E70E3D
:10278000375D13E237C35AF338C35BF3F90E5C6F5E
:10279000020E5D6F4EEC08F0FCC203F3FDC204F3C1
:1027A000FEC205F3570E066F12D037C35AF338C373
:1027B0005BF3F90E5C6F020E5D6F4EEC08F0FBC22E
:1027C00003F3FCC204F3FDC205F3FEC206F30201EB
:1027D000F251040A010ED8A4000E016EF251050A4E
:1027E000010ED8A4000E006E015000120DE003018E
:1027F0005A6B400E5B6F030E5C6F030E5D6F040E31
:102800005E6FD3EC07F010D00201F251000A0CE029
:1028100003015A6B040E5B6F030E5C6F030E5D6F5A
:10282000040E5E6FD3EC07F0040002019951010A17
:10283000D8A4CED20151000A010ED8A4000E016E18
:102840000051000A010ED8A4000E006E01500016BF
:1028500004E039C316F33AC317F316C300F017C3E5
:1028600001F096EC07F000C04BF301C04CF302C03E
:102870004DF303C04EF3000E046E000E056E480EBD
:10288000066E850E076E4BC300F04CC301F04DC3BE
:1028900002F04EC303F0FCEC0EF000C047F301C0A1
:1028A00048F302C049F303C04AF34BC304F04CC3DE
:1028B00005F04DC306F04EC307F0000E006E000E8B
:1028C000016E480E026E850E036EFCEC0EF047C3DF
:1028D00004F048C305F049C306F04AC307F0EFEC23
:1028E0000BF000C047F301C048F302C049F303C036
:1028F0004AF300C300F0EDEC0EF047C304F048C308
:1029000005F049C306F04AC307F003EC07F0000ED8
:10291000046E000E056E200E066E820E076EFCEC35
:102920000EF01F0E046E850E056E6B0E066E7B0E8E
:10293000076E03EC07F0000E046E000E056E000E2D
:10294000066E7F0E076EEFEC0BF000C004F001C0C6
:1029500005F002C006F003C007F0000E006E000E86
:10296000016E000E026E7F0E036EFCEC0EF000C0D6
:102970004FF301C050F302C051F303C052F34FC3F1
:102980003FF350C340F351C341F352C342F339C341
:1029900000F03AC301F096EC07F000C04BF301C021
:1029A0004CF302C04DF303C04EF3000E046E000E54
:1029B000056E480E066E850E076E4BC300F04CC3C5
:1029C00001F04DC302F04EC303F0FCEC0EF0000E1C
:1029D000046E000E056E000E066E800E076EEFECA4
:1029E0000BF000C047F301C048F302C049F303C035
:1029F0004AF34BC304F04CC305F04DC306F04EC37D
:102A000007F0000E006E000E016E480E026E850E7D
:102A1000036EFCEC0EF047C304F048C305F049C355
:102A200006F04AC307F0EFEC0BF000C004F001C061
:102A300005F002C006F003C007F0000E006E000EA5
:102A4000016E000E026E810E036EFCEC0EF000C0F3
:102A500043F301C044F302C045F303C046F3000E44
:102A6000046E000E056E000E066E7F0E076E4FC3DD
:102A700000F050C301F051C302F052C303F069ECFF
:102A800010F0000ED8B0010E006E005209E0000EEA
:102A900003013F6F000E406F000E416F7F0E426FCB
:102AA000000E046E000E056E000E066E7F0E076EA1
:102AB00043C300F044C301F045C302F046C303F032
:102AC00069EC10F0000ED8B0010E006E005209E063
:102AD0000301000E436F000E446F000E456F7F0E22
:102AE000466F37C300F038C301F096EC07F03FC3E0
:102AF00004F040C305F041C306F042C307F003EC05
:102B000007F043C304F044C305F045C306F046C3D1
:102B100007F003EC07F06AEC04F000C03BF301C0DF
:102B20003CF33FC300F040C301F041C302F042C395
:102B300003F043C304F044C305F045C306F046C3A5
:102B400007F003EC07F0000E046E000E056E480E51
:102B5000066E850E076E03EC07F06AEC04F000C009
:102B60003DF301C03EF3800E0118026E800E025C40
:102B700002E1640E005C05E30301630E3D6F000E8D
:102B80003E6F0101F151000A4CE1800E03013C1936
:102B9000006E800E005C02E1640E3B5D1DE3050EDD
:102BA0003B25006E000E3C21016E00C03BF301C0CE
:102BB0003CF300C05AF301C05BF3F90E5C6F020EE8
:102BC0005D6F4EEC08F0FBC203F3FCC204F3FDC2E0
:102BD00005F3570E066F24D03BC35AF33CC35BF397
:102BE000F90E5C6F020E5D6F4EEC08F00201FD51B4
:102BF000200A03E0FDC203F303D0300E0301036F8C
:102C000003012E0E046F0201FE51200A03E0FEC2F2
:102C100005F303D0300E0301056F0301570E066F55
:102C200030D00301800E3C19006E800E030A005C58
:102C300002E1E70E3B5D13E23BC35AF33CC35BF397
:102C4000F90E5C6F020E5D6F4EEC08F0FCC203F3F0
:102C5000FDC204F3FEC205F3570E066F12D03BC34C
:102C60005AF33CC35BF3F90E5C6F020E5D6F4EECE2
:102C700008F0FBC203F3FCC204F3FDC205F3FEC27D
:102C800006F30201F251040A010ED8A4000E016EEF
:102C9000F251050A010ED8A4000E006E0150001278
:102CA0000EE0040E03015A6F400E5B6F030E5C6F63
:102CB000030E5D6F040E5E6FD3EC07F02DD00201A2
:102CC000F251020A010ED8A4000E016EF251030A5D
:102CD000010ED8A4000E006E015000120DE0030199
:102CE0005A6B0D0E5B6F030E5C6F030E5D6F040E6F
:102CF0005E6FD3EC07F010D00201F251000A0CE035
:102D000003015A6B0C0E5B6F030E5C6F030E5D6F5D
:102D1000040E5E6FD3EC07F03DC35AF33EC35BF382
:102D2000F90E03015C6F020E5D6F4EEC08F0FDC200
:102D300003F3FEC204F30201F251040A010ED8A407
:102D4000000E016EF251050A010ED8A4000E006EAD
:102D5000015000120EE0060E03015A6F4C0E5B6F1D
:102D6000030E5C6F030E5D6F020E5E6FD3EC07F017
:102D70002FD00201F251020A010ED8A4000E016EFA
:102D8000F251030A010ED8A4000E006E0150001289
:102D90000EE0010E03015A6F0E0E5B6F030E5C6FA7
:102DA000030E5D6F020E5E6FD3EC07F011D00201CF
:102DB000F251010A0DE1010E03015A6F0D0E5B6F16
:102DC000030E5C6F030E5D6F020E5E6FD3EC07F0B7
:042DD00004001200E9
:102DD4000400030138510101A41903E1A3510301C3
:102DE4003719D8B4A7D0030137C3A3F138C3A4F16A
:102DF400000E381902E1000E37193AE10201F251CE
:102E0400040A010ED8A4000E016EF251050A010E47
:102E1400D8A4000E006E015000120EE0020E030151
:102E24005A6F400E5B6F810E5C6F020E5D6F040E75
:102E34005E6FD3EC07F018D00201F251000A0EE0E5
:102E4400010E03015A6F040E5B6F7C0E5C6F020E61
:102E54005D6F040E5E6FD3EC07F006D00201F251F1
:102E6400000A02E18B8C8B8E0101A36BA46B62D0F0
:102E740037C35AF338C35BF3F90E03015C6F020ED8
:102E84005D6F4EEC08F0FCC203F32E0E046FFDC21E
:102E940005F3FEC206F30201F251040A010ED8A49E
:102EA400000E016EF251050A010ED8A4000E006E48
:102EB400015000120EE0020E03015A6F400E5B6FC8
:102EC400030E5C6F030E5D6F040E5E6FD3EC07F0B0
:102ED40031D00201F251000A0EE0010E03015A6FD3
:102EE400040E5B6F030E5C6F030E5D6F040E5E6F6A
:102EF400D3EC07F01FD00201F251000A1BE1800E4F
:102F0400006E800E03013819005C02E13751960807
:102F140003E38B9C8B8E0ED0800E006E800E3819CE
:102F2400005C02E13751FA0803E38B9C819E02D0D6
:082F34008B8C8B9E040012003F
:102F3C000400B3EC0BF000C037F301C038F3000E03
:102F4C0001BEFF0E0301396F3A6F19EC09F000C096
:102F5C003BF301C03CF3000E01BEFF0E03013D6FBD
:102F6C003E6F0101F351010A1BE137C300F038C376
:102F7C0001F0030E046E000E056EF1EC08F000C0BB
:102F8C0053F301C054F302EC0EF096EC07F000C0C2
:102F9C003FF301C040F302C041F303C042F31AD027
:102FAC0037C300F038C301F039C302F03AC303F061
:102FBC00030E046E000E056E066E076EE2EC10F04A
:102FCC00CBEC0EF000C03FF301C040F302C041F364
:102FDC0003C042F30301800E3E19006E800E3A19B5
:102FEC00005C08E139513D5D05E138513C5D02E181
:102FFC0037513B5D08E3E70E376F030E386F000E59
:10300C00396F3A6F45D03B513725006E3C51382112
:10301C00016E3D513921026E3E513A21036E640E10
:10302C00046E000E056E066E076EE2EC10F037C3F0
:10303C0004F038C305F039C306F03AC307F03B512E
:10304C00045E3C51055A3D51065A3E51075ABAECA2
:10305C000FF000C037F301C038F302C039F303C0DE
:10306C003AF3800E046E800E0318045C08E10250E3
:10307C00000805E10150030802E10050E70808E2EE
:10308C00E70E0301376F030E386F000E396F3A6F7E
:10309C00F2C100F0EDEC0EF03FC304F040C305F0BC
:1030AC0041C306F042C307F003EC07F0000E046EB8
:1030BC00000E056E7A0E066E880E076EFCEC0EF096
:1030CC0000C03FF301C040F302C041F303C042F320
:1030DC00F40E046EFD0E056E340E066E7F0E076E3A
:1030EC00FCEC0EF000C03FF301C040F302C041F312
:1030FC0003C042F30101F151010A25E13FC300F085
:10310C0040C301F041C302F042C303F03FC304F0DB
:10311C0040C305F041C306F042C307F003EC07F0CF
:10312C00000E046E000E056E480E066E840E076EC1
:10313C00FCEC0EF000C03FF301C040F302C041F3C1
:10314C0003C042F324D03FC300F040C301F041C39D
:10315C0002F042C303F03FC304F040C305F041C387
:10316C0006F042C307F003EC07F0000E046E000EED
:10317C00056E200E066E810E076EFCEC0EF000C084
:10318C003FF301C040F302C041F303C042F33FC31D
:10319C0000F040C301F041C302F042C303F0000E43
:1031AC00046E000E056E000E066E7E0E076EEFECC2
:1031BC000BF000C03FF301C040F302C041F303C069
:1031CC0042F36AEC04F000C0EEF201C0EFF2800EA4
:1031DC0003013A19006E800E005C08E1000E395DA7
:1031EC0005E1000E385D02E1640E375D06E2E70E84
:1031FC000201F36F030EF46F04D037C3F3F238C33C
:04320C00F4F21200C6
:103210000450000A08E10550000A05E1FF0E006EA7
:103220007F0E016E58D00D6A096A086A01500010BD
:10323000D8B4000C015005180A6E0ABE0D1E0B6AA8
:1032400005AE05D0041E051E042AD8B4052A01AE19
:1032500005D0001E011E002AD8B4012A0150051015
:103260000A6E0ABE10D0C5EC08F00BB020D00DAE2F
:10327000000C001E011E002AD8B4012A081E091ED7
:10328000082AD8B4092A000C05AE0DD001BE07D01B
:103290000150096E0050086E016A006AE8D7016AA1
:1032A000006A002A000C011E001E0B2ADDD7082A26
:1032B000D8B4092A0450085CD8A4D9D70550095CB1
:1032C000D8A4D5D7096A086A002AD8B4012A01AE61
:0832D000CED70000FF0C120034
:1032D800810E0301536F0F0E546F556B190E566F05
:1032E800576B2AEC09F000C037F3810E536F0F0EAD
:1032F800546F010E556F190E566F576B2AEC09F073
:1033080000503713810E536F0F0E546F020E556F16
:10331800190E566F576B2AEC09F03751001203E06B
:08332800010E0101FA6F120011
:103330000201016B006B0301376B94EC11F000C2CA
:1033400037F337EC12F0F5C237F3F6C238F31CEC62
:0433500011F0120066
:10335400A6A202D00000FCD7A69C2FC3A9FF30C3AD
:10336400A8FFA69EA684F2CF00F0F29E550EA76E8B
:10337400AA0EA76EA68200BE02D0F29E01D0F28EE3
:0E338400A694A1B802D00000FCD7A1981200B8
:103392000301356B366B640E0201F05D0301306F81
:1033A200000E0201F1590301316F0201EE6BEF6B66
:1033B20004000101FF51000A010ED8A4000E016EA3
:1033C20002010251010A010ED8A4000E006E015042
:1033D200001631E0B2DD800E0201EF19006E800EA0
:1033E200005C02E10A0EEE5D25E301C237F394ECC4
:1033F20011F000C237F337EC12F0F9C137F32CECBD
:1034020012F0010E0101FF6F7BEC11F0F6C100F02A
:10341200EDEC0EF0FBC104F0FCC105F0FDC106F0BD
:10342200FEC107F003EC07F06AEC04F000C0F7F10C
:1034320001C0F8F14AD3780E0301326F2F6B32517B
:103442002F5D4DE281B202D0068001D0069081B498
:1034520002D0D88001D0D89006B003D002E2069202
:1034620001D0068281B002D0D88001D0D89005E385
:103472000201EDA102D0068001D0069006B204D06E
:1034820006B002D0D89001D0D88007E324DF010132
:10349200FA51010A02E1FA6B18D34FDD800E0301E3
:1034A2003619006E800E0201EF19005C03E1EE5145
:1034B2000301355D08E2EEC235F3EFC236F3F3C223
:1034C20033F3F4C234F3100E0C6E940E0D6E03013E
:1034D2000D2EFDD70C2EFBD700002F2BB0D70400EA
:1034E200800E3619006E800E005C02E1640E355DBE
:1034F20019E3050E3525006E000E3621016E0A0E07
:10350200046E000E056E83DE00C035F301C036F393
:103512000A0E046E000E056EF1EC08F000C035F3E1
:1035220001C036F335C331F236C332F2800E0301E5
:103532003619006E800E005C02E10A0E355D02E271
:10354200336B346B33C337F334C338F342DC800E4E
:1035520002013219016E800E015C02E10A0E315D38
:10356200000ED8B0010E016E0101F6510008010EE5
:10357200D8B0000E006E015000161BE0FF51000A89
:1035820004E1010EFF6F7BEC11F0F6C100F0EDECEF
:103592000EF0FBC104F0FCC105F0FDC106F0FEC156
:1035A20007F003EC07F06AEC04F000C0F7F101C089
:1035B200F8F1800E03013419006E800E0201F11938
:1035C200005C03E1F0510301335D000ED8B0010E3F
:1035D200006E005002013015056E800E3619036E22
:1035E200800E03013419035C03E133510201355D9E
:1035F2000201010ED8B0000E036E35510301335D96
:10360200016E0201365103013459026E800E3119E6
:10361200006E800E0218005C02E10150305D010E66
:10362200D8B0000E006E00500314046E800E3419E0
:10363200036E800E02013619035C03E1355103016A
:10364200335D0301010ED8B0000E036E3351020147
:10365200355D016E0301345102013659026E800E4E
:1036620003013119006E800E0218005C02E1015064
:10367200305D010ED8B0000E006E035000160050EF
:103682000410016E02013651030A02E1E70E3519F8
:10369200010ED8A4000E006E015000120550001653
:1036A20002E0010E346F81B202D0068001D0069092
:1036B20081B402D0D88001D0D89006B003D002E203
:1036C200069201D0068281B002D0D88001D0D89073
:1036D20005E30201EDA102D0068001D0069006B2F8
:1036E20004D006B002D0D89001D0D88007E3F3DD31
:1036F2000101FA51010A02E1FA6BE7D131C237F353
:1037020032C238F333C339F334C33AF378EC12F0EC
:1037120081B202D0068001D0069081B402D0D88056
:1037220001D0D89006B003D002E2069201D0068200
:1037320081B002D0D88001D0D89005E30201EDA17A
:1037420002D0068001D0069006B204D006B002D0A4
:10375200D89001D0D88007E3BEDD0101FA51010AF9
:1037620002E1FA6BB2D1040002013351010AD8A47A
:10377200ACD1F251040A010ED8A4000E016EF2512E
:10378200050A010ED8A4000E006E01500012D8B432
:10379200CAD0020E03015A6F100E5B6F0C0E5C6FE3
:1037A200020E5D6F080E5E6FD3EC07F0030E0B6E18
:1037B200080E0C6E770E0D6E0D2EFED70C2EFCD75A
:1037C2000B2EFAD7020E03015A6F100E5B6F030E17
:1037D2005C6F020E5D6F080E5E6FD3EC07F00B0E8E
:1037E2000B6E260E0C6E5D0E0D6E0D2EFED70C2E80
:1037F200FCD70B2EFAD7000000000400020E0301D2
:103802005A6F100E5B6F270E5C6F020E5D6F080E13
:103812005E6FD3EC07F0070E0B6E170E0C6E6A0E7E
:103822000D6E0D2EFED70C2EFCD70B2EFAD70000F4
:103832000400020E03015A6F100E5B6F1E0E5C6FC6
:10384200020E5D6F080E5E6FD3EC07F00B0E0B6E6F
:10385200260E0C6E5D0E0D6E0D2EFED70C2EFCD7B5
:103862000B2EFAD7000000000400020E03015A6F6B
:10387200100E5B6F150E5C6F020E5D6F080E5E6FB1
:10388200D3EC07F0070E0B6E170E0C6E6A0E0D6E60
:103892000D2EFED70C2EFCD70B2EFAD700000400FB
:1038A200020E03015A6F100E5B6FC90E5C6F010EA0
:1038B2005D6F080E5E6FD3EC07F00B0E0B6E260EDB
:1038C2000C6E5D0E0D6E0D2EFED70C2EFCD70B2E40
:1038D200FAD7000000000400020E03015A6F100E16
:1038E2005B6FC00E5C6F010E5D6F080E5E6FD3ECF6
:1038F20007F0030E0B6E080E0C6E770E0D6E0D2E7A
:10390200FED70C2EFCD70B2EFAD7020E03015A6FEC
:10391200100E5B6FB70E5C6F010E5D6F080E5E6F6F
:10392200D3EC07F0C6D00201F251000AD8B4C1D0DC
:10393200010E03015A6F5B6BE40E5C6F010E5D6F4B
:10394200080E5E6FD3EC07F0030E0B6E080E0C6EC2
:10395200770E0D6E0D2EFED70C2EFCD70B2EFAD73E
:10396200010E03015A6F5B6BDB0E5C6F010E5D6F24
:10397200080E5E6FD3EC07F00B0E0B6E260E0C6E6C
:103982005D0E0D6E0D2EFED70C2EFCD70B2EFAD728
:10399200000000000400010E03015A6F5B6BD20E9F
:1039A2005C6F010E5D6F080E5E6FD3EC07F0070EC1
:1039B2000B6E170E0C6E6A0E0D6E0D2EFED70C2EB0
:1039C200FCD70B2EFAD700000400010E03015A6F38
:1039D2005B6B9A0E5C6F010E5D6F080E5E6FD3EC2F
:1039E20007F00B0E0B6E260E0C6E5D0E0D6E0D2E7D
:1039F200FED70C2EFCD70B2EFAD7000000000400D5
:103A0200010E03015A6F5B6B910E5C6F010E5D6FCD
:103A1200080E5E6FD3EC07F0070E0B6E170E0C6EDE
:103A22006A0E0D6E0D2EFED70C2EFCD70B2EFAD77A
:103A320000000400010E03015A6F5B6B880E5C6F7D
:103A4200010E5D6F080E5E6FD3EC07F00B0E0B6E6E
:103A5200260E0C6E5D0E0D6E0D2EFED70C2EFCD7B3
:103A62000B2EFAD7000000000400010E03015A6F6A
:103A72005B6BAE0E5C6F010E5D6F080E5E6FD3EC7A
:103A820007F0030E0B6E080E0C6E770E0D6E0D2EE8
:103A9200FED70C2EFCD70B2EFAD7010E03015A6F5C
:103AA2005B6BA50E5C6F010E5D6F080E5E6FD3EC53
:103AB20007F00400100E0101A36F270EA46F33C399
:0C3AC20037F334C338F3EAEC16F01200BE
:103ACE0030DC010E0101F96F010E0301376F2CEC92
:103ADE0012F0FF0E2F6F306B36DCFE0E03012F6FD0
:103AEE00306B31DCFD0E03012F6F010E306F2BDCBE
:103AFE00FC0E03012F6F306B26DCFB0E03012F6FC4
:103B0E00306B21DC62EC09F00201996B986B010EAF
:103B1E00976FF36BF46BEE6BEF6B356B366BF2519D
:103B2E00040A010ED8A4000E016EF251050A010E10
:103B3E00D8A4000E006E015000122BE0020E0301FD
:103B4E005A6F100E5B6FAC0E5C6F020E5D6F080E3F
:103B5E005E6FD3EC07F004000D0E0B6E2D0E0C6E87
:103B6E00D70E0D6E0D2EFED70C2EFCD70B2EFAD7C0
:103B7E0000000000020E03015A6F100E5B6FA30EC1
:103B8E005C6F020E5D6F080E5E6FD3EC07F00400E3
:103B9E002FD00201F251000A29E0010E03015A6FE3
:103BAE005B6B9A0E5C6F020E5D6F080E5E6FD3EC50
:103BBE0007F004000D0E0B6E2D0E0C6ED70E0D6E53
:103BCE000D2EFED70C2EFCD70B2EFAD700000000C0
:103BDE00010E03015A6F5B6B890E5C6F020E5D6FF7
:103BEE00080E5E6FD3EC07F0040002D08B8C8B8E28
:103BFE00100E0101A36F270EA46F100E0201926F1B
:0A3C0E00270E936FC9EC19F01200A5
:103C18009EEC17F00101F451640A11E0F42B800EB8
:103C28000201EC19006E800EEF19005C02E1EE5102
:103C3800EB5D04E2EEC2EBF2EFC2ECF20FD0010151
:103C4800F46BEBC237F3ECC238F3F3C239F3F4C2C6
:103C58003AF378EC12F00201EB6BEC6B0201800E88
:103C6800EF19026E800EEA19025C02E1E951EE5D7D
:103C7800010ED8B0000E026E800EE819016E800E9B
:103C8800EF19015C02E1EE51E75D010ED8B0000EBC
:103C9800016E800E006E800EE819005C02E1E751AB
:103CA8000008010ED8B0000E006E01500016025038
:103CB800001253E004009EEC17F00101F451640A6D
:103CC80011E0F42B800E0201EC19006E800EEF1942
:103CD800005C02E1EE51EB5D04E2EEC2EBF2EFC2F2
:103CE800ECF20FD00101F46BEBC237F3ECC238F3FE
:103CF800F3C239F3F4C23AF378EC12F00201EB6B39
:103D0800EC6B810E0301536F0F0E546F556B050E4C
:103D1800566F010E576F2AEC09F0005203E0010EAE
:103D28000101ED6F0101ED51010A010ED8A4000E49
:103D380003012E6F810E536F0F0E546F556B050ED6
:103D4800566F576B2AEC09F02E51001605E0BBDEC2
:0C3D58000201F36BF46B01D081D7120064
:103D6400030E03012D6F0201006B0301376B37EC67
:103D740012F02DC3F0F14EDF000E0201F41902E13E
:103D8400000EF31901E193D0140E046E000E056EBB
:103D9400F3C200F0F4C201F008EC19F00050020183
:103DA400F32503012B6F01500201F42103012C6F51
:103DB4002DC32AF303012A511F08D8A074D02A5115
:103DC4000101EF03F3CF37F337EC12F023DF000EDA
:103DD4000201F41902E1000EF31901E168D0800E2A
:103DE400F419006E800E03012C19005C03E12B51C1
:103DF4000201F35D56E2140E046E000E056EF3C26A
:103E040000F0F4C201F008EC19F000500201F325AF
:103E140003012B6F01500201F42103012C6F2A517D
:103E24000101EF03F3CF00F22DC3F0F1800E020184
:103E3400F419006E800E005C02E1780EF35D01E27D
:103E440032D003012D512A25026E02C02AF301014A
:103E5400EE51000A010ED8A4000E016E0250090AA8
:103E6400010ED8A4000E006E0150001604E0080EE6
:103E740003012A6F15D00101EE51000A010ED8A4E6
:103E8400000E016E03012A51110A010ED8A4000E7E
:103E9400006E0150001604E0100E2A6F040E2D6F00
:103EA40001D001D087D700C237F337EC12F01200EB
:103EB400030E0301296F256B29C33EF1030E266F00
:103EC400140E046E000E056EF3C200F0F4C201F08D
:103ED40008EC19F000500201F3250301276F01508B
:103EE4000201F4210301286F246B030124511F08EC
:103EF400D8A078D024510201B703F3CF37F394EC60
:103F040011F02EDF87DE000E0201F41902E1000E2B
:103F1400F31901E17DD0800EF419006E800E0301C7
:103F24002819005C03E127510201F35D59E2140EE4
:103F3400046E000E056EF3C200F0F4C201F008EC4A
:103F440019F000500201F3250301276F015002010B
:103F5400F4210301286F24510201B703F3CF01F2C6
:103F640000C225F329C33EF1F0C126F3800EF419F3
:103F7400006E800E005C02E1780EF35D01E232D047
:103F8400030129512425026E02C024F301013D518D
:103F9400000A010ED8A4000E016E0250090A010E97
:103FA400D8A4000E006E0150001604E0080E0301B0
:103FB400246F15D001013D51000A010ED8A4000E52
:103FC400016E03012451110A010ED8A4000E006EE3
:103FD4000150001604E0100E246F040E296F01D066
:103FE40001D083D725C300F201C237F394EC11F05A
:103FF40000C237F337EC12F026C3F0F1340E0C6E26
:10400400F10E0D6E0D2EFED70C2EFCD70000000015
:02401400120098
:1040160001013E510201B703F3CF00F000C024F3C3
:1040260000500125046E04C026F3050E026EB7C2C9
:1040360000F0000E016E025005E0003600900136D9
:10404600FF0FFAD7010E005C026E000E0158036ED8
:10405600800E0318006E800E005C02E10450025CC4
:104066000DE2050E006EB7C226F3005005E003010F
:1040760026372691FF0FFAD70301260702010151C1
:104086000301245D06E224510201015D0301276F4D
:1040960001D0276B27C301F227C337F394EC11F045
:1040A600B8DD000E0201F41902E1000EF31901E178
:1040B60070D0F3C228F3F4C229F3B75103012725C0
:1040C600256F2551265D61E325C337F394EC11F086
:1040D600A0DD000E0201F41902E1000EF31901E160
:1040E60058D0800EF419006E800E03012919005C69
:1040F60003E128510201F35D0BE3340E0C6EF10E61
:104106000D6E0D2EFED70C2EFCD70000000081DDB3
:10411600800E0201F419006E800E03012919005C5D
:1041260003E128510201F35D0BE3340E0C6EF10E30
:104136000D6E0D2EFED70C2EFCD70000000069DD9B
:10414600800E0201F419006E800E03012919005C2D
:1041560003E128510201F35D12E20201F3C228F3E2
:10416600F4C229F325C301F2800EF419006E800E05
:10417600005C02E1780EF35D01E207D001D005D0C4
:104186000201B751030125279CD701C237F394ECEE
:0441960011F0120012
:10419A000101F051EF03F3CF00F000C024F3005007
:1041AA0002010025046E04C026F3050E026EEFC15B
:1041BA0000F0000E016E025005E000360090013654
:1041CA00FF0FFAD7010E005C026E000E0158036E53
:1041DA00800E0318006E800E005C02E10450025C3F
:1041EA000DE2050E006EEFC126F3005005E0030153
:1041FA0026372691FF0FFAD703012607020100513D
:10420A000301245D06E224510201005D0301276FC8
:10421A0001D0276B27C300F227C337F337EC12F01C
:10422A00F6DC000E0201F41902E1000EF31901E1B5
:10423A0071D0F3C228F3F4C229F30101EF5103014B
:10424A002725256F2551265D61E325C337F337EC12
:10425A0012F0DDDC000E0201F41902E1000EF3197E
:10426A0001E158D0800EF419006E800E030129195D
:10427A00005C03E128510201F35D0BE3340E0C6E7E
:10428A00F10E0D6E0D2EFED70C2EFCD7000000008D
:10429A00BEDC800E0201F419006E800E030129199A
:1042AA00005C03E128510201F35D0BE3340E0C6E4E
:1042BA00F10E0D6E0D2EFED70C2EFCD7000000005D
:1042CA00A6DC800E0201F419006E800E0301291982
:1042DA00005C03E128510201F35D12E20201F3C21C
:1042EA0028F3F4C229F325C300F2800EF419006EF4
:1042FA00800E005C02E1780EF35D01E207D001D086
:10430A0005D00101EF51030125279CD700C237F3DD
:06431A0037EC12F0120066
:10432000F3C21EF3F4C21FF3C5DD000E0201F4193F
:1043300002E1000EF31903E198EC19F018D16CDCDE
:10434000800E0201F419006E800E005C02E1780E0E
:10435000F35D01E20CD15FDE000E0201F41902E10F
:10436000000EF31903E198EC19F001D155DC800E31
:104370000201F419006E800E005C02E1780EF35D1C
:1043800001E2F5D00ADF000E0201F41902E1000E8D
:10439000F31903E198EC19F0EAD03EDC800E02013B
:1043A000F419006E800E005C02E1780EF35D01E20C
:1043B000DED0800EF419016E800E015C02E1C80EA1
:1043C000F35D010ED8B0000E016E800EF419006E80
:1043D000800E03011F19005C03E11E510201F35D11
:1043E0000201010ED8B0000E006E00500114036EE1
:1043F000F35103011E5D016E0201F45103011F59C7
:10440000026E800E006E800E0218005C02E1015008
:104410006408010ED8B0000E006E0350001601E0D3
:10442000A6D0F3C21EF3F4C21FF301C220F3000EA4
:10443000216F00C222F3000E236F0101F951010A1E
:1044400002E1F96B02D0010EF96F98EC19F0F9C195
:1044500037F32CEC12F0020E0B6E040E0C6EBA0E3B
:104460000D6E0D2EFED70C2EFCD70B2EFAD70000AA
:104470000CEC1EF0800E0201F419006E800E005C40
:1044800002E1780EF35D01E272D014DD000E02014C
:10449000F41902E1000EF31903E198EC19F067D06A
:1044A0000CEC1EF0800E0201F419006E800E005C10
:1044B00002E1780EF35D01E25AD0ADDD000E02019B
:1044C000F41902E1000EF31903E198EC19F04FD052
:1044D0000CEC1EF0800E0201F419006E800E005CE0
:1044E00002E1780EF35D01E242D057DE000E0201D8
:1044F000F41902E1000EF31903E198EC19F037D03A
:104500000CEC1EF0800E0201F419006E800E005CAF
:1045100002E1780EF35D01E22AD0800E03011F193B
:10452000006E800E0201F419005C03E1F3510301F7
:104530001E5D1CE20101F951010A02E1F96B02D092
:10454000010EF96FF9C137F32CEC12F020C301F220
:1045500022C300F220C337F394EC11F000C237F30A
:1045600037EC12F01EC3F3F21FC3F4F20400120082
:1045700004000101F46B0201EB6BEC6B0101ED6BCC
:104580000CEC1EF0800E0201F419006E800E005C2F
:1045900002E16E0EF35D01E2B9D098EC19F0020170
:1045A000C351000A02E162EC09F0020E0B6E040E28
:1045B0000C6EBA0E0D6E0D2EFED70C2EFCD70B2EE8
:1045C000FAD700000CEC1EF0F3C216F3F4C217F396
:1045D000800E0201F419006E800E005C02E16E0E86
:1045E000F35D01E293D0800E016E800ECC19015C68
:1045F00002E1CB516E08010ED8B0000E016E800EA4
:10460000CC19006E800EF419005C02E1F351CB5D11
:10461000010ED8B0000E006E0150001601E076D0F9
:104620007FDE000E0201F41902E1000EF31903E12E
:1046300098EC19F06BD0800E0201F419006E800E18
:10464000005C02E1780EF35D01E260D001013A51B5
:10465000050A010ED8A4000E016E2551050A010EAF
:10466000D8A4000E006E0150001601E04FD0255175
:10467000050806E2B7C23EF1010E0201B76FCBDCBE
:10468000800E0201F419006E800E005C02E1780ECB
:10469000F35D01E23BD001013A51050805E2EFC1AB
:1046A000F0F1010EEF6F79DD01012551050A04E1FA
:1046B000010E0201B76F17D001012551060A04E16E
:1046C000020E0201B76F0FD001012551070A04E164
:1046D000040E0201B76F07D001012551080A03E15A
:1046E000080E0201B76F01013A51050A03E1010EFC
:1046F000EF6F0BD03A51060A03E1020EEF6F05D0BF
:0E4700003A51070A02E1040EEF6F04001200A6
:10470E000EEC00F0E4C273F32BEC00F00301736BBC
:10471E002BEC00F0AE0E0301736F2BEC00F00201D8
:10472E00DF51020A010ED8A4000E016EDF51030AFA
:10473E00010ED8A4000E006E01500012D8B497D00E
:10474E00D50E0301736F2BEC00F0800E0301736F17
:10475E002BEC00F0A80E0301736F2BEC00F03F0E54
:10476E000301736F2BEC00F0D30E0301736F2BEC70
:10477E0000F00201DF51020A05E1E2C273F32BECF5
:10478E0000F007D00201E2511F0F0301736F2BECF3
:10479E0000F0400E0301736F2BEC00F08D0E030141
:1047AE00736F2BEC00F0140E0301736F2BEC00F003
:1047BE00810E0301736F2BEC00F0B40E0301736FC7
:1047CE002BEC00F0D90E0301736F2BEC00F0220ED0
:1047DE000301736F2BEC00F0200E0301736F2BECB3
:1047EE0000F0020E0301736F2BEC00F0210E03019B
:1047FE00736F2BEC00F00301736B2BEC00F07F0E4C
:10480E000301736F2BEC00F02E0E0301736F2BEC74
:10481E0000F00201DF51020A0BE1A00E0301736FDB
:10482E002BEC00F0C00E0301736F2BEC00F00AD0DE
:10483E00A10E0301736F2BEC00F0C80E0301736F12
:10484E002BEC00F0DA0E0301736F2BEC00F0020E6E
:10485E000301736F2BEC00F0DB0E0301736F2BEC77
:10486E0000F0400E0301736F2BEC00F08AD0D50ED2
:10487E000301736F2BEC00F0800E0301736F2BECB2
:10488E0000F0A80E0301736F2BEC00F03F0E030136
:10489E00736F2BEC00F0D30E0301736F2BEC00F053
:1048AE00E2C273F32BEC00F0400E0301736F2BEC9E
:1048BE0000F08D0E0301736F2BEC00F0140E03014C
:1048CE00736F2BEC00F0810E0301736F2BEC00F075
:1048DE00FF0E0301736F2BEC00F0D90E0301736F03
:1048EE002BEC00F0F10E0301736F2BEC00F0200E99
:1048FE000301736F2BEC00F0020E0301736F2BECB0
:10490E0000F0210E0301736F2BEC00F00301736BAB
:10491E002BEC00F07F0E0301736F2BEC00F02E0ECC
:10492E000301736F2BEC00F00201DF51040A0BE15F
:10493E00A00E0301736F2BEC00F0C00E0301736F1A
:10494E002BEC00F00AD0A10E0301736F2BEC00F0DC
:10495E00C80E0301736F2BEC00F0DA0E0301736FB8
:10496E002BEC00F0120E0301736F2BEC00F0DB0E3C
:10497E000301736F2BEC00F0400E0301736F2BECF1
:10498E0000F0A40E0301736F2BEC00F0A60E0301D2
:10499E00736F2BEC00F0D8EC00F0030E0B6E080ECC
:1049AE000C6E770E0D6E0D2EFED70C2EFCD70B2E29
:1049BE00FAD70EEC00F0E4C273F32BEC00F0400ECD
:1049CE000301736F2BEC00F00201DF51020A010E9E
:1049DE00D8A4000E016EDF51030A010ED8A4000EFA
:1049EE00006E0150001219E003011D6B1D510308EA
:1049FE0013E31DC36EF36F6B62EC00F003011C6BCF
:104A0E000301800E1C5D05E21C2B736B2BEC00F07A
:104A1E00F7D703011D2BEAD718D003011D6B1D51CB
:104A2E00070813E31DC36EF36F6B62EC00F0030116
:104A3E001C6B0301800E1C5D05E21C2B736B2BECB3
:104A4E0000F0F7D703011D2BEAD7D8EC00F0AF0E1C
:0A4A5E000301536FDDEC0BF01200B2
:104A6800086A080E0C6E003408360450085ED8B088
:0E4A780002D00826D89000360C2EF5D712007A
:104A86001CC300F00032009E0032009E0032009EE1
:104A96000032009E0A0E0002F3CF01F00F0E030152
:0A4AA6001C15006E015000261200DE
:104AB0006E0E0201DB6F0F0EDC6F5A0EDD6F030E00
:104AC000DE6FC26A01016A1D006E0050C116070E3A
:084AD000C012C08EC28012006A
:104AD800A69C1CC3A9FFA69EA680A8CF00F0120022
:104AE80004000201F251040A010ED8A4000E016E5E
:104AF800F251050A010ED8A4000E006E01500012F2
:104B08000EE0020E03015A6F400E5B6FB50E5C6F2C
:104B1800000E5D6F040E5E6FD3EC07F014D0020137
:104B2800F251000A0EE0010E03015A6F040E5B6F8A
:104B3800B00E5C6F000E5D6F040E5E6FD3EC07F075
:104B480002D08B8C8B8E10DD0201F251000A01E13C
:104B580011D09951000A010ED8A4000E016EC3515C
:104B6800000A010ED8A4000E006E0150001202E0E7
:104B780062EC09F0FF0E03012F6F00C230F3AAECBC
:104B880019F0FE0E03012F6F01C230F3AAEC19F0E1
:104B9800FD0E03012F6FF9C130F3AAEC19F0FC0EDA
:104BA80003012F6F000E046E010E056E16C300F090
:104BB80017C301F008EC19F000C030F3AAEC19F0A3
:104BC800FB0E03012F6F000E046E010E056E16C357
:104BD80000F017C301F008EC19F008C000F009C094
:104BE80001F000C030F3AAEC19F0100E0101A36F18
:104BF800270EA46F100E0201926F270E936FC9EC57
:104C080019F0F3C235F2F4C236F20201986B010EC4
:064C1800976F040012007A
:104C1E0004000201F251040A010ED8A4000E016E26
:104C2E00F251050A010ED8A4000E006E01500012BA
:104C3E00D8B4D2D001012251000AD8A485D00301E4
:104C4E005A6B160E5B6F8A0E5C6F000E5D6F070E51
:104C5E005E6FD3EC07F0020E03015A6F060E5B6F08
:104C6E00800E5C6F000E5D6F090E5E6FD3EC07F069
:104C7E00040E03015A6F100E5B6F5A0E5C6F000E1E
:104C8E005D6F080E5E6FD3EC07F0060E03015A6FD0
:104C9E00040E5B6F290E5C6F000E5D6F0A0E5E6F69
:104CAE00D3EC07F004000D0E0B6E2D0E0C6ED70E0E
:104CBE000D6E0D2EFED70C2EFCD70B2EFAD7000044
:104CCE00000004000B0E0B6E260E0C6E5D0E0D6EAC
:104CDE000D2EFED70C2EFCD70B2EFAD7000000009F
:104CEE00040003015A6B100E5B6F200E5C6F000EFA
:104CFE005D6F080E5E6FD3EC07F0020E03015A6F64
:104D0E00040E5B6F150E5C6F000E5D6F0A0E5E6F0C
:104D1E00D3EC07F0040E03015A6F100E5B6F340EC6
:104D2E005C6F000E5D6F080E5E6FD3EC07F0060E23
:104D3E0003015A6F040E5B6F4F0E5C6F000E5D6FBA
:104D4E000A0E5E6FD3EC07F0040E0B6E0C0E0C6E9B
:104D5E00330E0D6E0D2EFED70C2EFCD70B2EFAD762
:104D6E00000000000101F151010A0DE103015A6B2F
:104D7E00100E5B6F460E5C6F000E5D6F080E5E6F61
:104D8E00D3EC07F00CD003015A6B100E5B6F3D0E87
:104D9E005C6F000E5D6F080E5E6FD3EC07F0020EB7
:104DAE0003015A6F100E5B6FCF0E5C6F000E5D6FBE
:104DBE00080E5E6FD3EC07F0020130530CE00301D6
:104DCE005A6B700E5B6FCD0E5C6F000E5D6F010E39
:104DDE005E6FD3EC07F0D5D00201F251000AD8B4C1
:104DEE00D0D001012251000AD8A487D003015A6BFA
:104DFE00040E5B6FC50E5C6F000E5D6F070E5E6F6F
:104E0E00D3EC07F0010E03015A6F030E5B6FD80E41
:104E1E005C6F000E5D6F090E5E6FD3EC07F0040041
:104E2E000F0E0B6E350E0C6E510E0D6E0D2EFED737
:104E3E000C2EFCD70B2EFAD704000B0E0B6E260E83
:104E4E000C6E5D0E0D6E0D2EFED70C2EFCD70B2E9E
:104E5E00FAD700000000040003015A6B040E5B6FCA
:104E6E00F60E5C6F000E5D6F080E5E6FD3EC07F0F2
:104E7E00010E03015A6F030E5B6FEB0E5C6F000E9B
:104E8E005D6F0A0E5E6FD3EC07F004000D0E0B6E15
:104E9E002D0E0C6ED70E0D6E0D2EFED70C2EFCD7D2
:104EAE000B2EFAD70000000004000B0E0B6E260E20
:104EBE000C6E5D0E0D6E0D2EFED70C2EFCD70B2E2E
:104ECE00FAD700000000040003015A6B040E5B6F5A
:104EDE00E20E5C6F000E5D6F080E5E6FD3EC07F096
:104EEE00010E03015A6F030E5B6FBA0E5C6F000E5C
:104EFE005D6F0A0E5E6FD3EC07F0040E0B6E0C0E98
:104F0E000C6E330E0D6E0D2EFED70C2EFCD70B2E07
:104F1E00FAD7000000000101F151010A0CE1030172
:104F2E005A6B5B6BA40E5C6F000E5D6F080E5E6FAE
:104F3E00D3EC07F00BD003015A6B5B6B9B0E5C6FCF
:104F4E00000E5D6F080E5E6FD3EC07F0010E0301CD
:104F5E005A6F5B6B920E5C6F000E5D6F080E5E6F8C
:104F6E00D3EC07F0020130530CE003015A6B080E2C
:104F7E005B6FAD0E5C6F000E5D6F010E5E6FD3EC5E
:0A4F8E0007F0040062EC09F01200C5
:104F98000400010E03011C6F9BDD00C0F2F2020E3B
:104FA8001C6F96DD0050010A03E1010E0201306F0B
:104FB800030E03011C6F8CDD00C01CF360DD00C014
:104FC800F5F2000E0201F66F040E03011C6F80DD7E
:104FD80000C01CF354DD0A0E0002F3CFF0F2F4CF48
:104FE800F1F2050E1C6F74DD00C01CF348DD0A0EDB
:104FF8000002F3CFE9F2F4CFEAF2060E1C6F68DD87
:1050080000C01CF33CDD0A0E0002F3CFE7F2F4CF38
:10501800E8F2090E1C6F5CDD00C01CF330DD0A0EDF
:105028000002F3CFCBF2F4CFCCF20A0E1C6F50DDA6
:1050380000C025F10B0E1C6F4BDD00C03DF10C0EBE
:105048001C6F46DD00C03AF10D0E1C6F41DD00C03B
:10505800EEF10E0E1C6F3CDD00C0F3F10F0E1C6F5D
:1050680037DD00C0F5F10400100E1C6F31DD00C003
:105078001CF305DD640E0002F3CF1AF3F4CF1BF323
:10508800110E1C6F25DD00C01CF3F9DC00501A2539
:10509800126F000E1B21136F120E1C6F19DD00C05A
:1050A8001CF3EDDC640E0002F3CF1AF3F4CF1BF30C
:1050B800130E1C6F0DDD00C01CF3E1DC00501A2537
:1050C800106F000E1B21116F140E1C6F01DD00C044
:1050D8001CF3D5DC640E0002F3CF1AF3F4CF1BF3F4
:1050E800150E1C6FF5DC00C01CF3C9DC00501A2536
:1050F8000E6F000E1B210F6F160E1C6FE9DC00C02F
:105108001CF3BDDC640E0002F3CF1AF3F4CF1BF3DB
:10511800170E1C6FDDDC00C01CF3B1DC00501A2533
:105128000A6F000E1B210B6F180E1C6FD1DC00C01C
:105138001CF3A5DC640E0002F3CF1AF3F4CF1BF3C3
:10514800190E1C6FC5DC00C01CF399DC00501A2531
:105158000C6F000E1B210D6F1A0E1C6FB9DC00C0FE
:105168001CF38DDC640E0002F3CF1AF3F4CF1BF3AB
:105178001B0E1C6FADDC00C01CF381DC00501A252F
:10518800186F000E1B21196F1C0E1C6FA1DC00C0CC
:105198001CF375DC640E0002F3CF1AF3F4CF1BF393
:1051A8001D0E1C6F95DC00C01CF369DC00501A252D
:1051B8000201F76F000E03011B210201F86F1E0E9A
:1051C80003011C6F85DC00C01CF359DC640E00026F
:1051D800F3CF1AF3F4CF1BF31F0E1C6F79DC00C05A
:1051E8001CF34DDC00501A25016F000E1B21026FC5
:1051F800200E1C6F6DDC00C01CF341DC640E000245
:10520800F3CF1AF3F4CF1BF3210E1C6F61DC00C03F
:105218001CF335DC00501A250201D36F000E030180
:105228001B210201D46F220E03011C6F51DC00C048
:105238001CF325DC640E0002F3CF1AF3F4CF1BF342
:10524800230E1C6F45DC00C01CF319DC00501A2526
:105258000201D96F000E03011B210201DA6F240E2F
:1052680003011C6F35DC00C01CF309DC640E00026E
:10527800F3CF1AF3F4CF1BF3250E1C6F29DC00C003
:105288001CF343EC25F000501A250201D76F000EDD
:1052980003011B210201D86F260E03011C6F18DCC5
:1052A80000C01CF343EC25F0640E0002F3CF1AF3A0
:1052B800F4CF1BF3270E1C6F0BDC00C01CF343EC70
:1052C80025F000501A250201D56F000E03011B219D
:1052D8000201D66F280E03011C6F6CEC25F000C08C
:1052E8001CF343EC25F0640E0002F3CF1AF3F4CF5D
:1052F8001BF3290E1C6F6CEC25F000C01CF343EC6B
:1053080025F000501A250201D16F000E03011B2160
:105318000201D26F2A0E03011C6F6CEC25F000C04D
:105328001CF343EC25F0640E0002F3CF1AF3F4CF1C
:105338001BF32B0E1C6F6CEC25F000C01CF343EC28
:1053480025F000501A250201CF6F000E03011B2122
:105358000201D06F2C0E03011C6F6CEC25F000C00D
:105368001CF343EC25F0640E0002F3CF1AF3F4CFDC
:105378001BF32D0E1C6F6CEC25F000C01CF343ECE6
:1053880025F000501A250201CD6F000E03011B21E4
:105398000201CE6F300E03011C6F6CEC25F000C0CB
:1053A800F1F1310E1C6F6CEC25F000C01CF343ECDE
:1053B80025F000C0F2F1320E1C6F6CEC25F000C035
:1053C8001CF343EC25F000C0F6F1330E1C6F6CECB7
:1053D80025F000C0C3F2340E1C6F6CEC25F000C041
:1053E8001CF343EC25F000C000F3350E1C6F6CEC89
:1053F80025F000C01CF343EC25F000C002F20400C5
:02540800120090
:10540A000201DF51010806E2AE0E0301536FDDEC23
:10541A000BF00DD0DF51010A0AE1E66BE56B0301DF
:10542A00646B1FEC03F00301646B1FEC03F01200C2
:10543A00810E0301536F0F0E546F556B320E566F68
:10544A00576B2AEC09F00052D8B496D0060E0B6EB0
:10545A00130E0C6EAD0E0D6E0D2EFED70C2EFCD754
:10546A000B2EFAD700000000040081A00FD0010122
:10547A00F951000A03E1010EF96F01D0F96BF9C184
:10548A0037F32CEC12F062EC09F065D00201B55149
:10549A00010A02E1B56B02D0010EB56FB551010ADE
:1054AA002DE1F251040A010ED8A4000E016EF25148
:1054BA00050A010ED8A4000E006E015000120DE07C
:1054CA0003015A6B700E5B6FC90E5C6F020E5D6F43
:1054DA00010E5E6FD3EC07F010D00201F251000A00
:1054EA000CE003015A6B080E5B6FC50E5C6F020E6F
:1054FA005D6F010E5E6FD3EC07F02DD00201F25101
:10550A00040A010ED8A4000E016EF251050A010E1A
:10551A00D8A4000E006E015000120DE003015A6B70
:10552A00700E5B6FC70E5C6F020E5D6F010E5E6FD1
:10553A00D3EC07F010D00201F251000A0CE003018B
:10554A005A6B080E5B6FB80E5C6F020E5D6F010E30
:10555A005E6FD3EC07F0810E0301536F0F0E546F89
:10556A00556B320E566F576B2AEC09F0005204E065
:10557A00C9EC19F00400EFD7810E0301536F0F0E27
:10558A00546F020E556F320E566F576B2AEC09F0A4
:10559A0000526AE0040081B467D0050E026EB7C2F9
:1055AA0000F0000E016E025005E000360090013650
:1055BA00FF0FFAD7010E005C026E000E0158036E4F
:1055CA00800E006E800E0318005C03E10250020197
:1055DA00015D0201010ED8B0000E006EB551001631
:1055EA0006E0012B01C237F394EC11F02FD002012F
:1055FA00B553010ED8A4000E046E050E026EB7C292
:10560A0000F0000E016E025005E0003600900136EF
:10561A00FF0FFAD7010E005C026E000E0158036EEE
:10562A00800E006E800E0318005C03E10201025036
:10563A00005D010ED8B0000E006E0450001606E0A0
:10564A000201002B00C237F337EC12F062EC09F0CA
:10565A00C9EC19F09C0E0C6ED70E0D6E0D2EFED7EE
:10566A000C2EFCD7040097D7810E0301536F0F0E3F
:10567A00546F010E556F320E566F576B2AEC09F0B4
:10568A000201B651000A010ED8A4000E016E0150A3
:10569A00001635E0040081B232D00201015100083F
:1056AA00010ED8B0000E006EB551001606E00107D3
:1056BA0001C237F394EC11F014D00201B553010E74
:1056CA00D8A4000E016E00510008010ED8B0000ED9
:1056DA00006E0150001605E0000700C237F337ECF0
:1056EA0012F062EC09F0C9EC19F09C0E0C6ED70EA0
:1056FA000D6E0D2EFED70C2EFCD70400CCD712004F
:10570A000900F5CFE6FF0006FBE10106F9E1120008
:10571A00070EB46E600ED36E9B8C806A816A826AB1
:10572A00896A8A6A8B6AFF0E926EFF0E936EFF0E6B
:10573A00946E92949298938058EC25F00D0EC16E57
:06574A00F19EF29E120028
:105750000201F251040A010ED8A4000E016EF251AA
:10576000050A010ED8A4000E006E015000120DE0D3
:1057700003015A6B0A0E5B6F410E5C6F010E5D6F89
:10578000090E5E6FD3EC07F010D00201F251000A4F
:105790000CE003015A6B030E5B6F5F0E5C6F010E32
:1057A0005D6F090E5E6FD3EC07F004000B0E0B6EFD
:1057B000260E0C6E5D0E0D6E0D2EFED70C2EFCD738
:1057C0000B2EFAD70000000004000B0E0B6E260E05
:1057D0000C6E5D0E0D6E0D2EFED70C2EFCD70B2E13
:1057E000FAD70000000004000B0E0B6E260E0C6EA4
:1057F0005D0E0D6E0D2EFED70C2EFCD70B2EFAD79C
:105800000000000004000B0E0B6E260E0C6E5D0EE9
:105810000D6E0D2EFED70C2EFCD70B2EFAD70000E6
:10582000000004000201F251040A010ED8A4000E87
:10583000016EF251050A010ED8A4000E006E01504F
:1058400000120DE003015A6B0A0E5B6F550E5C6F80
:10585000010E5D6F090E5E6FD3EC07F010D00201F0
:10586000F251000A0CE003015A6B030E5B6F4B0E02
:105870005C6F010E5D6F090E5E6FD3EC07F098EC64
:1058800019F0010E0101F96F010E0301376F2CECC5
:1058900012F0FF0E2F6F00C230F3AAEC19F0FE0ECB
:1058A00003012F6F01C230F3AAEC19F0FD0E0301C2
:1058B0002F6FF9C130F3AAEC19F00201F251040A7A
:1058C000010ED8A4000E016EF251050A010ED8A4F3
:1058D000000E006E015000120DE003015A6B700EB5
:1058E0005B6F3B0E5C6F010E5D6F010E5E6FD3EC64
:1058F00007F010D00201F251000A0CE003015A6BCC
:10590000080E5B6F230E5C6F010E5D6F010E5E6F04
:10591000D3EC07F0010E0101226F0FEC26F012000C
:1059200000C35AF3000E03015B6FF90E5C6F020EA9
:105930005D6F4EEC08F00A0E005D03E3FDC203F359
:1059400002D0300E036F2E0E046FFEC205F302016B
:10595000F251040A010ED8A4000E016EF251050A9C
:10596000010ED8A4000E006E015000120EE0040ECD
:1059700003015A6F060E5B6F030E5C6F030E5D6FC3
:10598000030E5E6FD3EC07F010D00201F251000A53
:105990000CE0010E03015A6F5B6B030E5C6F030E8C
:0C59A0005D6F030E5E6FD3EC07F0120089
:1059AC0003011B6B1A5109081DE20A0E046E1AC37F
:1059BC0000F034EC25F000C01BF300C01BF31B37C8
:1059CC001B911B371B911B371B911B371B910A0E0D
:1059DC00046E1AC300F034EC25F008C000F000503F
:0E59EC001B1302D01AC31BF31BC300F01200E2
:1059FA000201EDB102D0048001D00490810E0301AE
:105A0A00536F0F0E546F556B320E566F010E576F50
:105A1A002AEC09F0016A04B0012A0150001602E0DA
:105A2A000201ED810201EDB102D0048001D004909F
