:10000000A4EF00F00000000000EF00F0000000008E
:0A0010000000000000000000F3D71C
:10001C0094809482948494869488948A928A928C04
:02002C001200C0
:10002E0018D08B8094902DD08B8294922AD08B8472
:10003E00949427D08B86949624D08B88949821D034
:10004E008B8A949A1ED0898A929A1BD0898C929C04
:10005E0018D01750000AE5E01750010AE5E01750D6
:10006E00020AE5E01750030AE5E01750040AE5E03E
:10007E001750050AE5E01750060AE5E01750070A83
:04008E00E5E0120097
:1000920018D08B9094902DD08B9294922AD08B94DE
:1000A200949427D08B96949624D08B98949821D0B0
:1000B2008B9A949A1ED0899A929A1BD0899C929C70
:1000C20018D01750000AE5E01750010AE5E0175072
:1000D200020AE5E01750030AE5E01750040AE5E0DA
:1000E2001750050AE5E01750060AE5E01750070A1F
:0400F200E5E0120033
:1000F6008994060E176E98DF8988020E0B6EA00E85
:100106000C6E920E0D6E0D2EFED70C2EFCD70B2EFE
:0A011600FAD7000089987FDF12007D
:1001200089848998060E176EB4DF020E0B6EA00E3E
:100130000C6E920E0D6E0D2EFED70C2EFCD70B2ED4
:08014000FAD700006BDF12008A
:10014800070EB46E0F0EC16E600ED36E9B8C806A64
:10015800816A826A896A8A6A8B6A630E926E010E64
:10016800936E3F0E946E8998899454DF81B026D09F
:100178009C0E0C6ED70E0D6E0D2EFED70C2EFCD7D6
:1001880081B01CD0156A166A81B00FD0340E0C6E7F
:10019800F10E0D6E0D2EFED70C2EFCD700000000C0
:1001A8000A0E1526000E1622EFD7050E165C02E180
:1001B800DC0E155C02E39BDF01D0AEDFD7D7FFD79B
:020000040030CA
:0D000100081F1EFF0381FF0FC00FE00F401E
:00000001FF
