:100000005AEF00F00000000000EF00F000000000D8
:0A0010000000000000000000F3D71C
:0A001C00030E0D6E0D2EFED712002C
:06002600939E8A9E120069
:04002C00938E12009D
:04003000938C12009B
:06003400939C8A9C12005F
:10003A00176A080E175C0DE216AE02D0F2DF01D085
:10004A00EDDFE7DFF0DFE5DFF0DF16361690172A7F
:0E005A00F0D7E7DFDEDFE7DFDCDFE7DF1200F5
:0E006800E1DFE2DFD7DFDBDFD5DFE0DF120014
:0E007600D7DFD1DFDADFCFDFD6DFCDDF12003C
:0A0084008A9C8A9ED3DFD0DF1200B1
:10008E00ECDF780E166ED2DF166AD0DF15C016F0D2
:06009E00CDDFEADF1200D5
:1000A4000900F5CFE6FF0006FBE10106F9E11200C5
:1000B400700ED36E0F0EC16E92948994938C938EAE
:1000C400DFDFAE0E156EE1DFA50E156EDEDFAF0EBF
:1000D400156EDBDF8984060E0B6E130E0C6EAD0EEF
:1000E4000D6E0D2EFED70C2EFCD70B2EFAD700006A
:1000F40000008994060E0B6E130E0C6EAD0E0D6E81
:100104000D2EFED70C2EFCD70B2EFAD700000000C4
:04011400E1D7FFD759
:020000040030CA
:0D000100081A10FF0181FF0FC00FE0004042
:0200000400F00A
:100000004E01001513050001020007000700010062
:100010000050011002200450100022004500FFFF94
:100020000010002200470100022004701000FFFFB2
:10003000001000010000FFFFFFFFFFFFFFFFFFFFB9
:10004000FFFFFFFFFFFFFFFFFFFFFFFFFFFFFFFFC0
:10005000FFFFFFFFFFFFFFFFFFFFFFFFFFFFFFFFB0
:10006000FFFFFFFFFFFFFFFFFFFFFFFFFFFFFFFFA0
:10007000FFFFFFFFFFFFFFFFFFFFFFFFFFFFFFFF90
:10008000FFFFFFFFFFFFFFFFFFFFFFFFFFFFFFFF80
:10009000FFFFFFFFFFFFFFFFFFFFFFFFFFFFFFFF70
:1000A000FFFFFFFFFFFFFFFFFFFFFFFFFFFFFFFF60
:1000B000FFFFFFFFFFFFFFFFFFFFFFFFFFFFFFFF50
:1000C000FFFFFFFFFFFFFFFFFFFFFFFFFFFFFFFF40
:1000D000FFFFFFFFFFFFFFFFFFFFFFFFFFFFFFFF30
:1000E000FFFFFFFFFFFFFFFFFFFFFFFFFFFFFFFF20
:1000F000FFFFFFFFFFFFFFFFFFFFFFFFFF0100000C
:00000001FF

