:10000000D2EF00F00000000000EF00F00000000060
:0A0010000000000000000000F3D71C
:10001C00FF0E196EFF0E1A6EFF0E1B6EFF0E1C6E7E
:10002C00C26A151C006E0050C116070EC012C08E9D
:04003C00C28012006C
:10004000A69C1FC0A9FFA69EA680A8CF00F0120004
:100050001650000A18E0948C060E0D6E0D2EFED779
:100060000000948E060E0D6E0D2EFED70000949E9D
:10007000060E0D6E0D2EFED70000949C060E0D6E22
:080080000D2EFED70000120056
:100088001650000A12E0949E060E0D6E0D2EFED735
:100098000000948C060E0D6E0D2EFED70000948E77
:0C00A800060E0D6E0D2EFED7000012009B
:1000B4001650000A30E0016A015007081AE31FBE17
:1000C40002D0949E01D0948E060E0D6E0D2EFED796
:1000D4000000948C060E0D6E0D2EFED70000949C2D
:1000E400060E0D6E0D2EFED700001F361F90012A3E
:1000F400E3D7948E060E0D6E0D2EFED70000948C61
:10010400060E0D6E0D2EFED70000949C060E0D6E8D
:080114000D2EFED700001200C1
:10011C00070EB46E600ED36E9B8C806A816A826A05
:10012C00896A8A6A8B6AFF0E926EFF0E936EFF0EBF
:10013C00946E9294929893806BDF0D0EC16EF19E2B
:04014C00F29E12000D
:100150000900F5CFE6FF0006FBE10106F9E1120018
:1001600077DF1DC01FF0A6DF800E1F6EA3DF1EC04D
:080170001FF0A0DF89DF12007F
:100178001F6A62DF00C01DF0010E1F6E5DDF00C048
:1001880016F00050000A05E18B8C8B8E948C948EAF
:0C01980004D0948C948E8B9C8B9E1200E3
:1001A400E6EC00F0B9DF780E176E040E186EE2DF8D
:1001B400AE0E1E6ED3DFA50E1E6ED0DFAF0E1E6E0A
:0601C400CDDFFFD7FFD7DD
:1001CC0010EE15F0010E006E010E016ECA0EF66EE9
:0E01DC00010EF76E000EF86EA8EC00F0120097
:0101CA003004
:020000040030CA
:0D000100081A11FF0181FF0FC00FE0004041
:0200000400F00A
:100000004E01001513050001020007000700010062
:100010000050011002200450100022004500FFFF94
:100020000010002200470100022004701000FFFFB2
:10003000001000010000FFFFFFFFFFFFFFFFFFFFB9
:10004000FFFFFFFFFFFFFFFFFFFFFFFFFFFFFFFFC0
:10005000FFFFFFFFFFFFFFFFFFFFFFFFFFFFFFFFB0
:10006000FFFFFFFFFFFFFFFFFFFFFFFFFFFFFFFFA0
:10007000FFFFFFFFFFFFFFFFFFFFFFFFFFFFFFFF90
:10008000FFFFFFFFFFFFFFFFFFFFFFFFFFFFFFFF80
:10009000FFFFFFFFFFFFFFFFFFFFFFFFFFFFFFFF70
:1000A000FFFFFFFFFFFFFFFFFFFFFFFFFFFFFFFF60
:1000B000FFFFFFFFFFFFFFFFFFFFFFFFFFFFFFFF50
:1000C000FFFFFFFFFFFFFFFFFFFFFFFFFFFFFFFF40
:1000D000FFFFFFFFFFFFFFFFFFFFFFFFFFFFFFFF30
:1000E000FFFFFFFFFFFFFFFFFFFFFFFFFFFFFFFF20
:1000F000FFFFFFFFFFFFFFFFFFFFFFFFFF0100000C
:00000001FF

