:10000000A4EF00F00000000000EF00F0000000008E
:0A0010000000000000000000F3D71C
:0A001C00030E0D6E0D2EFED712002C
:06002600939E8A9E120069
:04002C00938E12009D
:04003000938C12009B
:06003400939C8A9C12005F
:10003A00176A080E175C0DE216AE02D0F2DF01D085
:10004A00EDDFE7DFF0DFE5DFF0DF16361690172A7F
:0E005A00F0D7E7DFDEDFE7DFDCDFE7DF1200F5
:0E006800DEDFD8DFE1DFD6DFDDDFD4DF120020
:0E007600DADFDBDFD0DFD4DFCEDFD9DF120030
:10008400F8DF780E166ED7DF166AD5DF15C016F0C6
:06009400D2DFE8DF1200DC
:0A009A008A9C8A9EC8DFC5DF1200B1
:1000A400AE0E156EEDDFD50E156EEADF800E156E01
:1000B400E7DFA80E156EE4DF3F0E156EE1DFD30E09
:1000C400156EDEDF156ADCDF400E156ED9DF8D0E8E
:1000D400156ED6DF140E156ED3DF200E156ED0DF2D
:1000E400156ACEDFA10E156ECBDFC80E156EC8DF04
:1000F400DA0E156EC5DF120E156EC2DF810E156E97
:10010400BFDF7F0E156EBCDFD90E156EB9DFF10EA1
:10011400156EB6DFDB0E156EB3DF400E156EB0DF65
:10012400A40E156EADDFA60E156EAADFAF0E156E0A
:04013400A7DF12002F
:100138000900F5CFE6FF0006FBE10106F9E1120030
:10014800700ED36E0F0EC16E92948994938C938E19
:10015800A0DFA4DF8984060E0B6E130E0C6EAD0EA5
:100168000D6E0D2EFED70C2EFCD70B2EFAD70000E5
:1001780000008994060E0B6E130E0C6EAD0E0D6EFC
:100188000D2EFED70C2EFCD70B2EFAD70000000040
:04019800E1D7FFD7D5
:020000040030CA
:0D000100081A10FF0181FF0FC00FE0004042
:0200000400F00A
:100000004E01001513050001020007000700010062
:100010000050011002200450100022004500FFFF94
:100020000010002200470100022004701000FFFFB2
:10003000001000010000FFFFFFFFFFFFFFFFFFFFB9
:10004000FFFFFFFFFFFFFFFFFFFFFFFFFFFFFFFFC0
:10005000FFFFFFFFFFFFFFFFFFFFFFFFFFFFFFFFB0
:10006000FFFFFFFFFFFFFFFFFFFFFFFFFFFFFFFFA0
:10007000FFFFFFFFFFFFFFFFFFFFFFFFFFFFFFFF90
:10008000FFFFFFFFFFFFFFFFFFFFFFFFFFFFFFFF80
:10009000FFFFFFFFFFFFFFFFFFFFFFFFFFFFFFFF70
:1000A000FFFFFFFFFFFFFFFFFFFFFFFFFFFFFFFF60
:1000B000FFFFFFFFFFFFFFFFFFFFFFFFFFFFFFFF50
:1000C000FFFFFFFFFFFFFFFFFFFFFFFFFFFFFFFF40
:1000D000FFFFFFFFFFFFFFFFFFFFFFFFFFFFFFFF30
:1000E000FFFFFFFFFFFFFFFFFFFFFFFFFFFFFFFF20
:1000F000FFFFFFFFFFFFFFFFFFFFFFFFFF0100000C
:00000001FF

