:1000000093EF30F00000000000EF00F0000000006F
:0A0010000000000000000000F3D71C
:10001C000201E451000A18E0948C060E0D6E0D2EB0
:10002C00FED70000948E060E0D6E0D2EFED700002E
:10003C00949E060E0D6E0D2EFED70000949C060E9F
:0A004C000D6E0D2EFED7000012000D
:100056000201E451000A32E0016A015007081CE37C
:10006600030178BF02D0949E01D0948E060E0D6EC9
:100076000D2EFED70000948C060E0D6E0D2EFED7AB
:100086000000949C060E0D6E03010D2EFDD7000098
:1000960078377891012AE1D7948E060E0D6E0D2ED3
:1000A600FED70000948C060E0D6E0D2EFED70000B6
:0E00B600949C060E0D6E0D2EFED7000012005B
:1000C4000201E85103017425776FA6DFE9C278F3D2
:1000D400C0DF0301786BBDDF03017351B00F786F8C
:1000E400B8DF030177510F0804E377C375F3766B28
:1000F40019D077C302F00232029E0232029E02320B
:10010400029E0232029E02C076F302C000F0003664
:1001140000900036009000360090003600900050A9
:10012400775D756F75C378F394DF03017651100F13
:10013400786F8FDF71DFE9C278F38BDF400E030144
:06014400786F87DF120056
:10014A00086A096A100E0C6E013408360936045022
:10015A00085E0550D8A0053C095ED8B007D0045007
:10016A0008260550D8B0053C0926D8900036013635
:06017A000C2EEAD7120072
:0E018000026A016A006A086A036A000E120031
:10018E000B840BAED2EF00F0010E036E026A016A11
:0A019E00006A0A360232FF0E12005A
:0801A8000AAE029E000E1200D7
:1001B0000201E451000A12E0949E060E0D6E0D2E0F
:1001C000FED70000948C060E0D6E0D2EFED700009B
:0E01D000948E060E0D6E0D2EFED7000012004E
:1001DE000B800BAEFBEF00F0026A0AAEFF0E026E52
:0C01EE00016E006E0A360232FF0E120095
:1001FA0003016D6B050E6D5D0AE26D516B25E16EB3
:10020A00000E6C21E26E200EE66E6D2BF3D76D5157
:10021A006B25E16E000E6C21E26EE66A6D076D5188
:10022A006B256E6F000E6C216F6F0A0E046E000E46
:10023A00056E69C300F06AC301F082DF08C000F0EE
:10024A0009C001F0300E00266EC3E1FF6FC3E2FF62
:10025A0000C0E6FF0A0E046E000E056E69C300F0C8
:10026A006AC301F06DDF00C069F301C06AF3000ED2
:10027A00011802E1000E001801E102D06D07CFD784
:02028A00120060
:0A028C001D0E0D6E0D2EFED71200A0
:100296000B820BAE55EF01F0036802680168006837
:0802A6000A360232FF0E1200BD
:1002AE000C6A0E6A0250D8A470EF01F001C002F081
:1002BE0000C001F0006A0E860250D8A470EF01F063
:1002CE0001C002F0016A0E960E880250D8B482EF79
:1002DE0001F00E50035ED8A4D8A087EF01F0D8909D
:1002EE0002BE8CEF01F0003601360236032E77EF98
:1002FE0001F087EF01F0010E0C6E3BDF8FEF01F086
:10030E00020E0C6E3DDF8FEF01F0040E0C6E45DF1A
:02031E001200CB
:100320007DDEE9C278F397DE400E0301786F93DE3D
:100330006AC373F369C374F3C5DE03016E6B6D5159
:100340006E5DD8B0B3D06E516B25E96E000E6C2196
:10035000EA6EEE50000A02E1706B09D06E516B2517
:10036000E96E000E6C21EA6E200EEE5C706F6F6B12
:100370006F510408D8A092D0050E7003F3CF00F09F
:10038000F4CF01F06F510026000E01226C0E002404
:10039000F66E680E0120F76E000EF86E000E01BEBC
:1003A000FF0EF8220900F5CF71F36A51020A000E20
:1003B000D8A4010E016E6A51040A000ED8A4010EE1
:1003C000006E005001166A51060A000ED8A4010EF4
:1003D000006E0150001629E071B702D0729F01D063
:1003E000728F71B702D0729D01D0728D71B502D03B
:1003F000729B01D0728B71B502D0729901D0728953
:1004000071B302D0729701D0728771B302D0729526
:1004100001D0728571B102D0729301D0728371B133
:1004200002D0729101D0728120D071B502D0729F3A
:1004300001D0728F71B502D0729D01D0728D71B3EF
:1004400002D0729B01D0728B71B302D0729901D02D
:10045000728971B102D0729701D0728771B102D0E6
:10046000729501D072857293729172C378F3F3DD45
:100470000201E451040A010ED8A4000E016EE451F9
:10048000050A010ED8A4000E006E0150001203E010
:1004900072C378F3E0DD03016F2B6AD7786BDBDD85
:1004A0000301786BD8DD03016E2B49D76A51010F28
:1004B000736F69C374F306DE03016E6B6D516E5D7D
:1004C000D8B0BBD06E516B25E96E000E6C21EA6E80
:1004D000EE50000A02E1706B09D06E516B25E96E97
:1004E000000E6C21EA6E200EEE5C706F6F6B6F5128
:1004F0000408D8A09AD0050E7003F3CF00F0F4CF13
:1005000001F06F510026000E01226C0E0024F66EE1
:10051000680E0120F76E000EF86E000E01BEFF0E91
:10052000F8220900F5CF71F36A51020A000ED8A42F
:10053000010E016E6A51040A000ED8A4010E006E6D
:10054000005001166A51060A000ED8A4010E006E72
:100550000150001629E071BF02D0729F01D0728F46
:1005600071BF02D0729D01D0728D71BD02D0729B9D
:1005700001D0728B71BD02D0729901D0728971BBAA
:1005800002D0729701D0728771BB02D0729501D0F0
:10059000728571B902D0729301D0728371B902D0A1
:1005A000729101D0728128D071BD02D0729F01D0AA
:1005B000728F71BD02D0729D01D0728D71BB02D05D
:1005C000729B01D0728B71BB02D0729901D072897B
:1005D00071B902D0729701D0728771B902D0729549
:1005E00001D0728571B702D0729301D0728371B756
:1005F00002D0729101D0728172C378F32CDD0201B6
:10060000E451040A010ED8A4000E016EE451050A5B
:10061000010ED8A4000E006E0150001203E072C358
:1006200078F319DD03016F2B62D7786B14DD0301BA
:0E063000786B11DD03016E2B41D7BADD12008D
:10063E0003016A6B0201E66B010EE56F69C36AF393
:10064E0003016A376A916A376A916A376A916A3723
:10065E006A910201EB5303E0080E03016A270201BF
:10066E00E55303E0040E03016A270201E65303E09B
:10067E00020E03016A270201EA5302E003016A2B0C
:10068E00C6DCE9C278F3E0DC6AC378F3DDDC89DD31
:10069E00060E0C6E300E0D6E0D2EFED70C2EFCD7E8
:1006AE000000040E03016A5FB2DCE9C278F3CCDC11
:1006BE006AC378F3C9DC75DD060E0C6E300E0D6E56
:0C06CE000D2EFED70C2EFCD700001200F1
:1006DA000B1E0A1E091E081E082AD8B4092AD8B4F5
:0806EA000A2AD8B40B2A120001
:1006F2000CB0BBEF03F00CA261EF04F00E6A000E27
:100702000264D2EF03F0F00E0214D8A49DEF03F0BE
:10071200023A01380F0B02260138F00B016E003845
:100722000F0B01260038F00B006E08380F0B002665
:100732000838F00B086E0E84D89002BEB6EF03F0B4
:1007420008360036013602360E2A02BEB6EF03F034
:1007520008360036013602360E2A02BEB6EF03F024
:1007620008360036013602360E2A0E50036457EF61
:1007720004F0035E0BBC08AE5CEF04F0D880800E80
:1007820008640030000E002201220222D8A05CEF91
:1007920004F0023201320032034A61EF04F05CEFEE
:1007A20004F001C002F000C001F008C000F0086AC5
:1007B200000E0E86026409EF04F0F00E0214D8A4B3
:1007C200F1EF03F0023A01380F0B02260138F00B69
:1007D200016E00380F0B01260038F00B006E0E84FC
:1007E200D89002BEB6EF03F00036013602360E2A6A
:1007F20002BEB6EF03F00036013602360E2A02BE02
:10080200B6EF03F00036013602360E2AB6EF03F0D9
:1008120001C002F000C001F0006A000E0E960E88C0
:10082200026436EF04F0F00E0214D8A421EF04F0B3
:10083200023A01380F0B02260138F00B016E0E84CA
:10084200D89002BEB6EF03F0013602360E2A02BE7F
:10085200B6EF03F0013602360E2A02BEB6EF03F0FF
:10086200013602360E2AB6EF03F001C002F0016A29
:10087200000E0E86026466EF04F0F00E0214D8A495
:1008820045EF04F0023A0E84D89002BEB6EF03F0B0
:1008920002360E2A02BEB6EF03F002360E2A02BE5E
:1008A200B6EF03F002360E2AB6EF03F0010E0C6E1D
:1008B2006DDC69EF04F0020E0C6E75DC69EF04F07A
:1008C200040E0C6EE7DC69EF04F0080E0C6E57DCC8
:0208D200120012
:1008D4000B6A0350D8B4B0EF04F002500A6E028ED3
:1008E4008E0E035E03AEB4EF04F0036C080E035CDB
:1008F400D8A08FEF04F0036E013602C001F0026A43
:10090400080E035CD8A08FEF04F0036E0136016A71
:100914000350D8A4D89099EF04F00350D8B499EFB9
:1009240004F0D89002320132032E93EF04F00BBC92
:1009340001A0A6EF04F0D8A0A6EF04F0012AD8B4D1
:10094400022A02BEC3EF04F00AAEC8EF04F0021E8E
:10095400011E012AD8B4022AC8EF04F0026A016A0F
:10096400C8EF04F00B800BAECCEF04F0026A0AAEC1
:10097400CCEF04F0FF0E026E016E0A360232CCEFA9
:1009840004F0010E0C6E29DCCEEF04F0000E0C6EA8
:10099400CEEF04F0FF0E0C6E0150006E0250016E9B
:0209A40012003F
:1009A6000450085E0550D8A0053C095E0650D8A044
:1009B600063C0A5E0750D8A0073C0B5E0336070EBE
:1009C6000C6E0334083609360A360B36045003A07B
:1009D6000ED0085E0550D8A0053C095E0650D8A08A
:1009E600063C0A5E0750D8A0073C0B5E0DD00826D1
:1009F6000550D8B0053C09260650D8B0063C0A2654
:100A06000750D8B0073C0B2603360C2EDAD7023433
:100A1600083609360A360B36045003A00ED0085E97
:100A26000550D8A0053C095E0650D8A0063C0A5ED3
:100A36000750D8A0073C0B5E0DD008260550D8B04D
:100A4600053C09260650D8B0063C0A260750D8B001
:100A5600073C0B260236070E0C6E023408360936A2
:100A66000A360B36045002A00ED0085E0550D8A0F8
:100A7600053C095E0650D8A0063C0A5E0750D8A081
:100A8600073C0B5E0DD008260550D8B0053C09265C
:100A96000650D8B0063C0A260750D8B0073C0B26AD
:100AA60002360C2EDAD70134083609360A360B36EA
:100AB600045002A00ED0085E0550D8A0053C095E81
:100AC6000650D8A0063C0A5E0750D8A0073C0B5E2D
:100AD6000DD008260550D8B0053C09260650D8B0DA
:100AE600063C0A260750D8B0073C0B260136070EEF
:100AF6000C6E0134083609360A360B36045001A04E
:100B06000ED0085E0550D8A0053C095E0650D8A058
:100B1600063C0A5E0750D8A0073C0B5E0DD008269F
:100B26000550D8B0053C09260650D8B0063C0A2622
:100B36000750D8B0073C0B2601360C2EDAD7003406
:100B4600083609360A360B36045001A00ED0085E68
:100B56000550D8A0053C095E0650D8A0063C0A5EA2
:100B66000750D8A0073C0B5E0DD008260550D8B01C
:100B7600053C09260650D8B0063C0A260750D8B0D0
:100B8600073C0B260036070E0C6E00340836093675
:100B96000A360B36045000A00ED0085E0550D8A0C9
:100BA600053C095E0650D8A0063C0A5E0750D8A050
:100BB600073C0B5E0DD008260550D8B0053C09262B
:100BC6000650D8B0063C0A260750D8B0073C0B267C
:100BD60000360C2EDAD700B00ED004500826055089
:100BE600D8B0053C09260650D8B0063C0A26075060
:080BF600D8B0073C0B261200E9
:100BFE000050086E0150006E016A026A036A0B6AA9
:100C0E000C6A960E036E0A6A00C001F008C000F06E
:0A0C1E00086A026A57EC01F01200A8
:100C2800016A026A03016051025C02E15F51015CE2
:100C38000DE20400060E0C6E300E0D6E0D2EFED762
:0E0C48000C2EFCD70000014A022AECD7120045
:100C560030D08B8094905ED08B8294925BD08B84C4
:100C6600949458D08B86949655D08B88949852D06D
:100C76008B8A949A4FD0898A929A4CD0898C929C6E
:100C860049D08A82939246D08A84939443D08A86A6
:100C9600939640D08A8893983DD08A8A939A3AD080
:100CA6008A8C939C37D08A8E939E34D0898E929E5E
:100CB60031D003015F51010ACCE05F51020ACCE05A
:100CC6005F51030ACCE05F51040ACCE05F51050A8C
:100CD600CCE05F51060ACCE05F51070ACCE05F51D9
:100CE600080ACCE05F51090ACCE05F510A0ACCE061
:100CF6005F510B0ACCE05F510C0ACCE05F510D0A44
:100D0600CCE05F510E0ACCE05F510F0ACCE05F5198
:060D1600100ACCE01200FF
:100D1C00899894809482948494869488948A928AF4
:100D2C00928C9382938493869388938A938C938EDC
:040D3C00928E120081
:100D400030D08B9094905ED08B9294925BD08B94A9
:100D5000949458D08B96949655D08B98949852D062
:100D60008B9A949A4FD0899A929A4CD0899C929C53
:100D700049D08A92939246D08A94939443D08A968B
:100D8000939640D08A9893983DD08A9A939A3AD075
:100D90008A9C939C37D08A9E939E34D0899E929E43
:100DA00031D003015F51010ACCE05F51020ACCE06F
:100DB0005F51030ACCE05F51040ACCE05F51050AA1
:100DC000CCE05F51060ACCE05F51070ACCE05F51EE
:100DD000080ACCE05F51090ACCE05F510A0ACCE076
:100DE0005F510B0ACCE05F510C0ACCE05F510D0A59
:100DF000CCE05F510E0ACCE05F510F0ACCE05F51AE
:060E0000100ACCE0120014
:100E0600086A096A000E0762036488EF07F0025059
:100E160006180A6E075003267E0ED8A019EF07F0B3
:100E2600035ED8B08DEF07F01DEF07F0035ED8A084
:100E360092EF07F0028E068E02C00EF001C00BF094
:100E460000C00DF000500402F4CF0CF00150050272
:100E5600F4CF00F0F3CF08F00402F3500C26F45060
:100E66000822000E00220D500502F3500C26F45005
:100E76000822000E002202500402F3500826F45005
:100E8600002202500502016A000E0122F3500026DC
:100E9600F45001220D500602F3500826F4500022A9
:100EA600026A000E012202220B500602F3500026AF
:100EB600F4500122000E02220E500602F3500126C3
:100EC600F450022202BE70EF07F0083600360136F3
:100ED60002360306D8B492EF07F083EF07F0D88006
:100EE600800E08640030000E002201220222D8A0E3
:100EF60083EF07F0023201320032034A8DEF07F02A
:100F06000AAE029E000E95EF07F0010EC0EC00F04F
:100F160095EF07F0020E4BEC01F095EF07F0040E8B
:060F2600C7EC00F0120010
:100F2C0000C008F00150006E016A026A036A0B6A85
:100F3C000C6A016A026A036A960E036E0A6A00AEB4
:100F4C00AEEF07F0081E001E082AD8B4002A0A8E3D
:100F5C0000C001F008C000F0086A026A57EC01F00A
:020F6C00120071
:100F6E00830EC2165FC300F000360090003600906C
:100F7E000050C21246EC01F0C282C2A201D0FDD7CF
:100F8E00C4CF01F0006AC3500012000E011212000D
:080F9E000B6A0B86FF0E120026
:100FA6000201E451040A010ED8A4000E016EE451B8
:100FB600050A010ED8A4000E006E015000120DE0C5
:100FC60060C369F35FC36AF361C36BF362C36CF317
:100FD60063C36DF390EC01F05DD0E451020A010E9B
:100FE600D8A4000E016EE451030A010ED8A4000E27
:100FF600006E0150001214E0070E03016003F3CFE8
:1010060069F3040E69275FC36AF36A376A9161C39D
:101016006BF362C36CF363C36DF390EC01F03AD0EB
:10102600EA6B5FC300F00036009000360090005077
:10103600080F0301696F1FEC03F060C369F31FEC2F
:1010460003F0010EEA6F0301646B6351645D22E2F3
:1010560064516125E96E000E6221EA6EEECF01F061
:1010660001C069F36933699F6933699F6933699F71
:101076006933699F1FEC03F0030164516125E96E32
:10108600000E6221EA6EEECF69F31FEC03F0030156
:06109600642BDBD7120001
:10109C000301656B666B5FC367F360C368F3800E17
:1010AC006019006E800E005C02E1000E5F5D0BE2C9
:1010BC00010E656F000E666F5F510008676F60C3AD
:1010CC0068F3000E685767C369F368C36AF361C3BA
:1010DC006BF362C36CF3FDEC00F0060E636F000E55
:1010EC00646F000E006E6451005C02E163510008F5
:1010FC0019E263516125E16E64516221E26E010EC9
:10110C00635D006E000E6459016E00506125E96E3E
:10111C0001506221EA6EEECFE6FF010E635F000E16
:10112C00645BDFD761C3E1FF62C3E2FF200EE66EB2
:10113C00655166111AE0636B646B63516125E96E4E
:10114C0064516221EA6EEE50200A03E1634B642B7A
:10115C00F4D7010E635F000E645B63516125E16E91
:0C116C0064516221E26E2D0EE66E12004E
:10117800030E0C6E950E0D6E0D2EFED70C2EFCD7A1
:02118800120053
:10118A000134083609360450085E0550D8A0053CDB
:10119A00095E003601360F0E0C6E01340836093628
:1011AA00045000A006D0085E0550D8A0053C095E90
:1011BA0005D008260550D8B0053C09260036013668
:1011CA000C2EEBD700B006D0045008260550D8B034
:0811DA00053C0926000012008B
:1011E2000B6A0A6A096A00500402F4CF09F0F3CFCD
:1011F20008F001500502F4CF0BF0F3CF0AF00050D3
:101202000502F3500926F4500A22E86A0B22015023
:101212000402F3500926F4500A22E86A0B2208C09D
:1012220000F009C001F00AC002F00BC003F0120086
:10123200010E03015F6F9ADEE1DC890E046E410E3E
:10124200056E1C0E066E810E076EDCDD6AEC04F084
:02125200120088
:1012540003015E6B5AC301F0010E006E015004E0FD
:1012640000360090FF0FFBD700C05DF358C3E9FFC1
:1012740059C3EAFF0050EE14016E0152010ED8A4C6
:10128400000E006E5C51001A18E05B51000804E285
:1012940071DF70DF5B07F9D758C3E9FF59C3EAFF71
:1012A4005D51EE14016E0152010ED8A4000E006EC1
:1012B4005C51001A02E0FF0E5E6F5EC300F0120084
:1012C40004000301176B186B0101FFA105D0030192
:1012D40015511727165118230101FFA305D0030147
:1012E40013511727145118230101FFA505D0030139
:1012F4001D5117271E5118230101FFA705D0030113
:101304001B5117271C5118230101FFA905D0030104
:10131400195117271A5118230101FFAB05D00301F6
:1013240011511727125118230101FFAD05D00301F4
:101334000F511727105118230101FFAF05D00301E6
:101344000D5117270E5118230301800E270A006E32
:10135400800E1819005C02E117510F081CE2320ECE
:101364001725006E000E1821016E00C017F301C08E
:1013740018F300C05FF301C060F3050E616F030E44
:10138400626F8ADE06C3FEF207C3FFF22E0E006F01
:1013940008C301F326D017C35FF318C360F3050E27
:1013A400616F030E626F78DE0751200A03E007C302
:1013B400FEF203D0300E0201FE6F02012E0EFF6F0B
:1013C40003010851200A03E008C300F302D0300EE1
:1013D400006F0951200A03E009C301F302D0300E63
:1013E400016F0201F951040A010ED8A4000E016E26
:1013F400F951050A010ED8A4000E006E0150001226
:101404002FE00101FB51010A04E1040E0301586FAE
:1014140003D00301060E586F58C35FF3100E606FBC
:101424007D0E616F020E626F020E636FBADD58C3E8
:101434005FF3580E0301606F7A0E616F020E626FE4
:10144400020E636FAEDD58C35FF3280E0301606FB5
:10145400FE0E616F020E626F040E636FA2DD6FD029
:101464000201F951020A010ED8A4000E016EF951CD
:10147400030A010ED8A4000E006E015000122EE0E3
:101484000101FB51010A03E10301586B03D003017D
:10149400010E586F58C35FF3090E606F770E616FCA
:1014A400020E626F020E636F7CDD58C35FF30F0E92
:1014B4000301606F1E0E616F010E626F020E636F97
:1014C40070DD58C35FF30B0E0301606FFE0E616F96
:1014D400020E626F040E636F64DD31D00201F951B4
:1014E400010A2DE10101FB51010A03E10301586BDB
:1014F40003D00301010E586F58C35FF3090E606FE8
:101504001B0E616F010E626F020E636F4ADD58C3DA
:101514005FF30F0E0301606F190E616F010E626FAE
:10152400010E636F3EDD58C35FF30B0E0301606F62
:10153400FE0E616F020E626F040E636F32DD0400F3
:101544000301176B186B0101FEA108D00201D851E9
:10155400030117270201D951030118230101FEA336
:1015640008D00201DE51030117270201DF510301F4
:1015740018230101FEA508D00201DC51030117273D
:101584000201DD51030118230101FEA708D0020165
:10159400DA51030117270201DB510301182301016A
:1015A400FEA908D00201D651030117270201D75121
:1015B400030118230101FEAB08D00201D451030139
:1015C40017270201D551030118230101FEAD08D0EC
:1015D4000201D251030117270201D3510301182339
:1015E400030117C35FF318C360F3050E616F030EA5
:1015F400626F52DD07C3FEF208C3FFF209C300F3B2
:101604000AC301F30201F951040A010ED8A4000E21
:10161400016EF951050A010ED8A4000E006E0150A6
:1016240000122FE00101FB51010A04E1060E03013F
:10163400586F03D00301040E586F58C35FF3100EA4
:10164400606F0A0E616F010E626F020E636FA9DC98
:1016540058C35FF3580E0301606F0D0E616F010EE6
:10166400626F020E636F9DDC58C35FF3280E0301A3
:10167400606FFE0E616F020E626F040E636F91DC89
:101684006FD00201F951020A010ED8A4000E016EB6
:10169400F951030A010ED8A4000E006E0150001285
:1016A4002EE00101FB51010A04E1010E0301586F10
:1016B40002D00301586B58C35FF3090E606F160E16
:1016C400616F010E626F020E636F6BDC58C35FF3D0
:1016D4000F0E0301606F130E616F010E626F020E35
:1016E400636F5FDC58C35FF30B0E0301606FFE0E84
:1016F400616F020E626F040E636F53DC31D002011E
:10170400F951010A2DE10101FB51010A04E1010E25
:101714000301586F02D00301586B58C35FF3090EDD
:10172400606F100E616F010E626F020E636F39DC21
:1017340058C35FF30F0E0301606F210E616F010E3A
:10174400626F010E636F2DDC58C35FF30B0E030150
:10175400606FFE0E616F020E626F040E636F21DC18
:04176400040012006B
:1017680003015F6B00DC00C058F301C059F3800E21
:10177800030A026E800E0118025C02E10050E808BC
:1017880004E2010E0201356F02D00201356B58C325
:1017980000F059C301F096EC07F0890E046E410E73
:1017A800056E1C0E066E810E076E03EC07F06AECE0
:0417B80004F0120027
:1017BC000EEC00F0E9C278F32BEC00F0800E030184
:1017CC00786F2BEC00F058C378F32BEC00F0D8ECCE
:0417DC0000F0120007
:1017E000025006180E6E086A096A0B6A03500764F5
:1017F000E3EF0CF006500A6E068E028E03500B6E5D
:101800000750036E000E0B6433EF0CF00B50075EB5
:10181000D8B4D4EF0CF0070E0764A2EF0CF0075E0B
:1018200000C008F001C000F002C001F0026A074EDB
:10183000D4EF0CF0076477EF0CF0075E00C008F0FF
:1018400001C000F0016A074ED4EF0CF0076455EFB9
:101850000CF0075E00C008F0006A074ED4EF0CF0F1
:1018600007643CEF0CF00AC002F005C001F004C0B0
:1018700000F0086A00EF0EF0030E076447EF0CF06B
:10188000075E08380F0B086E074ED4EF0CF0D890A7
:101890000832074ED4EF0CF0D8900832074ED4EF40
:1018A0000CF0D8900832D4EF0CF0030E076466EF0A
:1018B0000CF0075E08380F0B086E0038F00B082696
:1018C00000380F0B006E074ED4EF0CF0D8900032AA
:1018D0000832074ED4EF0CF0D89000320832074E91
:1018E000D4EF0CF0D89000320832D4EF0CF0030E95
:1018F00007648EEF0CF0075E08380F0B086E003897
:10190000F00B082600380F0B006E0138F00B002694
:1019100001380F0B016E074ED4EF0CF0D890013256
:1019200000320832074ED4EF0CF0D890013200326A
:101930000832074ED4EF0CF0D89001320032083252
:10194000D4EF0CF0030E0764BFEF0CF0075E08380D
:101950000F0B086E0038F00B082600380F0B006ED6
:101960000138F00B002601380F0B016E0238F00B26
:10197000012602380F0B026E074ED4EF0CF0D89000
:101980000232013200320832074ED4EF0CF0D89008
:101990000232013200320832074ED4EF0CF0D890F8
:1019A0000232013200320832096A000E0EAEC8EF70
:1019B0000DF0081E001E011E021E082A0022012230
:1019C0000222C8EF0DF00750D8A4E9EF0CF000EFA9
:1019D0000EF0096A02C00AF0028E068E0750035C00
:1019E000076ED8B4BBEF0DF0070E076489EF0DF05A
:1019F000075E0450096E0550046E0650056E066AB7
:101A0000074EBBEF0DF0070E07645EEF0DF0075EAB
:101A10000450096E0550046E056A074EBBEF0DF0C9
:101A2000070E07643CEF0DF0075E0450096E046A70
:101A3000074EBBEF0DF0070E076423EF0DF00AC051
:101A400002F000EF0EF0030E07642EEF0DF0075EBC
:101A500009380F0B096E074EBBEF0DF0D890093215
:101A6000074EBBEF0DF0D8900932074EBBEF0DF0DB
:101A7000D8900932BBEF0DF0030E07644DEF0DF067
:101A8000075E09380F0B096E0438F00B092604387D
:101A90000F0B046E074EBBEF0DF0D89004320932E5
:101AA000074EBBEF0DF0D89004320932074EBBEF62
:101AB0000DF0D89004320932BBEF0DF0030E07642D
:101AC00075EF0DF0075E09380F0B096E0438F00B47
:101AD000092604380F0B046E0538F00B0426053870
:101AE0000F0B056E074EBBEF0DF0D8900532043298
:101AF0000932074EBBEF0DF0D8900532043209329F
:101B0000074EBBEF0DF0D890053204320932BBEF1F
:101B10000DF0030E0764A6EF0DF0075E09380F0BFA
:101B2000096E0438F00B092604380F0B046E0538D3
:101B3000F00B042605380F0B056E0638F00B052652
:101B400006380F0B066E074EBBEF0DF0D89006322D
:101B5000053204320932074EBBEF0DF0D890063241
:101B6000053204320932074EBBEF0DF0D890063231
:101B7000053204320932086A000E0EAEC8EF0DF0CD
:101B8000091E041E051E061E092A0422052206221D
:101B90000950082604500022055001220650022256
:101BA0000EBEDFEF0DF0D8A0EEEF0DF002320132E5
:101BB00000320832033EEEEF0DF0FAEF0DF0D8B030
:101BC000F4EF0DF0000E081E001E011E021E082A72
:101BD0000022012202220A7EF4EF0DF0010E0C6EAB
:101BE00079EC03F002EF0EF0020E0C6E79EC03F0CC
:101BF00002EF0EF0040E0C6E4BEC01F002EF0EF053
:061C0000000E0C6E120044
:101C0600800E006E800E03015919005C02E15851E6
:101C1600500803E3006A016ABBD0800E006E800E96
:101C26005919005C02E15851AB0805E3F40E582738
:101C3600000E5923A9D0800E010A006E800E591994
:101C4600005C02E15851480805E3FE0E5827000ED5
:101C560059239AD0800E020A006E800E5919005C34
:101C660002E15851460805E3180E5827010E59237C
:101C76008BD0800E030A006E800E5919005C02E1BB
:101C86005851340805E3290E5827010E59237CD0F4
:101C9600800E040A006E800E5919005C02E158514C
:101CA6004C0805E3360E5827010E59236DD0800ED9
:101CB600080A006E800E5919005C02E15851850829
:101CC60005E3AE0E5827010E59235ED0800E0C0A8E
:101CD600006E800E5919005C02E15851FA0805E3BE
:101CE600E40E5827010E59234FD0800E120A006EBB
:101CF600800E5919005C02E158510F0805E3120ED7
:101D06005827020E592340D0800E160A006E800E08
:101D16005919005C02E15851E60805E3880E582778
:101D2600020E592331D0800E1B0A006E800E5919FF
:101D3600005C02E15851EA0805E3E70E5827020E57
:101D4600592322D0800E210A006E800E5919005C9C
:101D560002E15851360805E3200E5827030E592391
:101D660013D0800E290A006E800E5919005C02E11C
:101D76005851040805E3480E5827030E592304D08A
:101D86005C0E5827030E592358C300F059C301F0BF
:021D9600120039
:101D98000050086E0150006E0250016E0350026E32
:101DA800036A0B6A0C6A9E0E036E0A6A02AEE9EFBA
:101DB8000EF0081E001E011E021E082AD8B4002AB2
:101DC800D8B4012AD8B4022A0A8E020E0C6E79EC15
:041DD80003F0120002
:101DDC0000C008F00B6A0C6A9E0E036E0A6A026A57
:0E1DEC00016A006A020E0C6E79EC03F0120020
:101DFA000450000A12E10550000A0FE10650000AD9
:101E0A000CE10750000A09E1FF0E006EFF0E016E99
:101E1A007F0E026EFF0E036EA8D0086A096A075089
:101E2A00D8B4A8EF0FF00350D8B4ADEF0FF00250BA
:101E3A0006180A6E028E068E0E6A02C008F001C0EB
:101E4A000CF000C00DF004500D5E0550D8A0053C02
:101E5A000C5E0650D8A0063C085E086A0C6A0D6A39
:101E6A00D8A03FEF0FF0D890023201320032083288
:101E7A00010E0E6E0750035ED8A04CEF0FF07E0ED7
:101E8A000E240326D8B0B2EF0FF052EF0FF07E0EF9
:101E9A000E240326D8A0B7EF0FF0180E0B6E0D36DE
:101EAA000C3608360036013602360E360450005E0D
:101EBA000550D8A0053C015E0650D8A0063C025E3B
:101ECA0006340E120EA06DEF0FF00D8078EF0FF0B2
:101EDA00045000260550D8B0053C01260650D8B05B
:101EEA00062802260D900B2E54EF0FF09EEF0FF0EE
:101EFA00D8900036013602360E360450005E055080
:101F0A00D8A0053C015E0650D8A0063C025E063405
:101F1A000E10010B0D26D8B00C2AD8B4082AD8A462
:101F2A009EEF0FF008320C320D32032AD8B4B2EF0A
:101F3A000FF00AAE089E0850026E0C50016E0D504A
:101F4A00006EBAEF0FF0010ECFEC07F0BAEF0FF008
:101F5A00020EC0EC00F0BAEF0FF0040E4BEC01F0E9
:0C1F6A00BAEF0FF0080EC7EC00F01200F8
:101F76000450000A12E10550000A0FE10650000A5B
:101F86000CE10750000A09E1FF0E006EFF0E016E1C
:101F9600FF0E026E7F0E036E99D00C6A07BE0C2AE6
:101FA6000D6A0B6A0A6A096A086A03500210011070
:101FB6000010D8B485D0035007180E6E0EBE0D1E45
:101FC60007AE0BD0041E051E061E071E042AD8B433
:101FD600052AD8B4062AD8B4072A03AE0BD0001EA9
:101FE600011E021E031E002AD8B4012AD8B4022AF2
:101FF600D8B4032A035007100E6E0EBE1DD0D3ECC4
:1020060004F00CBE36D00DAE5BD0001E011E021EC3
:10201600031E002AD8B4012AD8B4022AD8B4032A47
:10202600081E091E0A1E0B1E082AD8B4092AD8B48F
:102036000A2AD8B40B2A44D007AE15D003BE0DD059
:1020460003500B6E02500A6E0150096E0050086E66
:10205600036A026A016A006AD6D7036A026A016ADB
:10206600006A002A000C031E021E011E001E0C8EB2
:10207600C6D7082AD8B4092AD8B40A2AD8B40B2A4B
:102086000450085CD8A4BFD70550095CD8A4BBD7B8
:1020960006500A5CD8A4B7D707500B5CD8A4B3D7B0
:1020A6000B6A0A6A096A086A002AD8B4012AD8B4EF
:1020B600022AD8B4032A03AEA6D70E6A0E88FF0CEE
:0E20C6000E6A0CA002D06DEC03F0000F1200A9
:1020D4000A6A0350D8A40A800750D8A40A820A5076
:1020E400D8B4CDEF10F0030AD8B486EF10F00AB0DC
:1020F40081EF10F006AECBEF10F0C9EF10F002AE96
:10210400C9EF10F0CBEF10F00250800B0A6E029E64
:102114000650800B069E0A18D8B497EF10F00A50A8
:10212400D8B4C9EF10F0CBEF10F00750035CD8B46B
:10213400A1EF10F0D8A0BDEF10F0C3EF10F00650DF
:10214400025CD8B4ABEF10F0D8A0BDEF10F0C3EF31
:1021540010F00550015CD8B4B5EF10F0D8A0BDEF75
:1021640010F0C3EF10F00450005CD8B4CDEF10F0C1
:10217400D8B0C3EF10F00A52D8B4CBEF10F0C9EFC7
:1021840010F00A52D8B4C9EF10F0CBEF10F0D88099
:0E2194001200D8901200D880D88412001200D9
:1021A2008EEC06F058C35FF32BEC06F089880A0E1A
:1021B20003015F6F000E606F14EC06F089988EECDD
:0421C20006F0120011
:1021C600220E0C6E086A096A0A6A0B6A0C06D8B4F3
:1021D6001FD0D8900B320A3209320832033202324B
:1021E60001320032D8A0F2D70C06D8B409D0045078
:1021F60008260550092206500A2207500B22EAD764
:10220600045008260550092206500A2207500B22C0
:022216001200B4
:102218008EEC06F0899858C35FF3A0EC06F00A0E1E
:1022280003015F6F000E606F14EC06F08EEC06F091
:02223800120092
:10223A00A00E03013E6F0F0E3F6F000E406F416FFD
:10224A00A00E006E0F0E016E000E026E000E036EDF
:10225A003CC304F03DC305F0000E066E076EAEDF08
:10226A0000C03EF301C03FF302C040F303C041F394
:10227A00000E035C08E1000E025C05E1020E015C3F
:10228A0002E1940E005C01E231D0940E3E5F020E30
:10229A003F5B000E405B415B050E006E005007E09D
:1022AA00413340333F333E33419FFF0FF8D73EC39C
:1022BA0000F03FC301F040C302F041C303F0010E36
:1022CA003E5F000E3F5B405B415B00500110021015
:1022DA0003100CE0000000000000000000000000F5
:0E22EA0000000000000000000000E1D712001C
:1022F8000201E451010806E2AF0E0301586FDEEC5B
:102308000BF00ED0E451010A0BE1010EEB6FEA6B02
:102318000301696B1FEC03F00301696B1FEC03F009
:022328001200A1
:10232A000101EB51000A4AE103013CA104D0010E6C
:10233A00586F32DF03D0010E586F69DF3CA304D017
:10234A00020E586F29DF03D0020E586F60DF3CA5DA
:10235A0004D0030E586F20DF03D0030E586F57DFE7
:10236A003CA704D0040E586F17DF03D0040E586F31
:10237A004EDF3CA904D0050E586F0EDF03D0050EC0
:10238A00586F45DF3CAB04D0060E586F05DF03D00B
:10239A00060E586F3CDF3CAD04D0070E586FFCDECA
:1023AA0003D0070E586F33DF3CAF04D0080E586FC6
:1023BA00F3DE03D0080E586F2ADF49D003013CA18F
:1023CA0004D0010E586F23DF03D0010E586FE4DEEC
:1023DA003CA304D0020E586F1ADF03D0020E586FC6
:1023EA00DBDE3CA504D0030E586F11DF03D0030EC9
:1023FA00586FD2DE3CA704D0040E586F08DF03D012
:10240A00040E586FC9DE3CA904D0050E586FFFDED2
:10241A0003D0050E586FC0DE3CAB04D0060E586FD1
:10242A00F6DE03D0060E586FB7DE3CAD04D0070EB9
:10243A00586FEDDE03D0070E586FAEDE3CAF04D006
:10244A00080E586FE4DE03D0080E586FA5DE12009E
:10245A0003013C5304E0100E586F9EDE03D0100EA9
:06246A00586FD5DE1200E0
:1024700003013CA104D0090E586F93DE03D0090E6E
:10248000586FCADE3CA304D00A0E586F8ADE03D010
:102490000A0E586FC1DE3CA504D00B0E586F81DECA
:1024A00003D00B0E586FB8DE3CA704D00C0E586F4B
:1024B00078DE03D00C0E586FAFDE3CA904D00D0EB1
:1024C000586F6FDE03D00D0E586FA6DE3CAB04D004
:1024D0000E0E586F66DE03D00E0E586F9DDE3CADBB
:1024E00004D00F0E586F5DDE03D00F0E586F94DED0
:0224F0001200D8
:1024F200000E0301446F000E456F480E466F850EB5
:10250200476F04000201B951000A010ED8A4000E5F
:10251200016EB851010A010ED8A4000E006E0050DF
:102522000116800E03013D19006E800E005C02E16F
:102532000A0E3C5D000ED8B0010E006E015000166E
:10254200D8B4AED002013951000AD8A4A5D0F951AD
:10255200040A010ED8A4000E016EF951050A010EFB
:10256200D8A4000E006E015000122DE00101EC51C2
:10257200010A0EE1040E03015F6F100E606FC30EBD
:10258200616F020E626F080E636FD3EC07F00DD01D
:10259200040E03015F6F100E606FBA0E616F020EC0
:1025A200626F080E636FD3EC07F0060E03015F6FD4
:1025B200100E606F800E616F020E626F080E636F05
:1025C200D3EC07F069D00201F951020A010ED8A436
:1025D200000E016EF951030A010ED8A4000E006E1E
:1025E200015000122BE00101EC51010A0DE103013F
:1025F2005F6B090E606F560E616F020E626F080EFE
:10260200636FD3EC07F00CD003015F6B090E606FB0
:102612004D0E616F020E626F080E636FD3EC07F00E
:10262200010E03015F6F090E606F440E616F020EAF
:10263200626F080E636FD3EC07F02ED00201F951DE
:10264200010A2AE10101EC51010A0DE103015F6B6C
:10265200090E606F6F0E616F020E626F070E636F7D
:10266200D3EC07F00CD003015F6B090E606F670EAD
:10267200616F020E626F070E636FD3EC07F0010EFB
:1026820003015F6F090E606F5F0E616F020E626F72
:10269200070E636FD3EC07F0010E0201396F08D009
:1026A20002013951010A02E162EC09F00201396BBF
:1026B200040003013D5102018B1903E18A51030118
:1026C2003C19D8B480D33CC38AF23DC38BF20101DA
:1026D200EC51000A49E1800E03013D19006E800EA3
:1026E200005C02E1640E3C5D1DE3050E3C25006EBC
:1026F200000E3D21016E00C03CF301C03DF300C05D
:102702005FF301C060F3050E616F030E626F4EEC62
:1027120008F007C3FEF208C3FFF209C300F3570E25
:10272200016F21D03CC35FF33DC360F3050E616FBF
:10273200030E626F4EEC08F00951200A03E009C350
:10274200FEF203D0300E0201FE6F02012E0EFF6F69
:1027520003010A51200A03E00AC300F302D0300E3B
:10276200006F570E016F30D00301800E3D19006ECD
:10277200800E030A005C02E1E70E3C5D13E23CC3FB
:102782005FF33DC360F3050E616F030E626F4EECA3
:1027920008F008C3FEF209C3FFF20AC300F3570EA2
:1027A200016F12D03CC35FF33DC360F3050E616F4E
:1027B200030E626F4EEC08F007C3FEF208C3FFF28D
:1027C20009C300F30AC301F30201F951040A010E1D
:1027D200D8A4000E016EF951050A010ED8A4000E0C
:1027E200006E015000120DE003015F6B400E606F3E
:1027F200FE0E616F020E626F040E636FD3EC07F080
:1028020010D00201F951000A0CE003015F6B040EC3
:10281200606FFE0E616F020E626F040E636FD3EC87
:1028220007F0040002013951010AD8A4CCD20101F7
:10283200FF51000A010ED8A4000E016EFE51000ADB
:10284200010ED8A4000E006E0150001604E03EC333
:10285200FCF23FC3FDF2FCC200F0FDC201F096ECB7
:1028620007F000C050F301C051F302C052F303C09D
:1028720053F3000E046E000E056E480E066E850EB2
:10288200076E50C300F051C301F052C302F053C3AC
:1028920003F0FDEC0EF000C04CF301C04DF302C09A
:1028A2004EF303C04FF350C304F051C305F052C3BB
:1028B20006F053C307F0000E006E000E016E480EC4
:1028C200026E850E036EFDEC0EF04CC304F04DC398
:1028D20005F04EC306F04FC307F0F0EC0BF000C05A
:1028E2004CF301C04DF302C04EF303C04FF30CC3CF
:1028F20000F0EEEC0EF04CC304F04DC305F04EC3F5
:1029020006F04FC307F003EC07F0000E046E000E52
:10291200056E200E066E820E076EFDEC0EF01F0E87
:10292200046E850E056E6B0E066E7B0E076E03EC53
:1029320007F0000E046E000E056E000E066E7F0E8E
:10294200076EF0EC0BF000C004F001C005F002C00D
:1029520006F003C007F0000E006E000E016E000EBE
:10296200026E7F0E036EFDEC0EF000C054F301C048
:1029720055F302C056F303C057F354C344F355C38F
:1029820045F356C346F357C347F33EC300F03FC374
:1029920001F096EC07F000C050F301C051F302C001
:1029A20052F303C053F3000E046E000E056E480E80
:1029B200066E850E076E50C300F051C301F052C37C
:1029C20002F053C303F0FDEC0EF0000E046E000E95
:1029D200056E000E066E800E076EF0EC0BF000C066
:1029E2004CF301C04DF302C04EF303C04FF350C38A
:1029F20004F051C305F052C306F053C307F0000EB2
:102A0200006E000E016E480E026E850E036EFDEC26
:102A12000EF04CC304F04DC305F04EC306F04FC395
:102A220007F0F0EC0BF000C004F001C005F002C0AA
:102A320006F003C007F0000E006E000E016E000EDD
:102A4200026E810E036EFDEC0EF000C048F301C071
:102A520049F302C04AF303C04BF3000E046E000EAA
:102A6200056E000E066E7F0E076E54C300F055C34E
:102A720001F056C302F057C303F06AEC10F0000EE7
:102A8200D8B0010E006E005209E0000E0301446F3F
:102A9200000E456F000E466F7F0E476F000E046EEC
:102AA200000E056E000E066E7F0E076E48C300F024
:102AB20049C301F04AC302F04BC303F06AEC10F0C1
:102AC200000ED8B0010E006E005209E00301000EA4
:102AD200486F000E496F000E4A6F7F0E4B6F3CC36A
:102AE20000F03DC301F096EC07F044C304F045C387
:102AF20005F046C306F047C307F003EC07F048C3EE
:102B020004F049C305F04AC306F04BC307F003ECD7
:102B120007F06AEC04F000C040F301C041F344C383
:102B220000F045C301F046C302F047C303F048C3B7
:102B320004F049C305F04AC306F04BC307F003ECA7
:102B420007F0000E046E000E056E480E066E850E2E
:102B5200076E03EC07F06AEC04F000C042F301C018
:102B620043F3800E0118026E800E025C02E1640ED5
:102B7200005C05E30301630E426F000E436F010127
:102B8200EC51000A49E1800E03014119006E800EEA
:102B9200005C02E1640E405D1DE3050E4025006EFF
:102BA200000E4121016E00C040F301C041F300C09C
:102BB2005FF301C060F3050E616F030E626F4EECAE
:102BC20008F007C3FEF208C3FFF209C300F3570E71
:102BD200016F21D040C35FF341C360F3050E616F03
:102BE200030E626F4EEC08F00951200A03E009C39C
:102BF200FEF203D0300E0201FE6F02012E0EFF6FB5
:102C020003010A51200A03E00AC300F302D0300E86
:102C1200006F570E016F30D00301800E4119006E14
:102C2200800E030A005C02E1E70E405D13E240C33E
:102C32005FF341C360F3050E616F030E626F4EECEA
:102C420008F008C3FEF209C3FFF20AC300F3570EED
:102C5200016F12D040C35FF341C360F3050E616F91
:102C6200030E626F4EEC08F007C3FEF208C3FFF2D8
:102C720009C300F30AC301F30201F951040A010E68
:102C8200D8A4000E016EF951050A010ED8A4000E57
:102C9200006E015000120EE0040E03015F6F400E41
:102CA200606FFE0E616F020E626F040E636FD3ECF3
:102CB20007F02DD00201F951020A010ED8A4000E2C
:102CC200016EF951030A010ED8A4000E006E0150E4
:102CD20000120DE003015F6B0D0E606FFE0E616F5F
:102CE200020E626F040E636FD3EC07F010D0020184
:102CF200F951000A0CE003015F6B0C0E606FFE0ECF
:102D0200616F020E626F040E636FD3EC07F042C371
:102D12005FF343C360F3050E0301616F030E626F3D
:102D22004EEC08F009C3FEF20AC3FFF20201F951A8
:102D3200040A010ED8A4000E016EF951050A010E13
:102D4200D8A4000E006E015000120EE0060E030120
:102D52005F6F4C0E606FFE0E616F020E626F020EAD
:102D6200636FD3EC07F02FD00201F951020A010E72
:102D7200D8A4000E016EF951030A010ED8A4000E68
:102D8200006E015000120EE0010E03015F6F0E0E85
:102D9200606FFE0E616F020E626F020E636FD3EC04
:102DA20007F011D00201F951010A0DE1010E0301F0
:102DB2005F6F0D0E606FFE0E616F020E626F020E8C
:0A2DC200636FD3EC07F00400120069
:102DCC00040003013D510101A71903E1A6510301C0
:102DDC003C19D8B4A7D003013CC3A6F13DC3A7F15D
:102DEC00000E3D1902E1000E3C193AE10201F951C5
:102DFC00040A010ED8A4000E016EF951050A010E49
:102E0C00D8A4000E006E015000120EE0020E030159
:102E1C005F6F400E606F3F0E616F020E626F040EAB
:102E2C00636FD3EC07F018D00201F951000A0EE0E1
:102E3C00010E03015F6F040E606F3A0E616F020E9C
:102E4C00626F040E636FD3EC07F006D00201F951E8
:102E5C00000A02E18B8C8B8E0101A66BA76B62D0F2
:102E6C003CC35FF33DC360F3050E0301616F030EBA
:102E7C00626F4EEC08F008C3FEF22E0E0201FF6FDB
:102E8C0009C300F30AC301F3F951040A010ED8A4D3
:102E9C00000E016EF951050A010ED8A4000E006E49
:102EAC00015000120EE0020E03015F6F400E606FC6
:102EBC00FE0E616F020E626F040E636FD3EC07F0AF
:102ECC0031D00201F951000A0EE0010E03015F6FCF
:102EDC00040E606FFE0E616F020E626F040E636F64
:102EEC00D3EC07F01FD00201F951000A1BE1800E50
:102EFC00006E800E03013D19005C02E13C51960806
:102F0C0003E38B9C8B8E0ED0800E006E800E3D19D1
:102F1C00005C02E13C51FA0803E38B9C819E02D0D9
:082F2C008B8C8B9E0400120047
:102F34000400B4EC0BF000C03CF301C03DF3000E00
:102F440001BEFF0E03013E6F3F6F19EC09F000C094
:102F540040F301C041F3000E01BEFF0E0301426FB6
:102F6400436F0101A551010A1BE13CC300F03DC3BD
:102F740001F0030E046E000E056EF1EC08F000C0C3
:102F840058F301C059F303EC0EF096EC07F000C0BF
:102F940044F301C045F302C046F303C047F31AD01B
:102FA4003CC300F03DC301F03EC302F03FC303F055
:102FB400030E046E000E056E066E076EE3EC10F051
:102FC400CCEC0EF000C044F301C045F302C046F35C
:102FD40003C047F30301800E4319006E800E3F19AE
:102FE400005C08E13E51425D05E13D51415D02E175
:102FF4003C51405D08E3E70E3C6F030E3D6F000E4D
:103004003E6F3F6F45D040513C25006E41513D21FC
:10301400016E42513E21026E43513F21036E640E04
:10302400046E000E056E066E076EE3EC10F03CC3F2
:1030340004F03DC305F03EC306F03FC307F0405122
:10304400045E4151055A4251065A4351075ABBEC9A
:103054000FF000C03CF301C03DF302C03EF303C0D7
:103064003FF3800E046E800E0318045C08E10250E6
:10307400000805E10150030802E10050E70808E2F6
:10308400E70E03013C6F030E3D6F000E3E6F3F6F72
:10309400EDC100F0EEEC0EF044C304F045C305F0BE
:1030A40046C306F047C307F003EC07F0000E046EB6
:1030B400000E056E7A0E066E880E076EFDEC0EF09D
:1030C40000C044F301C045F302C046F303C047F314
:1030D400F40E046EFD0E056E340E066E7F0E076E42
:1030E400FDEC0EF000C044F301C045F302C046F30A
:1030F40003C047F30101EC51010A25E144C300F088
:1031040045C301F046C302F047C303F044C304F0CF
:1031140045C305F046C306F047C307F003EC07F0C8
:10312400000E046E000E056E480E066E840E076EC9
:10313400FDEC0EF000C044F301C045F302C046F3B9
:1031440003C047F324D044C300F045C301F046C391
:1031540002F047C303F044C304F045C305F046C37B
:1031640006F047C307F003EC07F0000E046E000EF0
:10317400056E200E066E810E076EFDEC0EF000C08B
:1031840044F301C045F302C046F303C047F344C30C
:1031940000F045C301F046C302F047C303F0000E3C
:1031A400046E000E056E000E066E7E0E076EF0ECC9
:1031B4000BF000C044F301C045F302C046F303C062
:1031C40047F36AEC04F000C0F5F201C0F6F2800E99
:1031D40003013F19006E800E005C08E1000E3E5DA5
:1031E40005E1000E3D5D02E1640E3C5D06E2E70E82
:1031F4000201FA6F030EFB6F04D03CC3FAF23DC325
:04320400FBF21200C7
:103208000450000A08E10550000A05E1FF0E006EAF
:103218007F0E016E58D00D6A096A086A01500010C5
:10322800D8B4000C015005180A6E0ABE0D1E0B6AB0
:1032380005AE05D0041E051E042AD8B4052A01AE21
:1032480005D0001E011E002AD8B4012A015005101D
:103258000A6E0ABE10D0C5EC08F00BB020D00DAE37
:10326800000C001E011E002AD8B4012A081E091EDF
:10327800082AD8B4092A000C05AE0DD001BE07D023
:103288000150096E0050086E016A006AE8D7016AA9
:10329800006A002A000C011E001E0B2ADDD7082A2E
:1032A800D8B4092A0450085CD8A4D9D70550095CB9
:1032B800D8A4D5D7096A086A002AD8B4012A01AE69
:0832C800CED70000FF0C12003C
:1032D000810E0301586F0F0E596F5A6B190E5B6FF9
:1032E0005C6B2AEC09F000C03CF3810E586F0F0EA6
:1032F000596F010E5A6F190E5B6F5C6B2AEC09F067
:1033000000503C13810E586F0F0E596F020E5A6F0A
:10331000190E5B6F5C6B2AEC09F03C51001203E064
:08332000010E0101FC6F120017
:103328000101FF6BFE6B03013C6B95EC11F0FEC1D4
:103338003CF338EC12F0EEC23CF3EFC23DF31DEC67
:0433480011F012006E
:10334C00A6A202D00000FCD7A69C34C3A9FF35C3AB
:10335C00A8FFA69EA684F2CF00F0F29E550EA76E93
:10336C00AA0EA76EA68200BE02D0F29E01D0F28EEB
:0E337C00A694A1B802D00000FCD7A1981200C0
:10338A0003013A6B3B6B640E0201F75D0301356F73
:10339A00000E0201F8590301366F0201F56BF66B54
:1033AA0004000101FD51000A010ED8A4000E016EAD
:1033BA0002010051010A010ED8A4000E006E01504C
:1033CA00001631E0B2DD800E0201F619006E800EA1
:1033DA00005C02E10A0EF55D25E3FFC13CF395ECC2
:1033EA0011F0FEC13CF338EC12F0FBC13CF32DECBA
:1033FA0012F0010E0101FD6F7CEC11F0F8C100F032
:10340A00EEEC0EF001C204F002C205F003C206F0AF
:10341A0004C207F003EC07F06AEC04F000C0F9F10B
:10342A0001C0FAF14AD3780E0301376F346B375172
:10343A00345D4DE281B202D0068001D0069081B49B
:10344A0002D0D88001D0D89006B003D002E206920A
:10345A0001D0068281B002D0D88001D0D89005E38D
:10346A000201F4A102D0068001D0069006B204D06F
:10347A0006B002D0D89001D0D88007E324DF01013A
:10348A00FC51010A02E1FC6B18D34FDD800E0301E7
:10349A003B19006E800E0201F619005C03E1F5513A
:1034AA0003013A5D08E2F5C23AF3F6C23BF3FAC207
:1034BA0038F3FBC239F3100E0C6E940E0D6E030135
:1034CA000D2EFDD70C2EFBD70000342BB0D70400ED
:1034DA00800E3B19006E800E005C02E1640E3A5DBC
:1034EA0019E3050E3A25006E000E3B21016E0A0E05
:1034FA00046E000E056E83DE00C03AF301C03BF392
:10350A000A0E046E000E056EF1EC08F000C03AF3E4
:10351A0001C03BF33AC333F23BC334F2800E0301DA
:10352A003B19006E800E005C02E10A0E3A5D02E26F
:10353A00386B396B38C33CF339C33DF342DC800E38
:10354A0002013419016E800E015C02E10A0E335D3C
:10355A00000ED8B0010E016E0101F8510008010EEB
:10356A00D8B0000E006E015000161BE0FD51000A93
:10357A0004E1010EFD6F7CEC11F0F8C100F0EEECF5
:10358A000EF001C204F002C205F003C206F004C242
:10359A0007F003EC07F06AEC04F000C0F9F101C08F
:1035AA00FAF1800E03013919006E800E0201F81932
:1035BA00005C03E1F7510301385D000ED8B0010E3B
:1035CA00006E005002013215056E800E3819036E26
:1035DA00800E03013919035C03E138510201375D9A
:1035EA000201010ED8B0000E036E37510301385D97
:1035FA00016E0201385103013959026E800E3619E3
:10360A00006E800E0218005C02E10150355D010E69
:10361A00D8B0000E006E00500314046E800E3919E3
:10362A00036E800E02013819035C03E1375103016E
:10363A00385D0301010ED8B0000E036E3851020145
:10364A00375D016E0301395102013859026E800E4D
:10365A0003013619006E800E0218005C02E1015067
:10366A00355D010ED8B0000E006E035000160050F2
:10367A000410016E02013851030A02E1E70E3719FC
:10368A00010ED8A4000E006E01500012055000165B
:10369A0002E0010E366F81B202D0068001D0069098
:1036AA0081B402D0D88001D0D89006B003D002E20B
:1036BA00069201D0068281B002D0D88001D0D8907B
:1036CA0005E30201F4A102D0068001D0069006B2F9
:1036DA0004D006B002D0D89001D0D88007E3F3DD39
:1036EA000101FC51010A02E1FC6BE7D133C23CF350
:1036FA0034C23DF338C33EF339C33FF379EC12F0D9
:10370A0081B202D0068001D0069081B402D0D8805E
:10371A0001D0D89006B003D002E2069201D0068208
:10372A0081B002D0D88001D0D89005E30201F4A17B
:10373A0002D0068001D0069006B204D006B002D0AC
:10374A00D89001D0D88007E3BEDD0101FC51010AFF
:10375A0002E1FC6BB2D1040002013551010AD8A47E
:10376A00ACD1F951040A010ED8A4000E016EF95128
:10377A00050A010ED8A4000E006E01500012D8B43A
:10378A00CAD0020E03015F6F100E606F0E0E616FDA
:10379A00020E626F080E636FD3EC07F0030E0B6E16
:1037AA00080E0C6E770E0D6E0D2EFED70C2EFCD762
:1037BA000B2EFAD7020E03015F6F100E606F050E13
:1037CA00616F020E626F080E636FD3EC07F00B0E87
:1037DA000B6E260E0C6E5D0E0D6E0D2EFED70C2E88
:1037EA00FCD70B2EFAD7000000000400020E0301DA
:1037FA005F6F100E606F290E616F020E626F080E06
:10380A00636FD3EC07F0070E0B6E170E0C6E6A0E81
:10381A000D6E0D2EFED70C2EFCD70B2EFAD70000FC
:10382A000400020E03015F6F100E606F200E616FBD
:10383A00020E626F080E636FD3EC07F00B0E0B6E6D
:10384A00260E0C6E5D0E0D6E0D2EFED70C2EFCD7BD
:10385A000B2EFAD7000000000400020E03015F6F6E
:10386A00100E606F170E616F020E626F080E636FA3
:10387A00D3EC07F0070E0B6E170E0C6E6A0E0D6E68
:10388A000D2EFED70C2EFCD70B2EFAD70000040003
:10389A00020E03015F6F100E606FEF0E616F010E73
:1038AA00626F080E636FD3EC07F00B0E0B6E260ED9
:1038BA000C6E5D0E0D6E0D2EFED70C2EFCD70B2E48
:1038CA00FAD7000000000400020E03015F6F100E19
:1038DA00606FC30E616F010E626F080E636FD3ECE7
:1038EA0007F0030E0B6E080E0C6E770E0D6E0D2E82
:1038FA00FED70C2EFCD70B2EFAD7020E03015F6FF0
:10390A00100E606FBA0E616F010E626F080E636F60
:10391A00D3EC07F0C6D00201F951000AD8B4C1D0DD
:10392A00010E03015F6F606BB10E616F010E626F72
:10393A00080E636FD3EC07F0030E0B6E080E0C6EC5
:10394A00770E0D6E0D2EFED70C2EFCD70B2EFAD746
:10395A00010E03015F6F606BDE0E616F010E626F15
:10396A00080E636FD3EC07F00B0E0B6E260E0C6E6F
:10397A005D0E0D6E0D2EFED70C2EFCD70B2EFAD730
:10398A00000000000400010E03015F6F606BD50E9A
:10399A00616F010E626F080E636FD3EC07F0070EBA
:1039AA000B6E170E0C6E6A0E0D6E0D2EFED70C2EB8
:1039BA00FCD70B2EFAD700000400010E03015F6F3B
:1039CA00606BCC0E616F010E626F080E636FD3ECF1
:1039DA0007F00B0E0B6E260E0C6E5D0E0D6E0D2E85
:1039EA00FED70C2EFCD70B2EFAD7000000000400DD
:1039FA00010E03015F6F606B9C0E616F010E626FB7
:103A0A00080E636FD3EC07F0070E0B6E170E0C6EE1
:103A1A006A0E0D6E0D2EFED70C2EFCD70B2EFAD782
:103A2A0000000400010E03015F6F606B930E616F6B
:103A3A00010E626F080E636FD3EC07F00B0E0B6E6C
:103A4A00260E0C6E5D0E0D6E0D2EFED70C2EFCD7BB
:103A5A000B2EFAD7000000000400010E03015F6F6D
:103A6A00606B8A0E616F010E626F080E636FD3EC92
:103A7A0007F0030E0B6E080E0C6E770E0D6E0D2EF0
:103A8A00FED70C2EFCD70B2EFAD7010E03015F6F5F
:103A9A00606BA80E616F010E626F080E636FD3EC44
:103AAA0007F00400100E0101A66F270EA76F38C396
:0C3ABA003CF339C33DF3E6EC16F01200BB
:103AC60030DC010E0101FB6F010E03013C6F2DEC92
:103AD60012F0FF0E346F356B36DCFE0E0301346FC9
:103AE600356B31DCFD0E0301346F010E356F2BDCB7
:103AF600FC0E0301346F356B26DCFB0E0301346FBD
:103B0600356B21DC62EC09F00201396B8C6B010E1E
:103B1600936FFA6BFB6BF56BF66B376B386BF95182
:103B2600040A010ED8A4000E016EF951050A010E11
:103B3600D8A4000E006E015000122BE0020E030105
:103B46005F6F100E606FAF0E616F020E626F080E30
:103B5600636FD3EC07F004000D0E0B6E2D0E0C6E8A
:103B6600D70E0D6E0D2EFED70C2EFCD70B2EFAD7C8
:103B760000000000020E03015F6F100E606FA60EBC
:103B8600616F020E626F080E636FD3EC07F00400DC
:103B96002FD00201F951000A29E0010E03015F6FDF
:103BA600606B9D0E616F020E626F080E636FD3EC41
:103BB60007F004000D0E0B6E2D0E0C6ED70E0D6E5B
:103BC6000D2EFED70C2EFCD70B2EFAD700000000C8
:103BD600010E03015F6F606B940E616F020E626FE0
:103BE600080E636FD3EC07F0040002D08B8C8B8E2B
:103BF600100E0101A66F270EA76F100E02018A6F25
:0A3C0600270E8B6FC5EC19F01200B9
:103C10009AEC17F00101EE51640A11E0EE2B800ED0
:103C20000201F319006E800EF619005C02E1F551F5
:103C3000F25D04E2F5C2F2F2F6C2F3F20FD0010136
:103C4000EE6BF2C23CF3F3C23DF3FAC23EF3FBC2A9
:103C50003FF379EC12F00201F26BF36B0201800E7C
:103C6000F619026E800EF119025C02E1F051F55D69
:103C7000010ED8B0000E026E800EED19016E800E9E
:103C8000F619015C02E1F551EC5D010ED8B0000EB1
:103C9000016E800E006E800EED19005C02E1EC51A9
:103CA0000008010ED8B0000E006E01500016025040
:103CB000001253E004009AEC17F00101EE51640A7F
:103CC00011E0EE2B800E0201F319006E800EF61942
:103CD000005C02E1F551F25D04E2F5C2F2F2F6C2D7
:103CE000F3F20FD00101EE6BF2C23CF3F3C23DF3ED
:103CF000FAC23EF3FBC23FF379EC12F00201F26B21
:103D0000F36B810E0301586F0F0E596F5A6B050E3E
:103D10005B6F010E5C6F2AEC09F0005203E0010EAC
:103D20000101E86F0101E851010A010ED8A4000E5B
:103D30000301336F810E586F0F0E596F5A6B050ECA
:103D40005B6F5C6B2AEC09F03351001605E0BBDEBB
:0C3D50000201FA6BFB6B01D081D712005E
:103D5C00030E0301326F0101FE6B03013C6B38EC67
:103D6C0012F032C3E7F14EDF000E0201FB1902E143
:103D7C00000EFA1901E193D0140E046E000E056EBC
:103D8C00FAC200F0FBC201F004EC19F00050020181
:103D9C00FA250301306F01500201FB210301316F41
:103DAC0032C32FF303012F511F08D8A074D02F5109
:103DBC000101EA03F3CF3CF338EC12F023DF000EE1
:103DCC000201FB1902E1000EFA1901E168D0800E24
:103DDC00FB19006E800E03013119005C03E13051B8
:103DEC000201FA5D56E2140E046E000E056EFAC264
:103DFC0000F0FBC201F004EC19F000500201FA25AE
:103E0C000301306F01500201FB210301316F2F516F
:103E1C000101EA03F3CFFEF132C3E7F1800E020198
:103E2C00FB19006E800E005C02E1780EFA5D01E277
:103E3C0032D0030132512F25026E02C02FF3010143
:103E4C00E951000A010ED8A4000E016E0250090AB5
:103E5C00010ED8A4000E006E0150001604E0080EEE
:103E6C0003012F6F15D00101E951000A010ED8A4EE
:103E7C00000E016E03012F51110A010ED8A4000E81
:103E8C00006E0150001604E0100E2F6F040E326FFE
:103E9C0001D001D087D7FEC13CF338EC12F01200F0
:103EAC00030E03012E6F2A6B2EC34DF1030E2B6FE5
:103EBC00140E046E000E056EFAC200F0FBC201F087
:103ECC0004EC19F000500201FA2503012C6F01508B
:103EDC000201FB2103012D6F296B030129511F08DE
:103EEC00D8A078D029510201CD03F3CF3CF395EC47
:103EFC0011F02EDF87DE000E0201FB1902E1000E2D
:103F0C00FA1901E17DD0800EFB19006E800E0301C1
:103F1C002D19005C03E12C510201FA5D59E2140EDB
:103F2C00046E000E056EFAC200F0FBC201F004EC48
:103F3C0019F000500201FA2503012C6F0150020107
:103F4C00FB2103012D6F29510201CD03F3CFFFF1AA
:103F5C00FEC12AF32EC34DF1E7C12BF3800EFB19E2
:103F6C00006E800E005C02E1780EFA5D01E232D048
:103F7C0003012E512925026E02C029F301014C5177
:103F8C00000A010ED8A4000E016E0250090A010E9F
:103F9C00D8A4000E006E0150001604E0080E0301B8
:103FAC00296F15D001014C51000A010ED8A4000E46
:103FBC00016E03012951110A010ED8A4000E006EE6
:103FCC000150001604E0100E296F040E2E6F01D064
:103FDC0001D083D72AC3FEF1FFC13CF395EC11F05D
:103FEC00FEC13CF338EC12F02BC3E7F1340E0C6E2F
:103FFC00F10E0D6E0D2EFED70C2EFCD7000000001E
:02400C001200A0
:10400E0001014D510201CD03F3CF00F000C029F3A1
:10401E0000500101FF25046E04C02BF3050E026E45
:10402E00CDC200F0000E016E025005E00036009089
:10403E000136FF0FFAD7010E005C026E000E01581A
:10404E00036E800E0318006E800E005C02E10450B9
:10405E00025C0DE2050E006ECDC22BF3005005E0A2
:10406E0003012B372B91FF0FFAD703012B07010109
:10407E00FF510301295D06E229510101FF5D030194
:10408E002C6F01D02C6B2CC3FFF12CC33CF395ECA1
:10409E0011F0B7DD000E0201FB1902E1000EFA1954
:1040AE0001E170D0FAC22DF3FBC22EF3CD51030104
:1040BE002C252A6F2A512B5D61E32AC33CF395EC24
:1040CE0011F09FDD000E0201FB1902E1000EFA193C
:1040DE0001E158D0800EFB19006E800E03012E19DF
:1040EE00005C03E12D510201FA5D0BE3340E0C6E00
:1040FE00F10E0D6E0D2EFED70C2EFCD7000000001B
:10410E0080DD800E0201FB19006E800E03012E1958
:10411E00005C03E12D510201FA5D0BE3340E0C6ECF
:10412E00F10E0D6E0D2EFED70C2EFCD700000000EA
:10413E0068DD800E0201FB19006E800E03012E1940
:10414E00005C03E12D510201FA5D12E20201FAC296
:10415E002DF3FBC22EF32AC3FFF1800EFB19006E66
:10416E00800E005C02E1780EFA5D01E207D001D00C
:10417E0005D00201CD5103012A279CD7FFC13CF384
:06418E0095EC11F0120097
:104194000101E751EA03F3CF00F000C029F3005016
:1041A400FE25046E04C02BF3050E026EEAC100F076
:1041B400000E016E025005E0003600900136FF0F3C
:1041C400FAD7010E005C026E000E0158036E800ED9
:1041D4000318006E800E005C02E10450025C0DE2E4
:1041E400050E006EEAC12BF3005005E003012B37E6
:1041F4002B91FF0FFAD703012B070101FE51030195
:10420400295D06E229510101FE5D03012C6F01D0F5
:104214002C6B2CC3FEF12CC33CF338EC12F0F6DC0F
:10422400000E0201FB1902E1000EFA1901E171D03E
:10423400FAC22DF3FBC22EF30101EA5103012C252E
:104244002A6F2A512B5D61E32AC33CF338EC12F048
:10425400DDDC000E0201FB1902E1000EFA1901E196
:1042640058D0800EFB19006E800E03012E19005CDD
:1042740003E12D510201FA5D0BE3340E0C6EF10ED5
:104284000D6E0D2EFED70C2EFCD700000000BEDCF8
:10429400800E0201FB19006E800E03012E19005CD2
:1042A40003E12D510201FA5D0BE3340E0C6EF10EA5
:1042B4000D6E0D2EFED70C2EFCD700000000A6DCE0
:1042C400800E0201FB19006E800E03012E19005CA2
:1042D40003E12D510201FA5D12E20201FAC22DF34B
:1042E400FBC22EF32AC3FEF1800EFB19006E800E72
:1042F400005C02E1780EFA5D01E207D001D005D03E
:104304000101EA5103012A279CD7FEC13CF338EC92
:0443140012F0120091
:10431800FAC223F3FBC224F3C5DD000E0201FB1928
:1043280002E1000EFA1903E194EC19F018D16CDCE3
:10433800800E0201FB19006E800E005C02E1780E0F
:10434800FA5D01E20CD15FDE000E0201FB1902E109
:10435800000EFA1903E194EC19F001D155DC800E36
:104368000201FB19006E800E005C02E1780EFA5D16
:1043780001E2F5D00BDF000E0201FB1902E1000E8D
:10438800FA1903E194EC19F0EAD03EDC800E020140
:10439800FB19006E800E005C02E1780EFA5D01E206
:1043A800DED0800EFB19016E800E015C02E1C80EA2
:1043B800FA5D010ED8B0000E016E800EFB19006E7A
:1043C800800E03012419005C03E123510201FA5D08
:1043D8000201010ED8B0000E006E00500114036EE9
:1043E800FA510301235D016E0201FB5103012459B7
:1043F800026E800E006E800E0218005C02E1015011
:104408006408010ED8B0000E006E0350001601E0DB
:10441800A6D0FAC223F3FBC224F3FFC125F3000E92
:10442800266FFEC127F3000E286F0101FB51010A18
:1044380002E1FB6B02D0010EFB6F94EC19F0FBC19B
:104448003CF32DEC12F0020E0B6E040E0C6EBA0E3D
:104458000D6E0D2EFED70C2EFCD70B2EFAD70000B2
:1044680008EC1EF0800E0201FB19006E800E005C45
:1044780002E1780EFA5D01E272D014DD000E02014D
:10448800FB1902E1000EFA1903E194EC19F067D068
:1044980008EC1EF0800E0201FB19006E800E005C15
:1044A80002E1780EFA5D01E25AD0ADDD000E02019C
:1044B800FB1902E1000EFA1903E194EC19F04FD050
:1044C80008EC1EF0800E0201FB19006E800E005CE5
:1044D80002E1780EFA5D01E242D058DE000E0201D8
:1044E800FB1902E1000EFA1903E194EC19F037D038
:1044F80008EC1EF0800E0201FB19006E800E005CB5
:1045080002E1780EFA5D01E22AD0800E0301241937
:10451800006E800E0201FB19005C03E1FA510301F1
:10452800235D1CE20101FB51010A02E1FB6B02D091
:10453800010EFB6FFBC13CF32DEC12F025C3FFF11C
:1045480027C3FEF125C33CF395EC11F0FEC13CF303
:1045580038EC12F023C3FAF224C3FBF20400120071
:1045680004000101EE6B0201F26BF36B0101E86BD1
:1045780008EC1EF0800E0201FB19006E800E005C34
:1045880002E16E0EFA5D01E2B9D094EC19F0020175
:10459800B851000A02E162EC09F0020E0B6E040E3B
:1045A8000C6EBA0E0D6E0D2EFED70C2EFCD70B2EF0
:1045B800FAD7000008EC1EF0FAC2FCF2FBC2FDF2CA
:1045C800800E0201FB19006E800E005C02E16E0E87
:1045D800FA5D01E293D0800E016E800ED119015C64
:1045E80002E1D0516E08010ED8B0000E016E800EA7
:1045F800D119006E800EFB19005C02E1FA51D05D02
:10460800010ED8B0000E006E0150001601E076D001
:104618007FDE000E0201FB1902E1000EFA1903E128
:1046280094EC19F06BD0800E0201FB19006E800E1D
:10463800005C02E1780EFA5D01E260D001013F51B1
:10464800050A010ED8A4000E016E2A51050A010EB2
:10465800D8A4000E006E0150001601E04FD02A5178
:10466800050806E2CDC24DF1010E0201CD6FCBDC8B
:10467800800E0201FB19006E800E005C02E1780ECC
:10468800FA5D01E23BD001013F51050805E2EAC1AC
:10469800E7F1010EEA6F7ADD01012A51050A04E10A
:1046A800010E0201CD6F17D001012A51060A04E15B
:1046B800020E0201CD6F0FD001012A51070A04E151
:1046C800040E0201CD6F07D001012A51080A03E147
:1046D800080E0201CD6F01013F51050A03E1010EE9
:1046E800EA6F0BD03F51060A03E1020EEA6F05D0CC
:0E46F8003F51070A02E1040EEA6F04001200AF
:104706000EEC00F0E9C278F32BEC00F00301786BB5
:104716002BEC00F0AE0E0301786F2BEC00F00201DB
:10472600E451020A010ED8A4000E016EE451030AF8
:10473600010ED8A4000E006E01500012D8B497D016
:10474600D50E0301786F2BEC00F0800E0301786F15
:104756002BEC00F0A80E0301786F2BEC00F03F0E57
:104766000301786F2BEC00F0D30E0301786F2BEC6E
:1047760000F00201E451020A05E1E7C278F32BECEE
:1047860000F007D00201E7511F0F0301786F2BECF1
:1047960000F0400E0301786F2BEC00F08D0E030144
:1047A600786F2BEC00F0140E0301786F2BEC00F001
:1047B600810E0301786F2BEC00F0B40E0301786FC5
:1047C6002BEC00F0D90E0301786F2BEC00F0220ED3
:1047D6000301786F2BEC00F0200E0301786F2BECB1
:1047E60000F0020E0301786F2BEC00F0210E03019E
:1047F600786F2BEC00F00301786B2BEC00F07F0E4A
:104806000301786F2BEC00F02E0E0301786F2BEC72
:1048160000F00201E451020A0BE1A00E0301786FD9
:104826002BEC00F0C00E0301786F2BEC00F00AD0E1
:10483600A10E0301786F2BEC00F0C80E0301786F10
:104846002BEC00F0DA0E0301786F2BEC00F0020E71
:104856000301786F2BEC00F0DB0E0301786F2BEC75
:1048660000F0400E0301786F2BEC00F08AD0D50ED5
:104876000301786F2BEC00F0800E0301786F2BECB0
:1048860000F0A80E0301786F2BEC00F03F0E030139
:10489600786F2BEC00F0D30E0301786F2BEC00F051
:1048A600E7C278F32BEC00F0400E0301786F2BEC97
:1048B60000F08D0E0301786F2BEC00F0140E03014F
:1048C600786F2BEC00F0810E0301786F2BEC00F073
:1048D600FF0E0301786F2BEC00F0D90E0301786F01
:1048E6002BEC00F0F10E0301786F2BEC00F0200E9C
:1048F6000301786F2BEC00F0020E0301786F2BECAE
:1049060000F0210E0301786F2BEC00F00301786BA9
:104916002BEC00F07F0E0301786F2BEC00F02E0ECF
:104926000301786F2BEC00F00201E451040A0BE15D
:10493600A00E0301786F2BEC00F0C00E0301786F18
:104946002BEC00F00AD0A10E0301786F2BEC00F0DF
:10495600C80E0301786F2BEC00F0DA0E0301786FB6
:104966002BEC00F0120E0301786F2BEC00F0DB0E3F
:104976000301786F2BEC00F0400E0301786F2BECEF
:1049860000F0A40E0301786F2BEC00F0A60E0301D5
:10499600786F2BEC00F0D8EC00F0030E0B6E080ECF
:1049A6000C6E770E0D6E0D2EFED70C2EFCD70B2E31
:1049B600FAD70EEC00F0E9C278F32BEC00F0400ECB
:1049C6000301786F2BEC00F00201E451020A010E9C
:1049D600D8A4000E016EE451030A010ED8A4000EFD
:1049E600006E0150001219E00301226B22510308E8
:1049F60013E322C373F3746B62EC00F00301216BC3
:104A06000301800E215D05E2212B786B2BEC00F073
:104A1600F7D70301222BEAD718D00301226B2251C4
:104A2600070813E322C373F3746B62EC00F003010F
:104A3600216B0301800E215D05E2212B786B2BECA7
:104A460000F0F7D70301222BEAD7D8EC00F0AF0E1F
:0A4A56000301586FDEEC0BF01200B4
:104A6000086A080E0C6E003408360450085ED8B090
:0E4A700002D00826D89000360C2EF5D7120082
:104A7E0021C300F00032009E0032009E0032009EE4
:104A8E000032009E0A0E0002F3CF01F00F0E03015A
:0A4A9E002115006E015000261200E1
:104AA8006E0E0201E06F0F0EE16F5F0EE26F030EF4
:104AB800E36FC26A01016E1D006E0050C116070E39
:084AC800C012C08EC280120072
:104AD000A69C21C3A9FFA69EA680A8CF00F0120025
:104AE00004000201F951040A010ED8A4000E016E5F
:104AF000F951050A010ED8A4000E006E01500012F3
:104B00000EE0020E03015F6F400E606FC00E616F1A
:104B1000000E626F040E636FD3EC07F014D0020135
:104B2000F951000A0EE0010E03015F6F040E606F81
:104B3000BB0E616F000E626F040E636FD3EC07F063
:104B400002D08B8C8B8E10DD0201F951000A01E13D
:104B500011D03951000A010ED8A4000E016EB851CF
:104B6000000A010ED8A4000E006E0150001202E0EF
:104B700062EC09F0FF0E0301346FFEC135F3A6ECC1
:104B800019F0FE0E0301346FFFC135F3A6EC19F0E6
:104B9000FD0E0301346FFBC135F3A6EC19F0FC0EDA
:104BA0000301346F000E046E010E056EFCC200F0AE
:104BB000FDC201F004EC19F000C035F3A6EC19F0C9
:104BC000FB0E0301346F000E046E010E056EFCC275
:104BD00000F0FDC201F004EC19F008C000F009C0BB
:104BE00001F000C035F3A6EC19F0100E0101A66F1C
:104BF000270EA76F100E02018A6F270E8B6FC5EC70
:104C000019F0FAC237F2FBC238F202018C6B010EC6
:064C1000936F0400120086
:104C160004000201F951040A010ED8A4000E016E27
:104C2600F951050A010ED8A4000E006E01500012BB
:104C3600D8B4D2D001012951000AD8A485D00301E5
:104C46005F6B160E606F890E616F000E626F070E46
:104C5600636FD3EC07F0020E03015F6F060E606F01
:104C66005A0E616F000E626F090E636FD3EC07F088
:104C7600040E03015F6F100E606F290E616F000E48
:104C8600626F080E636FD3EC07F0060E03015F6FC9
:104C9600040E606F1E0E616F000E626F0A0E636F68
:104CA600D3EC07F004000D0E0B6E2D0E0C6ED70E16
:104CB6000D6E0D2EFED70C2EFCD70B2EFAD700004C
:104CC600000004000B0E0B6E260E0C6E5D0E0D6EB4
:104CD6000D2EFED70C2EFCD70B2EFAD700000000A7
:104CE600040003015F6B100E606F150E616F000EFE
:104CF600626F080E636FD3EC07F0020E03015F6F5D
:104D0600040E606F320E616F000E626F0A0E636FE3
:104D1600D3EC07F0040E03015F6F100E606F510EA7
:104D2600616F000E626F080E636FD3EC07F0060E1C
:104D360003015F6F040E606F460E616F000E626FB7
:104D46000A0E636FD3EC07F0040E0B6E0C0E0C6E9E
:104D5600330E0D6E0D2EFED70C2EFCD70B2EFAD76A
:104D6600000000000101EC51010A0DE103015F6B37
:104D7600100E606F3D0E616F000E626F080E636F5E
:104D8600D3EC07F00CD003015F6B100E606F940E2E
:104D9600616F000E626F080E636FD3EC07F0020EB0
:104DA60003015F6F100E606FDA0E616F000E626FA7
:104DB600080E636FD3EC07F0020132530CE00301D7
:104DC6005F6B700E606FD80E616F000E626F010E22
:104DD600636FD3EC07F0D5D00201F951000AD8B4BD
:104DE600D0D001012951000AD8A487D003015F6BF6
:104DF600040E606FD00E616F000E626F070E636F58
:104E0600D3EC07F0010E03015F6F030E606FE30E34
:104E1600616F000E626F090E636FD3EC07F004003A
:104E26000F0E0B6E350E0C6E510E0D6E0D2EFED73F
:104E36000C2EFCD70B2EFAD704000B0E0B6E260E8B
:104E46000C6E5D0E0D6E0D2EFED70C2EFCD70B2EA6
:104E5600FAD700000000040003015F6B040E606FC8
:104E6600010E616F010E626F080E636FD3EC07F0DF
:104E7600010E03015F6F030E606FF60E616F000E89
:104E8600626F0A0E636FD3EC07F004000D0E0B6E13
:104E96002D0E0C6ED70E0D6E0D2EFED70C2EFCD7DA
:104EA6000B2EFAD70000000004000B0E0B6E260E28
:104EB6000C6E5D0E0D6E0D2EFED70C2EFCD70B2E36
:104EC600FAD700000000040003015F6B040E606F58
:104ED600ED0E616F000E626F080E636FD3EC07F084
:104EE600010E03015F6F030E606FC50E616F000E4A
:104EF600626F0A0E636FD3EC07F0040E0B6E0C0E96
:104F06000C6E330E0D6E0D2EFED70C2EFCD70B2E0F
:104F1600FAD7000000000101EC51010A0CE103017F
:104F26005F6B606BAF0E616F000E626F080E636F92
:104F3600D3EC07F00BD003015F6B606BA60E616FBD
:104F4600000E626F080E636FD3EC07F0010E0301CB
:104F56005F6F606B9D0E616F000E626F080E636F70
:104F6600D3EC07F0020132530CE003015F6B080E2D
:104F7600606FB80E616F000E626F010E636FD3EC47
:0A4F860007F0040062EC09F01200CD
:104F90000400010E0301216F9BDD00C0F9F2020E37
:104FA000216F96DD0050010A03E1010E0201326F0C
:104FB000030E0301216F8CDD00C021F360DD00C012
:104FC000EEF2000E0201EF6F040E0301216F80DD8F
:104FD00000C021F354DD0A0E0002F3CFF7F2F4CF44
:104FE000F8F2050E216F74DD00C021F348DD0A0ED2
:104FF0000002F3CFF0F2F4CFF1F2060E216F68DD7C
:1050000000C021F33CDD0A0E0002F3CFECF2F4CF36
:10501000EDF2090E216F5CDD00C021F330DD0A0ED8
:105020000002F3CFD0F2F4CFD1F20A0E216F50DD9F
:1050300000C02AF10B0E216F4BDD00C04CF10C0EAD
:10504000216F46DD00C03FF10D0E216F41DD00C034
:10505000E9F10E0E216F3CDD00C0A5F10F0E216FAE
:1050600037DD00C0EBF10400100E216F31DD00C010
:1050700021F305DD640E0002F3CF1FF3F4CF20F31C
:10508000110E216F25DD00C021F3F9DC00501F2532
:10509000156F000E2021166F120E216F19DD00C052
:1050A00021F3EDDC640E0002F3CF1FF3F4CF20F305
:1050B000130E216F0DDD00C021F3E1DC00501F2530
:1050C000136F000E2021146F140E216F01DD00C03C
:1050D00021F3D5DC640E0002F3CF1FF3F4CF20F3ED
:1050E000150E216FF5DC00C021F3C9DC00501F252F
:1050F0001D6F000E20211E6F160E216FE9DC00C00F
:1051000021F3BDDC640E0002F3CF1FF3F4CF20F3D4
:10511000170E216FDDDC00C021F3B1DC00501F252C
:105120001B6F000E20211C6F180E216FD1DC00C0F8
:1051300021F3A5DC640E0002F3CF1FF3F4CF20F3BC
:10514000190E216FC5DC00C021F399DC00501F252A
:10515000196F000E20211A6F1A0E216FB9DC00C0E2
:1051600021F38DDC640E0002F3CF1FF3F4CF20F3A4
:105170001B0E216FADDC00C021F381DC00501F2528
:10518000116F000E2021126F1C0E216FA1DC00C0D8
:1051900021F375DC640E0002F3CF1FF3F4CF20F38C
:1051A0001D0E216F95DC00C021F369DC00501F2526
:1051B0000F6F000E2021106F1E0E216F89DC00C0C2
:1051C00021F35DDC640E0002F3CF1FF3F4CF20F374
:1051D0001F0E216F7DDC00C021F351DC00501F2524
:1051E0000D6F000E20210E6F200E216F71DC00C0AC
:1051F00021F345DC640E0002F3CF1FF3F4CF20F35C
:10520000210E216F65DC00C021F339DC00501F2521
:105210000201D86F000E030120210201D96F220E76
:105220000301216F55DC00C021F329DC640E00026C
:10523000F3CF1FF3F4CF20F3230E216F49DC00C01E
:1052400021F31DDC00501F250201DE6F000E03015B
:1052500020210201DF6F240E0301216F39DC00C021
:1052600021F30DDC640E0002F3CF1FF3F4CF20F323
:10527000250E216F2DDC00C021F301DC00501F251D
:105280000201DC6F000E030120210201DD6F260EFA
:105290000301216F1DDC00C021F33FEC25F0640EFB
:1052A0000002F3CF1FF3F4CF20F3270E216F10DCA1
:1052B00000C021F33FEC25F000501F250201DA6FFA
:1052C000000E030120210201DB6F280E0301216F74
:1052D00068EC25F000C021F33FEC25F0640E0002DD
:1052E000F3CF1FF3F4CF20F3290E216F68EC25F0E4
:1052F00000C021F33FEC25F000501F250201D66FBE
:10530000000E030120210201D76F2A0E0301216F35
:1053100068EC25F000C021F33FEC25F0640E00029C
:10532000F3CF1FF3F4CF20F32B0E216F68EC25F0A1
:1053300000C021F33FEC25F000501F250201D46F7F
:10534000000E030120210201D56F2C0E0301216FF5
:1053500068EC25F000C021F33FEC25F0640E00025C
:10536000F3CF1FF3F4CF20F32D0E216F68EC25F05F
:1053700000C021F33FEC25F000501F250201D26F41
:10538000000E030120210201D36F300E0301216FB3
:1053900068EC25F000C0ECF1310E216F68EC25F0CF
:1053A00000C021F33FEC25F000C0EDF1320E216F7B
:1053B00068EC25F000C021F33FEC25F000C0F8F1C7
:1053C000330E216F68EC25F000C0B8F2340E216F67
:1053D00068EC25F000C021F33FEC25F000C00CF391
:1053E000350E216F68EC25F000C021F33FEC25F06D
:0853F00000C000F204001200ED
:1053F8000201E451010806E2AE0E0301586FDEEC2B
:105408000BF00DD0E451010A0AE1EB6BEA6B0301E2
:10541800696B1FEC03F00301696B1FEC03F01200CA
:10542800810E0301586F0F0E596F5A6B320E5B6F66
:105438005C6B2AEC09F00052D8B496D0060E0B6EBD
:10544800130E0C6EAD0E0D6E0D2EFED70C2EFCD766
:105458000B2EFAD700000000040081A00FD0010134
:10546800FB51000A03E1010EFB6F01D0FB6BFBC18E
:105478003CF32DEC12F062EC09F065D00201895181
:10548800010A02E1896B02D0010E896F8951010A74
:105498002DE1F951040A010ED8A4000E016EF9514C
:1054A800050A010ED8A4000E006E015000120DE08E
:1054B80003015F6B700E606F910E616F020E626F79
:1054C800010E636FD3EC07F010D00201F951000A06
:1054D8000CE003015F6B080E606F8F0E616F020EA8
:1054E800626F010E636FD3EC07F02DD00201F95102
:1054F800040A010ED8A4000E016EF951050A010E26
:10550800D8A4000E006E015000120DE003015F6B7D
:10551800700E606F8D0E616F020E626F010E636F09
:10552800D3EC07F010D00201F951000A0CE0030196
:105538005F6B080E606FCE0E616F020E626F010E18
:10554800636FD3EC07F0810E0301586F0F0E596F8C
:105558005A6B320E5B6F5C6B2AEC09F0005204E068
:10556800C5EC19F00400EFD7810E0301586F0F0E38
:10557800596F020E5A6F320E5B6F5C6B2AEC09F0A2
:1055880000526BE0040081B468D0050E026ECDC2F3
:1055980000F0000E016E025005E000360090013662
:1055A800FF0FFAD7010E005C026E000E0158036E61
:1055B800800E006E800E0318005C03E102500101AA
:1055C800FF5D010ED8B0000E006E02018951001671
:1055D80007E00101FF2BFFC13CF395EC11F02FD040
:1055E80002018953010ED8A4000E046E050E026E46
:1055F800CDC200F0000E016E025005E000360090AA
:105608000136FF0FFAD7010E005C026E000E01583A
:10561800036E800E006E800E0318005C03E10250DA
:105628000101FE5D010ED8B0000E006E0450001698
:1056380006E00101FE2BFEC13CF338EC12F062ECEF
:1056480009F0C5EC19F09C0E0C6ED70E0D6E0D2EE0
:10565800FED70C2EFCD7040096D7810E0301586F95
:105668000F0E596F010E5A6F320E5B6F5C6B2AEC8E
:1056780009F00201CC51000A010ED8A4000E016EF7
:105688000150001638E0040081B235D00101FF5105
:105698000008010ED8B0000E006E020189510016F4
:1056A80007E00101FF07FFC13CF395EC11F015D0AD
:1056B80002018953010ED8A4000E016E0101FE51AA
:1056C8000008010ED8B0000E006E0150001605E06B
:1056D800FE07FEC13CF338EC12F062EC09F0C5ECB1
:1056E80019F09C0E0C6ED70E0D6E0D2EFED70C2EDB
:0856F800FCD70400C9D7120021
:105700000900F5CFE6FF0006FBE10106F9E1120012
:10571000070EB46E600ED36E9B8C806A816A826ABB
:10572000896A8A6A8B6AFF0E926EFF0E936EFF0E75
:10573000946E92949298938054EC25F00D0EC16E65
:06574000F19EF29E120032
:105746000201F951040A010ED8A4000E016EF951A6
:10575600050A010ED8A4000E006E015000120DE0DD
:1057660003015F6B0A0E606F420E616F010E626F7E
:10577600090E636FD3EC07F010D00201F951000A4D
:105786000CE003015F6B030E606F4E0E616F010E3E
:10579600626F090E636FD3EC07F004000B0E0B6EFD
:1057A600260E0C6E5D0E0D6E0D2EFED70C2EFCD742
:1057B6000B2EFAD70000000004000B0E0B6E260E0F
:1057C6000C6E5D0E0D6E0D2EFED70C2EFCD70B2E1D
:1057D600FAD70000000004000B0E0B6E260E0C6EAE
:1057E6005D0E0D6E0D2EFED70C2EFCD70B2EFAD7A6
:1057F6000000000004000B0E0B6E260E0C6E5D0EF4
:105806000D6E0D2EFED70C2EFCD70B2EFAD70000F0
:10581600000004000201F951040A010ED8A4000E8A
:10582600016EF951050A010ED8A4000E006E015052
:1058360000120DE003015F6B0A0E606F640E616F6C
:10584600010E626F090E636FD3EC07F010D00201F0
:10585600F951000A0CE003015F6B030E606F5A0EEC
:10586600616F010E626F090E636FD3EC07F094EC63
:1058760019F0010E0101FB6F010E03013C6F2DECC7
:1058860012F0FF0E346FFEC135F3A6EC19F0FE0ED2
:105896000301346FFFC135F3A6EC19F0FD0E0301C9
:1058A600346FFBC135F3A6EC19F00201F951040A75
:1058B600010ED8A4000E016EF951050A010ED8A4F6
:1058C600000E006E015000120DE003015F6B700EBA
:1058D600606F580E616F010E626F010E636FD3EC3D
:1058E60007F010D00201F951000A0CE003015F6BCA
:1058F600080E606F400E616F010E626F010E636FDE
:10590600D3EC07F0010E0101296F0BEC26F0120013
:105916000CC35FF3000E0301606F050E616F030E8B
:10592600626F4EEC08F00A0E0C5D03E309C3FEF24B
:1059360003D0300E0201FE6F02012E0EFF6F0AC366
:1059460000F3F951040A010ED8A4000E016EF951B4
:10595600050A010ED8A4000E006E015000120EE0DA
:10596600040E03015F6F060E606FFE0E616F020E7E
:10597600626F030E636FD3EC07F010D00201F9518A
:10598600000A0CE0010E03015F6F606BFE0E616F93
:0E599600020E626F030E636FD3EC07F0120077
:1059A4000301206B1F5109081DE20A0E046E1FC378
:1059B40000F030EC25F000C020F300C020F32037C5
:1059C40020912037209120372091203720910A0EF2
:1059D400046E1FC300F030EC25F008C000F0005046
:0E59E400201302D01FC320F320C300F01200D6
:1059F2000201F4B102D0048001D00490810E0301AF
:105A0200586F0F0E596F5A6B320E5B6F010E5C6F3F
:105A12002AEC09F0016A04B0012A0150001602E0E2
:105A22000201F4810201F4B102D0048001D0049099
:105A3200810E0301586F0F0E596F5A6B320E5B6F56
