:1000000037EF01F00000000000EF00F000000000FA
:0A0010000000000000000000F3D71C
:0A001C00030E0D6E0D2EFED712002C
:06002600949E8B9E120067
:04002C00948E12009C
:04003000948C12009A
:06003400949C8B9C12005D
:0E003A00F8DFF9DFEEDFF2DFECDFF7DF1200B8
:0E004800EEDFE8DFF1DFE6DFEDDFE4DF1200E0
:100056001E6A080E1E5C0DE21DAE02D0E4DF01D062
:10006600DFDFD9DFE2DFD7DFE2DF1D361D901E2A94
:0E007600F0D7D9DFD0DFD9DFCEDFD9DF12001F
:10008400DADF780E1D6EE5DF1D6AE3DF1CC01DF0AC
:06009400E0DFD8DF1200DE
:10009A00B00E1A101C6EF1DF0F0E1B141C6EEDDF72
:1000AA001BC000F00032009E0032009E0032009E0B
:0E00BA000032009E100E00101C6EDFDF1200E0
:1000C800B8DF780E1D6EC3DF400E1D6EC0DF1AC08C
:0800D8001DF0BDDFB5DF1200D1
:1000E000186A080E185C0FE218C01AF01B6AD5DFF8
:1000F000196A800E195C05E217C01AF0E5DF192AAB
:08010000F8D7182AEED712000F
:10010800AE0E1C6EBBDFD50E1C6EB8DF800E1C6EEB
:10011800B5DFA80E1C6EB2DF3F0E1C6EAFDFD30E2C
:100128001C6EACDF1C6AAADF400E1C6EA7DF8D0EAA
:100138001C6EA4DF140E1C6EA1DF200E1C6E9EDF49
:100148001C6A9CDFA10E1C6E99DFC80E1C6E96DF20
:10015800DA0E1C6E93DF120E1C6E90DF810E1C6E81
:100168008DDF7F0E1C6E8ADFD90E1C6E87DFF10EC5
:100178001C6E84DFDB0E1C6E81DF400E1C6E7EDF82
:10018800A40E1C6E7BDFA60E1C6E78DFAF0E1C6EF5
:0401980075DF1200FD
:0A019C008B9C8B9E47DF44DF1200AE
:1001A6000900F5CFE6FF0006FBE10106F9E11200C2
:1001B600FF0E176E92DF0B0E0B6E260E0C6E5D0E8B
:1001C6000D6E0D2EFED70C2EFCD70B2EFAD7000087
:1001D6000000176A82DF060E0B6E130E0C6EAD0E54
:1001E6000D6E0D2EFED70C2EFCD70B2EFAD7000067
:1001F6000000AA0E176E71DF0B0E0B6E260E0C6E2C
:100206005D0E0D6E0D2EFED70C2EFCD70B2EFAD7DB
:1002160000000000550E176E60DF0B0E0B6E260EEB
:100226000C6E5D0E0D6E0D2EFED70C2EFCD70B2E12
:10023600FAD700000000156A080E155C14E215C016
:100246001AF01B6A27DF166A800E165C0AE216A0F1
:1002560004D0FF0E1A6E35DF02D01A6A32DF162A74
:08026600F3D7152AE9D71200B5
:10026E00700ED36E0F0EC16E070EB46E92948994FB
:10027E00948C948E8CDF41DF97DF8984060E0B6E93
:10028E00130E0C6EAD0E0D6E0D2EFED70C2EFCD772
:10029E000B2EFAD7000000008994060E0B6E130E7B
:1002AE000C6EAD0E0D6E0D2EFED70C2EFCD70B2E3A
:0A02BE00FAD700000000E1D7FFD7D7
:020000040030CA
:0D000100081A10FF0181FF0FC00FE0004042
:0200000400F00A
:100000004E01001513050001020007000700010062
:100010000050011002200450100022004500FFFF94
:100020000010002200470100022004701000FFFFB2
:10003000001000010000FFFFFFFFFFFFFFFFFFFFB9
:10004000FFFFFFFFFFFFFFFFFFFFFFFFFFFFFFFFC0
:10005000FFFFFFFFFFFFFFFFFFFFFFFFFFFFFFFFB0
:10006000FFFFFFFFFFFFFFFFFFFFFFFFFFFFFFFFA0
:10007000FFFFFFFFFFFFFFFFFFFFFFFFFFFFFFFF90
:10008000FFFFFFFFFFFFFFFFFFFFFFFFFFFFFFFF80
:10009000FFFFFFFFFFFFFFFFFFFFFFFFFFFFFFFF70
:1000A000FFFFFFFFFFFFFFFFFFFFFFFFFFFFFFFF60
:1000B000FFFFFFFFFFFFFFFFFFFFFFFFFFFFFFFF50
:1000C000FFFFFFFFFFFFFFFFFFFFFFFFFFFFFFFF40
:1000D000FFFFFFFFFFFFFFFFFFFFFFFFFFFFFFFF30
:1000E000FFFFFFFFFFFFFFFFFFFFFFFFFFFFFFFF20
:1000F000FFFFFFFFFFFFFFFFFFFFFFFFFF0100000C
:00000001FF

