:1000000016EF00F00000000000EF00F0000000001C
:0A0010000000000000000000F3D71C
:10001C000900F5CFE6FF0006FBE10106F9E112004D
:10002C000F0EC16EAB6AAC6A946A8B6A8B6A0B0E4C
:10003C000B6E260E0C6E5D0E0D6E0D2EFED70C2E5D
:10004C00FCD70B2EFAD700000000FF0E8B6E0B0EA8
:10005C000B6E260E0C6E5D0E0D6E0D2EFED70C2E3D
:0E006C00FCD70B2EFAD700000000E0D7FFD71C
:020000040030CA
:0D000100081A11FF0181FF0FC00FE0004041
:0200000400F00A
:100000004E01001513050001020007000700010062
:100010000050011002200450100022004500FFFF94
:100020000010002200470100022004701000FFFFB2
:10003000001000010000FFFFFFFFFFFFFFFFFFFFB9
:10004000FFFFFFFFFFFFFFFFFFFFFFFFFFFFFFFFC0
:10005000FFFFFFFFFFFFFFFFFFFFFFFFFFFFFFFFB0
:10006000FFFFFFFFFFFFFFFFFFFFFFFFFFFFFFFFA0
:10007000FFFFFFFFFFFFFFFFFFFFFFFFFFFFFFFF90
:10008000FFFFFFFFFFFFFFFFFFFFFFFFFFFFFFFF80
:10009000FFFFFFFFFFFFFFFFFFFFFFFFFFFFFFFF70
:1000A000FFFFFFFFFFFFFFFFFFFFFFFFFFFFFFFF60
:1000B000FFFFFFFFFFFFFFFFFFFFFFFFFFFFFFFF50
:1000C000FFFFFFFFFFFFFFFFFFFFFFFFFFFFFFFF40
:1000D000FFFFFFFFFFFFFFFFFFFFFFFFFFFFFFFF30
:1000E000FFFFFFFFFFFFFFFFFFFFFFFFFFFFFFFF20
:1000F000FFFFFFFFFFFFFFFFFFFFFFFFFF0100000C
:00000001FF

