:100000005BEF00F00000000000EF00F000000000D7
:0A0010000000000000000000F3D71C
:0C001C00060E0D6E0D2EFED70000120027
:06002800939E8A9E120067
:04002E00938E12009B
:04003200938C120099
:06003600939C8A9C12005D
:10003C00176A080E175C0DE216AE02D0F2DF01D083
:10004C00EDDFE6DFF0DFE4DFF0DF16361690172A7F
:0E005C00F0D7E7DFDDDFE7DFDBDFE7DF1200F5
:0E006A00E1DFE2DFD6DFDBDFD4DFE0DF120014
:0E007800D7DFD0DFDADFCEDFD6DFCCDF12003D
:0A0086008A9C8A9ED3DFD0DF1200AF
:10009000ECDF780E166ED2DF166AD0DF15C016F0D0
:0600A000CDDFEADF1200D3
:1000A6000900F5CFE6FF0006FBE10106F9E11200C3
:1000B6000F0EC16E92948994938C938EE1DFAE0EEF
:1000C600156EE3DFA50E156EE0DFAF0E156EDDDFF4
:1000D60089840B0E0B6E260E0C6E5D0E0D6E0D2EAC
:1000E600FED70C2EFCD70B2EFAD700000000899401
:1000F6000B0E0B6E260E0C6E5D0E0D6E0D2EFED7C4
:100106000C2EFCD70B2EFAD700000000E1D7FFD744
:020000040030CA
:0D000100081A11FF0181FF0FC00FE0004041
:0200000400F00A
:100000004E01001513050001020007000700010062
:100010000050011002200450100022004500FFFF94
:100020000010002200470100022004701000FFFFB2
:10003000001000010000FFFFFFFFFFFFFFFFFFFFB9
:10004000FFFFFFFFFFFFFFFFFFFFFFFFFFFFFFFFC0
:10005000FFFFFFFFFFFFFFFFFFFFFFFFFFFFFFFFB0
:10006000FFFFFFFFFFFFFFFFFFFFFFFFFFFFFFFFA0
:10007000FFFFFFFFFFFFFFFFFFFFFFFFFFFFFFFF90
:10008000FFFFFFFFFFFFFFFFFFFFFFFFFFFFFFFF80
:10009000FFFFFFFFFFFFFFFFFFFFFFFFFFFFFFFF70
:1000A000FFFFFFFFFFFFFFFFFFFFFFFFFFFFFFFF60
:1000B000FFFFFFFFFFFFFFFFFFFFFFFFFFFFFFFF50
:1000C000FFFFFFFFFFFFFFFFFFFFFFFFFFFFFFFF40
:1000D000FFFFFFFFFFFFFFFFFFFFFFFFFFFFFFFF30
:1000E000FFFFFFFFFFFFFFFFFFFFFFFFFFFFFFFF20
:1000F000FFFFFFFFFFFFFFFFFFFFFFFFFF0100000C
:00000001FF

